:020000040800F2
:1000000000500020F1940008399500083995000847
:10001000399500083995000839950008000000005E
:1000200000000000000000000000000039950008FA
:10003000399500080000000039950008A544000823
:100040003995000839950008399500083995000858
:100050003995000839950008399500083995000848
:100060003995000839950008399500083995000838
:100070003995000839950008655400087154000846
:100080003995000839950008399500083995000818
:100090003995000839950008399500083995000808
:1000A00039950008399500083995000839950008F8
:1000B000A9440008399500083995000839950008C9
:1000C00039950008399500083995000839950008D8
:1000D00039950008D5530008399500080D540008DB
:1000E000399500083995000839950008000000008E
:1000F0000000000000000000000000000000000000
:0C01000000000000000000005FF808F1A3
:1001100010B5054C237833B9044B13B10448AFF341
:1001200000800123237010BD680200200000000041
:100130004895000808B5034B1BB103490348AFF3CA
:10014000008008BD000000006C02002048950008F7
:1001500010F8012B11F8013B012A28BF9A42F7D071
:10016000D01A7047034613F8012B002AFBD1181A46
:100170000138704781F0004102E000BF83F0004386
:1001800030B54FEA41044FEA430594EA050F08BF32
:1001900090EA020F1FBF54EA000C55EA020C7FEAF6
:1001A000645C7FEA655C00F0E2804FEA5454D4EB73
:1001B0005555B8BF6D420CDD2C4480EA020281EA3D
:1001C000030382EA000083EA010180EA020281EA75
:1001D0000303362D88BF30BD11F0004F4FEA0131C7
:1001E0004FF4801C4CEA113102D0404261EB4101D6
:1001F00013F0004F4FEA03334CEA133302D052425C
:1002000063EB430394EA050F00F0A780A4F1010417
:10021000D5F1200E0DDB02FA0EFC22FA05F2801851
:1002200041F1000103FA0EF2801843FA05F3594137
:100230000EE0A5F120050EF1200E012A03FA0EFCB6
:1002400028BF4CF0020C43FA05F3C01851EBE371E0
:1002500001F0004507D54FF0000EDCF1000C7EEBFD
:1002600000006EEB0101B1F5801F1BD3B1F5001F3B
:100270000CD349085FEA30004FEA3C0C04F101045A
:100280004FEA445212F5800F80F09A80BCF1004F83
:1002900008BF5FEA500C50F1000041EB045141EA05
:1002A000050130BD5FEA4C0C404141EB010111F406
:1002B000801FA4F10104E9D191F0000F04BF0146B1
:1002C0000020B1FA81F308BF2033A3F10B03B3F18F
:1002D00020020CDA0C3208DD02F1140CC2F10C021F
:1002E00001FA0CF021FA02F10CE002F11402D8BF7D
:1002F000C2F1200C01FA02F120FA0CFCDCBF41EA49
:100300000C019040E41AA2BF01EB0451294330BD17
:100310006FEA04041F3C1CDA0C340EDC04F11404F4
:10032000C4F1200220FA04F001FA02F340EA0300CB
:1003300021FA04F345EA030130BDC4F10C04C4F111
:10034000200220FA02F001FA04F340EA03002946F1
:1003500030BD21FA04F0294630BD94F0000F83F43B
:10036000801306BF81F480110134013D4EE77FEA1E
:10037000645C18BF7FEA655C29D094EA050F08BF6A
:1003800090EA020F05D054EA000C04BF194610464B
:1003900030BD91EA030F1EBF0021002030BD5FEA8F
:1003A000545C05D14000494128BF41F0004130BDB7
:1003B00014F580043CBF01F5801130BD01F000450B
:1003C00045F0FE4141F470014FF0000030BD7FEA7E
:1003D000645C1ABF194610467FEA655C1CBF0B4679
:1003E000024650EA013406BF52EA033591EA030F90
:1003F00041F4002130BD00BF90F0000F04BF002188
:10040000704730B54FF4806404F132044FF00005BA
:100410004FF0000150E700BF90F0000F04BF002133
:10042000704730B54FF4806404F1320410F0004599
:1004300048BF40424FF000013EE700BF42004FEA94
:10044000E2014FEA31014FEA02701FBF12F07F4311
:1004500093F07F4F81F06051704732F07F4208BFC8
:10046000704793F07F4F04BF41F40021704730B5CF
:100470004FF4607401F0004521F000411CE700BF1B
:1004800050EA010208BF704730B54FF000050AE09E
:1004900050EA010208BF704730B511F0004502D59F
:1004A000404261EB41014FF4806404F132045FEAA1
:1004B000915C3FF4D8AE4FF003025FEADC0C18BF4A
:1004C00003325FEADC0C18BF033202EBDC02C2F13C
:1004D000200300FA03FC20FA02F001FA03FE40EACE
:1004E0000E0021FA02F11444BDE600BF70B54FF0D2
:1004F000FF0C4CF4E06C1CEA11541DBF1CEA1355B0
:1005000094EA0C0F95EA0C0F00F0DEF82C4481EA17
:10051000030621EA4C5123EA4C5350EA013518BF37
:1005200052EA033541F4801143F4801338D0A0FB24
:1005300002CE4FF00005E1FB02E506F00042E0FBD1
:1005400003E54FF00006E1FB03569CF0000F18BFD7
:100550004EF0010EA4F1FF04B6F5007F64F540747F
:1005600004D25FEA4E0E6D4146EB060642EAC62112
:1005700041EA55514FEAC52040EA5E504FEACE2E7F
:10058000B4F1FD0C88BFBCF5E06F1ED8BEF1004F82
:1005900008BF5FEA500E50F1000041EB045170BDFE
:1005A00006F0004646EA010140EA020081EA030142
:1005B000B4EB5C04C2BFD4EB0C0541EA045170BD3E
:1005C00041F480114FF0000E013C00F3AB8014F1B8
:1005D000360FDEBF002001F0004170BDC4F1000401
:1005E000203C35DA0C341BDC04F11404C4F1200582
:1005F00000FA05F320FA04F001FA05F240EA0200DD
:1006000001F0004221F0004110EBD37021FA04F612
:1006100042EB06015EEA430E08BF20EAD37070BDCC
:10062000C4F10C04C4F1200500FA04F320FA05F02B
:1006300001FA04F240EA020001F0004110EBD3702D
:1006400041F100015EEA430E08BF20EAD37070BD9D
:10065000C4F1200500FA05F24EEA020E20FA04F376
:1006600001FA05F243EA020321FA04F001F0004125
:1006700021FA04F220EA020000EBD3705EEA430E96
:1006800008BF20EAD37070BD94F0000F0FD101F0C5
:100690000046400041EB010111F4801F08BF013CFE
:1006A000F7D041EA060195F0000F18BF704703F03C
:1006B0000046520043EB030313F4801F08BF013DC3
:1006C000F7D043EA0603704794EA0C0F0CEA13557F
:1006D00018BF95EA0C0F0CD050EA410618BF52EA39
:1006E0004306D1D181EA030101F000414FF000003F
:1006F00070BD50EA410606BF1046194652EA43064D
:1007000019D094EA0C0F02D150EA013613D195EAC0
:100710000C0F05D152EA03361CBF104619460AD108
:1007200081EA030101F0004141F0FE4141F4700112
:100730004FF0000070BD41F0FE4141F4780170BD02
:1007400070B54FF0FF0C4CF4E06C1CEA11541DBF67
:100750001CEA135594EA0C0F95EA0C0F00F0A7F869
:10076000A4EB050481EA030E52EA03354FEA013196
:1007700000F088804FEA03334FF0805545EA1313A9
:1007800043EA12634FEA022245EA111545EA106571
:100790004FEA00260EF000419D4208BF964244F108
:1007A000FD0404F5407402D25B084FEA3202B61A27
:1007B00065EB03055B084FEA32024FF480104FF4FB
:1007C000002CB6EB020E75EB030E22BFB61A75466F
:1007D00040EA0C005B084FEA3202B6EB020E75EB02
:1007E000030E22BFB61A754640EA5C005B084FEA6A
:1007F0003202B6EB020E75EB030E22BFB61A754637
:1008000040EA9C005B084FEA3202B6EB020E75EB41
:10081000030E22BFB61A754640EADC0055EA060E02
:1008200018D04FEA051545EA16754FEA06164FEA45
:10083000C30343EA52734FEAC2025FEA1C1CC0D1F1
:1008400011F4801F0BD141EA00014FF000004FF07E
:10085000004CB6E711F4801F04BF01430020B4F13F
:10086000FD0C88BFBCF5E06F3FF6AFAEB5EB030CF7
:1008700004BFB6EB020C5FEA500C50F1000041EBF4
:10088000045170BD0EF0004E4EEA113114EB5C04C1
:10089000C2BFD4EB0C0541EA045170BD41F4801194
:1008A0004FF0000E013C90E645EA060E8DE60CEA9C
:1008B000135594EA0C0F08BF95EA0C0F3FF43BAFB9
:1008C00094EA0C0F0AD150EA01347FF434AF95EA70
:1008D0000C0F7FF425AF104619462CE795EA0C0F54
:1008E00006D152EA03353FF4FDAE1046194622E721
:1008F00050EA410618BF52EA43067FF4C5AE50EAFB
:1009000041047FF40DAF52EA43057FF4EBAE12E7EA
:100910004FF0FF3C06E000BF4FF0010C02E000BFCB
:100920004FF0010C4DF804CD4FEA410C7FEA6C5CAE
:100930004FEA430C18BF7FEA6C5C1BD001B050EA51
:10094000410C0CBF52EA430C91EA030F02BF90EA3C
:10095000020F0020704710F1000F91EA030F58BFFB
:10096000994208BF90422CBFD8176FEAE37040F05D
:10097000010070474FEA410C7FEA6C5C02D150EAFB
:10098000013C07D14FEA430C7FEA6C5CD6D152EAB6
:10099000033CD3D05DF8040B704700BF844610467B
:1009A00062468C461946634600E000BF01B5FFF77A
:1009B000B7FF002848BF10F1000F01BD4DF808ED4A
:1009C000FFF7F4FF0CBF012000205DF808FB00BF1B
:1009D0004DF808EDFFF7EAFF34BF012000205DF875
:1009E00008FB00BF4DF808EDFFF7E0FF94BF0120C2
:1009F00000205DF808FB00BF4DF808EDFFF7CEFFC3
:100A000094BF012000205DF808FB00BF4DF808ED01
:100A1000FFF7C4FF34BF012000205DF808FB00BFD2
:100A20004FEA410C7FEA6C5C02D150EA013C0AD1EA
:100A30004FEA430C7FEA6C5C02D152EA033C02D1DC
:100A40004FF0000070474FF0010070474FEA41023D
:100A500012F5001215D211D56FF47873B3EB625210
:100A600012D94FEAC12343F0004343EA505311F037
:100A7000004F23FA02F018BF404270474FF00000C9
:100A8000704750EA013005D111F0004008BF6FF007
:100A9000004070474FF00000704700BF4A0011D27D
:100AA00012F5001211D20DD56FF47873B3EB6252C8
:100AB0000ED44FEAC12343F0004343EA505323FAD4
:100AC00002F070474FF00000704750EA013002D149
:100AD0004FF0FF3070474FF0000070474FEA41027F
:100AE000B2F1E04324BFB3F5001CDCF1FE5C0DD98C
:100AF00001F0004C4FEAC0024CEA5070B2F1004FD6
:100B000040EB830008BF20F00100704711F0804FD8
:100B100021D113F13872BCBF01F00040704741F49D
:100B200080114FEA5252C2F11802C2F1200C10FAA1
:100B30000CF320FA02F018BF40F001004FEAC12385
:100B40004FEAD32303FA0CFC40EA0C0023FA02F329
:100B50004FEA4303CCE77FEA625307D150EA0133FF
:100B60001EBF4FF0FE4040F44000704701F00040CF
:100B700040F0FE4040F40000704700BF80F00040AD
:100B800002E000BF81F0004142001FBF5FEA410365
:100B900092EA030F7FEA226C7FEA236C6AD04FEA65
:100BA0001262D2EB1363C1BFD218414048404140AA
:100BB000B8BF5B42192B88BF704710F0004F40F45C
:100BC000000020F07F4018BF404211F0004F41F478
:100BD000000121F07F4118BF494292EA030F3FD044
:100BE000A2F1010241FA03FC10EB0C00C3F1200357
:100BF00001FA03F100F0004302D5494260EB4000E6
:100C0000B0F5000F13D3B0F1807F06D340084FEA50
:100C1000310102F10102FE2A51D2B1F1004F40EB45
:100C2000C25008BF20F0010040EA030070474900AD
:100C300040EB000010F4000FA2F10102EDD1B0FA78
:100C400080FCACF1080CB2EB0C0200FA0CF0AABF6D
:100C500000EBC25052421843BCBFD040184370470B
:100C600092F0000F81F4000106BF80F40000013211
:100C7000013BB5E74FEA41037FEA226C18BF7FEAE8
:100C8000236C21D092EA030F04D092F0000F08BF2A
:100C90000846704790EA010F1CBF0020704712F011
:100CA0007F4F04D1400028BF40F00040704712F150
:100CB00000723CBF00F50000704700F0004343F0B5
:100CC000FE4040F4000070477FEA226216BF0846EB
:100CD0007FEA23630146420206BF5FEA412390EAAE
:100CE000010F40F4800070474FF0000304E000BFA4
:100CF00010F0004348BF40425FEA000C08BF704755
:100D000043F0964301464FF000001CE050EA010218
:100D100008BF70474FF000030AE000BF50EA01022D
:100D200008BF704711F0004302D5404261EB41011A
:100D30005FEA010C02BF84460146002043F0B6433F
:100D400008BFA3F18053A3F50003BCFA8CF2083A64
:100D5000A3EBC25310DB01FA02FC634400FA02FC6D
:100D6000C2F12002BCF1004F20FA02F243EB020074
:100D700008BF20F00100704702F1200201FA02FCD6
:100D8000C2F1200250EA4C0021FA02F243EB0200C9
:100D900008BF20EADC7070474FF0FF0C1CEAD0520D
:100DA0001EBF1CEAD15392EA0C0F93EA0C0F6FD0CE
:100DB0001A4480EA010C400218BF5FEA41211ED0AC
:100DC0004FF0006343EA501043EA5111A0FB013198
:100DD0000CF00040B1F5000F3EBF490041EAD3716D
:100DE0005B0040EA010062F17F02FD2A1DD8B3F1E9
:100DF000004F40EBC25008BF20F00100704790F058
:100E0000000F0CF0004C08BF49024CEA502040EAA9
:100E100051207F3AC2BFD2F1FF0340EAC25070476F
:100E200040F400004FF00003013A5DDC12F1190FAD
:100E3000DCBF00F000407047C2F10002410021FA1F
:100E400002F1C2F1200200FA02FC5FEA310040F137
:100E5000000053EA4C0308BF20EADC70704792F0B0
:100E6000000F00F0004C02BF400010F4000F013AE8
:100E7000F9D040EA0C0093F0000F01F0004C02BFE3
:100E8000490011F4000F013BF9D041EA0C018FE752
:100E90000CEAD15392EA0C0F18BF93EA0C0F0AD058
:100EA00030F0004C18BF31F0004CD8D180EA01007E
:100EB00000F00040704790F0000F17BF90F0004F17
:100EC000084691F0000F91F0004F14D092EA0C0FF9
:100ED00001D142020FD193EA0C0F03D14B0218BF8C
:100EE000084608D180EA010000F0004040F0FE40D2
:100EF00040F40000704740F0FE4040F4400070476E
:100F00004FF0FF0C1CEAD0521EBF1CEAD15392EAEC
:100F10000C0F93EA0C0F69D0A2EB030280EA010CDC
:100F200049024FEA402037D04FF0805343EA111175
:100F300043EA10130CF000408B4238BF5B0042F1D3
:100F40007D024FF4000C8B4224BF5B1A40EA0C0078
:100F5000B3EB510F24BFA3EB510340EA5C00B3EBAA
:100F6000910F24BFA3EB910340EA9C00B3EBD10F98
:100F700024BFA3EBD10340EADC001B0118BF5FEAEA
:100F80001C1CE0D1FD2A3FF650AF8B4240EBC25013
:100F900008BF20F0010070470CF0004C4CEA5020D4
:100FA0007F32C2BFD2F1FF0340EAC250704740F423
:100FB00000004FF00003013A37E792F0000F00F015
:100FC000004C02BF400010F4000F013AF9D040EA93
:100FD0000C0093F0000F01F0004C02BF490011F427
:100FE000000F013BF9D041EA0C0195E70CEAD1531F
:100FF00092EA0C0F08D142027FF47DAF93EA0C0F06
:101000007FF470AF084676E793EA0C0F04D14B02E9
:101010003FF44CAF08466EE730F0004C18BF31F09B
:10102000004CCAD130F000427FF45CAF31F0004395
:101030007FF43CAF5FE700BF4FF0FF3C06E000BF2E
:101040004FF0010C02E000BF4FF0010C4DF804CD51
:101050004FEA40024FEA41037FEA226C18BF7FEA61
:10106000236C11D001B052EA530C18BF90EA010F63
:1010700058BFB2EB030088BFC81738BF6FEAE170F2
:1010800018BF40F0010070477FEA226C02D15FEA8E
:10109000402C05D17FEA236CE4D15FEA412CE1D0FA
:1010A0005DF8040B704700BF844608466146FFE7C1
:1010B0000FB5FFF7C9FF002848BF10F1000F0FBDA3
:1010C0004DF808EDFFF7F4FF0CBF012000205DF89C
:1010D00008FB00BF4DF808EDFFF7EAFF34BF012021
:1010E00000205DF808FB00BF4DF808EDFFF7E0FFBA
:1010F00094BF012000205DF808FB00BF4DF808ED0B
:10110000FFF7D2FF94BF012000205DF808FB00BF6D
:101110004DF808EDFFF7C8FF34BF012000205DF84F
:1011200008FB00BF4FEA40024FEA41037FEA226C0E
:1011300002D15FEA402C08D17FEA236C02D15FEA3A
:10114000412C02D14FF0000070474FF00100704772
:101150004FEA4002B2F1FE4F0FD34FF09E03B3EBC4
:1011600012620DD94FEA002343F0004310F0004F04
:1011700023FA02F018BF404270474FF0000070475A
:1011800012F1610F01D1420205D110F0004008BFF9
:101190006FF0004070474FF00000704742000ED2E1
:1011A000B2F1FE4F0BD34FF09E03B3EB126209D4A2
:1011B0004FEA002343F0004323FA02F070474FF058
:1011C0000000704712F1610F01D1420202D14FF0CD
:1011D000FF3070474FF00000704700BF70470000BD
:1011E00038B50E4B054618784FF47A73B3FBF0F31D
:1011F0000B4A1068B0FBF3F000F0A2F8044658B9AF
:101200000F2D09D8024629464FF0FF3000F042F872
:101210002046044B1D6038BD0120FCE70000002083
:101220006002002004000020074A08B5136803206C
:1012300043F01003136000F01BF80F20FFF7D0FFFE
:10124000FFF7CCFF002008BD00200240034A044BFA
:1012500011681B780B441360704700BF540B0020CB
:1012600000000020014B1868704700BF540B00209D
:10127000074A0002D36800F4E06023F4E0631B0433
:101280001B0C43F0BF6343F400330343D360704748
:1012900000ED00E0174B70B5DC684FF0FF36C4F38B
:1012A0000224C4F10705042D04F1040328BF04251A
:1012B000062B98BF002406FA05F388BF033C21EAF9
:1012C0000303A34006FA04F422EA0404002843EAD4
:1012D0000403A8BF00F160404FEA0313B8BF064AF9
:1012E000DBB2ABBF00F5614000F00F0080F80033C7
:1012F000135470BD00ED00E014ED00E0002808DBA1
:101300000123420900F01F0003FA00F0014B43F8EB
:101310002200704700E100E000280DDB01224309B4
:1013200000F01F0002FA00F0044A203342F82300C4
:10133000BFF34F8FBFF36F8F704700BF00E100E036
:101340000138B0F1807F0AD2F021064B064A58607E
:1013500082F823100020072298601A60704701204D
:10136000704700BF10E000E000ED00E010B548B3AA
:1013700014220168144B0B44B3FBF2F39B0003648B
:10138000124BC363022380F82130D0E90134234398
:10139000C4680A682343046922F47F5223434469E2
:1013A00022F03002234384692343C4692343134357
:1013B0000B6001220023836380F8203080F8212015
:1013C000184610BD0120FCE7F8FFFDBF00000240F9
:1013D00010B508B30168114A0B680A4423F00103F1
:1013E0000B6000230B604B608B60CB601421B2FB61
:1013F000F1F2012192000A4C026401FA02F2C46384
:1014000062608363C0E90A33C0E90C3380F821309D
:1014100080F82030184610BD0120FCE7F8FFFDBF22
:1014200000000240F0B590F82040012C36D0012495
:1014300090F8215080F82040EDB2A5424FF0000610
:101440004FF0020428D180F82140046886632668A2
:1014500026F001062660D0E90F67BD407560636025
:1014600043680568102BC36A0BBFA260A160E160EE
:10147000E2604BB1236843F00E03002023602B6829
:1014800043F001032B60F0BD236823F004032360C5
:10149000236843F00A03F0E780F820600220F2E7B7
:1014A00090F82130022B06D004238363002380F8B8
:1014B0002030012070470368C16B1A6822F00E02C9
:1014C0001A601A6822F001021A600122036C02FA03
:1014D00003F34B60002380F8212080F82030184669
:1014E0007047000090F8213010B5022B03D0042380
:1014F0008363012010BD03681A6822F00E021A608F
:101500001A6822F001021A60184A93421FD014325E
:1015100093421ED0143293421DD0143293421DD0F8
:10152000143293421DD0143293420CBF4FF48013F7
:101530004FF080730E4A00245360012380F821305D
:10154000436B80F820407BB198472046D2E70123C7
:10155000F0E71023EEE74FF48073EBE74FF480538E
:10156000E8E74FF48033E5E71846C3E70800024098
:101570000000024070B40425C66B026C3468036836
:1015800095402542196832D04D0730D51A68960625
:101590005EBF1A6822F004021A603E4A934219D0D4
:1015A0001432934218D01432934217D0143293421B
:1015B00017D01432934217D0143293420CBF4FF419
:1015C00080034FF08063344A5360C36A002B5ED0BF
:1015D00070BC18470423F6E74023F4E74FF4806318
:1015E000F1E74FF48043EEE74FF48023EBE7022569
:1015F0009540254235D08D0733D51A68940606D418
:101600001A6822F00A021A60012280F82120214A79
:10161000934219D01432934218D01432934217D007
:101620001432934217D01432934217D0143293429B
:101630000CBF4FF400134FF00073174A53600023A0
:1016400080F82030836AC1E70223F6E72023F4E71D
:101650004FF40073F1E74FF40053EEE74FF400331B
:10166000EBE708259540254211D009070FD51968E9
:1016700021F00E011960012303FA02F27260836304
:1016800080F82130002380F82030036B9EE770BC87
:10169000704700BF08000240000002402DE9F74FEC
:1016A00000242646654BDFF8A4C1DFF8A4E10A68F0
:1016B00032FA06F502D103B0BDE8F08F4FF0010811
:1016C00008FA06F802EA080290457ED14D68122D0C
:1016D00000F0A98000F28280022D00F0A18076D86F
:1016E000002D00F08880012D00F098804FF00F0948
:1016F000FF2A93BF824606F18045083DD0F800B02E
:1017000092BFB500D0F804B0AD0009FA05F82BEA95
:10171000080804FA05F588BF00F1040A48EA05053F
:10172000CAF80050D1F804A01AF0805F4DD0444FA1
:1017300026F00308BD6908F1804845F00105BD6148
:10174000BD6908F5803805F00105019506F0030B29
:10175000019D4FEA8B0BD8F8085009FA0BF925EADE
:101760000909384DA84263D005F58065A84261D0CB
:1017700005F58065A8425FD005F58065A8420CBFDD
:101780000325042505FA0BF545EA0905C8F80850B4
:101790009D681AF4801F14BF154395439D60DD6852
:1017A0001AF4001F14BF15439543DD605D681AF4F9
:1017B000003F14BF154395435D601D681AF4803FD8
:1017C00014BF2A4325EA02021A6001366FE7032D8F
:1017D00022D0112D8AD1CC68043487E71A4FBD423C
:1017E00009D012D8DFF86C904D4504D009F5803946
:1017F0004D457FF47BAF8C68C4B1012C0CBFC0F8A1
:101800001080C0F81480082470E76545F3D0754552
:10181000F1D0DFF84490EBE7002467E7CC6865E798
:10182000CC68083462E7CC680C345FE704245DE7D9
:101830000025A7E70125A5E70225A3E7000401404D
:10184000001002400008014000002110000031108B
:101850000000321000001110000022102DE9F74F97
:101860004FF0040B00234FF0010A4FF00F0800EB7C
:101870000B020192314A31FA03F402D103B0BDE800
:10188000F08F0AFA03F70F404FD023F0030404F15E
:10189000804404F5803403F0030C294DA6684FEA18
:1018A0008C0C08FA0CF9A84209EA060E3FD005F59F
:1018B0008065A8423DD005F58065A8423BD005F57E
:1018C0008065A84214BF0425032505FA0CF575456B
:1018D0006FEA07060FD11568354015605568354029
:1018E0005560D5683540D560956835409560A568E8
:1018F00025EA0905A560FF2F93BF074603F1804441
:10190000083CD0F800C08ABFD0F804C09C00A400F6
:1019100008FA04F588BF019F0BFA04F42CEA0505C8
:1019200025433D60C4682640C6600133A3E7002517
:10193000CBE70125C9E70225C7E700BF0004014046
:10194000000801408368194214BF0120002070473D
:101950000AB1016170470904FBE7C36801EA0302A9
:1019600021EA030141EA02410161704770B5044672
:1019700018B34CF6CC42036841F23C361A6045F28B
:1019800055521A6042685A6082689A60FFF76AFC92
:1019900005462368D86810F0030003D14AF6AA224E
:1019A0001A6070BDFFF75EFC401BB042F1D923689E
:1019B000DB689B07EDD00320F3E70120F1E74AF64F
:1019C000AA22036800201A60704700002DE9F34145
:1019D000054608B901203CE00368DB0710D42B68FA
:1019E0009F075DD42B68190700F194802B685A0774
:1019F00000F1BE80E869002840F02C81002028E03A
:101A00008F4C636803F00C03042B07D0636803F06A
:101A10000C03082B09D16368DE0306D523689C03F9
:101A2000DDD56B68002BDAD1D4E76B68B3F5803F66
:101A300012D1236843F480332360FFF713FC06467A
:101A400023689803CBD4FFF70DFC801B6428F7D9DB
:101A5000032002B0BDE8F0819BB9236823F48033F2
:101A60002360236823F480232360FFF7FBFB0646F3
:101A700023689903B3D5FFF7F5FB801B6428F7D9DA
:101A8000E6E7B3F5A02F236803D143F48023236056
:101A9000CFE723F480332360236823F48023CBE74C
:101AA000674C636813F00C0F07D0636803F00C03F6
:101AB000082B10D16368DA030DD423689B0702D585
:101AC0002B69012B86D123686A6923F0F80343EA66
:101AD000C203236086E72A695A4B6AB101221A6061
:101AE000FFF7C0FB064623689F07ECD4FFF7BAFB5D
:101AF000801B0228F7D9ABE71A60FFF7B3FB064655
:101B0000236898077FF56EAFFFF7ACFB801B0228B8
:101B1000F6D99DE7AA694A4C4B4BDAB101221A600B
:101B2000FFF7A0FB0646636A9B070DD54FF4FA52F8
:101B3000464B1B68B3FBF2F3019300BF019B5A1E97
:101B40000192002BF9D151E7FFF78CFB801B022893
:101B5000E9D97DE71A60FFF785FB0646636A9F07B0
:101B60007FF544AFFFF77EFB801B0228F6D96FE7B5
:101B7000334CE369D80024D40127E36943F0805350
:101B8000E361E36903F080530093009B304E3368B8
:101B9000D90518D5EB68012B26D1236A43F0010340
:101BA0002362FFF75FFB41F288368046236A9B077A
:101BB0003FD5002F3FF41EAFE36923F08053E3616C
:101BC00018E70027E2E7336843F480733360FFF7D8
:101BD00049FB80463368DA05DCD4FFF743FBA0EB12
:101BE00008006428F6D933E7ABB9236A41F2883894
:101BF00023F001032362236A23F004032362FFF727
:101C000031FB0646236A9807D3D5FFF72BFB801BD1
:101C10004045F7D91CE7052B236A03D143F00403A1
:101C20002362BAE723F001032362236A23F004034B
:101C3000B6E7FFF717FBA0EB0800B042B6D907E7FD
:101C40000010024000004242800442426002002034
:101C5000007000402A4B5A681C4602F00C02082A09
:101C60003DD00023274E022833602BD1FFF7FAFA2C
:101C70000746236899011FD42B6AB3F5803F05D12D
:101C80006268A96822F400320A436260696A626885
:101C90000B4322F474121343636001233360FFF794
:101CA000E1FA054623689A013FF5A8AEFFF7DAFA94
:101CB000401B0228F6D9CBE6FFF7D4FAC01B022856
:101CC000D7D9C5E6FFF7CEFA054623689B017FF515
:101CD00095AEFFF7C7FA401B0228F6D9B8E60128EF
:101CE0003FF4B7AE58682B6A00F480329A427FF412
:101CF00071AE6B6A00F47010C01A18BF0120A8E61C
:101D000000100240600042420D494B6803F00C0293
:101D1000082A12D10B48C3F38342DB03825C09D546
:101D200009484B685043094AC3F34043D35CB0FBB6
:101D3000F3F070470648504370470348704700BFB0
:101D4000001002407895000800127A00889500087B
:101D500000093D002DE9F0410D46044610B901206F
:101D6000BDE8F081444A136803F007038B4228D38F
:101D700021688E0730D4CA0743D43F4A136803F062
:101D80000703AB4265D822683C4D12F0040F6CD1BA
:101D9000130706D56B68226923F4605343EAC20334
:101DA0006B60FFF7B1FF6B68354AC3F30313D35C75
:101DB000D840344B1860344B1868FFF711FA0020F4
:101DC000CEE7136823F007030B431360136803F097
:101DD00007038B42C3D1CBE7284B11F0040F1EBF82
:101DE0005A6842F4E0625A60080742BF5A6842F4F7
:101DF00060525A605A68A06822F0F00202435A60AA
:101E0000B9E762681D4E012A33681AD113F4003F06
:101E1000A5D0736841F2883823F00303134373603D
:101E2000FFF720FA07467368626803F00C03B3EB10
:101E3000820FA2D0FFF716FAC01B4045F3D903204A
:101E40008EE7022A02D113F0007FE1E713F0020FC0
:101E5000DEE7136823F007032B431360136803F0D6
:101E60000703AB427FF47BAF8DE76B68E16823F437
:101E7000E0630B436B608BE70020024000100240E0
:101E8000689C00086002002004000020044B054A02
:101E90005B68C3F30223D35C034A1068D8407047E1
:101EA00000100240789C000860020020044B054AA4
:101EB0005B68C3F3C223D35C034A1068D840704701
:101EC00000100240789C00086002002090F83D302D
:101ED000012B20D1022380F83D300368DA6842F0FC
:101EE0000102DA600D4A93420AD0B3F1804F07D065
:101EF000A2F59432934203D002F58062934204D15A
:101F00009A6802F00702062A03D01A6842F001021A
:101F10001A60002070470120704700BF002C01406C
:101F20007047704770477047036870B5DD681E6979
:101F30000446B1070DD5AA070BD56FF002021A614E
:101F400001229B6902779B0769D0FFF7EAFF002314
:101F50002377710710D56A070ED56FF00402236846
:101F600020461A6102229B69227713F4407F5CD0DD
:101F7000FFF7D7FF0023237733070FD528070DD5A9
:101F80006FF00802236820461A610422DB69227779
:101F9000990750D0FFF7C5FF00232377F20610D52D
:101FA000EB060ED56FF01002236820461A61082256
:101FB000DB69227713F4407F43D0FFF7B2FF0023A1
:101FC0002377F00708D5E90706D56FF001022368EB
:101FD00020461A6102F06EFA320608D52B0606D5A5
:101FE0006FF08002236820461A6100F09AF87006AC
:101FF00008D5690606D56FF04002236820461A61AD
:10200000FFF791FFB20622D5AB0620D56FF0200274
:1020100023682046BDE870401A6100F081B8FFF7E0
:102020007FFF2046FFF77EFF91E7FFF779FF20460D
:10203000FFF778FF9EE7FFF773FF2046FFF772FF79
:10204000AAE7FFF76DFF2046FFF76CFFB7E770BD0B
:102050001C4A036890420AD0B0F1804F07D0A2F525
:102060009432904203D002F58062904215D14A68C2
:1020700023F070031343134A90420AD0B0F1804F0B
:1020800007D0A2F59432904203D002F580629042CC
:1020900003D1CA6823F4407313434A6923F08003D1
:1020A00013438A68C2620A688262064A904204BF89
:1020B0000A690263026842F004020260012242617E
:1020C00003607047002C014010B5044630B390F80F
:1020D0003D3003F0FF021BB980F83C2002F09EF96E
:1020E0000223206884F83D30211DFFF7B1FF012352
:1020F000002084F8463084F83E3084F83F3084F87D
:10210000403084F8413084F8423084F8433084F819
:10211000443084F8453084F83D3010BD0120FCE7A0
:1021200070477047026802F10C0353E8003F23F444
:1021300090730C3242E8003102680029F2D102F1BA
:10214000140353E8003F23F0010302F1140C4CE8A0
:1021500000310029F3D1036B012B0BD102F10C03E9
:1021600053E8003F23F0100302F10C0C4CE800315F
:102170000029F3D1202380F8423000230363704705
:1021800010B504460368C1681A6922F440520A4334
:102190001A6182680069D9680243606921F4B0510C
:1021A00021F00C0102430A43DA605A69A16922F462
:1021B00040720A435A610E4A934215D1FFF776FEE8
:1021C00019235843636864229B00B0FBF3F0B0FB13
:1021D000F2F102FB11031B013233B3FBF2F324686B
:1021E00003EB0113A36010BDFFF750FEE8E700BF4B
:1021F0000038014010B5044648B390F8413003F070
:10220000FF021BB980F8402002F02CF92423226839
:1022100084F84130D368204623F40053D360FFF79D
:10222000AFFF236800201A6922F490421A615A69AC
:1022300022F02A025A61DA6842F40052DA6020235E
:10224000606484F8413084F84230606310BD01203E
:10225000FCE710B50446A0B12423026880F84130A1
:10226000D36823F40053D36002F00CF900206064BB
:1022700084F8400084F8410084F8420020636063E1
:1022800010BD0120FCE790F84130202B10D189B11E
:1022900082B1C284828400232122016201684364E6
:1022A00080F84120CA68184642F08002CA60704730
:1022B000022070470120704770B5044694F84150E1
:1022C0001346EDB2202D2ED1C9B1C2B1E284A28451
:1022D00021200022154E626484F84100A06B216227
:1022E0008662134EC662134EC0E90C622268043245
:1022F000FFF798F828B11023636484F84150012057
:1023000010E06FF0400223681A60226802F11403A3
:1023100053E8003F43F0800302F1140444E8003125
:102320000029F3D170BD0220FCE700BF392300086B
:102330008723000893230008026808B51268436ADF
:1023400012F020021AD1DA84196801F1140252E85D
:10235000002F22F08002143141E800201A68002882
:10236000F2D102F10C0353E8003F43F0400302F1C5
:102370000C0040E800310029F3D108BD184603F0F5
:1023800085F8FAE7704708B5406AFFF7FBFF08BD1C
:10239000704710B5446A23685A6994F8411021299E
:1023A00012D1120610D50022E28403F10C0252E889
:1023B000002F22F0C00203F10C0040E800210029A8
:1023C000F3D1202284F841205B6994F84220222A2C
:1023D00006D15B0604D500232046E385FFF7A2FE65
:1023E000636C204643F01003636403F099F810BD5A
:1023F00008B50023406AC38503F092F808BD704712
:1024000090F8423013B5222B53D18168836AB1F51D
:10241000805F02683ED1016900293ED15268C2F353
:10242000080223F8022BC48D8362013CA4B2C48548
:10243000002C2DD10368DA6822F02002DA60DA6815
:1024400022F48072DA605A6922F001025A61202374
:1024500080F842304463036B012B036826D1046388
:1024600003F10C0252E8002F22F0100203F10C04D9
:1024700044E800210029F3D11A68D20605D501915C
:102480001A6801925B680193019B818DFFF7B7FF8A
:1024900000200FE031B9016921B952681A70836ACE
:1024A0000133C0E7526802F07F02F7E703F010F84B
:1024B000EEE7022002B010BD036837B51A68044683
:1024C00012F00F0FD9685D6908D1950666D58D06A3
:1024D00064D503B0BDE83040FFF792BF15F00105A9
:1024E00002D111F4907F59D0D00705D5CB0542BF5A
:1024F000636C43F001036364500704D51DB1636C42
:1025000043F002036364930704D51DB1636C43F089
:1025100004036364100706D58B0600D41DB1636CF9
:1025200043F008036364636C002B31D0900604D53C
:10253000890602D52046FFF763FF236820465D69C0
:10254000626C120702D415F0400523D0FFF7EAFDB4
:10255000226853695B0618D502F1140353E8003F63
:1025600023F0400302F1140040E800310029F3D1C8
:10257000E06B50B1764B4363FEF7B4FF40B1E06BC4
:10258000436B03B0BDE830401847204602F0C8FF57
:1025900003B030BD02F0C4FF6564F9E7206B012889
:1025A00040F09980D50640F19680C80640F19380AE
:1025B000002201921A6801925A680192019A59699F
:1025C000A28D4D0654D5E06B0168496889B2002997
:1025D00046D0914244D28269E185202A36D003F167
:1025E0000C0252E8002F22F4807203F10C0040E844
:1025F00000210029F3D103F1140252E8002F22F048
:10260000010203F1140040E800210029F3D103F195
:10261000140252E8002F22F0400203F1140040E8B7
:1026200000210029F3D1202284F84220216303F104
:102630000C0252E8002F22F0100203F10C0040E8D7
:1026400000210029F3D1E06BFEF72AFF0223636328
:10265000E38DA18DC91A89B22046FFF7D0FE97E716
:10266000914295D18369202B92D102236363F3E7D2
:10267000E18DE08D89B280B2002889D0511A89B2EB
:10268000002985D003F10C0252E8002F22F4907249
:1026900003F10C0545E800200028F3D103F11402F2
:1026A00052E8002F22F0010203F1140545E8002052
:1026B0000028F3D1202284F84220206303F10C0289
:1026C00052E8002F22F0100203F10C0545E800202B
:1026D0000028F3D1C9E7100628D50D0626D594F8B1
:1026E0004120212A7FF454AFA168226AB1F5805FAE
:1026F00017D12169A9B932F8021BC1F30801596049
:102700002262E28C013A92B2E284002A7FF440AF66
:10271000DA6822F08002DA60DA6842F04002DA60B9
:1027200036E7511C216212785A60EAE750067FF5BD
:102730002FAF4A067FF52CAFDA68204622F0400220
:10274000DA60202384F8413002F0A0FE20E700BFC9
:10275000F123000808B50123406A4363036B012B92
:1027600004D1818D4908FFF74AFE08BDFFF710FE2E
:10277000FBE708B503461B68406A1B6813F020039B
:1027800037D1C385026802F10C0353E8003F23F4FC
:1027900080730C3242E8003103680029F2D103F162
:1027A000140252E8002F22F0010203F1140C4CE84D
:1027B00000210029F3D103F1140252E8002F22F086
:1027C000400203F1140C4CE800210029F3D120222F
:1027D00080F84220026B012A0BD103F10C0252E86F
:1027E000002F22F0100203F10C0C4CE8002100290C
:1027F000F3D100234363036B012B03D1818DFFF7DA
:10280000FEFD08BD02F064FEFBE70023C2854364C1
:1028100022238285026980F84230816203681AB1FE
:10282000DA6842F48072DA605A69002042F00102EC
:102830005A61DA6842F02002DA60704770B490F8AA
:102840004260202E06D141B13AB10024046370BC2D
:10285000FFF7DBBF022070BC70470120FBE70000E0
:1028600037B5044681621346A285002242642220C5
:10287000224D84F84200E06B8562214DC562214DF6
:10288000C0E90C5225680A46291DFEF7CBFD38B178
:10289000102363642023012084F8423003B030BD4C
:1028A000236801901A6801925A680192019A22697C
:1028B0005AB103F10C0252E8002F42F4807203F186
:1028C0000C0444E800210029F3D103F1140252E87A
:1028D000002F42F0010203F1140444E80021002912
:1028E000F3D103F1140252E8002F42F0400203F149
:1028F000140444E800210029F3D1CFE7732700082E
:10290000552700089323000870B490F84260202EE9
:1029100006D141B13AB10024046370BCFFF7A0BFF7
:10292000022070BC70470120FBE7401AB0F5803FE1
:1029300002DDA0F50030704710F5803FB8BF00F50C
:1029400000307047F8B5877811F0FB0F07F10107E9
:10295000FFB2044694468770017116D11646C378BB
:1029600000F10C050133C3700FCE0FC596E80300CC
:1029700085E8030094F8303023BB012284F830202E
:10298000DCF80420C4E90A3362620F2F19D9D4E9B4
:102990000A300025C01A2570FEF7AAF91049FEF783
:1029A000FBF94FF05C51FEF7F7F9E378A0600B2BD1
:1029B00006D94FF07C51FEF797FB451B18BF012548
:1029C0006570F8BDDCF80400616AFFF7AEFFA36A2A
:1029D0008342E36AC8BFA0628342B8BFE062D4E723
:1029E0000000B4430022034B1A700122024B1A70FC
:1029F000704700BF8C0200209902002008B5084BE8
:102A00001868431C09D0FEF76FF90649FEF7C4F9B0
:102A10004FF05C51FEF7C0F908BD0020FCE700BF95
:102A2000480000200000B4430023064A1360064A11
:102A300013600023054A1370054A1360054A13808A
:102A4000704700BFDC03002028040020E0030020C2
:102A500030040020E2030020044B187820B1044B1E
:102A60001878003018BF012001F0C8BE1000002007
:102A70004C00002008B5034801F07AFD0022024B0B
:102A80001A6008BD500000204403002038B5002221
:102A90000E4B06F0FBFA0022002304460D46FDF71C
:102AA00097FF38B1204629460022084BFDF768FB06
:102AB00004460D460022054B20462946FDF79CFFA3
:102AC00008B1002400252046294638BD0080764004
:102AD000384B2DE9F04107460D46186836499046B7
:102AE000FEF75AF900F10044064639462046FEF743
:102AF0000FFB30B931463846FEF70AFB00284ED1AD
:102B00003C462E4B00211F682D4E3846FEF700FB39
:102B100000284CD0B8F1000F1FD000212846FEF746
:102B2000D9FA08B105F1004529463846FEF734F9CF
:102B30000146FEF729F806F009FB1F49FEF72CF9BC
:102B400000F10048054621464046FEF7E1FA40BB49
:102B500021462846FEF7BEFA28BB17493846FEF73D
:102B60001BF91549FEF718F937680546394620461E
:102B7000FEF708F805F1004421468046FEF7AAFA60
:102B800028B929464046FEF7C3FA70B944462146A3
:102B90003846FDF7F9FF30603068BDE8F081344613
:102BA000AFE74446D9E72C46D7E72C46EFE7346039
:102BB000F2E700BF740000206F12833A0800002083
:102BC00044030020F8B500210446FEF779FA0027F7
:102BD000164D18B101F028FE2F60F8BD3946204689
:102BE000FEF778FAF8B104F10040114B1968FEF7CE
:102BF00087F91049FEF7D0F84FF07C51FDF7C4FF7C
:102C0000FEF7CCFA06460028E4D0002120464FF01B
:102C10000107FEF77DFA00B9074679B2304601F0A8
:102C20002BFE2C60D9E72046DFE700BFB002002072
:102C30000C00002000007A4410B5154B1A780ABB2E
:102C400001211970134B1B78E3B1134B1978C9B1EB
:102C5000124C1A7022781AB1114A136801331360AA
:102C6000104B1B787BB9FFF7C9FEFDF7E7FB0E4B56
:102C7000C3E900010D4BD3E900010D4BC3E900018D
:102C80000123237010BD0B4BD3E90001EFE700BF18
:102C90008C02002042030020990200204103002002
:102CA00090020020B4020020A0020020380300207F
:102CB000A8020020B802002008B502F069FC20B18B
:102CC000044A13680133136008BDBDE8084002F0F0
:102CD000C5BC00BF900200200FB400B5A3B024AB68
:102CE00053F8042B802102A8019304F0A9F9011ED6
:102CF00003DD89B202A8FFF7DFFF23B05DF804EB24
:102D000004B070472DE97F430446C5788678806813
:102D1000FDF794FB63788046894673B16069FDF7DF
:102D20008DFBCDE90089CDE90201324629460848EC
:102D3000FFF7D2FF04B0BDE870832379CDE90089A5
:102D40000293324629460348FFF7C6FFF2E700BF69
:102D50008A950008B095000808B50A4B1860FFF77F
:102D60004DFEFDF76BFB084BC3E90001074B5B7899
:102D70001BB100200021FFF789FE054BC3E90001CC
:102D800008BD00BF48000020B80200201400002049
:102D900038030020064AD36843F08073D3600022D2
:102DA000044B5A601A6842F001021A60704700BF73
:102DB000F0ED00E0001000E02DE9F04FDFB0FEF78D
:102DC00033FA2022002137A802F06EFD01271023DC
:102DD0000224CDE93A734FF4201336A836943D947B
:102DE0003F93FEF7F3FD0F230026CDE928344FF47F
:102DF0008063A84D394628A84FF400582A962C968F
:102E00002B93FEF7A7FFAB6936A943F00403AB6130
:102E1000AB69A14803F004032293229BAB69DFF85E
:102E2000D09243F00803AB61AB6903F0080323932E
:102E3000239BAB6943F01003AB61AB6903F0100354
:102E40002493249BAB693B43AB61AB69CDE93687E7
:102E50003B402593259B38963994FEF71FFC41464D
:102E60004FF400783A468C48FEF772FD36A98B483D
:102E7000CDE936873994FEF711FC32464146874842
:102E8000FEF766FD4FF48053DFF8688236A9834869
:102E9000CDE9363638942E46FEF700FC0524FFF7C0
:102EA00079FF474698F80030072B00F29180DFE861
:102EB00013F01E00A100B500CD00E80025018E0131
:102EC0000800774B774D5A78002A00F08F819C7E5E
:102ED0001869754B1A68013240F08681FFF73CFF94
:102EE0002B7813B1012001F089FC012380E002F06E
:102EF00057F8054600286DD1D6F824A08DF8D800E3
:102F00001AF0006F06D0694B694A302136A803F0E9
:102F100023F903251AF0806F0CD0644A654B36A85C
:102F2000002D08BF1346C5F130012844624A03F062
:102F300013F905441AF0805F0CD05C4A5D4B36A84B
:102F4000002D08BF1346C5F1300128445B4A03F049
:102F500003F905441AF0005F0CD0544A554B36A8CB
:102F6000002D08BF1346C5F130012844544A03F030
:102F7000F3F805441AF0804F0CD04C4A4D4B36A85C
:102F8000002D08BF1346C5F1300128444D4A03F017
:102F9000E3F80544BAF1000F0BDA444A454B36A872
:102FA000002D08BF1346C5F13001474A284403F0FD
:102FB000D3F89DF8D83013B92D23ADF8D8300125BA
:102FC000424B434A1D6036A94248FFF785FE3D70DB
:102FD00000230DE0404A13780133DBB2022B13705B
:102FE000F6D901223D4B2F491A7000233A700B701D
:102FF0001993A9E0DFF800C136ADBCE80F000FC59A
:103000009CE8030085E8030036A801F055FB344B2B
:103010005A68344B1A6002233B70D9E7DFF8C0A02E
:10302000304DDAF804302A689B1A4B45D0D91C4B36
:1030300034221846002102F037FC012202700522DA
:10304000DAF8043002712B600323E5E72449254AAE
:103050004B6810681B1A24488342B9D94B6836A8BC
:10306000136001F03DFB0E4D014636AA2846FFF7DE
:1030700069FC2B78002BABD12846FFF743FE0423D5
:10308000CAE701F09BFB014610B11848FFF724FE88
:103090000523C1E70010024000100140000C014070
:1030A000140000201000002048000020FF970008B6
:1030B000F2950008D6950008F8950008FE950008DE
:1030C000049600080B96000812960008E00442429D
:1030D00019960008239600083504002043030020B9
:1030E000001000E0A4030020FF76010037960008DE
:1030F000FF9E2400A2030020609500084FF0804E40
:1031000041F2BF238A4D4FF0000AC5E900E30923CD
:103110002846C5E902A3C5F810A0C5F818A0FEF717
:10312000D3FF524606211C20FEF7B4F81C20FEF700
:10313000E5F86FF001022B6828461A61FEF7C6FE1B
:103140000623CDF864A03B7002F088FA199B002B8F
:103150003FF4A8AEDFF83CB202F080FA9BF80030F2
:103160002BB9744B93F900300BB901F045FB4021AA
:1031700036A802F0FDFA002800F0848128A936A8BC
:1031800001F04EFC002800F07D819DF8A030013B4D
:10319000192B00F27781DFE813F02C004E00590064
:1031A0008E009700A000F8012002A900AF00B8002F
:1031B000BE00D3016F00390247025502D102F4026A
:1031C0000C0337033D03250358035C03600304230A
:1031D0005948DFF8C4C1C0E900C34FF49C73836051
:1031E000FEF7C4FB072317E7186079E61C792A70FD
:1031F00076E60122514B52491A7000230B70514957
:103200000A704C4A1370FFF727FCFFF733FC4E4B54
:103210001B7863B9FFF7F2FBFDF710F94B4BC3E9DD
:103220000001FFF7DFFB4A48FFF756FD2AE1494B53
:10323000D3E90001F2E70023404A13703D4A1370BE
:1032400001F0F2FAFFF708FC4348EDE70022394BA2
:103250002E981A70FDF7F2F8FFF718FC3B4DC5E900
:1032600000013E4801F084F9FFF7BCFBD5E90023DB
:103270003B48FFF731FD05E19DF8CF302D4D374834
:103280002B7000238BF8003001F072F92B492D4B85
:103290000A780AB11A7822B901220A701A70FFF767
:1032A000DBFB95F900302F48002BD4BF2D212B21BB
:1032B000FFF712FDE6E0294B29981860FDF7BEF8EC
:1032C00002460B462848D4E7244B2A985860FDF75D
:1032D000B5F802460B462548CBE7204B2B98986063
:1032E000FDF7ACF802460B462148C2E7BDF8BC101A
:1032F000204B21481980DBE70022204B9DF8BE10AF
:103300001F4819701F4B1A70D2E79DF8BF101E4B53
:103310001E481970CCE7329D00212846FDF7E4FED7
:1033200020B9BDF8CCA0BAF1000F37D118487BE71F
:10333000580300208D0200204C03002010000020C4
:10334000280300204C000020B40200203803002095
:103350004B960008B8020020539600085000002049
:103360005C96000868960008729600087F96000830
:103370008C9600084E000020999600084203002019
:10338000A49600084103002040030020AF960008E7
:10339000BD96000814030020003000403098FDF76F
:1033A0004DF89DF9CE80CDE91A01B8F1000F40F03B
:1033B000A6803198FDF742F8DDE91A23FCF7DEFE1E
:1033C000FFF764FBFDF78AFB00218146FDF78CFEC9
:1033D0000028ABD1DDE91A010027A94BA94E1F70C7
:1033E00001238BF80030FFF751FBFDF777FB00223C
:1033F0000021A54B3060C3F80090A44BC3E9001234
:10340000FDF71CF8A24BB845C3E90001A14BC3E985
:10341000000114BF414601219F4BA0481D60A04BF5
:10342000A3F800A09F4B1F809F4B19709F4B83F800
:10343000008001F09DF8FFF7D5FA9D4B9D483A4674
:103440004FF400711F70FEF783FA3068B8F1000F77
:1034500058D0FCF7F3FFB8F1000F064628460F4698
:10346000D4BF4FF02D084FF02B08CDF810A0FCF77B
:10347000E5FFCDF80080CDE9020132463B468E489B
:10348000FFF72AFC8D4F3B78002B00F0F78672B6D1
:103490008B4E28AD0FCE0FC596E80300894B8A4AA4
:1034A0001B7885E803001A93884B89491B680E78BE
:1034B000136000230B708749F6B20D780B70EDB2E4
:1034C0003B7062B6DFF82492002E00F0D9861A987D
:1034D0008149002840F0C3819DF868300B707F4B14
:1034E000146819687E4F4B1C40F0C08100227D4B50
:1034F00029983C601A70FFF72FFC199E52E24FF09A
:10350000000967E7FCF79AFF06460F464846FCF7B6
:1035100095FF32463B46FCF733FEFFF7B7FA80468D
:1035200028468946CDF810A0FCF788FFCDE9008930
:10353000CDE9020132463B466B48FFF7CDFBA1E7E0
:1035400000234F4A8BF800301370584A137001F073
:103550006BF9664B1B78A3B9FFF750FAFCF76EFFC7
:103560004C4BC3E90001FFF785FAFFF73BFA002255
:103570004F4B50484FF400711A70FEF7E9F95C4860
:1035800052E65C4BD3E90001EAE72C9D4FF07E51F7
:103590002846FDF79FFD20B957492846FDF7B8FD9D
:1035A00048B10022554B5648CDE900230022554B27
:1035B000FFF792FB66E7544B54491D602846FDF720
:1035C000EBFB364B986100F1004058612846FCF750
:1035D00035FF02460B464E484BE62D9D00212846FE
:1035E000FDF778FD20B94B492846FDF791FD20B144
:1035F00021A3D3E9002348483BE6484B28461D60F9
:10360000FCF71CFF02460B46454832E626A801F0AF
:10361000AFF9BDF89A10BDF8D00001F08FF900BBEA
:10362000BDF8D0103F4843E626A801F0A1F9BDF847
:10363000D210BDF8980001F081F990B9BDF8D21010
:10364000394835E6BDF8D210BDF8D00001F076F962
:1036500038B9BDF8D220BDF8D0103448FFF73CFB94
:1036600010E7461C01D13248DEE5023001D1314875
:10367000DAE53148D8E500BF00000000006AF840F4
:103680008D020020180300201003002020030020DA
:1036900000030020380300201C03002050000020FD
:1036A0000A03002008030020700000200C03002003
:1036B00031030020000C0140C896000834040020AB
:1036C000C003002078000020F8020020D80300206A
:1036D000BD030020BC030020980200204800002009
:1036E000A8030020B0030020E2960008B4020020E6
:1036F000FE960008B80200200000964400C09240E8
:10370000089700080000F03F740000206F12833A11
:10371000219700080050C3472D970008080000209B
:1037200045970008519700088F9700089D9700085B
:103730005E9700086E9700087C97000801F082F8F9
:1037400008B1774870E5BDF8D40001F001F980B9FF
:10375000BDF8D4502846FDF7C7FA7249FDF71CFBA7
:1037600001467148FDF7CCFB704B29461860704844
:103770009EE5451C3FF477AF02307FF47AAF6D4889
:1037800052E526A801F0F4F89DF89F109DF89E5090
:103790000191BDF89C10684800916849BDF89A30C5
:1037A000002D08BF0146BDF898206548FFF794FA40
:1037B00068E6644B93F90030002BC2D19BF80030CF
:1037C000002BBED101F03EF801460028B9D15E4B76
:1037D0003422184602F068F80122027005220271B4
:1037E0005A4821E59DF8D730594D2B7043B901F067
:1037F0001BF8FFF73FF9FFF72FF92978554857E5F0
:103800000122554B1A70F4E79DF8D610534B5448DB
:1038100019704DE5514B4FF4805152481D78FEF719
:1038200091F84FF4007106464E48FEF78BF84E4B68
:10383000421E1B68711E0093534253414A424A4143
:103840004A482946FFF748FA1CE6414B4848197890
:103850002EE5484B484819782AE54848E4E40B70BF
:103860001A9904293FF43BAE1E469BE0299E304640
:10387000FFF75BF84BF680333A680028A4EB0202AE
:10388000B2FBF3F2B8BF4042C1178AB1142A28BF75
:10389000142240F24443A2FB032382428B41384B63
:1038A00008DB3C6000221A70364B299A1A6024E625
:1038B0000122EEE71F78002F2ED0334B30461968D7
:1038C000FFF733F8314B00281A684BF68033A4EB2E
:1038D0000202B2FBF3F2B8BF4042C117D2B1142AC0
:1038E00028BF142240F24443A2FB032382428B41AF
:1038F000ACBF0137199F224BA8BFFFB21F70224BEC
:103900001E60224B1C601E4B1A78022A42D9204AA4
:103910001460C7E70122E5E701221A70EFE700BF54
:10392000AD970008000048430000B4430C0000209D
:10393000C9970008D7970008D8950008E1950008B6
:10394000009800088D020020C40200203098000872
:103950004C0000203A98000848030020290300206A
:1039600047980008000C01402C03002054980008E0
:103970003D98000842030020A796000871980008AF
:10398000B003002048000020AC030020B403002056
:10399000A8030020804A0026136801331360012227
:1039A0007E4B1A707E4C23784BB128AA1A99204678
:1039B000FEF7C8FF237813B92046FFF7A3F98DB1AE
:1039C000774C1822002136A801F06EFF23784BB106
:1039D00036AA05212046FEF7B5FF237813B9204605
:1039E000FFF790F9002E00F04F84002399F8002093
:1039F0006C49012A0B6003D189F80030FFF73AF8CF
:103A00004FF480516848FDF79DFF01280CBF012449
:103A10000024664A07D113782BB965490B68013336
:103A20000B60644B1870644B14701B78DFF8D4A1E2
:103A3000002B72D100F0F8FE0023CAF80030FEF728
:103A4000D1FF5E4D2B7843B12846FCF78BFB81B24A
:103A5000284601F09DFD00B92870574B1B783BB1FB
:103A6000574B1B7823B199F80030002B00F02A82C5
:103A7000FEF7DAFF9BF80030022B18D1504B1B7871
:103A8000ABB1504B1B8843B14F490A88013292B207
:103A900093428CBF002301230A804C4A1278012AEA
:103AA00000F0D282C0F00F83022A00F0078301F0F9
:103AB00035FEE0B9464B474C1B782078012B464A2F
:103AC00000F0AA83454B1988002900F0A583444BD8
:103AD0001B7813B1142938BF1421138801339BB20A
:103AE0008B4280F08C831380002840F08A833D4B0A
:103AF0003D4A1B78002B14BF64214FF4FA71136800
:103B000001338B4280F0B28313603848FDF757FFD2
:103B10001A9CFFF71FBB002672E7294B1B781BB9C5
:103B20000023CAF800308CE70023CAF80030304B7D
:103B300093F90040002C67D0FEF754FF2D4B2E491F
:103B40001868FDF729F905462046FDF7D1F801462A
:103B50002846FDF721F900220021FEF7B9FF0446AF
:103B6000FFF730F82046FCF769FC244F0446D7E9FC
:103B700000230D46FCF704FBFEF788FFC7E90001B0
:103B80001F4F2046D7E900232946FCF7F9FAFEF734
:103B90007DFFC7E9000154E7C00200209802002021
:103BA000C402002094020020000C014030030020D9
:103BB0002C0300203103002010000020E40300202B
:103BC0004C0000200A0300200803002029030020E5
:103BD0004203002041030020840200204E00002008
:103BE0004003002043030020880200204C030020F3
:103BF0008D020020740000206F12833AB80200206A
:103C000038030020B002002099F80030002B40F06B
:103C1000BC80002E00F0B180FEF7F0FE0446DFF815
:103C20009C82954DD8E90001FCF758FF2146FCF72E
:103C3000A9FF044629462046FDF76AFA002835D137
:103C40008E4D29462046FDF74FFA002834D18C4985
:103C50002046FDF75DFA8B4D20B98B492046FDF7D4
:103C600039FA78B300220127884B21461A70884818
:103C7000884A2F7000F083FC21463A46FEF728FF61
:103C80000446FEF79FFF9BF80030BB427FF4D9AE9D
:103C900000212046FDF714FA024600287FF4D1AE39
:103CA0004FF400717C48FDF753FECAE620467B497D
:103CB000FCF768FF0446BDE720467849FCF764FF3F
:103CC0000446BEE72F78002F36D075492046FDF711
:103CD0001FFA20B973492046FDF7FCF948B3724B2F
:103CE00020461968FDF70CF9FDF732FA074640B98E
:103CF00000212046FDF70CFA002814BF01274FF0E1
:103D0000FF379BF80020012A05D100224FF40071F3
:103D10006148FDF71DFE384600F0E2FD3846FCF72D
:103D2000E7FF614B37461968FDF736F8CAF800001F
:103D300000E0074600232B709BF80020012A11D1D8
:103D40004FF400715448FDF703FED8E90001574BCA
:103D5000574AC3E9000102238BF800300023138087
:103D6000544A137037B900F05FFD00F06BFD08B9DD
:103D7000FEF762FFFEF77EFE63E64F4B1B68132BD8
:103D80007FF65FAE00F050FD5BE6012B7FF459AE8D
:103D90004A4D4B4CD5E90001FCF7A0FE0746D4E99B
:103DA0000001FCF79BFE01463846FCF7EBFE80461F
:103DB000314F39464046FDF7ABF9002838D12F4F37
:103DC00039464046FDF790F9002837D12C49404646
:103DD000FDF79EF930B92C494046FDF77BF90746BF
:103DE000002831D00022294B41461A70404601225A
:103DF000FEF76EFE0546FEF7E5FE9BF80030012B50
:103E00000AD100212846FDF75BF9024620B94FF49C
:103E100000712148FDF79CFD2846FCF70FFBD4E913
:103E20000023FCF7ADF9FEF731FEC4E9000108E616
:103E300040461A49FCF7A6FE8046BAE740461749B5
:103E4000FCF7A2FE8046BBE7FEF7F6FE9BF80020DB
:103E5000012A97D14FF400710F48FDF779FDD5E99C
:103E60000001124BC3E9000102238BF80030104B14
:103E70001F80104B1F7085E700003443000034C3DF
:103E8000CDCC4C3D48030020CDCC4CBD8C02002055
:103E9000500000206F12833A000C01400000B44330
:103EA0000AD7A33C0AD7A3BC0C00002000030020C3
:103EB0000803002031030020940200203803002072
:103EC000B802002066B1A548A54B01781A68A54C38
:103ED000A54B002940F08E8001271A6007702160F1
:103EE000DAF8004000212046FDF7F4F808B104F1AB
:103EF000004400212046FDF70BF99C4F002800F0FC
:103F00009B80DFF8C8822146D8F80000FCF73CFE11
:103F10000023C8F800003B80954BDFF8B0821C6896
:103F2000D8F8007001341C6092493846FDF7E6F875
:103F300038B1914B91491868FDF7CCF808B1C72CFE
:103F400017D84FF07E513846FDF7C4F800287FF4AB
:103F500091AD4FF07A513846FCF71EFF864B196839
:103F6000FDF7C2F800287FF483ADB4F57A7FFFF443
:103F700081AD00270122824B8BF800701F70814BAE
:103F8000814C1A70814B1F70814B1F7000F04CFCEC
:103F9000384600F033FCFEF76DFDFEF72FFDFCF711
:103FA0004DFA3A46C4E900014FF400717948FDF733
:103FB000CFFCD4E90023CDE904236F4B1868FCF74C
:103FC0003DFACDE90201D8F80000FCF737FA724A51
:103FD000CDE900014021714802F0BEF86F48FCF7BE
:103FE000C1F881B26D4801F0D3FA00287FF440ADEA
:103FF00028703DE519681046FEF797FC21681A60A5
:1040000008442060FCF774FE6549FCF7C5FE4FF0DC
:104010005C51FCF7C1FE00210446FDF75BF808B1D6
:1040200004F10044544F21463868FDF753F8002846
:104030003FF456AF3C6053E73B8801339BB2632BA0
:104040003B807FF669AF13E5564B1B78002B3FF49E
:104050002EAD0022534B1A704D4B93F90040524B3A
:10406000D3F800804046FCF7E9F982468B4664B3FA
:104070002046FCF7D1F952465B46FCF737FA4B4B2A
:10408000D3E90023FCF77CF8FEF700FD3E4B01224C
:10409000C3E90001454BC3E900010021444B1A70FC
:1040A000444B1980FEF79EFC3A480A464FF40071D3
:1040B000FDF74EFC404800F05BFAF8E4394A12780C
:1040C000002A18BF0123DBB2C0E73C4C3C4F94F9F7
:1040D0000050D7E900232846CDE91E23FCF79CF9C0
:1040E00052465B46FCF702FADDE91E23FCF748F86E
:1040F00002460B46002DCDE92001CDE91C2367DDEA
:10410000304BD3F800904846FCF798F904460D462A
:1041100002460B46DDE92001FCF778FC98B1DDE9A9
:104120001E0122462B46FCF767FC20B1484641465B
:10413000FCF728FD81464846FCF780F9FF221F4B1B
:10414000CDE91C011A70DDE91C34C7E900341E4BAF
:104150001868FCF773F9DDE91C2393E7E0030020FE
:1041600048000020240400202C040020E20300204A
:104170003004002000007041280400200000A0400E
:104180001000002028030020380300208D020020AA
:104190000C030020000C01407F980008E40300207D
:1041A0000000B443310300201C0300200003002062
:1041B000140300200803002050000020700000209D
:1041C000200300201003002018030020DC0300203F
:1041D000B9D000220023FCF7FBFB0028B3D0DDE9B7
:1041E0001E0100220023FCF7FDFB18B94FF0000A66
:1041F0004FF0000B0123CDE91CAB2370A3E7002394
:10420000138000232370002857D16B4B1B782BB1F0
:104210006A4BD3E9008907E0002364E4FEF7EEFB74
:10422000FCF70CF980468946654B664CD3E900AB38
:104230004AE038466449FCF7A5FC074653E0384697
:104240006149FCF7A1FC074654E0604B1B78002B4A
:104250000CBF002507255CE0CDE90254CDE90089BB
:104260005B4AA02136A801F077FF9CE000234FF4C1
:10427000005158481360FDF770FB46E41A9447E478
:104280001A94002D7FF49CAB534A99F80060136890
:1042900001331360002E7FF43EACB3F5FA7FFFF4D8
:1042A000AFAB012389F80030FEF7A8FBFCF7C6F896
:1042B000424BC3E90001FFF7A3BB484B484CD3E98D
:1042C0000089484BD3E900AB59465046FCF706FC41
:1042D000494605464046FCF701FC01462846FCF7E6
:1042E00051FC0746404D29463846FCF711FF00288F
:1042F0009FD13E4D29463846FCF7F6FE00289ED158
:10430000002EA2D13A4B1B78002B1A9B14BF062516
:104310001D46384B1B78002B9ED0374B374E186804
:10432000FCF78CF802460B462349CDE91C2308789C
:1043300033491694002808BF0E463249324C0968AA
:10434000159132490968149131490868FCF776F8EB
:10435000CDE912012F490868FCF770F8CDE910018A
:10436000A068FCF76BF8CDE90E016068FCF766F811
:10437000CDE90C012068FCF761F8DDE91C23CDE9EB
:104380000A013846CDE90623CDE90865FCF756F861
:10439000CDE902ABCDE90401CDE900891E4AA02197
:1043A00036A801F0D9FE9F28A8BF9F2081B236A869
:1043B000FEF782FCFFF79BBBB4020020B80200208E
:1043C00038030020FF9700080000B44328030020B2
:1043D0000A9900080010014094020020A002002069
:1043E000E6950008A802002000003443000034C312
:1043F0009802002040030020B0020020EF95000842
:10440000EC9500089002002050000020C00200201F
:104410000800002074000020A7980008036882B0FC
:10442000B3F1804F0CD103F50433DA6942F0010295
:10443000DA61DB6903F001030093009B02B070476F
:10444000064A9342FAD1064BDA6942F00402DA6175
:10445000DB6903F004030193019BEFE700080040D0
:10446000001002400268064903468A4203D0A1F5C3
:1044700070418A4202D1184600F056BE00F08CBA54
:10448000003801400268064903468A4203D0A1F57C
:1044900070418A4202D1184600F046BF00F07DBA52
:1044A00000380140FCF7D2BE0148FDF73DBD00BF1A
:1044B00058030020036810B5B3F1804F3AD1214C66
:1044C00023785BB100F068F940B91F4A13780133D3
:1044D000DBB2042B137001D900F06EF9237893B18D
:1044E00000F05AF968B1194800F058F9184B1870E3
:1044F000184B1A68184B1A600122184B1A700023C7
:104500002370237893B9164B5A68124B1A6000F047
:10451000EDF800280CBF012300234FF000022370A8
:10452000094B1A701EBF01220E4B1A7001220E4B4E
:104530001A7010BD0D4A9342FBD1BDE8104000F047
:10454000FBB900BFA0030020A1030020C00300208E
:1045500078000020B8030020D8030020BD0300200D
:10456000001000E0BC0300203404002000080040DC
:1045700020B10023C36003610023037770472DE956
:10458000F0470D461746044600285FD0002110462C
:10459000FCF7AAFD002859D129463846FCF7FCFB58
:1045A000E1688146FCF7F0FA237F0646E060002BC5
:1045B00048D021692846FCF7E5FA3946FCF7A0FC0B
:1045C000074601232561237721682846FCF7E4FB91
:1045D000D4F80480054641463046FCF7DDFB014631
:1045E0002846FCF7D1FAA16805463846FCF7D4FB0B
:1045F00001462846FCF7C8FA676905460146384671
:10460000FCF786FD00BBD4F818A029465046FCF7FD
:1046100061FD00B1554600214046FCF751FD70B9DF
:1046200029463846FCF74CFD20B92946A069FCF71D
:1046300047FD20B149463046FCF7A4FAE060284621
:10464000BDE8F0870027BCE73D46E4E70025F6E734
:10465000144938B500220446D1E90001124BFCF799
:104660006FF800224FF08243FBF740FFFCF716FA89
:104670000E4B0025984228BF1846E560256165610C
:10468000C4E90000FBF7B8FE0022074BFBF72EFF42
:104690000022074BFBF72AFFFCF720FAA573A06066
:1046A00038BD00BF8000002000807640FFFF010081
:1046B0000000E03E0000000008B505A1D1E90001BE
:1046C000054BC3E900010548FFF7C2FF002008BD04
:1046D0000000000000C0424080000020480400208C
:1046E00008B5FFF7B5FF002008BD00002DE9F84F21
:1046F000234BDFF8A0A01B7833B3224E224BD6E920
:104700000001D3E90023FBF73BFDDAE90023FBF7C7
:1047100037FDB34604460D4600261C4F32463B4645
:1047200020462946FCF768F9C0B9002600274FF05B
:104730000008DFF8589032463B4620462946FCF7F1
:1047400047F9A0B9CBE90045002200231048CAE987
:104750000023FFF77DFF0020BDE8F88F20462946A3
:1047600032463B46FBF70AFD04460D46D6E7204697
:10477000294642464B46FBF703FD04460D46DAE761
:104780003604002080000020400400200080764095
:1047900048040020380400200120704730B504464A
:1047A000044D0FCD0FC495E8030084E803000020FA
:1047B00030BD00BF4804002070470000F0B5022360
:1047C0000024402601270A4D85B0694628460393F8
:1047D0000294CDE90067FCF761FF28463A4631466E
:1047E000FDF7B6F82046034B1C7005B0F0BD00BFC6
:1047F000000C01403604002070470000002814BF60
:104800000122002208B5064B4FF040011A700548FE
:104810000CBF01220022FDF79BF8002008BD00BF5D
:1048200036040020000C0140002200230349C1E9A6
:1048300000230349C1E90023704700BF4004002062
:10484000380400200A4908B5D1E9000100220023FC
:10485000FCF7B4F850B107490022D1E90001002368
:10486000FCF7ACF8B0FA80F0400908BD0120FCE785
:104870004004002038040020F8B5144B0546188881
:104880000C46FBF7B9FD0022114BFBF72FFE024649
:104890000B4600200F49FBF753FF064628460F46FC
:1048A000FBF7AAFD02460B4630463946FBF71EFED3
:1048B0000022094BFBF744FF0CB901F100410B4604
:1048C00002460649C1E90023F8BD00BF7C00002074
:1048D000000069400080764000408F404004002086
:1048E000F8B5114B05461888FBF786FD00220F4BE3
:1048F000FBF7FCFD02460B4600200D49FBF720FFAD
:10490000064628460F46FBF787FD0A4C02460B4633
:1049100030463946FBF7EAFDD4E90023FBF730FCCB
:10492000C4E90001F8BD00BF7C0000200000694020
:10493000008076403804002070470000024B188049
:10494000024B002019807047880000207A00002068
:10495000431E9BB2FF2B05D8034003D1034A1080AE
:10496000184670476FF00100704700BF7C000020C0
:10497000064B1B880380064B1B884380054B1B8816
:104980008380002383710123C37170478800002056
:104990007A0000207C0000207047704703461846CC
:1049A00013F8012B202AFAD0092AF8D0704700000A
:1049B0002DE9F34104468846006801A902F034FA63
:1049C000019E23680546B34211D020F000470949F3
:1049D0003846FCF7A7FB50B906493846FCF798FB68
:1049E00028B92660C8F8005002B0BDE8F0814FF049
:1049F000FF30F9E7FFFF7F7F37B504460D460A22F7
:104A000001A9006802F0DAFA2268019B9A4217BFF6
:104A100023604FF0FF302860002003B030BD00005D
:104A200070B50D4686B00646002800F005810029C5
:104A300000F0028103780022002B00F037824FF053
:104A400080730A70C1E90122C1E90322C1E905228C
:104A5000C1E90722C1E90922C1E90B224B63A6493A
:104A6000FBF776FB18B90120287006B070BDA3498A
:104A70003046FBF76DFB10B902232B701BE0A049F9
:104A80003046FBF765FB08B90D23F6E79D49304634
:104A9000FBF75EFB28B90E2301202B7085F82F0051
:104AA000E3E799493046FBF753FB30B90E232B70EF
:104AB000FF2385F82F300120D7E7022293493046A3
:104AC00001F07EFB68B9023605A904A80496FFF739
:104AD0006FFF002840F0B08003232B70059BAB6173
:104AE000E9E703228A49304601F06AFB58B90336E8
:104AF00006A840F8046D291DFFF75AFF002840F072
:104B00009B800423B9E703228249304601F058FB19
:104B100060B9033606A840F8046D05F10801FFF7F7
:104B200047FF002840F088800523A6E703227A4942
:104B3000304601F045FB58B9033606A840F8046D2D
:104B400005F10C01FFF734FF002875D1062394E727
:104B500002227249304601F033FB58B9023606A8EA
:104B600040F8046D05F11001FFF722FF002863D122
:104B7000072382E702226A49304601F021FB58B937
:104B8000023606A840F8046D05F11401FFF710FF86
:104B9000002851D1082370E703226249304601F012
:104BA0000FFB80B9033605A904A80496FFF724FF7C
:104BB000002841D1059BB3F5803FBFF456AF0922D1
:104BC000AB832A7077E703225749304601F0F8FAA1
:104BD00070B9033605A904A80496FFF70DFF58BB6A
:104BE000059B022B3FF641AF0A22AB772A7062E7A2
:104BF00006224E49304601F0E3FA044670B9063603
:104C000005A904A80496FFF7F7FEA8B9059B012B98
:104C10003FF62BAF0B22EB772A704CE70522444975
:104C2000304601F0CDFA00284FD1053602A901A87F
:104C30000196FFF7BDFE08B1002016E7019B5A1C44
:104C400001921A782C2AF7D1002205925A782B2A41
:104C500001D02D2A2BD199782C2928D12B2A0CBFB1
:104C600001244FF0FF340333019303A901A8FFF798
:104C70009FFE0028E0D1019B5A1C01921B782C2B2F
:104C8000DAD104A901A8FFF7B7FE0028D4D1049B0C
:104C9000B3F5803FD0D20C222A70029AAB852A62EB
:104CA000059A85F82E406A62039AAA6203E705A96D
:104CB00001A8FFF77DFE0028BED1019B5A1C01927E
:104CC0001B782C2BB8D10446CFE705221949304672
:104CD00001F076FA80BB053605A904A80496FFF713
:104CE0008BFE0028A8D1059B022BA5D8152285F89C
:104CF00036302A70DFE600BF1C9900081F990008B3
:104D000023990008289900082C9900083099000878
:104D100033990008379900083B9900083F9900082B
:104D20004299000845990008499900084D990008E2
:104D3000549900085A99000805225D49304601F04F
:104D40003FFA88B9053605A904A80496FFF754FE72
:104D500000287FF471AF059B012B3FF686AE17222A
:104D600085F837302A70A6E652493046FBF7F0F94D
:104D700008B9162381E650493046FBF7E9F908B92E
:104D800019237AE64D493046FBF7E2F908B91823B2
:104D900073E64B493046FBF7DBF908B913236CE6A1
:104DA00048493046FBF7D4F908B9142365E60522D3
:104DB0004549304601F004FAA0B9701DFFF7EEFD39
:104DC00005A9049004A8FFF717FE00287FF434AF6C
:104DD00040F6B832059B93423FF647AE0F222B8632
:104DE0002A7068E606223949304601F0E9F9A0B98F
:104DF000B01DFFF7D3FD05A9049004A8FFF7FCFD43
:104E000000287FF419AF40F6B832059B93423FF675
:104E10002CAE10222A706B864DE605222C493046B6
:104E200001F0CEF930BB701DFFF7B8FD04A9039067
:104E300003A8FFF7E1FD00287FF4FEAE40F6B8338B
:104E4000049A9A423FF6F8AE0398FFF7A7FD05A92A
:104E5000039003A8FFF7D0FD00287FF4EDAE40F6E5
:104E6000B832059B93423FF6E7AE11222A70049AAE
:104E70002A86D0E706221749304601F0A1F998B9F1
:104E8000B01DFFF78BFD05A9049004A8FFF7B4FD42
:104E900000287FF4D1AE059BB3F5803FBFF4CCAEC4
:104EA0001222AB862A7006E61A23E6E51846DCE5F0
:104EB00060990008669900086B9900086E990008CF
:104EC00073990008789900087D9900088399000873
:104ED0008A99000890990008074A084913880988A8
:104EE000013303F07F03994210B504D01188044CBC
:104EF00089B26054138010BD60040020E2040020D9
:104F000062040020C36C70B55D68B0F82441C5F13F
:104F10004005ADB2A4B2A54206460BD03319013408
:104F200093F8E40004F03F04FFF7D6FFA542F5D163
:104F3000A6F8245170BD10B5044694F8E230043050
:104F400073B100234022A4F8243104F1E401FDF7F9
:104F5000DBFC20B96268D36843F01003D36010BD56
:104F600004F1E3010122BDE81040FDF767BC43688E
:104F700010B5044613B10430FDF76BF90023A4F813
:104F80002431A4F8E230A4F82633A4F82833A4F896
:104F90002A3384F82C3384F82D3384F82E3310BD53
:104FA00000234FF400702DE9F0474FF4806A012789
:104FB0004FF4E1394FF00C08524A534C1380534AD6
:104FC00053491380534E544AA4F8D800201DA4F826
:104FD000243184F8E330A4F82633A4F81234A4F87A
:104FE00028332260A4F82A33C4F8D41084F82C3370
:104FF000C4F8DC1084F82D33A4F8E0A084F82E3334
:10500000A4F85434A4F85636A4F85836A4F85A36FE
:1050100084F85C3684F85D3684F85E363370A4F824
:105020002431A4F82633A4F82833A4F82A3384F8CA
:105030002C3384F82D3384F82E3384F8E2706260C8
:10504000C4E90293C4E90433C4E906832362FDF78B
:10505000D1F800283ED194F82E3303F0FF05CBBBE6
:10506000204684F82D73FFF766FF2C4A2C4BC4F8BA
:105070000424C4F80C244FF4006204F54D70A4F825
:105080005454C4F83033A4F85656A4F808A4A4F82D
:105090005856C4F81024A4F85A56C4F8343384F887
:1050A0005C56C4F8389384F85D56C4F83C5384F8D1
:1050B0005E56C4F84053C4F84453C4F84883C4F857
:1050C0004C53C4F85053FDF795F868B11548FFF7F5
:1050D0004EFF13E00C48FFF74AFF1248FFF747FF67
:1050E0004FF0FF30BDE8F08794F85E36002BEDD12D
:1050F00004F54C7084F85D76FFF71DFF0123002056
:105100003370EFE760040020E4040020E204002094
:1051100000080140440B002000380140000C014011
:1051200000480040140800202DE9F04F794D036835
:105130002A688DB093427FD0D5F83023934240F057
:1051400098804FF001084FF44C7606FB08F61022C9
:10515000002108A800F0A8FBAB596F49AA198B429F
:105160006DD16E4B9A6942F480429A619A6902F459
:1051700080420392039A9A6942F004029A619B6901
:1051800003F004030493049B4FF44C7707FB08F7E8
:10519000EC19B4F8D83008A9089302230993032323
:1051A000D4F8D4000B93FCF779FAB4F8E03000207F
:1051B0000893012308A9CDE90903D4F8DC00FCF722
:1051C0006DFA94F8E230002B00F08B80534B4FF4D3
:1051D0004C795A6909FB08F942F001025A615B698E
:1051E000EA5903F001030793079B4B4B06F14C0A66
:1051F0009A420ABF03F54843494B5833E364143BD2
:10520000C4F890308022002305EB0904C4E914336C
:10521000A2650192C4E9173320224FF48053AA44B7
:10522000C4E919235046FCF7A1F8019A074618B3C0
:10523000012384F82E331CE04FF0000883E739493E
:105240008B4213D1354BDA6942F48022DA61DA6994
:1052500002F480220592059A9A6942F008029A6146
:105260009B6903F008030693069B8DE7012382F8F0
:105270002E330DB0BDE8F08F102306F1040B9036ED
:10528000AB442E44C4E92530C4E92720C4E92900F1
:10529000C4F8AC00C4F840A0C4F870B03046FCF7C5
:1052A00065F820B15046FCF793F82764C0E755F83D
:1052B0000910194AE6639142C4F8B4B023D10246FA
:1052C000082101900E20FBF7E5FF0E20FCF716F8F1
:1052D000019B0F201A460821FBF7DCFF0F20FCF78B
:1052E0000DF84FF44C7303FB08F80B4B55F80820EE
:1052F0009A4208D1252000220821FBF7CBFF252068
:10530000FBF7FCFFB5E7272000220821FBF7C2FFCF
:105310002720F5E7E4040020003801400010024097
:10532000300002400048004070B5274C03682268F6
:10533000934205D0D4F83023934243D1012600E0B4
:1053400000264FF44C757543631993F8E2304BB166
:1053500005F14C002044FCF73BF805F19000204497
:10536000FCF736F84FF44C7575436619B6F8D8104B
:10537000D6F8D400FCF772FAB6F8E010D6F8DC00E4
:10538000FCF76CFA6359114A934210D102F5584266
:105390009369252023F480439361FBF7BDFF0E2022
:1053A000FBF7BAFF0F20BDE87040FBF7B5BF084A16
:1053B000934207D102F5E432D369272023F48023F6
:1053C000D361F0E770BD00BFE40400200038014065
:1053D0000048004007B50B4890F8E23063B14368DD
:1053E0001A68D20608D5002201921A6801925B68F9
:1053F0000193019BFFF786FD034803B05DF804EBC2
:10540000FDF75AB8E4040020E804002007B513486B
:1054100090F85D364BB9D0F834331A6800925B6867
:105420000093009B03B05DF804FB90F812347BB14D
:10543000D0F834331A68D2060AD5002201921A68CD
:1054400000F54C7001925B680193019BFFF75AFDD8
:10545000034803B05DF804EBFDF72EB8E404002028
:10546000180800200148FCF785B800BF740500202B
:1054700010B5054C04F14C00FCF77CF82046BDE863
:105480001040FFF73FBD00BFE40400200F4A9042E8
:10549000A2F1040217D002F54D73984212D10123F4
:1054A0004FF44C7101FB0323B3F82813B3F82A23FC
:1054B0000A44C2F30802A3F828230022A3F82A23EF
:1054C00083F82C2370470023EAE700BFE80400209C
:1054D00070B5124D0646A842A5F104051AD005F58F
:1054E0004D73984218D101214FF44C744C432B1941
:1054F00093F82D2382B193F8E2206AB993F8E30080
:10550000E334FFF7E9FC29193046BDE87040012279
:10551000FDF794B90021E7E770BD00BFE804002063
:1055200073B51A4D0646A842A5F1040505D005F548
:105530004D73984227D1012400E000244FF44C70B1
:1055400000FB045090F82D33EBB100230193336836
:105550001A6801925B680193019B96F84230202BF8
:1055600001D1FFF7E8FC96F84130202B0BD14FF426
:105570004C7303FB045494F82C3323B10023A4F898
:105580002A3384F82C3302B070BD00BFE804002039
:1055900030B5304B1B789BB12F4A92F82D33A3B115
:1055A000B2F82633B2F828439BB2A4B2A34209D37F
:1055B0001B1B9BB2C3F5FF7301339BB2994204D905
:1055C000012037E003F50073F2E792F85D368BB106
:1055D000B2F85636B2F858469BB2A4B2A34238BFCE
:1055E00003F500731B1B9BB2C3F5FF7301339BB222
:1055F0009942E5D892F82D339BB10446231A9BB209
:1056000099420ED9B2F8263314F8015B134483F89B
:105610002651B2F826330133C3F30803A2F8263328
:10562000ECE792F85D3623B10446231A9BB2994207
:1056300001D8002030BDB2F8563614F8015B13448F
:1056400083F85654B2F856360133C3F30803A2F870
:105650005636EAE7440B0020E4040020F8B52D4B51
:105660001B78002B50D02C4F00243D463E1D4FF49C
:105670004C7303FB047393F82D23002A43D093F853
:105680002C23002A3FD1B3F82623B3F8283392B253
:105690009BB29A4238BF02F50072D21A92B292B30C
:1056A0004FF44C7303FB0453B3F828130120114447
:1056B000B1F5007F4FF44C7101FB04F1C8BFB3F8A2
:1056C000282305EB0103C4BFC2F5007292B283F830
:1056D0002C03A3F82A2393F8E2C0B3F828337018F8
:1056E00001F5937119442944BCF1000F0FD0FCF768
:1056F000E3FD40B14FF44C73002203FB0453A3F8C5
:105700002A2383F82C2304B1F8BD0124AFE7FCF76A
:10571000BAFDEEE7440B0020E404002010B5124B64
:105720001B7803F0FF00D3B100214FF44C740F48F5
:1057300004FB010292F82D337BB192F82C338BB924
:10574000B2F82633B2F828239BB292B2934238BF04
:1057500003F500739B1A9BB223B909B1002010BD59
:105760000121E5E70120FAE7440B0020E4040020D2
:1057700007B5094B1A7802F0FF035AB1074B1A8894
:10578000CDE90001064B8021064800F00DF803B07A
:105790005DF804FB1846FAE7440B00206004002083
:1057A000E2040020620400202DE9F0478046BDF8A5
:1057B0002400089F80B34FF0000900F1FF3E1C88D1
:1057C000944229D025464FF0000C18F80500013509
:1057D00095FBF1F601FB16560D28B5B232D00A281A
:1057E0000BD10020AC4207EB000C17D11C808CF8C9
:1057F00000900028E3D0BDE8F0870CF1010CAA422C
:105800001FFA8CFCE1D14A1E944505DB013494FB60
:10581000F1F201FB124119800020ECE704F1010ACA
:1058200018F804609AFBF1F401FB14A40D2EA4B245
:10583000D8D00A2ED6D07045BEBF013080B28CF8C9
:105840000060CFE7AA42CCD018F806000A28C8D1D9
:10585000013696FBF1F501FB1566B5B2C1E7000014
:1058600070B500250C4E0D4CA41BA410A54209D107
:1058700003F06AFE00250A4E0A4CA41BA410A542A0
:1058800005D170BD56F8253098470135EEE756F83A
:10589000253098470135F2E7809C0008809C00087D
:1058A000809C0008849C000803460244934200D177
:1058B000704703F8011BF9E7002B2DE9F0471E465E
:1058C000BBBF03F100431E4600232D2388B0149F65
:1058D000DDE9121A27F02007462F1446109D0B70A1
:1058E00004D0452F00D10135022300E0032307AA8D
:1058F000049206AACDE902A2CDE90035224633463C
:1059000001F03AFC472F804602D1119BDB0726D5D8
:10591000462F08EB050911D198F80030302B0AD139
:105920000022002320463146FBF748F818B9C5F19C
:105930000105CAF80050DAF800309944002200232B
:1059400020463146FBF73AF838B93022079B4B45E1
:1059500005D2591C07911A70F8E7CDF81C90404603
:10596000079B159AA3EB0803136008B0BDE8F08706
:10597000F7B50029B4BF2D232B230446B8BF4942F5
:10598000092904F8022B437021DD0DF107031F469E
:105990000A2691FBF6F506FB1511092D01F13001E0
:1059A00003F8011C03F1FF32294609DC3031023BC8
:1059B00002F8011CBB42224604D3101A03B0F0BD0A
:1059C0001346E6E713F8012B04F8012BF2E7302326
:1059D00019448370021DC170EFE700002DE9F04FFC
:1059E00091B00C461A9F93461E46054602F0A6FC4F
:1059F000036818460993FAF7B5FB00230E933B683A
:105A00000A90073323F0070303F1080294F8188083
:105A1000D4F800A03A60D3E90023C4E91223D4E902
:105A2000127929F000430B934FF0FF32A64B384612
:105A30000B99FAF7F5FF68BB4FF0FF32A24B3846DF
:105A40000B99FAF7CFFF28BB0022002338464946BE
:105A5000FAF7BEFF10B12D2384F843309B4F9C4BC7
:105A6000B8F1470F98BF1F4603234FF00009236189
:105A70002AF00403236000965B460FAA21462846BD
:105A800000F0E2F9013040F090804FF0FF3011B0AB
:105A9000BDE8F08F3A464B4638464946FAF7C0FF14
:105AA00010B18C4F8C4BDBE763684AF48062591C61
:105AB0000DA80EA940D1062363604FF0000C0DF134
:105AC0003303CDE9012363682260CDE90308009325
:105AD0003A464B46CDE9051C2846FFF7EDFE08F097
