:020000040800F2
:1000000000500020D9B2000821B3000821B3000835
:1000100021B3000821B3000821B30008000000004C
:1000200000000000000000000000000021B30008F4
:1000300021B300080000000021B30008B5540008F7
:1000400021B3000821B3000821B3000821B3000840
:1000500021B3000821B3000821B3000821B3000830
:1000600021B3000821B3000821B3000821B3000820
:10007000113600081D3600082961000835610008A6
:1000800021B3000821B3000821B3000821B3000800
:1000900021B3000821B3000821B3000821B30008F0
:1000A00021B3000821B3000821B3000821B30008E0
:1000B000B954000821B300089D67000821B3000867
:1000C00021B3000821B3000821B3000821B30008C0
:1000D00021B300089960000821B30008D16000082E
:1000E00021B3000821B3000821B30008000000007C
:1000F0000000000000000000000000000000000000
:0C01000000000000000000005FF808F1A3
:1001100010B5054C237833B9044B13B10448AFF341
:1001200000800123237010BD580200200000000051
:1001300030B3000808B5034B1BB103490348AFF3C4
:10014000008008BD000000005C02002030B3000801
:1001500010F8012B11F8013B012A28BF9A42F7D071
:10016000D01A7047034613F8012B002AFBD1181A46
:100170000138704781F0004102E000BF83F0004386
:1001800030B54FEA41044FEA430594EA050F08BF32
:1001900090EA020F1FBF54EA000C55EA020C7FEAF6
:1001A000645C7FEA655C00F0E2804FEA5454D4EB73
:1001B0005555B8BF6D420CDD2C4480EA020281EA3D
:1001C000030382EA000083EA010180EA020281EA75
:1001D0000303362D88BF30BD11F0004F4FEA0131C7
:1001E0004FF4801C4CEA113102D0404261EB4101D6
:1001F00013F0004F4FEA03334CEA133302D052425C
:1002000063EB430394EA050F00F0A780A4F1010417
:10021000D5F1200E0DDB02FA0EFC22FA05F2801851
:1002200041F1000103FA0EF2801843FA05F3594137
:100230000EE0A5F120050EF1200E012A03FA0EFCB6
:1002400028BF4CF0020C43FA05F3C01851EBE371E0
:1002500001F0004507D54FF0000EDCF1000C7EEBFD
:1002600000006EEB0101B1F5801F1BD3B1F5001F3B
:100270000CD349085FEA30004FEA3C0C04F101045A
:100280004FEA445212F5800F80F09A80BCF1004F83
:1002900008BF5FEA500C50F1000041EB045141EA05
:1002A000050130BD5FEA4C0C404141EB010111F406
:1002B000801FA4F10104E9D191F0000F04BF0146B1
:1002C0000020B1FA81F308BF2033A3F10B03B3F18F
:1002D00020020CDA0C3208DD02F1140CC2F10C021F
:1002E00001FA0CF021FA02F10CE002F11402D8BF7D
:1002F000C2F1200C01FA02F120FA0CFCDCBF41EA49
:100300000C019040E41AA2BF01EB0451294330BD17
:100310006FEA04041F3C1CDA0C340EDC04F11404F4
:10032000C4F1200220FA04F001FA02F340EA0300CB
:1003300021FA04F345EA030130BDC4F10C04C4F111
:10034000200220FA02F001FA04F340EA03002946F1
:1003500030BD21FA04F0294630BD94F0000F83F43B
:10036000801306BF81F480110134013D4EE77FEA1E
:10037000645C18BF7FEA655C29D094EA050F08BF6A
:1003800090EA020F05D054EA000C04BF194610464B
:1003900030BD91EA030F1EBF0021002030BD5FEA8F
:1003A000545C05D14000494128BF41F0004130BDB7
:1003B00014F580043CBF01F5801130BD01F000450B
:1003C00045F0FE4141F470014FF0000030BD7FEA7E
:1003D000645C1ABF194610467FEA655C1CBF0B4679
:1003E000024650EA013406BF52EA033591EA030F90
:1003F00041F4002130BD00BF90F0000F04BF002188
:10040000704730B54FF4806404F132044FF00005BA
:100410004FF0000150E700BF90F0000F04BF002133
:10042000704730B54FF4806404F1320410F0004599
:1004300048BF40424FF000013EE700BF42004FEA94
:10044000E2014FEA31014FEA02701FBF12F07F4311
:1004500093F07F4F81F06051704732F07F4208BFC8
:10046000704793F07F4F04BF41F40021704730B5CF
:100470004FF4607401F0004521F000411CE700BF1B
:1004800050EA010208BF704730B54FF000050AE09E
:1004900050EA010208BF704730B511F0004502D59F
:1004A000404261EB41014FF4806404F132045FEAA1
:1004B000915C3FF4D8AE4FF003025FEADC0C18BF4A
:1004C00003325FEADC0C18BF033202EBDC02C2F13C
:1004D000200300FA03FC20FA02F001FA03FE40EACE
:1004E0000E0021FA02F11444BDE600BF70B54FF0D2
:1004F000FF0C4CF4E06C1CEA11541DBF1CEA1355B0
:1005000094EA0C0F95EA0C0F00F0DEF82C4481EA17
:10051000030621EA4C5123EA4C5350EA013518BF37
:1005200052EA033541F4801143F4801338D0A0FB24
:1005300002CE4FF00005E1FB02E506F00042E0FBD1
:1005400003E54FF00006E1FB03569CF0000F18BFD7
:100550004EF0010EA4F1FF04B6F5007F64F540747F
:1005600004D25FEA4E0E6D4146EB060642EAC62112
:1005700041EA55514FEAC52040EA5E504FEACE2E7F
:10058000B4F1FD0C88BFBCF5E06F1ED8BEF1004F82
:1005900008BF5FEA500E50F1000041EB045170BDFE
:1005A00006F0004646EA010140EA020081EA030142
:1005B000B4EB5C04C2BFD4EB0C0541EA045170BD3E
:1005C00041F480114FF0000E013C00F3AB8014F1B8
:1005D000360FDEBF002001F0004170BDC4F1000401
:1005E000203C35DA0C341BDC04F11404C4F1200582
:1005F00000FA05F320FA04F001FA05F240EA0200DD
:1006000001F0004221F0004110EBD37021FA04F612
:1006100042EB06015EEA430E08BF20EAD37070BDCC
:10062000C4F10C04C4F1200500FA04F320FA05F02B
:1006300001FA04F240EA020001F0004110EBD3702D
:1006400041F100015EEA430E08BF20EAD37070BD9D
:10065000C4F1200500FA05F24EEA020E20FA04F376
:1006600001FA05F243EA020321FA04F001F0004125
:1006700021FA04F220EA020000EBD3705EEA430E96
:1006800008BF20EAD37070BD94F0000F0FD101F0C5
:100690000046400041EB010111F4801F08BF013CFE
:1006A000F7D041EA060195F0000F18BF704703F03C
:1006B0000046520043EB030313F4801F08BF013DC3
:1006C000F7D043EA0603704794EA0C0F0CEA13557F
:1006D00018BF95EA0C0F0CD050EA410618BF52EA39
:1006E0004306D1D181EA030101F000414FF000003F
:1006F00070BD50EA410606BF1046194652EA43064D
:1007000019D094EA0C0F02D150EA013613D195EAC0
:100710000C0F05D152EA03361CBF104619460AD108
:1007200081EA030101F0004141F0FE4141F4700112
:100730004FF0000070BD41F0FE4141F4780170BD02
:1007400070B54FF0FF0C4CF4E06C1CEA11541DBF67
:100750001CEA135594EA0C0F95EA0C0F00F0A7F869
:10076000A4EB050481EA030E52EA03354FEA013196
:1007700000F088804FEA03334FF0805545EA1313A9
:1007800043EA12634FEA022245EA111545EA106571
:100790004FEA00260EF000419D4208BF964244F108
:1007A000FD0404F5407402D25B084FEA3202B61A27
:1007B00065EB03055B084FEA32024FF480104FF4FB
:1007C000002CB6EB020E75EB030E22BFB61A75466F
:1007D00040EA0C005B084FEA3202B6EB020E75EB02
:1007E000030E22BFB61A754640EA5C005B084FEA6A
:1007F0003202B6EB020E75EB030E22BFB61A754637
:1008000040EA9C005B084FEA3202B6EB020E75EB41
:10081000030E22BFB61A754640EADC0055EA060E02
:1008200018D04FEA051545EA16754FEA06164FEA45
:10083000C30343EA52734FEAC2025FEA1C1CC0D1F1
:1008400011F4801F0BD141EA00014FF000004FF07E
:10085000004CB6E711F4801F04BF01430020B4F13F
:10086000FD0C88BFBCF5E06F3FF6AFAEB5EB030CF7
:1008700004BFB6EB020C5FEA500C50F1000041EBF4
:10088000045170BD0EF0004E4EEA113114EB5C04C1
:10089000C2BFD4EB0C0541EA045170BD41F4801194
:1008A0004FF0000E013C90E645EA060E8DE60CEA9C
:1008B000135594EA0C0F08BF95EA0C0F3FF43BAFB9
:1008C00094EA0C0F0AD150EA01347FF434AF95EA70
:1008D0000C0F7FF425AF104619462CE795EA0C0F54
:1008E00006D152EA03353FF4FDAE1046194622E721
:1008F00050EA410618BF52EA43067FF4C5AE50EAFB
:1009000041047FF40DAF52EA43057FF4EBAE12E7EA
:100910004FF0FF3C06E000BF4FF0010C02E000BFCB
:100920004FF0010C4DF804CD4FEA410C7FEA6C5CAE
:100930004FEA430C18BF7FEA6C5C1BD001B050EA51
:10094000410C0CBF52EA430C91EA030F02BF90EA3C
:10095000020F0020704710F1000F91EA030F58BFFB
:10096000994208BF90422CBFD8176FEAE37040F05D
:10097000010070474FEA410C7FEA6C5C02D150EAFB
:10098000013C07D14FEA430C7FEA6C5CD6D152EAB6
:10099000033CD3D05DF8040B704700BF844610467B
:1009A00062468C461946634600E000BF01B5FFF77A
:1009B000B7FF002848BF10F1000F01BD4DF808ED4A
:1009C000FFF7F4FF0CBF012000205DF808FB00BF1B
:1009D0004DF808EDFFF7EAFF34BF012000205DF875
:1009E00008FB00BF4DF808EDFFF7E0FF94BF0120C2
:1009F00000205DF808FB00BF4DF808EDFFF7CEFFC3
:100A000094BF012000205DF808FB00BF4DF808ED01
:100A1000FFF7C4FF34BF012000205DF808FB00BFD2
:100A20004FEA410C7FEA6C5C02D150EA013C0AD1EA
:100A30004FEA430C7FEA6C5C02D152EA033C02D1DC
:100A40004FF0000070474FF0010070474FEA41023D
:100A500012F5001215D211D56FF47873B3EB625210
:100A600012D94FEAC12343F0004343EA505311F037
:100A7000004F23FA02F018BF404270474FF00000C9
:100A8000704750EA013005D111F0004008BF6FF007
:100A9000004070474FF00000704700BF4A0011D27D
:100AA00012F5001211D20DD56FF47873B3EB6252C8
:100AB0000ED44FEAC12343F0004343EA505323FAD4
:100AC00002F070474FF00000704750EA013002D149
:100AD0004FF0FF3070474FF0000070474FEA41027F
:100AE000B2F1E04324BFB3F5001CDCF1FE5C0DD98C
:100AF00001F0004C4FEAC0024CEA5070B2F1004FD6
:100B000040EB830008BF20F00100704711F0804FD8
:100B100021D113F13872BCBF01F00040704741F49D
:100B200080114FEA5252C2F11802C2F1200C10FAA1
:100B30000CF320FA02F018BF40F001004FEAC12385
:100B40004FEAD32303FA0CFC40EA0C0023FA02F329
:100B50004FEA4303CCE77FEA625307D150EA0133FF
:100B60001EBF4FF0FE4040F44000704701F00040CF
:100B700040F0FE4040F40000704700BF80F00040AD
:100B800002E000BF81F0004142001FBF5FEA410365
:100B900092EA030F7FEA226C7FEA236C6AD04FEA65
:100BA0001262D2EB1363C1BFD218414048404140AA
:100BB000B8BF5B42192B88BF704710F0004F40F45C
:100BC000000020F07F4018BF404211F0004F41F478
:100BD000000121F07F4118BF494292EA030F3FD044
:100BE000A2F1010241FA03FC10EB0C00C3F1200357
:100BF00001FA03F100F0004302D5494260EB4000E6
:100C0000B0F5000F13D3B0F1807F06D340084FEA50
:100C1000310102F10102FE2A51D2B1F1004F40EB45
:100C2000C25008BF20F0010040EA030070474900AD
:100C300040EB000010F4000FA2F10102EDD1B0FA78
:100C400080FCACF1080CB2EB0C0200FA0CF0AABF6D
:100C500000EBC25052421843BCBFD040184370470B
:100C600092F0000F81F4000106BF80F40000013211
:100C7000013BB5E74FEA41037FEA226C18BF7FEAE8
:100C8000236C21D092EA030F04D092F0000F08BF2A
:100C90000846704790EA010F1CBF0020704712F011
:100CA0007F4F04D1400028BF40F00040704712F150
:100CB00000723CBF00F50000704700F0004343F0B5
:100CC000FE4040F4000070477FEA226216BF0846EB
:100CD0007FEA23630146420206BF5FEA412390EAAE
:100CE000010F40F4800070474FF0000304E000BFA4
:100CF00010F0004348BF40425FEA000C08BF704755
:100D000043F0964301464FF000001CE050EA010218
:100D100008BF70474FF000030AE000BF50EA01022D
:100D200008BF704711F0004302D5404261EB41011A
:100D30005FEA010C02BF84460146002043F0B6433F
:100D400008BFA3F18053A3F50003BCFA8CF2083A64
:100D5000A3EBC25310DB01FA02FC634400FA02FC6D
:100D6000C2F12002BCF1004F20FA02F243EB020074
:100D700008BF20F00100704702F1200201FA02FCD6
:100D8000C2F1200250EA4C0021FA02F243EB0200C9
:100D900008BF20EADC7070474FF0FF0C1CEAD0520D
:100DA0001EBF1CEAD15392EA0C0F93EA0C0F6FD0CE
:100DB0001A4480EA010C400218BF5FEA41211ED0AC
:100DC0004FF0006343EA501043EA5111A0FB013198
:100DD0000CF00040B1F5000F3EBF490041EAD3716D
:100DE0005B0040EA010062F17F02FD2A1DD8B3F1E9
:100DF000004F40EBC25008BF20F00100704790F058
:100E0000000F0CF0004C08BF49024CEA502040EAA9
:100E100051207F3AC2BFD2F1FF0340EAC25070476F
:100E200040F400004FF00003013A5DDC12F1190FAD
:100E3000DCBF00F000407047C2F10002410021FA1F
:100E400002F1C2F1200200FA02FC5FEA310040F137
:100E5000000053EA4C0308BF20EADC70704792F0B0
:100E6000000F00F0004C02BF400010F4000F013AE8
:100E7000F9D040EA0C0093F0000F01F0004C02BFE3
:100E8000490011F4000F013BF9D041EA0C018FE752
:100E90000CEAD15392EA0C0F18BF93EA0C0F0AD058
:100EA00030F0004C18BF31F0004CD8D180EA01007E
:100EB00000F00040704790F0000F17BF90F0004F17
:100EC000084691F0000F91F0004F14D092EA0C0FF9
:100ED00001D142020FD193EA0C0F03D14B0218BF8C
:100EE000084608D180EA010000F0004040F0FE40D2
:100EF00040F40000704740F0FE4040F4400070476E
:100F00004FF0FF0C1CEAD0521EBF1CEAD15392EAEC
:100F10000C0F93EA0C0F69D0A2EB030280EA010CDC
:100F200049024FEA402037D04FF0805343EA111175
:100F300043EA10130CF000408B4238BF5B0042F1D3
:100F40007D024FF4000C8B4224BF5B1A40EA0C0078
:100F5000B3EB510F24BFA3EB510340EA5C00B3EBAA
:100F6000910F24BFA3EB910340EA9C00B3EBD10F98
:100F700024BFA3EBD10340EADC001B0118BF5FEAEA
:100F80001C1CE0D1FD2A3FF650AF8B4240EBC25013
:100F900008BF20F0010070470CF0004C4CEA5020D4
:100FA0007F32C2BFD2F1FF0340EAC250704740F423
:100FB00000004FF00003013A37E792F0000F00F015
:100FC000004C02BF400010F4000F013AF9D040EA93
:100FD0000C0093F0000F01F0004C02BF490011F427
:100FE000000F013BF9D041EA0C0195E70CEAD1531F
:100FF00092EA0C0F08D142027FF47DAF93EA0C0F06
:101000007FF470AF084676E793EA0C0F04D14B02E9
:101010003FF44CAF08466EE730F0004C18BF31F09B
:10102000004CCAD130F000427FF45CAF31F0004395
:101030007FF43CAF5FE700BF4FF0FF3C06E000BF2E
:101040004FF0010C02E000BF4FF0010C4DF804CD51
:101050004FEA40024FEA41037FEA226C18BF7FEA61
:10106000236C11D001B052EA530C18BF90EA010F63
:1010700058BFB2EB030088BFC81738BF6FEAE170F2
:1010800018BF40F0010070477FEA226C02D15FEA8E
:10109000402C05D17FEA236CE4D15FEA412CE1D0FA
:1010A0005DF8040B704700BF844608466146FFE7C1
:1010B0000FB5FFF7C9FF002848BF10F1000F0FBDA3
:1010C0004DF808EDFFF7F4FF0CBF012000205DF89C
:1010D00008FB00BF4DF808EDFFF7EAFF34BF012021
:1010E00000205DF808FB00BF4DF808EDFFF7E0FFBA
:1010F00094BF012000205DF808FB00BF4DF808ED0B
:10110000FFF7D2FF94BF012000205DF808FB00BF6D
:101110004DF808EDFFF7C8FF34BF012000205DF84F
:1011200008FB00BF4FEA40024FEA41037FEA226C0E
:1011300002D15FEA402C08D17FEA236C02D15FEA3A
:10114000412C02D14FF0000070474FF00100704772
:101150004FEA4002B2F1FE4F0FD34FF09E03B3EBC4
:1011600012620DD94FEA002343F0004310F0004F04
:1011700023FA02F018BF404270474FF0000070475A
:1011800012F1610F01D1420205D110F0004008BFF9
:101190006FF0004070474FF00000704742000ED2E1
:1011A000B2F1FE4F0BD34FF09E03B3EB126209D4A2
:1011B0004FEA002343F0004323FA02F070474FF058
:1011C0000000704712F1610F01D1420202D14FF0CD
:1011D000FF3070474FF00000704700BF70470000BD
:1011E00038B50E4B054618784FF47A73B3FBF0F31D
:1011F0000B4A1068B0FBF3F000F0A2F8044658B9AF
:101200000F2D09D8024629464FF0FF3000F042F872
:101210002046044B1D6038BD0120FCE70000002083
:101220005402002004000020074A08B51368032078
:1012300043F01003136000F01BF80F20FFF7D0FFFE
:10124000FFF7CCFF002008BD00200240034A044BFA
:1012500011681B780B441360704700BF0C0E002010
:1012600000000020014B1868704700BF0C0E0020E2
:10127000074A0002D36800F4E06023F4E0631B0433
:101280001B0C43F0BF6343F400330343D360704748
:1012900000ED00E0174B70B5DC684FF0FF36C4F38B
:1012A0000224C4F10705042D04F1040328BF04251A
:1012B000062B98BF002406FA05F388BF033C21EAF9
:1012C0000303A34006FA04F422EA0404002843EAD4
:1012D0000403A8BF00F160404FEA0313B8BF064AF9
:1012E000DBB2ABBF00F5614000F00F0080F80033C7
:1012F000135470BD00ED00E014ED00E0002808DBA1
:101300000123420900F01F0003FA00F0014B43F8EB
:101310002200704700E100E000280DDB01224309B4
:1013200000F01F0002FA00F0044A203342F82300C4
:10133000BFF34F8FBFF36F8F704700BF00E100E036
:101340000138B0F1807F0AD2F021064B064A58607E
:1013500082F823100020072298601A60704701204D
:10136000704700BF10E000E000ED00E010B548B3AA
:1013700014220168144B0B44B3FBF2F39B0003648B
:10138000124BC363022380F82130D0E90134234398
:10139000C4680A682343046922F47F5223434469E2
:1013A00022F03002234384692343C4692343134357
:1013B0000B6001220023836380F8203080F8212015
:1013C000184610BD0120FCE7F8FFFDBF00000240F9
:1013D00010B508B30168114A0B680A4423F00103F1
:1013E0000B6000230B604B608B60CB601421B2FB61
:1013F000F1F2012192000A4C026401FA02F2C46384
:1014000062608363C0E90A33C0E90C3380F821309D
:1014100080F82030184610BD0120FCE7F8FFFDBF22
:1014200000000240F0B590F82040012C36D0012495
:1014300090F8215080F82040EDB2A5424FF0000610
:101440004FF0020428D180F82140046886632668A2
:1014500026F001062660D0E90F67BD407560636025
:1014600043680568102BC36A0BBFA260A160E160EE
:10147000E2604BB1236843F00E03002023602B6829
:1014800043F001032B60F0BD236823F004032360C5
:10149000236843F00A03F0E780F820600220F2E7B7
:1014A00090F82130022B06D004238363002380F8B8
:1014B0002030012070470368C16B1A6822F00E02C9
:1014C0001A601A6822F001021A600122036C02FA03
:1014D00003F34B60002380F8212080F82030184669
:1014E0007047000090F8213010B5022B03D0042380
:1014F0008363012010BD03681A6822F00E021A608F
:101500001A6822F001021A60184A93421FD014325E
:1015100093421ED0143293421DD0143293421DD0F8
:10152000143293421DD0143293420CBF4FF48013F7
:101530004FF080730E4A00245360012380F821305D
:10154000436B80F820407BB198472046D2E70123C7
:10155000F0E71023EEE74FF48073EBE74FF480538E
:10156000E8E74FF48033E5E71846C3E70800024098
:101570000000024070B40425C66B026C3468036836
:1015800095402542196832D04D0730D51A68960625
:101590005EBF1A6822F004021A603E4A934219D0D4
:1015A0001432934218D01432934217D0143293421B
:1015B00017D01432934217D0143293420CBF4FF419
:1015C00080034FF08063344A5360C36A002B5ED0BF
:1015D00070BC18470423F6E74023F4E74FF4806318
:1015E000F1E74FF48043EEE74FF48023EBE7022569
:1015F0009540254235D08D0733D51A68940606D418
:101600001A6822F00A021A60012280F82120214A79
:10161000934219D01432934218D01432934217D007
:101620001432934217D01432934217D0143293429B
:101630000CBF4FF400134FF00073174A53600023A0
:1016400080F82030836AC1E70223F6E72023F4E71D
:101650004FF40073F1E74FF40053EEE74FF400331B
:10166000EBE708259540254211D009070FD51968E9
:1016700021F00E011960012303FA02F27260836304
:1016800080F82130002380F82030036B9EE770BC87
:10169000704700BF08000240000002402DE9F74FEC
:1016A00000242646654BDFF8A4C1DFF8A4E10A68F0
:1016B00032FA06F502D103B0BDE8F08F4FF0010811
:1016C00008FA06F802EA080290457ED14D68122D0C
:1016D00000F0A98000F28280022D00F0A18076D86F
:1016E000002D00F08880012D00F098804FF00F0948
:1016F000FF2A93BF824606F18045083DD0F800B02E
:1017000092BFB500D0F804B0AD0009FA05F82BEA95
:10171000080804FA05F588BF00F1040A48EA05053F
:10172000CAF80050D1F804A01AF0805F4DD0444FA1
:1017300026F00308BD6908F1804845F00105BD6148
:10174000BD6908F5803805F00105019506F0030B29
:10175000019D4FEA8B0BD8F8085009FA0BF925EADE
:101760000909384DA84263D005F58065A84261D0CB
:1017700005F58065A8425FD005F58065A8420CBFDD
:101780000325042505FA0BF545EA0905C8F80850B4
:101790009D681AF4801F14BF154395439D60DD6852
:1017A0001AF4001F14BF15439543DD605D681AF4F9
:1017B000003F14BF154395435D601D681AF4803FD8
:1017C00014BF2A4325EA02021A6001366FE7032D8F
:1017D00022D0112D8AD1CC68043487E71A4FBD423C
:1017E00009D012D8DFF86C904D4504D009F5803946
:1017F0004D457FF47BAF8C68C4B1012C0CBFC0F8A1
:101800001080C0F81480082470E76545F3D0754552
:10181000F1D0DFF84490EBE7002467E7CC6865E798
:10182000CC68083462E7CC680C345FE704245DE7D9
:101830000025A7E70125A5E70225A3E7000401404D
:10184000001002400008014000002110000031108B
:101850000000321000001110000022102DE9F74F97
:101860004FF0040B00234FF0010A4FF00F0800EB7C
:101870000B020192314A31FA03F402D103B0BDE800
:10188000F08F0AFA03F70F404FD023F0030404F15E
:10189000804404F5803403F0030C294DA6684FEA18
:1018A0008C0C08FA0CF9A84209EA060E3FD005F59F
:1018B0008065A8423DD005F58065A8423BD005F57E
:1018C0008065A84214BF0425032505FA0CF575456B
:1018D0006FEA07060FD11568354015605568354029
:1018E0005560D5683540D560956835409560A568E8
:1018F00025EA0905A560FF2F93BF074603F1804441
:10190000083CD0F800C08ABFD0F804C09C00A400F6
:1019100008FA04F588BF019F0BFA04F42CEA0505C8
:1019200025433D60C4682640C6600133A3E7002517
:10193000CBE70125C9E70225C7E700BF0004014046
:10194000000801408368194214BF0120002070473D
:101950000AB1016170470904FBE7C36801EA0302A9
:1019600021EA030141EA02410161704770B5044672
:1019700018B34CF6CC42036841F23C361A6045F28B
:1019800055521A6042685A6082689A60FFF76AFC92
:1019900005462368D86810F0030003D14AF6AA224E
:1019A0001A6070BDFFF75EFC401BB042F1D923689E
:1019B000DB689B07EDD00320F3E70120F1E74AF64F
:1019C000AA22036800201A60704700002DE9F34145
:1019D000054608B901203CE00368DB0710D42B68FA
:1019E0009F075DD42B68190700F194802B685A0774
:1019F00000F1BE80E869002840F02C81002028E03A
:101A00008F4C636803F00C03042B07D0636803F06A
:101A10000C03082B09D16368DE0306D523689C03F9
:101A2000DDD56B68002BDAD1D4E76B68B3F5803F66
:101A300012D1236843F480332360FFF713FC06467A
:101A400023689803CBD4FFF70DFC801B6428F7D9DB
:101A5000032002B0BDE8F0819BB9236823F48033F2
:101A60002360236823F480232360FFF7FBFB0646F3
:101A700023689903B3D5FFF7F5FB801B6428F7D9DA
:101A8000E6E7B3F5A02F236803D143F48023236056
:101A9000CFE723F480332360236823F48023CBE74C
:101AA000674C636813F00C0F07D0636803F00C03F6
:101AB000082B10D16368DA030DD423689B0702D585
:101AC0002B69012B86D123686A6923F0F80343EA66
:101AD000C203236086E72A695A4B6AB101221A6061
:101AE000FFF7C0FB064623689F07ECD4FFF7BAFB5D
:101AF000801B0228F7D9ABE71A60FFF7B3FB064655
:101B0000236898077FF56EAFFFF7ACFB801B0228B8
:101B1000F6D99DE7AA694A4C4B4BDAB101221A600B
:101B2000FFF7A0FB0646636A9B070DD54FF4FA52F8
:101B3000464B1B68B3FBF2F3019300BF019B5A1E97
:101B40000192002BF9D151E7FFF78CFB801B022893
:101B5000E9D97DE71A60FFF785FB0646636A9F07B0
:101B60007FF544AFFFF77EFB801B0228F6D96FE7B5
:101B7000334CE369D80024D40127E36943F0805350
:101B8000E361E36903F080530093009B304E3368B8
:101B9000D90518D5EB68012B26D1236A43F0010340
:101BA0002362FFF75FFB41F288368046236A9B077A
:101BB0003FD5002F3FF41EAFE36923F08053E3616C
:101BC00018E70027E2E7336843F480733360FFF7D8
:101BD00049FB80463368DA05DCD4FFF743FBA0EB12
:101BE00008006428F6D933E7ABB9236A41F2883894
:101BF00023F001032362236A23F004032362FFF727
:101C000031FB0646236A9807D3D5FFF72BFB801BD1
:101C10004045F7D91CE7052B236A03D143F00403A1
:101C20002362BAE723F001032362236A23F004034B
:101C3000B6E7FFF717FBA0EB0800B042B6D907E7FD
:101C40000010024000004242800442425402002040
:101C5000007000402A4B5A681C4602F00C02082A09
:101C60003DD00023274E022833602BD1FFF7FAFA2C
:101C70000746236899011FD42B6AB3F5803F05D12D
:101C80006268A96822F400320A436260696A626885
:101C90000B4322F474121343636001233360FFF794
:101CA000E1FA054623689A013FF5A8AEFFF7DAFA94
:101CB000401B0228F6D9CBE6FFF7D4FAC01B022856
:101CC000D7D9C5E6FFF7CEFA054623689B017FF515
:101CD00095AEFFF7C7FA401B0228F6D9B8E60128EF
:101CE0003FF4B7AE58682B6A00F480329A427FF412
:101CF00071AE6B6A00F47010C01A18BF0120A8E61C
:101D000000100240600042420D494B6803F00C0293
:101D1000082A12D10B48C3F38342DB03825C09D546
:101D200009484B685043094AC3F34043D35CB0FBB6
:101D3000F3F070470648504370470348704700BFB0
:101D40000010024080B3000800127A0090B300082F
:101D500000093D002DE9F0410D46044610B901206F
:101D6000BDE8F081444A136803F007038B4228D38F
:101D700021688E0730D4CA0743D43F4A136803F062
:101D80000703AB4265D822683C4D12F0040F6CD1BA
:101D9000130706D56B68226923F4605343EAC20334
:101DA0006B60FFF7B1FF6B68354AC3F30313D35C75
:101DB000D840344B1860344B1868FFF711FA0020F4
:101DC000CEE7136823F007030B431360136803F097
:101DD00007038B42C3D1CBE7284B11F0040F1EBF82
:101DE0005A6842F4E0625A60080742BF5A6842F4F7
:101DF00060525A605A68A06822F0F00202435A60AA
:101E0000B9E762681D4E012A33681AD113F4003F06
:101E1000A5D0736841F2883823F00303134373603D
:101E2000FFF720FA07467368626803F00C03B3EB10
:101E3000820FA2D0FFF716FAC01B4045F3D903204A
:101E40008EE7022A02D113F0007FE1E713F0020FC0
:101E5000DEE7136823F007032B431360136803F0D6
:101E60000703AB427FF47BAF8DE76B68E16823F437
:101E7000E0630B436B608BE70020024000100240E0
:101E800040BC00085402002004000020044B054A16
:101E90005B68C3F30223D35C034A1068D8407047E1
:101EA0000010024050BC000854020020044B054AB8
:101EB0005B68C3F3C223D35C034A1068D840704701
:101EC0000010024050BC0008540200202DE9F743E6
:101ED0001E46884617460546FFF7C4F90A9C344457
:101EE000241AFFF7BFF98146244B1B68C3F3CB3399
:101EF00063432A680193936838EA03030CBF012304
:101F00000023BB4201D100202EE0731CF3D0FFF769
:101F1000A9F9A0EB0900A04229D32B685A6822F046
:101F2000E0025A606A68B2F5827F0AD1AA68B2F507
:101F3000004F02D0B2F5806F03D11A6822F0400240
:101F40001A60AA6AB2F5005F07D11A6822F400523B
:101F50001A601A6842F400521A60012385F8513061
:101F60000023032085F8503003B0BDE8F083019BC7
:101F7000002B019B08BF0024013BBAE7540200205C
:101F800073B50B4600920D46164602210122044607
:101F9000FFF79CFF024628B1636D032043F0200346
:101FA000636507E000962B4680212046FFF78EFFF1
:101FB0000028F1D102B070BD37B50B464168044628
:101FC000B1F5827F18D18068B0F5004F02D0B0F52E
:101FD000806F11D12168B0F5806F0D6825F0400544
:101FE0000D6009D10092012100222046FFF76EFF0B
:101FF00030B9002003B030BD009280210022F4E708
:10200000636D032043F020036365F3E710B50446D6
:10201000002851D0436A002B4AD14268B2F5827F32
:1020200000D0C3610023A36294F8513003F0FF0293
:1020300023B984F85020204601F058FB022322687F
:1020400084F851301368A06823F04003136063687C
:1020500000F4044003F482730343E068A16900F4D0
:1020600000600343206900F002000343606900F050
:102070000100034301F400700343E069090C00F020
:1020800038000343206A01F0040100F0800003439C
:10209000A06A00F40050034313605160D36900202C
:1020A00023F40063D3610123606584F8513010BDCF
:1020B0000023C0E90433B5E70120F8E72DE9F74331
:1020C00004460D461E4691460A9FFFF7CBF894F84A
:1020D00051308046DBB2012B61680AD0B1F5827FB6
:1020E00040F0E280A068002840F0DE80042B40F041
:1020F000DB80002D4AD0B9F1000F47D0002E45D02B
:1021000094F85030012B00F0CF80012384F8503038
:1021100094F85130C4F83890042B1CBF052384F880
:10212000513000236365C4E910332368E687E686EF
:102130001A68A687500658BF1A68256358BF42F030
:102140004002A68658BF1A60E268B2F5006F53D10C
:1021500009B1012E07D135F8022BDA60E38E256331
:10216000013B9BB2E3860125E38E9BB283B9E38FEB
:102170009BB26BB9424639462046FFF701FF002863
:102180007ED020236365002384F85030012030E0A6
:102190002268936899070DD5E38E9BB253B14DB178
:1021A0000025236B33F8021BD1602363E38E013BD0
:1021B0009BB2E3869368DB070CD5E38F9BB24BB1F0
:1021C0000125D268A36B23F8022BA363E38F013BA5
:1021D0009BB2E387FFF746F8A0EB0800B842C3D3F1
:1021E0007E1CC1D0012384F851300023032084F8E1
:1021F000503003B0BDE8F08309B1012E08D12A7830
:102200001A73236B01332363E38E013B9BB2E38696
:1022100001252CE02268936898070ED5E38E9BB2C7
:102220005BB155B10025236B1B781373236B01330E
:102230002363E38E013B9BB2E38622689368D90750
:102240000DD5E38F9BB253B10125D268A36B1A70F1
:10225000A36B0133A363E38F013B9BB2E387FFF7DB
:1022600001F8A0EB0800B84201D37B1CBAD1E38E81
:102270009BB2002BCED1E38F9BB2002BCAD179E762
:10228000A36833B901932368DA6801929B680193CC
:10229000019B012384F851300023606D84F8503095
:1022A000C01A18BF0120A4E70220A2E770B50446B7
:1022B00090F85100C0B2012808D06568B5F5827F5A
:1022C0006DD1A568002D6AD1042868D1002939D0C4
:1022D000002A37D0002B35D094F8500001285ED06A
:1022E000012084F8500094F85100002604281CBFF7
:1022F000052084F8510000206065E386E387A3860B
:10230000A38794F85130C4E91000042BE06C0CBF93
:10231000244B254B2163A2630BBFC362C362234BD3
:10232000234B21688362234B466303630C31E38FA5
:10233000FFF778F8054638B1636D84F8506043F0D4
:1023400010036365012029E02268A06C5368216BAB
:1023500043F001035360E38EC0E90A55C0E90C5510
:102360000C32FFF75FF830B1636D84F8505043F0E2
:1023700010036365E6E723681A6852065EBF1A68B1
:1023800042F040021A60002284F850205A6842F05D
:1023900020025A605A6842F002025A6070BD022060
:1023A000FCE700BFBD230008C9230008F52300088F
:1023B0005B240008D32300087047704708B5406AC3
:1023C000FFF7FBFF08BD704708B5406AFFF7FBFF4A
:1023D00008BD406A08B50268536823F003035360E0
:1023E000436D43F010034365012380F8513001F041
:1023F000FFF808BD38B50546446AFEF733FF2B6881
:1024000002461B689B0624D42368596821F02001EA
:102410005960A168C9B96168B1F5827F15D1596861
:1024200021F00301596020466421FFF7C5FD08B182
:10243000202363650023E387012384F85130636D13
:102440003BB1204601F0D4F838BD596821F00101B4
:10245000E8E72046FFF7B0FFF6E738B50546446ADF
:10246000FEF700FF2B6802461B689B061ED42168FE
:1024700020464B6823F020034B606421FFF780FD6A
:1024800018B1636D43F0200363652268536823F03D
:10249000030353600023E386E387012384F851306C
:1024A000636D1BB1204601F0A3F838BD204601F052
:1024B00093F8FAE7036A026A70B522F00102026239
:1024C000446882690D6822F073022A438D6823F004
:1024D00002032B430B4DA8420DD1056A23F00803DC
:1024E00025F004050562CD6824F440742B43D1E93E
:1024F000055635432C43446082614A684263036257
:1025000070BD00BF002C0140036A026A70B522F45E
:10251000807202624468C2690D6822F073022A4325
:102520008D6823F4007343EA05230C4DA8420FD1B4
:10253000056A23F4006325F480650562CD6824F400
:10254000405443EA0523D1E90556354344EA0514CE
:102550004460C2614A68C263036270BD002C0140DE
:10256000036A026A30B522F4805202624468C2698A
:102570000D6822F4E64242EA05228D6823F40053F6
:1025800043EA0533064DA84202BF4D6924F4804456
:1025900044EA85144460C2614A680264036230BD43
:1025A000002C014090F83D30012B20D1022380F80F
:1025B0003D300368DA6842F00102DA600D4A934266
:1025C0000AD0B3F1804F07D0A2F59432934203D0E2
:1025D00002F58062934204D19A6802F00702062A4B
:1025E00003D01A6842F001021A60002070470120EF
:1025F000704700BF002C014070477047704770471C
:10260000036870B5DD681E690446B1070DD5AA07D9
:102610000BD56FF002021A6101229B6902779B07BA
:1026200069D0FFF7EAFF00232377710710D56A0707
:102630000ED56FF00402236820461A6102229B69BE
:10264000227713F4407F5CD0FFF7D7FF0023237776
:1026500033070FD528070DD56FF0080223682046F1
:102660001A610422DB692277990750D0FFF7C5FF72
:1026700000232377F20610D5EB060ED56FF010027B
:10268000236820461A610822DB69227713F4407F11
:1026900043D0FFF7B2FF00232377F00708D5E907FF
:1026A00006D56FF00102236820461A6102F00AFF86
:1026B000320608D52B0606D56FF080022368204627
:1026C0001A6100F0F0F9700608D5690606D56FF0BA
:1026D0004002236820461A61FFF791FFB20622D517
:1026E000AB0620D56FF0200223682046BDE870407D
:1026F0001A6100F0D7B9FFF77FFF2046FFF77EFF92
:1027000091E7FFF779FF2046FFF778FF9EE7FFF795
:1027100073FF2046FFF772FFAAE7FFF76DFF204621
:10272000FFF76CFFB7E770BD1C4A036890420AD000
:10273000B0F1804F07D0A2F59432904203D002F559
:102740008062904215D14A6823F070031343134A04
:1027500090420AD0B0F1804F07D0A2F59432904257
:1027600003D002F58062904203D1CA6823F440731B
:1027700013434A6923F0800313438A68C2620A68DC
:102780008262064A904204BF0A690263026842F00C
:10279000040202600122426103607047002C014084
:1027A00010B5044630B390F83D3003F0FF021BB97A
:1027B00080F83C2002F03AFE0223206884F83D3085
:1027C000211DFFF7B1FF0123002084F8463084F873
:1027D0003E3084F83F3084F8403084F8413084F84B
:1027E000423084F8433084F8443084F8453084F82B
:1027F0003D3010BD0120FCE710B5044630B390F821
:102800003D3003F0FF021BB980F83C2002F0FAFDD6
:102810000223206884F83D30211DFFF785FF012346
:10282000002084F8463084F83E3084F83F3084F845
:10283000403084F8413084F8423084F8433084F8E2
:10284000443084F8453084F83D3010BD0120FCE769
:10285000036A026A70B522F010020262446882695B
:102860000D6822F4E64242EA05228D6823F0200337
:1028700043EA05130C4DA8420FD1056A23F08003EB
:1028800025F040050562CD6824F4406443EA051351
:10289000D1E90556354344EA8504446082614A68BB
:1028A0008263036270BD00BF002C014038B590F810
:1028B0003C300446012B57D0012380F83C300C2AD1
:1028C00050D8DFE802F0074F4F4F1C4F4F4F2D4FAE
:1028D0004F4F3E000068FFF7EDFD236809699A69D4
:1028E00042F008029A619A6922F004029A619A6998
:1028F0000A439A610020002384F83C3038BD006808
:10290000FFF7A6FF236809699A6942F400629A6199
:102910009A6922F480629A619A6942EA0122E8E7A0
:102920000068FFF7F1FD23680969DA6942F00802DF
:10293000DA61DA6922F00402DA61DA690A43DA61FB
:10294000D8E70068FFF70CFE23680969DA6942F4EA
:102950000062DA61DA6922F48062DA61DA6942EAF5
:102960000122ECE70120C6E70220C7E710B50124E9
:10297000036A01F01F018C4023EA04030362036A27
:102980008A401A43026210BD10B5044629B990F876
:102990003E30012B1DD0012010BD042907D190F835
:1029A0003F30012BF7D1022380F83F3014E0082993
:1029B00007D190F84030012BEDD1022380F8403050
:1029C0000AE090F84130012BE5D1022380F8413034
:1029D00002E0022380F83E3001222068FFF7C6FFA4
:1029E00023680E4A93420AD15A6C42F400425A6458
:1029F0009A6802F00702062A0BD10020CCE7B3F157
:102A0000804FF5D0064A9342F2D002F5806293429D
:102A1000EED01A6842F001021A60EEE7002C014085
:102A200000040040FFF7B0BF38B50446002200683C
:102A30000D46FFF79BFF2368184A93420DD141F2E0
:102A40001112196A114208D140F24442196A114226
:102A500002BF5A6C22F400425A6441F21112196A00
:102A6000114208D140F24442196A114202BF1A6869
:102A700022F001021A6001231DB984F83E300020C3
:102A800038BD042D02D184F83F30F8E7082D0CBF83
:102A900084F8403084F84130F1E700BF002C014059
:102AA000FFF7C2BF70477047026802F10C0353E89A
:102AB000003F23F490730C3242E800310268002991
:102AC000F2D102F1140353E8003F23F0010302F1B5
:102AD000140C4CE800310029F3D1036B012B0BD10E
:102AE00002F10C0353E8003F23F0100302F10C0C39
:102AF0004CE800310029F3D1202380F84230002334
:102B00000363704710B504460368C1681A6922F46C
:102B100040520A431A6182680069D96802436069B9
:102B200021F4B05121F00C0102430A43DA605A69E2
:102B3000A16922F440720A435A610E4A934215D1A8
:102B4000FFF7B4F919235843636864229B00B0FB74
:102B5000F3F0B0FBF2F102FB11031B013233B3FBC4
:102B6000F2F3246803EB0113A36010BDFFF78EF9A5
:102B7000E8E700BF00380140F7B504460D461746A8
:102B80001E4621680B6835EA030301D1002021E0CD
:102B9000701CF7D0FEF766FBC01B86421CD3DEB16B
:102BA0002068C3685A07ECD5802DEAD0402DE8D0C4
:102BB00003681B07E5D50025019503680193436869
:102BC00020460193019BFFF76FFF082301206364F8
:102BD00084F8405003B0F0BD0320FBE710B5044675
:102BE00048B390F8413003F0FF021BB980F8402051
:102BF00002F040FC2423226884F84130D368204648
:102C000023F40053D360FFF77DFF236800201A6987
:102C100022F490421A615A6922F02A025A61DA6853
:102C200042F40052DA602023606484F8413084F872
:102C30004230606310BD0120FCE710B50446A0B12E
:102C40002423026880F84130D36823F40053D36012
:102C500002F020FC0020606484F8400084F8410009
:102C600084F842002063606310BD0120FCE72DE979
:102C7000F843984690F841300446202B0E46914682
:102C800041D1002941D0002A3FD0212300254564AD
:102C900080F84130FEF7E6FAA3680746B3F5805F97
:102CA000A4F82490A4F8269003D123690BB93546E3
:102CB0001E46E38C9BB25BB943463A464021204610
:102CC000FFF75AFF202384F8413058B9BDE8F88354
:102CD00043463A4680212046FFF74EFF20B120238D
:102CE00084F841300320F1E722684EB935F8023B01
:102CF000C3F308035360E38C013B9BB2E384D8E742
:102D000016F8013BF6E70220E0E70120DEE72DE9B7
:102D1000F843984690F842300446202B0E469146E0
:102D200047D1002947D0002A45D0222300254564F9
:102D300080F842300563FEF795FAA3680746B3F5BD
:102D4000805FA4F82C90A4F82E9003D123690BB9CE
:102D500035461E46E08D80B218B9202384F84230F3
:102D60000AE043463A4620212046FFF705FF28B1F6
:102D70002023032084F84230BDE8F88323684EB94D
:102D80005B68C3F3080325F8023BE38D013B9BB26C
:102D9000E385DFE7A268B2F5805F02D02AB9226935
:102DA0001AB95B6833700136EFE75B6803F07F03A5
:102DB000F8E70220E0E70120DEE790F84130202B21
:102DC00010D189B182B1C2848284002321220162A0
:102DD0000168436480F84120CA68184642F08002C6
:102DE000CA607047022070470120704770B50446E2
:102DF00094F841501346EDB2202D2ED1C9B1C2B185
:102E0000E284A28421200022154E626484F84100ED
:102E1000A06B21628662134EC662134EC0E90C623B
:102E200022680432FEF7FEFA28B11023636484F8A6
:102E30004150012010E06FF0400223681A602268C0
:102E400002F1140353E8003F43F0800302F114043D
:102E500044E800310029F3D170BD0220FCE700BF37
:102E60006D2E0008BB2E0008C72E0008026808B5AA
:102E70001268436A12F020021AD1DA84196801F14B
:102E8000140252E8002F22F08002143141E80020A1
:102E90001A680028F2D102F10C0353E8003F43F016
:102EA000400302F10C0040E800310029F3D108BDD5
:102EB000184603F04DF9FAE7704708B5406AFFF786
:102EC000FBFF08BD704710B5446A23685A6994F83F
:102ED0004110212912D1120610D50022E28403F1FB
:102EE0000C0252E8002F22F0C00203F10C0040E86F
:102EF00000210029F3D1202284F841205B6994F855
:102F00004220222A06D15B0604D500232046E38511
:102F1000FFF7CAFD636C204643F01003636403F0BF
:102F200061F910BD08B50023406AC38503F05AF962
:102F300008BD704790F8423013B5222B53D18168F9
:102F4000836AB1F5805F02683ED1016900293ED1F4
:102F50005268C2F3080223F8022BC48D8362013C3D
:102F6000A4B2C485002C2DD10368DA6822F02002B7
:102F7000DA60DA6822F48072DA605A6922F00102BB
:102F80005A61202380F842304463036B012B0368AD
:102F900026D1046303F10C0252E8002F22F0100244
:102FA00003F10C0444E800210029F3D11A68D20689
:102FB00005D501911A6801925B680193019B818D8F
:102FC000FFF7B7FF00200FE031B9016921B952685E
:102FD0001A70836A0133C0E7526802F07F02F7E794
:102FE00003F0D8F8EEE7022002B010BD036837B551
:102FF0001A68044612F00F0FD9685D6908D195066A
:1030000066D58D0664D503B0BDE83040FFF792BFAA
:1030100015F0010502D111F4907F59D0D00705D5E4
:10302000CB0542BF636C43F001036364500704D5D2
:103030001DB1636C43F002036364930704D51DB1B3
:10304000636C43F004036364100706D58B0600D459
:103050001DB1636C43F008036364636C002B31D0D3
:10306000900604D5890602D52046FFF763FF236842
:1030700020465D69626C120702D415F0400523D02A
:10308000FFF712FD226853695B0618D502F114039D
:1030900053E8003F23F0400302F1140040E8003100
:1030A0000029F3D1E06B50B1764B4363FEF71AFA77
:1030B00040B1E06B436B03B0BDE830401847204699
:1030C00003F090F803B030BD03F08CF86564F9E7C5
:1030D000206B012840F09980D50640F19680C80603
:1030E00040F19380002201921A6801925A6801927D
:1030F000019A5969A28D4D0654D5E06B0168496863
:1031000089B2002946D0914244D28269E185202AC1
:1031100036D003F10C0252E8002F22F4807203F142
:103120000C0040E800210029F3D103F1140252E819
:10313000002F22F0010203F1140040E800210029D1
:10314000F3D103F1140252E8002F22F0400203F100
:10315000140040E800210029F3D1202284F8422005
:10316000216303F10C0252E8002F22F0100203F158
:103170000C0040E800210029F3D1E06BFEF790F944
:1031800002236363E38DA18DC91A89B22046FFF73C
:10319000D0FE97E7914295D18369202B92D10223EB
:1031A0006363F3E7E18DE08D89B280B2002889D0B6
:1031B000511A89B2002985D003F10C0252E8002F80
:1031C00022F4907203F10C0545E800200028F3D1A9
:1031D00003F1140252E8002F22F0010203F114055A
:1031E00045E800200028F3D1202284F84220206303
:1031F00003F10C0252E8002F22F0100203F10C053B
:1032000045E800200028F3D1C9E7100628D50D06AF
:1032100026D594F84120212A7FF454AFA168226A70
:10322000B1F5805F17D12169A9B932F8021BC1F34A
:10323000080159602262E28C013A92B2E284002ACB
:103240007FF440AFDA6822F08002DA60DA6842F098
:103250004002DA6036E7511C216212785A60EAE7D0
:1032600050067FF52FAF4A067FF52CAFDA6820466F
:1032700022F04002DA60202384F8413002F068FF37
:1032800020E700BF252F000808B50123406A4363EB
:10329000036B012B04D1818D4908FFF74AFE08BD5D
:1032A000FFF710FEFBE708B503461B68406A1B6882
:1032B00013F0200337D1C385026802F10C0353E8F1
:1032C000003F23F480730C3242E800310368002988
:1032D000F2D103F1140252E8002F22F0010203F1AF
:1032E000140C4CE800210029F3D103F1140252E838
:1032F000002F22F0400203F1140C4CE800210029B9
:10330000F3D1202280F84220026B012A0BD103F175
:103310000C0252E8002F22F0100203F10C0C4CE8D2
:1033200000210029F3D100234363036B012B03D158
:10333000818DFFF7FEFD08BD02F02CFFFBE790F842
:103340004030012B11D02423026880F84130D3682B
:1033500023F00C0343F00803D360202380F84130AE
:10336000002380F84030184670470220704790F8DC
:103370004030012B11D02423026880F84130D368FB
:1033800023F00C0343F00403D360202380F8413082
:10339000002380F840301846704702207047002311
:1033A000C285436422238285026980F842308162AB
:1033B00003681AB1DA6842F48072DA605A69002050
:1033C00042F001025A61DA6842F02002DA60704786
:1033D00070B490F84260202E06D141B13AB1002479
:1033E000046370BCFFF7DBBF022070BC7047012094
:1033F000FBE7000037B5044681621346A285002230
:1034000042642220224D84F84200E06B8562214D07
:10341000C562214DC0E90C5225680A46291DFEF7F8
:1034200001F838B1102363642023012084F842306E
:1034300003B030BD236801901A6801925A68019266
:10344000019A22695AB103F10C0252E8002F42F4AA
:10345000807203F10C0444E800210029F3D103F148
:10346000140252E8002F42F0010203F1140444E870
:1034700000210029F3D103F1140252E8002F42F099
:10348000400203F1140444E800210029F3D1CFE7FE
:10349000A732000889320008C72E000870B490F8DF
:1034A0004260202E06D141B13AB10024046370BCC1
:1034B000FFF7A0BF022070BC70470120FBE70000AF
:1034C0002DE9F84F03680D46C1F80F308388A1F845
:1034D00013300023D943DA10825C01F007010A415E
:1034E000D1075FD4D943DA10825C01F007010A41A9
:1034F000D2075DD50E2B58DC00210A469F1CC3F174
:10350000FF2303F57F03FD337C18E4105E1A045D8E
:1035100006F007063441013104F00104202944EA91
:103520004202F1D119230026100AC2F38018C2F317
:10353000C01902F03F0748EA800242EA490222FA33
:1035400003F1740901F0010176008C4206F03E0699
:1035500018BF86F0030613F1FF33F0D21C4B28602E
:1035600093F800A00124CAF11803D8406860FDF761
:10357000BBFB834604FA0AF0FDF7B6FB014658464A
:10358000FDF7BEFC1349FDF707FC86F03F06B74286
:10359000A86085F80C9085F80D800DD02046AC739E
:1035A000BDE8F88F0133302B94D10220A873F7E7E0
:1035B0000133302B96D1F8E7B9F1000F01D1032088
:1035C000F4E7B8F1000F01D10420EFE70020EDE7A8
:1035D000840200200000B4430268034B9A4202BFF9
:1035E0000122024B1A707047003001407C0200201B
:1035F0000268044B9A4204D10123034A1370034A20
:1036000013707047003001407D0200207C020020D2
:103610000148FDF7AFBF00BF940200200148FDF74D
:10362000A9BF00BFD80200202DE9FF470546027957
:10363000274BDFF8B0901A70AB890024A9F800304E
:1036400000934FF0010A0223224E2A698068224F1C
:10365000DFF894803260AA8A69460393C8F80000B4
:103660003A800294CDF804A0FEF718F85246B9F853
:103670000010D8F80000FEF76BF93B886946306807
:103680000093FEF70BF8224630683988FEF760F9A0
:103690002B6812484FF4007203604FF48273C0E944
:1036A00001342823C0E903444461C0E90623C0E98A
:1036B00008448462FEF7AAFC38B94FF0FF32084B89
:1036C0001A609A8004B0BDE8F0870520FAE700BFD1
:1036D00084020020800200207E0200201C030020C3
:1036E0008B0200207402002078020020F0B50268EE
:1036F000304B87B09A4206465AD103F560439A6927
:10370000002442F480529A619A6902A902F480521C
:103710000092009A5A69284842F001025A615B6996
:10372000202203F001030193019B0223CDE9022330
:10373000032304940593FDF7B1FF4023CDE9023440
:10374000012302A91C481D4D0493FDF7A7FF1C4B44
:103750008027C5E900344FF400532846EB61AC6084
:10376000C5E90374C5E90544FDF700FE1023F564BF
:103770006E62144D14492846C5E90013C5E9024795
:10378000C5E90444C5E90644FDF7F0FD22460721DA
:103790000C20B5646E62FDF77DFD0C20FDF7AEFDDB
:1037A0000D2022460721FDF775FD0D20FDF7A6FD32
:1037B00007B0F0BD00300140000801409402002035
:1037C0001C000240D8020020300002404FF0FF33BE
:1037D00010B586B00293ADF80C3000230493ADF819
:1037E000143032230446009304AA062302A90A488F
:1037F000FEF764FC50B10498BDF81430C4F80F0013
:103800000520A4F81330A07306B010BD214604A80B
:10381000FFF756FEF8E700BF1C03002038B5002371
:10382000084A094C094D237013602B709380084996
:1038300006230848FEF73AFD10B1012028702070D9
:1038400038BD00BF850200207C0200207D020020E0
:103850008B0200201C030020014B1878704700BF2A
:103860007C020020084B01461B7813B90748FFF77C
:1038700027BE064B1A689B88C0F80F20A0F81330AB
:1038800005208873704700BF7D020020850200205C
:1038900037B51848184D01682A684B68174C23F053
:1038A00003034B60136823F001031360226813685D
:1038B00023F0010313604FF48872114B5A60012307
:1038C000002285F8213084F82130019284F82020EC
:1038D000CC6885F820200194896880F85020094A36
:1038E0000191019980F851301370074A137003B0A9
:1038F00030BD00BF1C030020D8020020940200202D
:10390000000002407D0200207C020020401AB0F539
:10391000803F02DDA0F50030704710F5803FB8BF52
:1039200000F5003070470000F8B5877811F0FB0F04
:1039300007F10107FFB2044694468770017116D162
:103940001646C37800F10C050133C3700FCE0FC5C6
:1039500096E8030085E8030094F8303023BB012289
:1039600084F83020DCF80420C4E90A3362620F2FA7
:1039700019D9D4E90A300025C01A2570FDF7B8F925
:103980001049FDF709FA4FF05C51FDF705FAE378AD
:10399000A0600B2B06D94FF07C51FDF7A5FB451B12
:1039A00018BF01256570F8BDDCF80400616AFFF7F7
:1039B000ADFFA36A8342E36AC8BFA0628342B8BF77
:1039C000E062D4E70000B4430022034B1A700122E6
:1039D000024B1A70704700BF7C030020890300204F
:1039E00008B5084B1868431C09D0FDF77DF9064956
:1039F000FDF7D2F94FF05C51FDF7CEF908BD00207C
:103A0000FCE700BF480000200000B4430023064A42
:103A10001360064A13600023054A1370054A1360B9
:103A2000054A1380704700BFCC0400201805002011
:103A3000D004002020050020D2040020044B187878
:103A400020B1044B1878003018BF012002F030BEBE
:103A5000100000204C00002008B5034801F090FD44
:103A60000022024B1A6008BD5000002034040020E0
:103A700038B500220E4B07F0FDF900220023044662
:103A80000D46FCF7A5FF38B1204629460022084B19
:103A9000FCF776FB04460D460022054B20462946DE
:103AA000FCF7AAFF08B1002400252046294638BDAE
:103AB00000807640384B2DE9F04107460D461868E6
:103AC00036499046FDF768F900F10044064639464C
:103AD0002046FDF71DFB30B931463846FDF718FB8F
:103AE00000284ED13C462E4B00211F682D4E3846F3
:103AF000FDF70EFB00284CD0B8F1000F1FD00021BD
:103B00002846FDF7E7FA08B105F100452946384691
:103B1000FDF742F90146FDF737F807F00BFA1F49A8
:103B2000FDF73AF900F10048054621464046FDF709
:103B3000EFFA40BB21462846FDF7CCFA28BB1749CF
:103B40003846FDF729F91549FDF726F93768054686
:103B500039462046FDF716F805F100442146804617
:103B6000FDF7B8FA28B929464046FDF7D1FA70B9F1
:103B7000444621463846FDF707F830603068BDE816
:103B8000F0813446AFE74446D9E72C46D7E72C46C8
:103B9000EFE73460F2E700BF740000206F12833A51
:103BA0000800002034040020F8B500210446FDF789
:103BB00087FA0027164D18B102F096FD2F60F8BD68
:103BC00039462046FDF786FAF8B104F10040114B62
:103BD0001968FDF795F91049FDF7DEF84FF07C51B3
:103BE000FCF7D2FFFDF7DAFA06460028E4D0002100
:103BF00020464FF00107FDF78BFA00B9074679B26E
:103C0000304602F0E9FD2C60D9E72046DFE700BF2F
:103C1000A00300200C00002000007A4410B5154BD2
:103C20001A780ABB01211970134B1B78E3B1134BAF
:103C30001978C9B1124C1A7022781AB1114A136856
:103C400001331360104B1B787BB9FFF7C9FEFCF7FB
:103C5000F5FB0E4BC3E900010D4BD3E900010D4B01
:103C6000C3E900010123237010BD0B4BD3E9000110
:103C7000EFE700BF7C03002032040020890300200E
:103C80003104002080030020A403002090030020C2
:103C90002804002098030020A803002008B502F0A3
:103CA000D9FA20B1044A13680133136008BDBDE896
:103CB000084002F035BB00BF800300200FB400B500
:103CC000A3B024AB53F8042B802102A8019305F084
:103CD000ABF8011E03DD89B202A8FFF7DFFF23B0B6
:103CE0005DF804EB04B070472DE97F430446C578C6
:103CF00086788068FCF7A2FB63788046894673B1BA
:103D00006069FCF79BFBCDE90089CDE902013246F1
:103D100029460848FFF7D2FF04B0BDE87083237935
:103D2000CDE900890293324629460348FFF7C6FFD2
:103D3000F2E700BF92B30008B8B3000808B50A4B19
:103D40001860FFF74DFEFCF779FB084BC3E9000153
:103D5000074B5B781BB100200021FFF789FE054B64
:103D6000C3E9000108BD00BF48000020A8030020EF
:103D70001400002028040020064AD36843F0807312
:103D8000D3600022044B5A601A6842F001021A60A4
:103D9000704700BFF0ED00E0001000E00000000000
:103DA0002DE9F04FDFB0FDF73FFA2022002137A8C0
:103DB00003F064FC012710230224CDE93A734FF489
:103DC000201336A836943D943F93FDF7FFFD0F2353
:103DD0000026CDE928344FF48063A84D394628A841
:103DE0004FF400582A962C962B93FDF7B3FFAB693E
:103DF00036A943F00403AB61AB69A14803F00403A7
:103E00002293229BAB69DFF8D09243F00803AB61A9
:103E1000AB6903F008032393239BAB6943F01003C2
:103E2000AB61AB6903F010032493249BAB693B4364
:103E3000AB61AB69CDE936873B402593259B38962E
:103E40003994FDF72BFC41464FF400783A468C48F4
:103E5000FDF77EFD36A98B48CDE936873994FDF70D
:103E60001DFC324641468748FDF772FD4FF48053F2
:103E7000DFF8688236A98348CDE9363638942E4675
:103E8000FDF70CFC0524FFF777FF474698F8003054
:103E9000072B00F29180DFE813F01E00A100B500AF
:103EA000CD00E80025018E010800774B774D5A7848
:103EB000002A00F08F819C7E1869754B1A680132C8
:103EC00040F08681FFF73AFF2B7813B1012002F012
:103ED000EFFB012380E001F0C5FE054600286DD10F
:103EE000D6F824A08DF8D8001AF0006F06D0694BE0
:103EF000694A302136A804F019F803251AF0806FBA
:103F00000CD0644A654B36A8002D08BF1346C5F196
:103F100030012844624A04F009F805441AF0805F31
:103F20000CD05C4A5D4B36A8002D08BF1346C5F186
:103F3000300128445B4A03F0F9FF05441AF0005FA2
:103F40000CD0544A554B36A8002D08BF1346C5F176
:103F500030012844544A03F0E9FF05441AF0804F29
:103F60000CD04C4A4D4B36A8002D08BF1346C5F166
:103F7000300128444D4A03F0D9FF0544BAF1000F3F
:103F80000BDA444A454B36A8002D08BF1346C5F14D
:103F90003001474A284403F0C9FF9DF8D83013B9CF
:103FA0002D23ADF8D8300125424B434A1D6036A978
:103FB0004248FFF783FE3D7000230DE0404A13782E
:103FC0000133DBB2022B1370F6D901223D4B2F498E
:103FD0001A7000233A700B701993A9E0DFF800C142
:103FE00036ADBCE80F000FC59CE8030085E8030070
:103FF00036A8FFF719FB344B5A68344B1A6002237A
:104000003B70D9E7DFF8C0A0304DDAF804302A68F9
:104010009B1A4B45D0D91C4B34221846002103F083
:104020002DFB012202700522DAF8043002712B60A8
:104030000323E5E72449254A4B6810681B1A2448E6
:104040008342B9D94B6836A81360FFF7BFFB0E4D0A
:10405000014636AA2846FFF767FC2B78002BABD128
:104060002846FFF741FE0423CAE702F07DFA014625
:1040700010B11848FFF722FE0523C1E700100240E7
:1040800000100140000C014014000020100000202E
:104090004800002003B60008FAB30008DEB30008A9
:1040A00000B4000806B400080CB4000813B40008FB
:1040B0001AB40008E004424221B4000827B4000802
:1040C0002505002033040020001000E094040020A7
:1040D000FF7601003BB40008FF9E240092040020FC
:1040E00048B300084FF0804E41F2BF238A4D4FF095
:1040F000000AC5E900E309232846C5E902A3C5F87B
:1041000010A0C5F818A0FEF74BFB524606211C2054
:10411000FDF7C0F81C20FDF7F1F86FF001022B68E5
:1041200028461A61FEF73EFA0623CDF864A03B70DC
:1041300002F0F6F8199B002B3FF4A8AEDFF83CB272
:1041400002F0EEF89BF800302BB9744B93F9003075
:104150000BB902F0E1FA402136A802F06BF9002811
:1041600000F0848128A936A801F0BCFA002800F0EC
:104170007D819DF8A030013B192B00F27781DFE8AB
:1041800013F02C004E0059008E009700A000F8019B
:104190002002A900AF00B800BE00D3016F003902B1
:1041A00047025502D102F4020C0337033D032503F5
:1041B00058035C03600304235948DFF8C4C1C0E915
:1041C00000C34FF49C738360FDF7D0FB072317E710
:1041D000186079E61C792A7076E60122514B524923
:1041E0001A7000230B7051490A704C4A1370FFF784
:1041F00025FCFFF731FC4E4B1B7863B9FFF7F0FB52
:10420000FCF71CF94B4BC3E90001FFF7DDFB4A4803
:10421000FFF754FD2AE1494BD3E90001F2E70023FF
:10422000404A13703D4A137002F05EFAFFF706FC35
:104230004348EDE70022394B2E981A70FCF7FEF840
:10424000FFF716FC3B4DC5E900013E4801F098F927
:10425000FFF7BAFBD5E900233B48FFF72FFD05E147
:104260009DF8CF302D4D37482B7000238BF8003050
:1042700001F086F92B492D4B0A780AB11A7822B938
:1042800001220A701A70FFF7D9FB95F900302F4808
:10429000002BD4BF2D212B21FFF710FDE6E0294B89
:1042A00029981860FCF7CAF802460B462848D4E75C
:1042B000244B2A985860FCF7C1F802460B46254863
:1042C000CBE7204B2B989860FCF7B8F802460B46DA
:1042D0002148C2E7BDF8BC10204B21481980DBE71C
:1042E0000022204B9DF8BE101F4819701F4B1A70FA
:1042F000D2E79DF8BF101E4B1E481970CCE7329DC7
:1043000000212846FCF7F0FE20B9BDF8CCA0BAF198
:10431000000F37D118487BE7480400207D030020B8
:104320003C04002010000020180400204C00002055
:10433000A4030020280400204FB40008A803002094
:1043400057B400085000002060B400086CB40008A6
:1043500076B4000883B4000890B400084E00002032
:104360009DB4000832040020A8B4000831040020E5
:1043700030040020B3B40008C1B4000804040020D5
:10438000003000403098FCF759F89DF9CE80CDE917
:104390001A01B8F1000F40F0A6803198FCF74EF8F2
:1043A000DDE91A23FBF7EAFEFFF762FBFCF796FB59
:1043B00000218146FCF798FE0028ABD1DDE91A0107
:1043C0000027A94BA94E1F7001238BF80030FFF77F
:1043D0004FFBFCF783FB00220021A54B3060C3F8A4
:1043E0000090A44BC3E90012FCF728F8A24BB84593
:1043F000C3E90001A14BC3E9000114BF41460121FB
:104400009F4BA0481D60A04BA3F800A09F4B1F80AE
:104410009F4B19709F4B83F8008001F0B1F8FFF7B4
:10442000D3FA9D4B9D483A464FF400711F70FDF73B
:104430008FFA3068B8F1000F58D0FBF7FFFFB8F1E2
:10444000000F064628460F46D4BF4FF02D084FF008
:104450002B08CDF810A0FBF7F1FFCDF80080CDE9D7
:10446000020132463B468E48FFF728FC8D4F3B78D1
:10447000002B00F0F78672B68B4E28AD0FCE0FC51D
:1044800096E80300894B8A4A1B7885E803001A9353
:10449000884B89491B680E78136000230B7087498D
:1044A000F6B20D780B70EDB23B7062B6DFF8249275
:1044B000002E00F0D9861A988149002840F0C38167
:1044C0009DF868300B707F4B146819687E4F4B1C49
:1044D00040F0C08100227D4B29983C601A70FFF7A4
:1044E0002DFC199E52E24FF0000967E7FBF7A6FF8B
:1044F00006460F464846FBF7A1FF32463B46FBF710
:104500003FFEFFF7B5FA804628468946CDF810A051
:10451000FBF794FFCDE90089CDE9020132463B4625
:104520006B48FFF7CBFBA1E700234F4A8BF8003025
:104530001370584A137002F0D7F8664B1B78A3B972
:10454000FFF74EFAFBF77AFF4C4BC3E90001FFF788
:1045500083FAFFF739FA00224F4B50484FF40071AD
:104560001A70FDF7F5F95C4852E65C4BD3E900019F
:10457000EAE72C9D4FF07E512846FCF7ABFD20B9B1
:1045800057492846FCF7C4FD48B10022554B564810
:10459000CDE900230022554BFFF790FB66E7544B13
:1045A00054491D602846FCF7F7FB364B986100F133
:1045B000004058612846FBF741FF02460B464E4833
:1045C0004BE62D9D00212846FCF784FD20B94B4980
:1045D0002846FCF79DFD20B121A3D3E900234848DC
:1045E0003BE6484B28461D60FBF728FF02460B467A
:1045F000454832E626A802F0DBF9BDF89A10BDF86E
:10460000D00002F093F900BBBDF8D0103F4843E65C
:1046100026A802F0CDF9BDF8D210BDF8980002F03E
:1046200085F990B9BDF8D210394835E6BDF8D210F9
:10463000BDF8D00002F07AF938B9BDF8D220BDF843
:10464000D0103448FFF73AFB10E7461C01D132483E
:10465000DEE5023001D13148DAE53148D8E500BF66
:1046600000000000006AF8407D03002008040020DC
:104670000004002010040020F00300202804002083
:104680000C04002050000020FA030020F803002052
:1046900070000020FC03002021040020000C0140D9
:1046A000CCB4000824050020B004002078000020CD
:1046B000E8030020C8040020AD040020AC04002062
:1046C000880300204800002098040020A004002057
:1046D000E6B40008A403002002B50008A8030020E7
:1046E0000000964400C092400CB500080000F03F66
:1046F000740000206F12833A25B500080050C347AC
:1047000031B500080800002049B5000855B500087B
:1047100093B50008A1B5000862B5000872B500089D
:1047200080B5000801F0E8FF08B1774870E5BDF8F2
:10473000D40002F01FF980B9BDF8D4502846FCF728
:10474000D3FA7249FCF728FB01467148FCF7D8FB05
:10475000704B2946186070489EE5451C3FF477AFC2
:1047600002307FF47AAF6D4852E526A802F020F9B6
:104770009DF89F109DF89E500191BDF89C106848CF
:1047800000916849BDF89A30002D08BF0146BDF878
:1047900098206548FFF792FA68E6644B93F9003079
:1047A000002BC2D19BF80030002BBED101F0A4FF3A
:1047B00001460028B9D15E4B3422184602F05EFF54
:1047C00001220270052202715A4821E59DF8D73076
:1047D000594D2B7043B901F087FFFFF73DF9FFF703
:1047E0002DF92978554857E50122554B1A70F4E701
:1047F0009DF8D610534B544819704DE5514B4FF46A
:10480000805152481D78FDF79DF84FF4007106461F
:104810004E48FDF797F84E4B421E1B68711E0093E1
:10482000534253414A424A414A482946FFF746FA11
:104830001CE6414B484819782EE5484B4848197802
:104840002AE54848E4E40B701A9904293FF43BAE8A
:104850001E469BE0299E3046FFF758F84BF6803302
:104860003A680028A4EB0202B2FBF3F2B8BF404260
:10487000C1178AB1142A28BF142240F24443A2FB74
:10488000032382428B41384B08DB3C6000221A70C4
:10489000364B299A1A6024E60122EEE71F78002F92
:1048A0002ED0334B30461968FFF730F8314B0028D3
:1048B0001A684BF68033A4EB0202B2FBF3F2B8BFE6
:1048C0004042C117D2B1142A28BF142240F24443F7
:1048D000A2FB032382428B41ACBF0137199F224BBD
:1048E000A8BFFFB21F70224B1E60224B1C601E4BE4
:1048F0001A78022A42D9204A1460C7E70122E5E764
:1049000001221A70EFE700BFB1B50008000048436C
:104910000000B4430C000020CDB50008DBB5000852
:10492000E0B30008E9B3000804B600087D030020E6
:10493000B403002034B600084C0000203EB6000846
:1049400038040020190400204BB60008000C014078
:104950001C04002058B6000841B6000832040020AC
:10496000ABB4000875B60008A00400204800002081
:104970009C040020A404002098040020804A002603
:1049800013680133136001227E4B1A707E4C23782A
:104990004BB128AA1A992046FEF7C6FF237813B90F
:1049A0002046FFF7A1F98DB1774C1822002136A8D7
:1049B00002F064FE23784BB136AA05212046FEF7AB
:1049C000B3FF237813B92046FFF78EF9002E00F0CD
:1049D0004F84002399F800206C49012A0B6003D111
:1049E00089F80030FFF738F84FF480516848FCF739
:1049F000A9FF01280CBF01240024664A07D11378BF
:104A00002BB965490B6801330B60644B1870644B1C
:104A100014701B78DFF8D4A1002B72D101F064FE72
:104A20000023CAF80030FEF7CFFF5E4D2B7843B16C
:104A30002846FBF797FB81B2284601F00BFC00B932
:104A40002870574B1B783BB1574B1B7823B199F813
:104A50000030002B00F02A82FEF7D8FF9BF80030D0
:104A6000022B18D1504B1B78ABB1504B1B8843B174
:104A70004F490A88013292B293428CBF002301232E
:104A80000A804C4A1278012A00F0D282C0F00F83CB
:104A9000022A00F0078301F0A3FCE0B9464B474C23
:104AA0001B782078012B464A00F0AA83454B1988D1
:104AB000002900F0A583444B1B7813B1142938BF9B
:104AC0001421138801339BB28B4280F08C831380B6
:104AD000002840F08A833D4B3D4A1B78002B14BFD1
:104AE00064214FF4FA71136801338B4280F0B28372
:104AF00013603848FCF763FF1A9CFFF71FBB0026C2
:104B000072E7294B1B781BB90023CAF800308CE7E9
:104B10000023CAF80030304B93F90040002C67D0D6
:104B2000FEF752FF2D4B2E491868FCF735F9054664
:104B30002046FCF7DDF801462846FCF72DF9002257
:104B40000021FEF7B7FF0446FFF72EF82046FBF7DB
:104B500075FC244F0446D7E900230D46FBF710FBF4
:104B6000FEF786FFC7E900011F4F2046D7E9002363
:104B70002946FBF705FBFEF77BFFC7E9000154E779
:104B8000B003002088030020B40300208403002029
:104B9000000C0140200400201C04002021040020FF
:104BA00010000020D40400204C000020FA03002054
:104BB000F8030020190400203204002031040020F2
:104BC000740300204E000020300400203304002035
:104BD000780300203C0400207D03002074000020A6
:104BE0006F12833AA803002028040020A0030020AD
:104BF00099F80030002B40F0BC80002E00F0B1800E
:104C0000FEF7EEFE0446DFF89C82954DD8E90001E0
:104C1000FBF764FF2146FBF7B5FF04462946204613
:104C2000FCF776FA002835D18E4D29462046FCF750
:104C30005BFA002834D18C492046FCF769FA8B4D89
:104C400020B98B492046FCF745FA78B300220127AA
:104C5000884B21461A708848884A2F7000F097FCCC
:104C600021463A46FEF726FF0446FEF79DFF9BF8D5
:104C70000030BB427FF4D9AE00212046FCF720FA79
:104C8000024600287FF4D1AE4FF400717C48FCF757
:104C90005FFECAE620467B49FBF774FF0446BDE78A
:104CA00020467849FBF770FF0446BEE72F78002FB7
:104CB00036D075492046FCF72BFA20B973492046B7
:104CC000FCF708FA48B3724B20461968FCF718F94C
:104CD000FCF73EFA074640B900212046FCF718FAD7
:104CE000002814BF01274FF0FF379BF80020012A4E
:104CF00005D100224FF400716148FCF729FE3846C7
:104D000001F0BAFD3846FBF7F3FF614B37461968EF
:104D1000FCF742F8CAF8000000E0074600232B70B9
:104D20009BF80020012A11D14FF400715448FCF780
:104D30000FFED8E90001574B574AC3E9000102238F
:104D40008BF8003000231380544A137037B901F0F8
:104D5000CBFC01F0D1FC08B9FEF760FFFEF77CFE4A
:104D600063E64F4B1B68132B7FF65FAE01F0BCFC74
:104D70005BE6012B7FF459AE4A4D4B4CD5E900015F
:104D8000FBF7ACFE0746D4E90001FBF7A7FE01469E
:104D90003846FBF7F7FE8046314F39464046FCF770
:104DA000B7F9002838D12F4F39464046FCF79CF917
:104DB000002837D12C494046FCF7AAF930B92C49D4
:104DC0004046FCF787F90746002831D00022294BDE
:104DD00041461A7040460122FEF76CFE0546FEF77A
:104DE000E3FE9BF80030012B0AD100212846FCF796
:104DF00067F9024620B94FF400712148FCF7A8FD7D
:104E00002846FBF71BFBD4E90023FBF7B9F9FEF7B3
:104E10002FFEC4E9000108E640461A49FBF7B2FE3E
:104E20008046BAE740461749FBF7AEFE8046BBE72F
:104E3000FEF7F4FE9BF80020012A97D14FF4007191
:104E40000F48FCF785FDD5E90001124BC3E90001CD
:104E500002238BF80030104B1F80104B1F7085E72A
:104E600000003443000034C3CDCC4C3D3804002056
:104E7000CDCC4CBD7C030020500000206F12833A43
:104E8000000C01400000B4430AD7A33C0AD7A3BCDE
:104E90000C000020F0030020F80300202104002073
:104EA0008403002028040020A803002066B1A54840
:104EB000A54B01781A68A54CA54B002940F08E80BF
:104EC00001271A6007702160DAF8004000212046AF
:104ED000FCF700F908B104F1004400212046FCF77A
:104EE00017F99C4F002800F09B80DFF8C88221460C
:104EF000D8F80000FBF748FE0023C8F800003B800C
:104F0000954BDFF8B0821C68D8F8007001341C6043
:104F100092493846FCF7F2F838B1914B914918683C
:104F2000FCF7D8F808B1C72C17D84FF07E51384697
:104F3000FCF7D0F800287FF491AD4FF07A51384655
:104F4000FBF72AFF864B1968FCF7CEF800287FF4A0
:104F500083ADB4F57A7FFFF481AD00270122824B47
:104F60008BF800701F70814B814C1A70814B1F7041
:104F7000814B1F7001F0B8FB384601F099FBFEF73A
:104F80006BFDFEF72DFDFBF759FA3A46C4E9000127
:104F90004FF400717948FCF7DBFCD4E90023CDE93C
:104FA00004236F4B1868FBF749FACDE90201D8F8E2
:104FB0000000FBF743FA724ACDE900014021714835
:104FC00002F0B4FF6F48FBF7CDF881B26D4801F0F5
:104FD00041F900287FF440AD28703DE5196810467E
:104FE000FEF794FC21681A6008442060FBF780FEFD
:104FF0006549FBF7D1FE4FF05C51FBF7CDFE002178
:105000000446FCF767F808B104F10044544F214608
:105010003868FCF75FF800283FF456AF3C6053E770
:105020003B8801339BB2632B3B807FF669AF13E56E
:10503000564B1B78002B3FF42EAD0022534B1A70B9
:105040004D4B93F90040524BD3F800804046FBF79C
:10505000F5F982468B4664B32046FBF7DDF95246EC
:105060005B46FBF743FA4B4BD3E90023FBF788F889
:10507000FEF7FEFC3E4B0122C3E90001454BC3E9AC
:1050800000010021444B1A70444B1980FEF79CFC30
:105090003A480A464FF40071FCF75AFC404800F0C9
:1050A0006FFAF8E4394A1278002A18BF0123DBB2FC
:1050B000C0E73C4C3C4F94F90050D7E90023284608
:1050C000CDE91E23FBF7A8F952465B46FBF70EFA23
:1050D000DDE91E23FBF754F802460B46002DCDE90F
:1050E0002001CDE91C2367DD304BD3F80090484602
:1050F000FBF7A4F904460D4602460B46DDE9200104
:10510000FBF784FC98B1DDE91E0122462B46FBF734
:1051100073FC20B148464146FBF734FD81464846C2
:10512000FBF78CF9FF221F4BCDE91C011A70DDE95A
:105130001C34C7E900341E4B1868FBF77FF9DDE922
:105140001C2393E7D0040020480000201405002011
:105150001C050020D2040020200500200000704122
:10516000180500200000A0401000002018040020B6
:10517000280400207D030020FC030020000C0140D7
:1051800083B60008D40400200000B44321040020AA
:105190000C040020F003002004040020F803002089
:1051A00050000020700000201004002000040020A7
:1051B00008040020CC040020B9D000220023FBF713
:1051C00007FC0028B3D0DDE91E0100220023FBF715
:1051D00009FC18B94FF0000A4FF0000B0123CDE98C
:1051E0001CAB2370A3E70023138000232370002847
:1051F00057D16B4B1B782BB16A4BD3E9008907E081
:10520000002364E4FEF7ECFBFBF718F980468946BF
:10521000654B664CD3E900AB4AE038466449FBF77E
:10522000B1FC074653E038466149FBF7ADFC074641
:1052300054E0604B1B78002B0CBF002507255CE079
:10524000CDE90254CDE900895B4AA02136A802F0DD
:105250006DFE9CE000234FF4005158481360FCF7AA
:105260007CFB46E41A9447E41A94002D7FF49CAB2F
:10527000534A99F80060136801331360002E7FF4DD
:105280003EACB3F5FA7FFFF4AFAB012389F80030F1
:10529000FEF7A6FBFBF7D2F8424BC3E90001FFF78C
:1052A000A3BB484B484CD3E90089484BD3E900AB3A
:1052B00059465046FBF712FC494605464046FBF767
:1052C0000DFC01462846FBF75DFC0746404D29468C
:1052D0003846FBF71DFF00289FD13E4D2946384632
:1052E000FBF702FF00289ED1002EA2D13A4B1B787B
:1052F000002B1A9B14BF06251D46384B1B78002B2C
:105300009ED0374B374E1868FBF798F802460B468D
:105310002349CDE91C23087833491694002808BF97
:105320000E463249324C0968159132490968149188
:1053300031490868FBF782F8CDE912012F49086866
:10534000FBF77CF8CDE91001A068FBF777F8CDE911
:105350000E016068FBF772F8CDE90C012068FBF7DD
:105360006DF8DDE91C23CDE90A013846CDE90623B5
:10537000CDE90865FBF762F8CDE902ABCDE90401A0
:10538000CDE900891E4AA02136A802F0CFFD9F2852
:10539000A8BF9F2081B236A8FEF780FCFFF79BBB19
:1053A000A4030020A80300202804002003B600085E
:1053B0000000B443180400200EB70008001001409C
:1053C0008403002090030020EEB30008980300201F
:1053D00000003443000034C3880300203004002060
:1053E000A0030020F7B30008F4B3000880030020F6
:1053F00050000020B00300200800002074000020AE
:10540000ABB600080268084B82B09A420AD103F595
:105410000233DA6942F00402DA61DB6903F0040363
:105420000193019B02B0704700080040036882B0FE
:10543000B3F1804F0CD103F50433DA6942F0010275
:10544000DA61DB6903F001030093009B02B070474F
:10545000064A9342FAD1064BDA6942F00402DA6155
:10546000DB6903F004030193019BEFE700080040B0
:10547000001002400268064903468A4203D0A1F5A3
:1054800070418A4202D1184600F0B0BC01F0BEBBA8
:10549000003801400268064903468A4203D0A1F55C
:1054A00070418A4202D1184600F0A0BD01F0E4BB71
:1054B00000380140FBF7CABE0148FDF7A1B800BFA4
:1054C00048040020036810B5B3F1804F3AD1214C55
:1054D00023785BB1FEF7C0F940B91F4A1378013356
:1054E000DBB2042B137001D9FEF7D2F9237893B104
:1054F000FEF7B2F968B11948FEF7B4F9184B187005
:10550000184B1A68184B1A600122184B1A700023A6
:105510002370237893B9164B5A68124B1A60FEF722
:105520007DF900280CBF012300234FF000022370F7
:10553000094B1A701EBF01220E4B1A7001220E4B2E
:105540001A7010BD0D4A9342FBD1BDE8104001F026
:105550002BB900BF9004002091040020B00400206B
:1055600078000020A8040020C8040020AD0400201A
:10557000001000E0AC0400202405002000080040DA
:1055800020B10023C36003610023037770472DE936
:10559000F0470D461746044600285FD0002110460C
:1055A000FBF7A2FD002859D129463846FBF7F4FB4A
:1055B000E1688146FBF7E8FA237F0646E060002BAE
:1055C00048D021692846FBF7DDFA3946FBF798FCFD
:1055D000074601232561237721682846FBF7DCFB7A
:1055E000D4F80480054641463046FBF7D5FB01461A
:1055F0002846FBF7C9FAA16805463846FBF7CCFBFD
:1056000001462846FBF7C0FA676905460146384659
:10561000FBF77EFD00BBD4F818A029465046FBF7E7
:1056200059FD00B1554600214046FBF749FD70B9D0
:1056300029463846FBF744FD20B92946A069FBF707
:105640003FFD20B149463046FBF79CFAE060284612
:10565000BDE8F0870027BCE73D46E4E70025F6E714
:105660000346184613F8012B202AFAD0092AF8D04D
:10567000704700002DE9F34104468846006801A9FF
:1056800003F0C6FA019E23680546B34211D020F00C
:10569000004709493846FBF745FD50B906493846E9
:1056A000FBF736FD28B92660C8F8005002B0BDE807
:1056B000F0814FF0FF30F9E7FFFF7F7F37B50446F9
:1056C0000D460A2201A9006803F06CFB2268019BC9
:1056D0009A4217BF23604FF0FF302860002003B0CC
:1056E00030BD000070B50D4686B00646002800F0BB
:1056F0000581002900F0028103780022002B00F0D0
:1057000037824FF080730A70C1E90122C1E9032298
:10571000C1E90522C1E90722C1E90922C1E90B2239
:105720004B63A649FAF714FD18B90120287006B09A
:1057300070BDA3493046FAF70BFD10B902232B7058
:105740001BE0A0493046FAF703FD08B90D23F6E740
:105750009D493046FAF7FCFC28B90E2301202B7036
:1057600085F82F00E3E799493046FAF7F1FC30B9A4
:105770000E232B70FF2385F82F300120D7E702225C
:105780009349304602F00EFC68B9023605A904A818
:105790000496FFF76FFF002840F0B08003232B70C2
:1057A000059BAB61E9E703228A49304602F0FAFB28
:1057B00058B9033606A840F8046D291DFFF75AFFB3
:1057C000002840F09B800423B9E703228249304639
:1057D00002F0E8FB60B9033606A840F8046D05F155
:1057E0000801FFF747FF002840F088800523A6E75F
:1057F00003227A49304602F0D5FB58B9033606A891
:1058000040F8046D05F10C01FFF734FF002875D155
:10581000062394E702227249304602F0C3FB58B9CE
:10582000023606A840F8046D05F11001FFF722FFCB
:10583000002863D1072382E702226A49304602F03A
:10584000B1FB58B9023606A840F8046D05F1140101
:10585000FFF710FF002851D1082370E703226249A7
:10586000304602F09FFB80B9033605A904A80496D0
:10587000FFF724FF002841D1059BB3F5803FBFF41B
:1058800056AF0922AB832A7077E703225749304687
:1058900002F088FB70B9033605A904A80496FFF747
:1058A0000DFF58BB059B022B3FF641AF0A22AB7799
:1058B0002A7062E706224E49304602F073FB044626
:1058C00070B9063605A904A80496FFF7F7FEA8B933
:1058D000059B012B3FF62BAF0B22EB772A704CE791
:1058E00005224449304602F05DFB00284FD10536C1
:1058F00002A901A80196FFF7BDFE08B1002016E736
:10590000019B5A1C01921A782C2AF7D10022059289
:105910005A782B2A01D02D2A2BD199782C2928D1DD
:105920002B2A0CBF01244FF0FF340333019303A94A
:1059300001A8FFF79FFE0028E0D1019B5A1C0192AD
:105940001B782C2BDAD104A901A8FFF7B7FE002899
:10595000D4D1049BB3F5803FD0D20C222A70029A96
:10596000AB852A62059A85F82E406A62039AAA627C
:1059700003E705A901A8FFF77DFE0028BED1019B22
:105980005A1C01921B782C2BB8D10446CFE7052274
:105990001949304602F006FB80BB053605A904A86C
:1059A0000496FFF78BFE0028A8D1059B022BA5D8F3
:1059B000152285F836302A70DFE600BF20B70008D0
:1059C00023B7000827B700082CB7000830B7000835
:1059D00034B7000837B700083BB700083FB70008E6
:1059E00043B7000846B7000849B700084DB700089C
:1059F00051B7000858B700085EB7000805225D4996
:105A0000304602F0CFFA88B9053605A904A80496F5
:105A1000FFF754FE00287FF471AF059B012B3FF682
:105A200086AE172285F837302A70A6E652493046EE
:105A3000FAF78EFB08B9162381E650493046FAF78B
:105A400087FB08B919237AE64D493046FAF780FBFF
:105A500008B9182373E64B493046FAF779FB08B9C1
:105A600013236CE648493046FAF772FB08B9142351
:105A700065E605224549304602F094FAA0B9701D4A
:105A8000FFF7EEFD05A9049004A8FFF717FE002814
:105A90007FF434AF40F6B832059B93423FF647AEF1
:105AA0000F222B862A7068E606223949304602F01A
:105AB00079FAA0B9B01DFFF7D3FD05A9049004A899
:105AC000FFF7FCFD00287FF419AF40F6B832059BC4
:105AD00093423FF62CAE10222A706B864DE60522CB
