:020000040800F2
:10000000005000207DAF0008C5AF0008C5AF000854
:10001000C5AF0008C5AF0008C5AF0008000000006C
:10002000000000000000000000000000C5AF000854
:10003000C5AF000800000000C5AF0008695A0008FD
:10004000C5AF0008C5AF0008C5AF0008C5AF0008C0
:10005000C5AF0008C5AF0008C5AF0008C5AF0008B0
:10006000C5AF0008C5AF0008C5AF0008C5AF0008A0
:10007000613600086D360008A1610008AD61000816
:10008000C5AF0008C5AF0008C5AF0008C5AF000880
:10009000C5AF0008C5AF0008C5AF0008C5AF000870
:1000A000C5AF0008C5AF0008C5AF0008C5AF000860
:1000B0006D5A0008C5AF000859670008C5AF0008B1
:1000C000C5AF0008C5AF0008C5AF0008C5AF000840
:1000D000C5AF000811610008C5AF000849610008FC
:1000E000C5AF0008C5AF0008C5AF0008000000009C
:1000F0000000000000000000000000000000000000
:0C01000000000000000000005FF808F1A3
:1001100010B5054C237833B9044B13B10448AFF341
:1001200000800123237010BD580200200000000051
:10013000D4AF000808B5034B1BB103490348AFF324
:10014000008008BD000000005C020020D4AF000861
:1001500010F8012B11F8013B012A28BF9A42F7D071
:10016000D01A7047034613F8012B002AFBD1181A46
:100170000138704781F0004102E000BF83F0004386
:1001800030B54FEA41044FEA430594EA050F08BF32
:1001900090EA020F1FBF54EA000C55EA020C7FEAF6
:1001A000645C7FEA655C00F0E2804FEA5454D4EB73
:1001B0005555B8BF6D420CDD2C4480EA020281EA3D
:1001C000030382EA000083EA010180EA020281EA75
:1001D0000303362D88BF30BD11F0004F4FEA0131C7
:1001E0004FF4801C4CEA113102D0404261EB4101D6
:1001F00013F0004F4FEA03334CEA133302D052425C
:1002000063EB430394EA050F00F0A780A4F1010417
:10021000D5F1200E0DDB02FA0EFC22FA05F2801851
:1002200041F1000103FA0EF2801843FA05F3594137
:100230000EE0A5F120050EF1200E012A03FA0EFCB6
:1002400028BF4CF0020C43FA05F3C01851EBE371E0
:1002500001F0004507D54FF0000EDCF1000C7EEBFD
:1002600000006EEB0101B1F5801F1BD3B1F5001F3B
:100270000CD349085FEA30004FEA3C0C04F101045A
:100280004FEA445212F5800F80F09A80BCF1004F83
:1002900008BF5FEA500C50F1000041EB045141EA05
:1002A000050130BD5FEA4C0C404141EB010111F406
:1002B000801FA4F10104E9D191F0000F04BF0146B1
:1002C0000020B1FA81F308BF2033A3F10B03B3F18F
:1002D00020020CDA0C3208DD02F1140CC2F10C021F
:1002E00001FA0CF021FA02F10CE002F11402D8BF7D
:1002F000C2F1200C01FA02F120FA0CFCDCBF41EA49
:100300000C019040E41AA2BF01EB0451294330BD17
:100310006FEA04041F3C1CDA0C340EDC04F11404F4
:10032000C4F1200220FA04F001FA02F340EA0300CB
:1003300021FA04F345EA030130BDC4F10C04C4F111
:10034000200220FA02F001FA04F340EA03002946F1
:1003500030BD21FA04F0294630BD94F0000F83F43B
:10036000801306BF81F480110134013D4EE77FEA1E
:10037000645C18BF7FEA655C29D094EA050F08BF6A
:1003800090EA020F05D054EA000C04BF194610464B
:1003900030BD91EA030F1EBF0021002030BD5FEA8F
:1003A000545C05D14000494128BF41F0004130BDB7
:1003B00014F580043CBF01F5801130BD01F000450B
:1003C00045F0FE4141F470014FF0000030BD7FEA7E
:1003D000645C1ABF194610467FEA655C1CBF0B4679
:1003E000024650EA013406BF52EA033591EA030F90
:1003F00041F4002130BD00BF90F0000F04BF002188
:10040000704730B54FF4806404F132044FF00005BA
:100410004FF0000150E700BF90F0000F04BF002133
:10042000704730B54FF4806404F1320410F0004599
:1004300048BF40424FF000013EE700BF42004FEA94
:10044000E2014FEA31014FEA02701FBF12F07F4311
:1004500093F07F4F81F06051704732F07F4208BFC8
:10046000704793F07F4F04BF41F40021704730B5CF
:100470004FF4607401F0004521F000411CE700BF1B
:1004800050EA010208BF704730B54FF000050AE09E
:1004900050EA010208BF704730B511F0004502D59F
:1004A000404261EB41014FF4806404F132045FEAA1
:1004B000915C3FF4D8AE4FF003025FEADC0C18BF4A
:1004C00003325FEADC0C18BF033202EBDC02C2F13C
:1004D000200300FA03FC20FA02F001FA03FE40EACE
:1004E0000E0021FA02F11444BDE600BF70B54FF0D2
:1004F000FF0C4CF4E06C1CEA11541DBF1CEA1355B0
:1005000094EA0C0F95EA0C0F00F0DEF82C4481EA17
:10051000030621EA4C5123EA4C5350EA013518BF37
:1005200052EA033541F4801143F4801338D0A0FB24
:1005300002CE4FF00005E1FB02E506F00042E0FBD1
:1005400003E54FF00006E1FB03569CF0000F18BFD7
:100550004EF0010EA4F1FF04B6F5007F64F540747F
:1005600004D25FEA4E0E6D4146EB060642EAC62112
:1005700041EA55514FEAC52040EA5E504FEACE2E7F
:10058000B4F1FD0C88BFBCF5E06F1ED8BEF1004F82
:1005900008BF5FEA500E50F1000041EB045170BDFE
:1005A00006F0004646EA010140EA020081EA030142
:1005B000B4EB5C04C2BFD4EB0C0541EA045170BD3E
:1005C00041F480114FF0000E013C00F3AB8014F1B8
:1005D000360FDEBF002001F0004170BDC4F1000401
:1005E000203C35DA0C341BDC04F11404C4F1200582
:1005F00000FA05F320FA04F001FA05F240EA0200DD
:1006000001F0004221F0004110EBD37021FA04F612
:1006100042EB06015EEA430E08BF20EAD37070BDCC
:10062000C4F10C04C4F1200500FA04F320FA05F02B
:1006300001FA04F240EA020001F0004110EBD3702D
:1006400041F100015EEA430E08BF20EAD37070BD9D
:10065000C4F1200500FA05F24EEA020E20FA04F376
:1006600001FA05F243EA020321FA04F001F0004125
:1006700021FA04F220EA020000EBD3705EEA430E96
:1006800008BF20EAD37070BD94F0000F0FD101F0C5
:100690000046400041EB010111F4801F08BF013CFE
:1006A000F7D041EA060195F0000F18BF704703F03C
:1006B0000046520043EB030313F4801F08BF013DC3
:1006C000F7D043EA0603704794EA0C0F0CEA13557F
:1006D00018BF95EA0C0F0CD050EA410618BF52EA39
:1006E0004306D1D181EA030101F000414FF000003F
:1006F00070BD50EA410606BF1046194652EA43064D
:1007000019D094EA0C0F02D150EA013613D195EAC0
:100710000C0F05D152EA03361CBF104619460AD108
:1007200081EA030101F0004141F0FE4141F4700112
:100730004FF0000070BD41F0FE4141F4780170BD02
:1007400070B54FF0FF0C4CF4E06C1CEA11541DBF67
:100750001CEA135594EA0C0F95EA0C0F00F0A7F869
:10076000A4EB050481EA030E52EA03354FEA013196
:1007700000F088804FEA03334FF0805545EA1313A9
:1007800043EA12634FEA022245EA111545EA106571
:100790004FEA00260EF000419D4208BF964244F108
:1007A000FD0404F5407402D25B084FEA3202B61A27
:1007B00065EB03055B084FEA32024FF480104FF4FB
:1007C000002CB6EB020E75EB030E22BFB61A75466F
:1007D00040EA0C005B084FEA3202B6EB020E75EB02
:1007E000030E22BFB61A754640EA5C005B084FEA6A
:1007F0003202B6EB020E75EB030E22BFB61A754637
:1008000040EA9C005B084FEA3202B6EB020E75EB41
:10081000030E22BFB61A754640EADC0055EA060E02
:1008200018D04FEA051545EA16754FEA06164FEA45
:10083000C30343EA52734FEAC2025FEA1C1CC0D1F1
:1008400011F4801F0BD141EA00014FF000004FF07E
:10085000004CB6E711F4801F04BF01430020B4F13F
:10086000FD0C88BFBCF5E06F3FF6AFAEB5EB030CF7
:1008700004BFB6EB020C5FEA500C50F1000041EBF4
:10088000045170BD0EF0004E4EEA113114EB5C04C1
:10089000C2BFD4EB0C0541EA045170BD41F4801194
:1008A0004FF0000E013C90E645EA060E8DE60CEA9C
:1008B000135594EA0C0F08BF95EA0C0F3FF43BAFB9
:1008C00094EA0C0F0AD150EA01347FF434AF95EA70
:1008D0000C0F7FF425AF104619462CE795EA0C0F54
:1008E00006D152EA03353FF4FDAE1046194622E721
:1008F00050EA410618BF52EA43067FF4C5AE50EAFB
:1009000041047FF40DAF52EA43057FF4EBAE12E7EA
:100910004FF0FF3C06E000BF4FF0010C02E000BFCB
:100920004FF0010C4DF804CD4FEA410C7FEA6C5CAE
:100930004FEA430C18BF7FEA6C5C1BD001B050EA51
:10094000410C0CBF52EA430C91EA030F02BF90EA3C
:10095000020F0020704710F1000F91EA030F58BFFB
:10096000994208BF90422CBFD8176FEAE37040F05D
:10097000010070474FEA410C7FEA6C5C02D150EAFB
:10098000013C07D14FEA430C7FEA6C5CD6D152EAB6
:10099000033CD3D05DF8040B704700BF844610467B
:1009A00062468C461946634600E000BF01B5FFF77A
:1009B000B7FF002848BF10F1000F01BD4DF808ED4A
:1009C000FFF7F4FF0CBF012000205DF808FB00BF1B
:1009D0004DF808EDFFF7EAFF34BF012000205DF875
:1009E00008FB00BF4DF808EDFFF7E0FF94BF0120C2
:1009F00000205DF808FB00BF4DF808EDFFF7CEFFC3
:100A000094BF012000205DF808FB00BF4DF808ED01
:100A1000FFF7C4FF34BF012000205DF808FB00BFD2
:100A20004FEA410C7FEA6C5C02D150EA013C0AD1EA
:100A30004FEA430C7FEA6C5C02D152EA033C02D1DC
:100A40004FF0000070474FF0010070474FEA41023D
:100A500012F5001215D211D56FF47873B3EB625210
:100A600012D94FEAC12343F0004343EA505311F037
:100A7000004F23FA02F018BF404270474FF00000C9
:100A8000704750EA013005D111F0004008BF6FF007
:100A9000004070474FF00000704700BF4A0011D27D
:100AA00012F5001211D20DD56FF47873B3EB6252C8
:100AB0000ED44FEAC12343F0004343EA505323FAD4
:100AC00002F070474FF00000704750EA013002D149
:100AD0004FF0FF3070474FF0000070474FEA41027F
:100AE000B2F1E04324BFB3F5001CDCF1FE5C0DD98C
:100AF00001F0004C4FEAC0024CEA5070B2F1004FD6
:100B000040EB830008BF20F00100704711F0804FD8
:100B100021D113F13872BCBF01F00040704741F49D
:100B200080114FEA5252C2F11802C2F1200C10FAA1
:100B30000CF320FA02F018BF40F001004FEAC12385
:100B40004FEAD32303FA0CFC40EA0C0023FA02F329
:100B50004FEA4303CCE77FEA625307D150EA0133FF
:100B60001EBF4FF0FE4040F44000704701F00040CF
:100B700040F0FE4040F40000704700BF80F00040AD
:100B800002E000BF81F0004142001FBF5FEA410365
:100B900092EA030F7FEA226C7FEA236C6AD04FEA65
:100BA0001262D2EB1363C1BFD218414048404140AA
:100BB000B8BF5B42192B88BF704710F0004F40F45C
:100BC000000020F07F4018BF404211F0004F41F478
:100BD000000121F07F4118BF494292EA030F3FD044
:100BE000A2F1010241FA03FC10EB0C00C3F1200357
:100BF00001FA03F100F0004302D5494260EB4000E6
:100C0000B0F5000F13D3B0F1807F06D340084FEA50
:100C1000310102F10102FE2A51D2B1F1004F40EB45
:100C2000C25008BF20F0010040EA030070474900AD
:100C300040EB000010F4000FA2F10102EDD1B0FA78
:100C400080FCACF1080CB2EB0C0200FA0CF0AABF6D
:100C500000EBC25052421843BCBFD040184370470B
:100C600092F0000F81F4000106BF80F40000013211
:100C7000013BB5E74FEA41037FEA226C18BF7FEAE8
:100C8000236C21D092EA030F04D092F0000F08BF2A
:100C90000846704790EA010F1CBF0020704712F011
:100CA0007F4F04D1400028BF40F00040704712F150
:100CB00000723CBF00F50000704700F0004343F0B5
:100CC000FE4040F4000070477FEA226216BF0846EB
:100CD0007FEA23630146420206BF5FEA412390EAAE
:100CE000010F40F4800070474FF0000304E000BFA4
:100CF00010F0004348BF40425FEA000C08BF704755
:100D000043F0964301464FF000001CE050EA010218
:100D100008BF70474FF000030AE000BF50EA01022D
:100D200008BF704711F0004302D5404261EB41011A
:100D30005FEA010C02BF84460146002043F0B6433F
:100D400008BFA3F18053A3F50003BCFA8CF2083A64
:100D5000A3EBC25310DB01FA02FC634400FA02FC6D
:100D6000C2F12002BCF1004F20FA02F243EB020074
:100D700008BF20F00100704702F1200201FA02FCD6
:100D8000C2F1200250EA4C0021FA02F243EB0200C9
:100D900008BF20EADC7070474FF0FF0C1CEAD0520D
:100DA0001EBF1CEAD15392EA0C0F93EA0C0F6FD0CE
:100DB0001A4480EA010C400218BF5FEA41211ED0AC
:100DC0004FF0006343EA501043EA5111A0FB013198
:100DD0000CF00040B1F5000F3EBF490041EAD3716D
:100DE0005B0040EA010062F17F02FD2A1DD8B3F1E9
:100DF000004F40EBC25008BF20F00100704790F058
:100E0000000F0CF0004C08BF49024CEA502040EAA9
:100E100051207F3AC2BFD2F1FF0340EAC25070476F
:100E200040F400004FF00003013A5DDC12F1190FAD
:100E3000DCBF00F000407047C2F10002410021FA1F
:100E400002F1C2F1200200FA02FC5FEA310040F137
:100E5000000053EA4C0308BF20EADC70704792F0B0
:100E6000000F00F0004C02BF400010F4000F013AE8
:100E7000F9D040EA0C0093F0000F01F0004C02BFE3
:100E8000490011F4000F013BF9D041EA0C018FE752
:100E90000CEAD15392EA0C0F18BF93EA0C0F0AD058
:100EA00030F0004C18BF31F0004CD8D180EA01007E
:100EB00000F00040704790F0000F17BF90F0004F17
:100EC000084691F0000F91F0004F14D092EA0C0FF9
:100ED00001D142020FD193EA0C0F03D14B0218BF8C
:100EE000084608D180EA010000F0004040F0FE40D2
:100EF00040F40000704740F0FE4040F4400070476E
:100F00004FF0FF0C1CEAD0521EBF1CEAD15392EAEC
:100F10000C0F93EA0C0F69D0A2EB030280EA010CDC
:100F200049024FEA402037D04FF0805343EA111175
:100F300043EA10130CF000408B4238BF5B0042F1D3
:100F40007D024FF4000C8B4224BF5B1A40EA0C0078
:100F5000B3EB510F24BFA3EB510340EA5C00B3EBAA
:100F6000910F24BFA3EB910340EA9C00B3EBD10F98
:100F700024BFA3EBD10340EADC001B0118BF5FEAEA
:100F80001C1CE0D1FD2A3FF650AF8B4240EBC25013
:100F900008BF20F0010070470CF0004C4CEA5020D4
:100FA0007F32C2BFD2F1FF0340EAC250704740F423
:100FB00000004FF00003013A37E792F0000F00F015
:100FC000004C02BF400010F4000F013AF9D040EA93
:100FD0000C0093F0000F01F0004C02BF490011F427
:100FE000000F013BF9D041EA0C0195E70CEAD1531F
:100FF00092EA0C0F08D142027FF47DAF93EA0C0F06
:101000007FF470AF084676E793EA0C0F04D14B02E9
:101010003FF44CAF08466EE730F0004C18BF31F09B
:10102000004CCAD130F000427FF45CAF31F0004395
:101030007FF43CAF5FE700BF4FF0FF3C06E000BF2E
:101040004FF0010C02E000BF4FF0010C4DF804CD51
:101050004FEA40024FEA41037FEA226C18BF7FEA61
:10106000236C11D001B052EA530C18BF90EA010F63
:1010700058BFB2EB030088BFC81738BF6FEAE170F2
:1010800018BF40F0010070477FEA226C02D15FEA8E
:10109000402C05D17FEA236CE4D15FEA412CE1D0FA
:1010A0005DF8040B704700BF844608466146FFE7C1
:1010B0000FB5FFF7C9FF002848BF10F1000F0FBDA3
:1010C0004DF808EDFFF7F4FF0CBF012000205DF89C
:1010D00008FB00BF4DF808EDFFF7EAFF34BF012021
:1010E00000205DF808FB00BF4DF808EDFFF7E0FFBA
:1010F00094BF012000205DF808FB00BF4DF808ED0B
:10110000FFF7D2FF94BF012000205DF808FB00BF6D
:101110004DF808EDFFF7C8FF34BF012000205DF84F
:1011200008FB00BF4FEA40024FEA41037FEA226C0E
:1011300002D15FEA402C08D17FEA236C02D15FEA3A
:10114000412C02D14FF0000070474FF00100704772
:101150004FEA4002B2F1FE4F0FD34FF09E03B3EBC4
:1011600012620DD94FEA002343F0004310F0004F04
:1011700023FA02F018BF404270474FF0000070475A
:1011800012F1610F01D1420205D110F0004008BFF9
:101190006FF0004070474FF00000704742000ED2E1
:1011A000B2F1FE4F0BD34FF09E03B3EB126209D4A2
:1011B0004FEA002343F0004323FA02F070474FF058
:1011C0000000704712F1610F01D1420202D14FF0CD
:1011D000FF3070474FF00000704700BFF8B50022A5
:1011E000002307460E46FFF7F3FB28B93846314681
:1011F000BDE8F84000F00AB8384606F1004100F0BA
:1012000005F8404261EB4101F8BD00BFD0B50022B6
:101210000D4B06460F46FFF769F9FFF73FFC044602
:10122000FFF7EAF80022094BFFF760F902460B4688
:1012300030463946FEF7A2FFFFF730FC0022234676
:1012400010431946D0BD00BF0000F03D0000F04142
:101250007047000038B50E4B054618784FF47A7386
:10126000B3FBF0F30B4A1068B0FBF3F000F0A2F808
:10127000044658B90F2D09D8024629464FF0FF30D1
:1012800000F042F82046044B1D6038BD0120FCE709
:10129000000000205402002004000020074A08B586
:1012A0001368032043F01003136000F01BF80F20B5
:1012B000FFF7D0FFFFF7CCFF002008BD0020024061
:1012C000034A044B11681B780B441360704700BF3E
:1012D000F40D002000000020014B1868704700BF8B
:1012E000F40D0020074A0002D36800F4E06023F404
:1012F000E0631B041B0C43F0BF6343F40033034360
:10130000D360704700ED00E0174B70B5DC684FF01C
:10131000FF36C4F30224C4F10705042D04F10403CD
:1013200028BF0425062B98BF002406FA05F388BFC2
:10133000033C21EA0303A34006FA04F422EA04046E
:10134000002843EA0403A8BF00F160404FEA0313FA
:10135000B8BF064ADBB2ABBF00F5614000F00F003A
:1013600080F80033135470BD00ED00E014ED00E090
:10137000002808DB0123420900F01F0003FA00F0F7
:10138000014B43F82200704700E100E000280DDB2C
:101390000122430900F01F0002FA00F0044A203342
:1013A00042F82300BFF34F8FBFF36F8F704700BF2A
:1013B00000E100E00138B0F1807F0AD2F021064B55
:1013C000064A586082F823100020072298601A60AD
:1013D00070470120704700BF10E000E000ED00E022
:1013E00010B548B314220168144B0B44B3FBF2F35D
:1013F0009B000364124BC363022380F82130D0E9C1
:1014000001342343C4680A682343046922F47F52E9
:101410002343446922F03002234384692343C4698F
:10142000234313430B6001220023836380F82030A1
:1014300080F82120184610BD0120FCE7F8FFFDBF11
:101440000000024010B508B30168114A0B680A4455
:1014500023F001030B6000230B604B608B60CB60BB
:101460001421B2FBF1F2012192000A4C026401FA4C
:1014700002F2C46362608363C0E90A33C0E90C33DB
:1014800080F8213080F82030184610BD0120FCE79C
:10149000F8FFFDBF00000240F0B590F82040012C9D
:1014A00036D0012490F8215080F82040EDB2A542BA
:1014B0004FF000064FF0020428D180F82140046864
:1014C0008663266826F001062660D0E90F67BD40D6
:1014D0007560636043680568102BC36A0BBFA26028
:1014E000A160E160E2604BB1236843F00E0300208D
:1014F00023602B6843F001032B60F0BD236823F0C9
:1015000004032360236843F00A03F0E780F82060B7
:101510000220F2E790F82130022B06D004238363E7
:10152000002380F82030012070470368C16B1A68DF
:1015300022F00E021A601A6822F001021A600122DB
:10154000036C02FA03F34B60002380F8212080F83B
:10155000203018467047000090F8213010B5022B5B
:1015600003D004238363012010BD03681A6822F0AE
:101570000E021A601A6822F001021A60184A934299
:101580001FD0143293421ED0143293421DD0143215
:1015900093421DD0143293421DD0143293420CBF9B
:1015A0004FF480134FF080730E4A002453600123E0
:1015B00080F82130436B80F820407BB1984720466B
:1015C000D2E70123F0E71023EEE74FF48073EBE757
:1015D0004FF48053E8E74FF48033E5E71846C3E75C
:1015E000080002400000024070B40425C66B026C83
:1015F0003468036895402542196832D04D0730D5CC
:101600001A6896065EBF1A6822F004021A603E4A03
:10161000934219D01432934218D01432934217D007
:101620001432934217D01432934217D0143293429B
:101630000CBF4FF480034FF08063344A5360C36A99
:10164000002B5ED070BC18470423F6E74023F4E774
:101650004FF48063F1E74FF48043EEE74FF48023CB
:10166000EBE702259540254235D08D0733D51A6822
:10167000940606D41A6822F00A021A60012280F841
:101680002120214A934219D01432934218D01432A7
:10169000934217D01432934217D01432934217D08A
:1016A000143293420CBF4FF400134FF00073174AEB
:1016B0005360002380F82030836AC1E70223F6E7F5
:1016C0002023F4E74FF40073F1E74FF40053EEE703
:1016D0004FF40033EBE708259540254211D0090768
:1016E0000FD5196821F00E011960012303FA02F2E7
:1016F0007260836380F82130002380F82030036B10
:101700009EE770BC704700BF080002400000024026
:101710002DE9F74F00242646654BDFF8A4C1DFF81A
:10172000A4E10A6832FA06F502D103B0BDE8F08FF1
:101730004FF0010808FA06F802EA080290457ED147
:101740004D68122D00F0A98000F28280022D00F079
:10175000A18076D8002D00F08880012D00F09880BF
:101760004FF00F09FF2A93BF824606F18045083DDE
:10177000D0F800B092BFB500D0F804B0AD0009FABF
:1017800005F82BEA080804FA05F588BF00F1040AF9
:1017900048EA0505CAF80050D1F804A01AF0805FA5
:1017A0004DD0444F26F00308BD6908F1804845F04C
:1017B0000105BD61BD6908F5803805F00105019599
:1017C00006F0030B019D4FEA8B0BD8F8085009FA7D
:1017D0000BF925EA0909384DA84263D005F5806563
:1017E000A84261D005F58065A8425FD005F5806507
:1017F000A8420CBF0325042505FA0BF545EA0905A7
:10180000C8F808509D681AF4801F14BF154395430B
:101810009D60DD681AF4001F14BF15439543DD6019
:101820005D681AF4003F14BF154395435D601D6861
:101830001AF4803F14BF2A4325EA02021A600136D7
:101840006FE7032D22D0112D8AD1CC68043487E7AD
:101850001A4FBD4209D012D8DFF86C904D4504D024
:1018600009F580394D457FF47BAF8C68C4B1012CFC
:101870000CBFC0F81080C0F81480082470E76545DC
:10188000F3D07545F1D0DFF84490EBE7002467E72B
:10189000CC6865E7CC68083462E7CC680C345FE755
:1018A00004245DE70025A7E70125A5E70225A3E7B6
:1018B0000004014000100240000801400000211017
:1018C0000000311000003210000011100000221042
:1018D0002DE9F74F4FF0040B00234FF0010A4FF0B2
:1018E0000F0800EB0B020192314A31FA03F402D1E6
:1018F00003B0BDE8F08F0AFA03F70F404FD023F092
:10190000030404F1804404F5803403F0030C294DF2
:10191000A6684FEA8C0C08FA0CF9A84209EA060EF0
:101920003FD005F58065A8423DD005F58065A84209
:101930003BD005F58065A84214BF0425032505FAB0
:101940000CF575456FEA07060FD11568354015602F
:10195000556835405560D5683540D5609568354047
:101960009560A56825EA0905A560FF2F93BF074686
:1019700003F18044083CD0F800C08ABFD0F804C00E
:101980009C00A40008FA04F588BF019F0BFA04F438
:101990002CEA050525433D60C4682640C660013336
:1019A000A3E70025CBE70125C9E70225C7E700BF6C
:1019B00000040140000801408368194214BF01205F
:1019C000002070470AB1016170470904FBE7C36852
:1019D00001EA030221EA030141EA02410161704781
:1019E00070B5044618B34CF6CC42036841F23C365D
:1019F0001A6045F255521A6042685A6082689A60CD
:101A0000FFF76AFC05462368D86810F0030003D18D
:101A10004AF6AA221A6070BDFFF75EFC401BB04276
:101A2000F1D92368DB689B07EDD00320F3E70120A1
:101A3000F1E74AF6AA22036800201A607047000006
:101A40002DE9F341054608B901203CE00368DB07B6
:101A500010D42B689F075DD42B68190700F1948080
:101A60002B685A0700F1BE80E869002840F02C81FD
:101A7000002028E08F4C636803F00C03042B07D090
:101A8000636803F00C03082B09D16368DE0306D5F5
:101A900023689C03DDD56B68002BDAD1D4E76B6833
:101AA000B3F5803F12D1236843F480332360FFF7FE
:101AB00013FC064623689803CBD4FFF70DFC801B6C
:101AC0006428F7D9032002B0BDE8F0819BB92368F0
:101AD00023F480332360236823F480232360FFF7FB
:101AE000FBFB064623689903B3D5FFF7F5FB801B84
:101AF0006428F7D9E6E7B3F5A02F236803D143F4B0
:101B000080232360CFE723F480332360236823F40A
:101B10008023CBE7674C636813F00C0F07D0636832
:101B200003F00C03082B10D16368DA030DD423688B
:101B30009B0702D52B69012B86D123686A6923F0A4
:101B4000F80343EAC203236086E72A695A4B6AB165
:101B500001221A60FFF7C0FB064623689F07ECD4FA
:101B6000FFF7BAFB801B0228F7D9ABE71A60FFF733
:101B7000B3FB0646236898077FF56EAFFFF7ACFB13
:101B8000801B0228F6D99DE7AA694A4C4B4BDAB173
:101B900001221A60FFF7A0FB0646636A9B070DD57A
:101BA0004FF4FA52464B1B68B3FBF2F3019300BFAC
:101BB000019B5A1E0192002BF9D151E7FFF78CFBD4
:101BC000801B0228E9D97DE71A60FFF785FB0646EE
:101BD000636A9F077FF544AFFFF77EFB801B0228F7
:101BE000F6D96FE7334CE369D80024D40127E369C1
:101BF00043F08053E361E36903F080530093009B5B
:101C0000304E3368D90518D5EB68012B26D1236AED
:101C100043F001032362FFF75FFB41F28836804601
:101C2000236A9B073FD5002F3FF41EAFE36923F0E3
:101C30008053E36118E70027E2E7336843F48073D9
:101C40003360FFF749FB80463368DA05DCD4FFF7E1
:101C500043FBA0EB08006428F6D933E7ABB9236A4D
:101C600041F2883823F001032362236A23F004033E
:101C70002362FFF731FB0646236A9807D3D5FFF7A7
:101C80002BFB801B4045F7D91CE7052B236A03D1AA
:101C900043F004032362BAE723F001032362236ABB
:101CA00023F00403B6E7FFF717FBA0EB0800B042F0
:101CB000B6D907E7001002400000424280044242C9
:101CC00054020020007000402A4B5A681C4602F063
:101CD0000C02082A3DD00023274E022833602BD166
:101CE000FFF7FAFA0746236899011FD42B6AB3F568
:101CF000803F05D16268A96822F400320A4362601D
:101D0000696A62680B4322F474121343636001230F
:101D10003360FFF7E1FA054623689A013FF5A8AE64
:101D2000FFF7DAFA401B0228F6D9CBE6FFF7D4FA20
:101D3000C01B0228D7D9C5E6FFF7CEFA05462368AF
:101D40009B017FF595AEFFF7C7FA401B0228F6D935
:101D5000B8E601283FF4B7AE58682B6A00F4803229
:101D60009A427FF471AE6B6A00F47010C01A18BF0B
:101D70000120A8E600100240600042420D494B6875
:101D800003F00C02082A12D10B48C3F38342DB0391
:101D9000825C09D509484B685043094AC3F3404364
:101DA000D35CB0FBF3F070470648504370470348DC
:101DB000704700BF0010024028B0000800127A00EF
:101DC00038B0000800093D002DE9F0410D460446F9
:101DD00010B90120BDE8F081444A136803F00703FD
:101DE0008B4228D321688E0730D4CA0743D43F4A98
:101DF000136803F00703AB4265D822683C4D12F02C
:101E0000040F6CD1130706D56B68226923F4605365
:101E100043EAC2036B60FFF7B1FF6B68354AC3F357
:101E20000313D35CD840344B1860344B1868FFF769
:101E300011FA0020CEE7136823F007030B43136069
:101E4000136803F007038B42C3D1CBE7284B11F093
:101E5000040F1EBF5A6842F4E0625A60080742BF8E
:101E60005A6842F460525A605A68A06822F0F00240
:101E700002435A60B9E762681D4E012A33681AD1DD
:101E800013F4003FA5D0736841F2883823F00303B0
:101E900013437360FFF720FA07467368626803F024
:101EA0000C03B3EB820FA2D0FFF716FAC01B40451C
:101EB000F3D903208EE7022A02D113F0007FE1E775
:101EC00013F0020FDEE7136823F007032B431360C0
:101ED000136803F00703AB427FF47BAF8DE76B68B9
:101EE000E16823F4E0630B436B608BE70020024062
:101EF00000100240A0B80008540200200400002096
:101F0000044B054A5B68C3F30223D35C034A1068A1
:101F1000D840704700100240B0B8000854020020BA
:101F2000044B054A5B68C3F3C223D35C034A1068C1
:101F3000D840704700100240B0B80008540200209A
:101F40002DE9F7431E46884617460546FFF7C4F9B4
:101F50000A9C3444241AFFF7BFF98146244B1B68BE
:101F6000C3F3CB3363432A680193936838EA0303CE
:101F70000CBF01230023BB4201D100202EE0731CC3
:101F8000F3D0FFF7A9F9A0EB0900A04229D32B68F1
:101F90005A6822F0E0025A606A68B2F5827F0AD17C
:101FA000AA68B2F5004F02D0B2F5806F03D11A686B
:101FB00022F040021A60AA6AB2F5005F07D11A68DF
:101FC00022F400521A601A6842F400521A60012387
:101FD00085F851300023032085F8503003B0BDE868
:101FE000F083019B002B019B08BF0024013BBAE753
:101FF0005402002073B50B4600920D46164602218E
:1020000001220446FFF79CFF024628B1636D0320BE
:1020100043F02003636507E000962B4680212046AD
:10202000FFF78EFF0028F1D102B070BD37B50B4627
:1020300041680446B1F5827F18D18068B0F5004F41
:1020400002D0B0F5806F11D12168B0F5806F0D68B6
:1020500025F040050D6009D10092012100222046A3
:10206000FFF76EFF30B9002003B030BD0092802131
:102070000022F4E7636D032043F020036365F3E778
:1020800010B50446002851D0436A002B4AD142685B
:10209000B2F5827F00D0C3610023A36294F851306F
:1020A00003F0FF0223B984F85020204601F046FBDC
:1020B0000223226884F851301368A06823F040039B
:1020C0001360636800F4044003F482730343E06820
:1020D000A16900F400600343206900F0020003439B
:1020E000606900F00100034301F400700343E069FC
:1020F000090C00F038000343206A01F0040100F0ED
:1021000080000343A06A00F4005003431360516051
:10211000D369002023F40063D3610123606584F850
:10212000513010BD0023C0E90433B5E70120F8E7C2
:102130002DE9F74304460D461E4691460A9FFFF7D8
:10214000CBF894F851308046DBB2012B61680AD09D
:10215000B1F5827F40F0E280A068002840F0DE8088
:10216000042B40F0DB80002D4AD0B9F1000F47D09E
:10217000002E45D094F85030012B00F0CF80012381
:1021800084F8503094F85130C4F83890042B1CBFB8
:10219000052384F8513000236365C4E910332368B4
:1021A000E687E6861A68A687500658BF1A68256330
:1021B00058BF42F04002A68658BF1A60E268B2F5E6
:1021C000006F53D109B1012E07D135F8022BDA6027
:1021D000E38E2563013B9BB2E3860125E38E9BB230
:1021E00083B9E38F9BB26BB9424639462046FFF76D
:1021F00001FF00287ED020236365002384F850303F
:10220000012030E02268936899070DD5E38E9BB2D8
:1022100053B14DB10025236B33F8021BD16023630A
:10222000E38E013B9BB2E3869368DB070CD5E38F1B
:102230009BB24BB10125D268A36B23F8022BA36399
:10224000E38F013B9BB2E387FFF746F8A0EB080062
:10225000B842C3D37E1CC1D0012384F8513000237F
:10226000032084F8503003B0BDE8F08309B1012E9B
:1022700008D12A781A73236B01332363E38E013B61
:102280009BB2E38601252CE02268936898070ED55F
:10229000E38E9BB25BB155B10025236B1B781373A2
:1022A000236B01332363E38E013B9BB2E3862268F9
:1022B0009368D9070DD5E38F9BB253B10125D2683E
:1022C000A36B1A70A36B0133A363E38F013B9BB233
:1022D000E387FFF701F8A0EB0800B84201D37B1CAD
:1022E000BAD1E38E9BB2002BCED1E38F9BB2002BF1
:1022F000CAD179E7A36833B901932368DA680192F8
:102300009B680193019B012384F851300023606D89
:1023100084F85030C01A18BF0120A4E70220A2E7B9
:1023200070B5044690F85100C0B2012808D0656825
:10233000B5F5827F6DD1A568002D6AD1042868D1DA
:10234000002939D0002A37D0002B35D094F850001E
:1023500001285ED0012084F8500094F85100002636
:1023600004281CBF052084F8510000206065E38626
:10237000E387A386A38794F85130C4E91000042BA7
:10238000E06C0CBF244B254B2163A2630BBFC362DF
:10239000C362234B234B21688362234B4663036351
:1023A0000C31E38FFFF778F8054638B1636D84F898
:1023B000506043F010036365012029E02268A06C9F
:1023C0005368216B43F001035360E38EC0E90A5563
:1023D000C0E90C550C32FFF75FF830B1636D84F83B
:1023E000505043F010036365E6E723681A6852060D
:1023F0005EBF1A6842F040021A60002284F8502042
:102400005A6842F020025A605A6842F002025A604A
:1024100070BD0220FCE700BF312400083D24000805
:1024200069240008CF24000847240008704770473B
:1024300008B5406AFFF7FBFF08BD704708B5406A62
:10244000FFF7FBFF08BD406A08B50268536823F038
:1024500003035360436D43F010034365012380F889
:10246000513001F0EDF808BD38B50546446AFEF775
:1024700033FF2B6802461B689B0624D423685968E7
:1024800021F020015960A168C9B96168B1F5827F66
:1024900015D1596821F00301596020466421FFF7E6
:1024A000C5FD08B1202363650023E387012384F879
:1024B0005130636D3BB1204601F0C2F838BD596818
:1024C00021F00101E8E72046FFF7B0FFF6E738B555
:1024D0000546446AFEF700FF2B6802461B689B0610
:1024E0001ED4216820464B6823F020034B606421F2
:1024F000FFF780FD18B1636D43F020036365226828
:10250000536823F0030353600023E386E38701232A
:1025100084F85130636D1BB1204601F091F838BD4D
:10252000204601F081F8FAE7036A026A70B522F0EA
:1025300001020262446882690D6822F073022A4334
:102540008D6823F002032B430A4DA8420BD1CD68BE
:1025500023F008032B4324F44074D1E90556354396
:1025600023F004032C43446082614A68426303629F
:1025700070BD00BF002C0140036A026A70B522F4EE
:10258000807202624468C2690D6822F073022A43B5
:102590008D6823F4007343EA05230B4DA8420DD147
:1025A000CD6823F4006343EA052324F44054D1E9C1
:1025B0000556354323F4806344EA05144460C26140
:1025C0004A68C263036270BD002C0140036A026A5C
:1025D00030B522F4805202624468C2690D6822F468
:1025E000E64242EA05228D6823F4005343EA0533AC
:1025F000064DA84202BF4D6924F4804444EA851484
:102600004460C2614A680264036230BD002C01402C
:1026100090F83D30012B20D1022380F83D30036833
:10262000DA6842F00102DA600D4A93420AD0B3F14F
:10263000804F07D0A2F59432934203D002F5806216
:10264000934204D19A6802F00702062A03D01A685E
:1026500042F001021A60002070470120704700BF5D
:10266000002C01407047704770477047036870B591
:10267000DD681E690446B1070DD5AA070BD56FF0BA
:1026800002021A6101229B6902779B0769D0FFF75A
:10269000EAFF00232377710710D56A070ED56FF084
:1026A0000402236820461A6102229B69227713F4F0
:1026B000407F5CD0FFF7D7FF0023237733070FD588
:1026C00028070DD56FF00802236820461A610422FE
:1026D000DB692277990750D0FFF7C5FF00232377E6
:1026E000F20610D5EB060ED56FF0100223682046D7
:1026F0001A610822DB69227713F4407F43D0FFF789
:10270000B2FF00232377F00708D5E90706D56FF05D
:102710000102236820461A6103F0AEF9320608D59B
:102720002B0606D56FF08002236820461A6100F060
:10273000F2F9700608D5690606D56FF040022368E5
:1027400020461A61FFF791FFB20622D5AB0620D5CD
:102750006FF0200223682046BDE870401A6100F047
:10276000D9B9FFF77FFF2046FFF77EFF91E7FFF71C
:1027700079FF2046FFF778FF9EE7FFF773FF2046BB
:10278000FFF772FFAAE7FFF76DFF2046FFF76CFF28
:10279000B7E770BD1E4A036890420AD0B0F1804F7F
:1027A00007D0A2F59432904203D002F580629042A5
:1027B00015D14A6823F070031343154A90420AD09A
:1027C000B0F1804F07D0A2F59432904203D002F5C9
:1027D0008062904203D1CA6823F4407313434A696C
:1027E00023F08003134303608B68C3620B6883622A
:1027F000074B984204BF0B690363012343610369DC
:10280000DB0742BF036923F001030361704700BF88
:10281000002C014010B5044630B390F83D3003F071
:10282000FF021BB980F83C2003F0DAF8022320688D
:1028300084F83D30211DFFF7ADFF0123002084F80F
:10284000463084F83E3084F83F3084F8403084F8D5
:10285000413084F8423084F8433084F8443084F8BE
:10286000453084F83D3010BD0120FCE710B504462A
:1028700030B390F83D3003F0FF021BB980F83C20E4
:1028800003F09AF80223206884F83D30211DFFF7F9
:1028900081FF0123002084F8463084F83E3084F81C
:1028A0003F3084F8403084F8413084F8423084F876
:1028B000433084F8443084F8453084F83D3010BD0E
:1028C0000120FCE7036A026A70B522F0100202627E
:1028D000446882690D6822F4E64242EA05228D6866
:1028E00023F0200343EA05130B4DA8420DD1CD6818
:1028F00023F0800343EA051324F44064D1E905562C
:10290000354323F0400344EA8504446082614A6809
:102910008263036270BD00BF002C014038B590F89F
:102920003C300446012B57D0012380F83C300C2A60
:1029300050D8DFE802F0074F4F4F1C4F4F4F2D4F3D
:102940004F4F3E000068FFF7EFFD236809699A6961
:1029500042F008029A619A6922F004029A619A6927
:102960000A439A610020002384F83C3038BD006897
:10297000FFF7A8FF236809699A6942F400629A6127
:102980009A6922F480629A619A6942EA0122E8E730
:102990000068FFF7F1FD23680969DA6942F008026F
:1029A000DA61DA6922F00402DA61DA690A43DA618B
:1029B000D8E70068FFF70AFE23680969DA6942F47C
:1029C0000062DA61DA6922F48062DA61DA6942EA85
:1029D0000122ECE70120C6E70220C7E710B5012479
:1029E000036A01F01F018C4023EA04030362036AB7
:1029F0008A401A43026210BD10B5044629B990F806
:102A00003E30012B1DD0012010BD042907D190F8C4
:102A10003F30012BF7D1022380F83F3014E0082922
:102A200007D190F84030012BEDD1022380F84030DF
:102A30000AE090F84130012BE5D1022380F84130C3
:102A400002E0022380F83E3001222068FFF7C6FF33
:102A500023680E4A93420AD15A6C42F400425A64E7
:102A60009A6802F00702062A0BD10020CCE7B3F1E6
:102A7000804FF5D0064A9342F2D002F5806293422D
:102A8000EED01A6842F001021A60EEE7002C014015
:102A900000040040FFF7B0BF38B5044600220068CC
:102AA0000D46FFF79BFF2368184A93420DD141F270
:102AB0001112196A114208D140F24442196A1142B6
:102AC00002BF5A6C22F400425A6441F21112196A90
:102AD000114208D140F24442196A114202BF1A68F9
:102AE00022F001021A6001231DB984F83E30002053
:102AF00038BD042D02D184F83F30F8E7082D0CBF13
:102B000084F8403084F84130F1E700BF002C0140E8
:102B1000FFF7C2BF70477047026802F10C0353E829
:102B2000003F23F490730C3242E800310268002920
:102B3000F2D102F1140353E8003F23F0010302F144
:102B4000140C4CE800310029F3D1036B012B0BD19D
:102B500002F10C0353E8003F23F0100302F10C0CC8
:102B60004CE800310029F3D1202380F842300023C3
:102B70000363704710B504460368C1681A6922F4FC
:102B800040520A431A6182680069D9680243606949
:102B900021F4B05121F00C0102430A43DA605A6972
:102BA000A16922F440720A435A610E4A934215D138
:102BB000FFF7B6F919235843636864229B00B0FB02
:102BC000F3F0B0FBF2F102FB11031B013233B3FB54
:102BD000F2F3246803EB0113A36010BDFFF790F933
:102BE000E8E700BF00380140F7B504460D46174638
:102BF0001E4621680B6835EA030301D1002021E05D
:102C0000701CF7D0FEF768FBC01B86421CD3DEB1F8
:102C10002068C3685A07ECD5802DEAD0402DE8D053
:102C200003681B07E5D500250195036801934368F8
:102C300020460193019BFFF76FFF08230120636487
:102C400084F8405003B0F0BD0320FBE710B5044604
:102C500048B390F8413003F0FF021BB980F84020E0
:102C600002F0E2FE2423226884F84130D368204633
:102C700023F40053D360FFF77DFF236800201A6917
:102C800022F490421A615A6922F02A025A61DA68E3
:102C900042F40052DA602023606484F8413084F802
:102CA0004230606310BD0120FCE710B50446A0B1BE
:102CB0002423026880F84130D36823F40053D360A2
:102CC00002F0C2FE0020606484F8400084F84100F5
:102CD00084F842002063606310BD0120FCE72DE909
:102CE000F843984690F841300446202B0E46914612
:102CF00041D1002941D0002A3FD02123002545643D
:102D000080F84130FEF7E8FAA3680746B3F5805F24
:102D1000A4F82490A4F8269003D123690BB9354672
:102D20001E46E38C9BB25BB943463A46402120469F
:102D3000FFF75AFF202384F8413058B9BDE8F883E3
:102D400043463A4680212046FFF74EFF20B120231C
:102D500084F841300320F1E722684EB935F8023B90
:102D6000C3F308035360E38C013B9BB2E384D8E7D1
:102D700016F8013BF6E70220E0E70120DEE72DE947
:102D8000F843984690F842300446202B0E46914670
:102D900047D1002947D0002A45D022230025456489
:102DA00080F842300563FEF797FAA3680746B3F54B
:102DB000805FA4F82C90A4F82E9003D123690BB95E
:102DC00035461E46E08D80B218B9202384F8423083
:102DD0000AE043463A4620212046FFF705FF28B186
:102DE0002023032084F84230BDE8F88323684EB9DD
:102DF0005B68C3F3080325F8023BE38D013B9BB2FC
:102E0000E385DFE7A268B2F5805F02D02AB92269C4
:102E10001AB95B6833700136EFE75B6803F07F0334
:102E2000F8E70220E0E70120DEE790F84130202BB0
:102E300010D189B182B1C28482840023212201622F
:102E40000168436480F84120CA68184642F0800255
:102E5000CA607047022070470120704738B50446A9
:102E6000134694F84120202A27D141B33BB30022D6
:102E70002120E384134D626484F84100A06BA38495
:102E800021628562104DC562104DC0E90C52226866
:102E90000432FEF701FB6FF0400223681A602268DB
:102EA00002F1140353E8003F43F0800302F11401E0
:102EB00041E800300028F3D138BD0220FCE70120B2
:102EC000FAE700BFD12E00081F2F00082B2F0008A3
:102ED000026808B51268436A12F020021AD1DA8437
:102EE000196801F1140252E8002F22F08002143117
:102EF00041E800201A680028F2D102F10C0353E8DF
:102F0000003F43F0400302F10C0040E8003100298B
:102F1000F3D108BD184603F057F9FAE7704708B532
:102F2000406AFFF7FBFF08BD704710B5446A23688D
:102F30005A6994F84110212912D1120610D50022A5
:102F4000E28403F10C0252E8002F22F0C00203F1E8
:102F50000C0040E800210029F3D1202284F8412010
:102F60005B6994F84220222A06D15B0604D500232F
:102F70002046E385FFF7D0FD636C204643F0100345
:102F8000636403F06BF910BD08B50023406AC38584
:102F9000C38403F063F908BD704790F8423013B55D
:102FA000222B53D18168836AB1F5805F02683ED1DC
:102FB000016900293ED15268C2F3080223F8022BAE
:102FC000C48D8362013CA4B2C485002C2DD103685A
:102FD000DA6822F02002DA60DA6822F48072DA60BD
:102FE0005A6922F001025A61202380F8423044637A
:102FF000036B012B036826D1046303F10C0252E832
:10300000002F22F0100203F10C0444E800210029F3
:10301000F3D11A68D20605D501911A6801925B684E
:103020000193019B818DFFF7B7FF00200FE031B9BD
:10303000016921B952681A70836A0133C0E7526886
:1030400002F07F02F7E703F0E1F8EEE7022002B0BA
:1030500010BD0000036837B51A68044612F00F0F60
:10306000D9685D6908D1950666D58D0664D503B02B
:10307000BDE83040FFF791BF15F0010502D111F412
:10308000907F59D0D00705D5CB0542BF636C43F084
:1030900001036364500704D51DB1636C43F0020360
:1030A0006364930704D51DB1636C43F00403636448
:1030B000100706D58B0600D41DB1636C43F00803DE
:1030C0006364636C002B31D0900604D5890602D569
:1030D0002046FFF762FF236820465D69626C120795
:1030E00002D415F0400523D0FFF716FD226853697E
:1030F0005B0618D502F1140353E8003F23F04003A8
:1031000002F1140040E800310029F3D1E06B50B126
:10311000734B4363FEF720FA40B1E06B436B03B09F
:10312000BDE830401847204603F098F803B030BDA2
:1031300003F094F86564F9E7206B012840F094806F
:10314000D50640F19180C80640F18E8000220192A0
:103150001A6801925A680192019A5A6955064DD52A
:10316000E16B0A68526892B2002ADFD0A08D9042CB
:10317000DCD9E2858A69202A36D003F10C0252E8B4
:10318000002F22F4807203F10C0040E80021002996
:10319000F3D103F1140252E8002F22F0010203F1EF
:1031A000140040E800210029F3D103F1140252E891
:1031B000002F22F0400203F1140040E80021002912
:1031C000F3D1202284F84220216303F10C0252E85B
:1031D000002F22F0100203F10C0040E8002100292A
:1031E000F3D1E06BFEF796F902236363E38DA18DC3
:1031F000C91A89B22046FFF7CFFE97E7E18D8AB260
:10320000E18D89B2002991D0A18D891A89B2002956
:103210008CD003F10C0252E8002F22F4907203F1DB
:103220000C0545E800200028F3D103F1140252E810
:10323000002F22F0010203F1140545E800200028C8
:10324000F3D1202284F84220206303F10C0252E8DB
:10325000002F22F0100203F10C0545E800200028A1
:10326000F3D102236363C5E7100628D50D0626D5E2
:1032700094F84120212A7FF459AFA168226AB1F560
:10328000805F17D12169A9B932F8021BC1F3080187
:1032900059602262E28C013A92B2E284002A7FF401
:1032A00045AFDA6822F08002DA60DA6842F0400264
:1032B000DA603BE7511C216212785A60EAE7500657
:1032C0007FF534AF4A067FF531AFDA68204622F049
:1032D0004002DA60202384F8413002F075FF25E7D0
:1032E000892F000808B50123406A4363036B012B53
:1032F00004D1818D4908FFF74FFE08BDFFF714FE8A
:10330000FBE708B503461B68406A1B6813F02003FF
:1033100037D1C385026802F10C0353E8003F23F460
:1033200080730C3242E8003103680029F2D103F1C6
:10333000140252E8002F22F0010203F1140C4CE8B1
:1033400000210029F3D103F1140252E8002F22F0EA
:10335000400203F1140C4CE800210029F3D1202293
:1033600080F84220026B012A0BD103F10C0252E8D3
:10337000002F22F0100203F10C0C4CE80021002970
:10338000F3D100234363036B012B03D1818DFFF73E
:1033900003FE08BD02F03AFFFBE790F84030012B36
:1033A00011D02423026880F84130D36823F00C0345
:1033B00043F00803D360202380F84130002380F8D5
:1033C0004030184670470220704790F84030012B7B
:1033D00011D02423026880F84130D36823F00C0315
:1033E00043F00403D360202380F84130002380F8A9
:1033F000403018467047022070470023C28543645E
:1034000022238285026980F84230816203681AB102
:10341000DA6842F48072DA605A69002042F00102F0
:103420005A61DA6842F02002DA60704770B490F8AE
:103430004260202E06D141B13AB10024046370BC31
:10344000FFF7DBBF022070BC70470120FBE70000E4
:1034500073B5044681621346A28500252222456485
:1034600080F84220C06B1D4A266882621C4AC262F4
:103470001C4AC0E90C250A46311DFEF70DF82368E9
:1034800001951A6801925A680192019A22695AB10B
:1034900003F10C0252E8002F42F4807203F10C0099
:1034A00040E800210029F3D103F1140252E8002F73
:1034B00042F0010203F1140040E800210029F3D199
:1034C00003F1140252E8002F42F0400203F114010C
:1034D00041E800200028F3D102B070BD033300089A
:1034E000E53200082B2F000870B490F84260202EBF
:1034F00006D141B13AB10024046370BCFFF7A8BF04
:10350000022070BC70470120FBE700002DE9F84F56
:1035100003680D46C1F80F308388A1F813300023EB
:10352000D943DA10825C01F007010A41D10764D463
:10353000D943DA10825C01F007010A41D20702D4B4
:103540000133302BF4D103F12202302A58D8002164
:103550000A469F1CC3F1FF2303F57F03FD337C184C
:10356000E4105E1A045D06F007063441013104F0F0
:103570000104202944EA4202F1D119230026100A4D
:10358000C2F38018C2F3C01902F03F0748EA800274
:1035900042EA490222FA03F1740901F001017600BE
:1035A0008C4206F03E0618BF86F0030613F1FF3387
:1035B000F0D21B4B286093F800A00124CAF1180335
:1035C000D8406860FDF790FB834604FA0AF0FDF7E7
:1035D0008BFB01465846FDF793FC1249FDF7DCFBD7
:1035E00086F03F06B742A86085F80C9085F80D80FC
:1035F00009D02046AC73BDE8F88F0133302B8FD152
:103600000220A873F7E7B9F1000F01D10320F8E712
:10361000B8F1000F01D10420F3E70020F1E700BF6B
:10362000840200200000B4430268034B9A4202BFA8
:103630000122024B1A707047003001407C020020CA
:103640000268044B9A4204D10123034A1370034ACF
:1036500013707047003001407D0200207C02002082
:103660000148FDF7C1BF00BF940200200148FDF7EB
:10367000BBBF00BFD80200202DE9FF4705460279F5
:10368000274BDFF8B0901A70AB890024A9F80030FE
:1036900000934FF0010A0223224E2A698068224FCC
:1036A000DFF894803260AA8A69460393C8F8000064
:1036B0003A800294CDF804A0FEF72AF85246B9F8F1
:1036C0000010D8F80000FEF77DF93B8869463068A5
:1036D0000093FEF71DF8224630683988FEF772F92C
:1036E0002B6812484FF4007203604FF48273C0E9F4
:1036F00001342823C0E903444461C0E90623C0E93A
:1037000008448462FEF7BCFC38B94FF0FF32084B26
:103710001A609A8004B0BDE8F0870520FAE700BF80
:1037200084020020800200207E0200201C03002072
:103730008B0200207402002078020020F0B502689D
:10374000304B87B09A4206465AD103F560439A69D6
:10375000002442F480529A619A6902A902F48052CC
:103760000092009A5A69284842F001025A615B6946
:10377000202203F001030193019B0223CDE90223E0
:10378000032304940593FDF7C3FF4023CDE90234DE
:10379000012302A91C481D4D0493FDF7B9FF1C4BE2
:1037A0008027C5E900344FF400532846EB61AC6034
:1037B000C5E90374C5E90544FDF712FE1023F5645D
:1037C0006E62144D14492846C5E90013C5E9024745
:1037D000C5E90444C5E90644FDF702FE2246072177
:1037E0000C20B5646E62FDF78FFD0C20FDF7C0FD67
:1037F0000D2022460721FDF787FD0D20FDF7B8FDBE
:1038000007B0F0BD003001400008014094020020E4
:103810001C000240D8020020300002404FF0FF336D
:1038200010B586B00293ADF80C3000230493ADF8C8
:10383000143032230446009304AA062302A90A483E
:10384000FEF776FC50B10498BDF81430C4F80F00B0
:103850000520A4F81330A07306B010BD214604A8BB
:10386000FFF754FEF8E700BF1C03002038B5002323
:10387000084A094C094D237013602B709380084946
:1038800006230848FEF74CFD10B101202870207077
:1038900038BD00BF850200207C0200207D02002090
:1038A0008B0200201C030020014B1878704700BFDA
:1038B0007C020020084B01461B7813B90748FFF72C
:1038C00025BE064B1A689B88C0F80F20A0F813305D
:1038D00005208873704700BF7D020020850200200C
:1038E00037B51848184D01682A684B68174C23F003
:1038F00003034B60136823F001031360226813680D
:1039000023F0010313604FF48872114B5A600123B6
:10391000002285F8213084F82130019284F820209B
:10392000CC6885F820200194896880F85020094AE5
:103930000191019980F851301370074A137003B058
:1039400030BD00BF1C030020D802002094020020DC
:10395000000002407D0200207C0200200346184641
:1039600013F8012B202AFAD0092AF8D0704700005A
:103970002DE9F34104468846006801A905F018F9CD
:10398000019E23680546B34211D020F00047094943
:103990003846FDF7C7FB50B906493846FDF7B8FB76
:1039A00028B92660C8F8005002B0BDE8F0814FF099
:1039B000FF30F9E7FFFF7F7F37B504460D460A2247
:1039C00001A9006805F0BEF92268019B9A4217BF61
:1039D00023604FF0FF302860002003B030BD0000AE
:1039E000F0B50D4687B00646002800F0F2800029A9
:1039F00000F0068204780022002C00F0EB80002703
:103A00000A70CF608F604F600F614F618F618A8352
:103A10008A77C1E90822C1E90A220A638A8681F805
:103A20003620A349FCF794FB18B901202870012423
:103A3000D0E0A0493046FCF78BFB10B902232B7075
:103A4000F5E79D493046FCF783FB08B90C23F6E700
:103A50009A493046FCF77CFB28B90D2301202B70D6
:103A600085F82F00E3E796493046FCF771FB28B94B
:103A70000D232B70FF2385F82F30D8E702229149C0
:103A8000304604F061FA68B9023605A904A8049624
:103A9000FFF76EFF002840F09C8003232B70059BEE
:103AA000AB61C4E703228849304604F04DFA58B9A7
:103AB000033606A840F8046D291DFFF759FF0028BA
:103AC00040F087800423BAE703228049304604F09F
:103AD0003BFA044658B9033606A840F8046D05F1D0
:103AE0000801FFF745FF002874D10523A7E703224B
:103AF0007749304604F028FA044658B9033606A838
:103B000040F8046D05F10C01FFF732FF002861D188
:103B1000062394E702226F49304604F015FA044662
:103B200058B9023606A840F8046D05F11001FFF7F8
:103B30001FFF00284ED1072381E702226649304645
:103B400004F002FA044658B9023606A840F8046D9B
:103B500005F11401FFF70CFF00283BD108236EE7A5
:103B600003225E49304604F0EFF9044670B903368B
:103B700005A904A80496FFF71FFF58BB059BB3F5E2
:103B8000803F26D20922AB832A7050E7062254498F
:103B9000304604F0D9F9044668B9063605A904A8E8
:103BA0000496FFF709FFA8B9059B012B11D80A223B
:103BB000AB772A703BE705224A49304604F0C4F946
:103BC000002850D1053602A901A80196FFF7D0FEC2
:103BD00018B10024204607B0F0BD019B5A1C019289
:103BE0001A782C2AF5D105975A782B2A01D02D2A3C
:103BF0002BD199782C2928D12B2A0CBF01244FF0E6
:103C0000FF340333019303A901A8FFF7B1FE002895
:103C1000DFD1019B5A1C01921B782C2BD9D104A90E
:103C200001A8FFF7C9FE0028D3D1049BB3F5803F5C
:103C3000CFD20B222A70029AAB852A62059A85F8A8
:103C40002E406A62039AAA62F1E605A901A8FFF76D
:103C50008FFE0028BDD1019B5A1C01921B782C2B92
:103C6000B7D10446CFE705221F49304604F06CF96E
:103C7000044678B9053605A904A80496FFF79CFE0A
:103C80000028A7D1059B022BA3D8142285F8363033
:103C90002A70CCE615493046FCF75AFA08B91523C4
:103CA000CDE613493046FCF753FA18BB1223C6E69B
:103CB0003AB000083DB0000841B0000846B0000826
:103CC0004AB000084EB0000851B0000855B00008D6
:103CD00059B000085DB0000860B0000863B000088B
:103CE00067B000086EB0000874B000087AB0000831
:103CF0007FB0000843493046FCF72AFA08B913237D
:103D00009DE605224049304604F01EF90446A0B95C
:103D1000701DFFF723FE05A9049004A8FFF74CFED1
:103D200000287FF457AF40F6B832059B93423FF628
:103D300050AF0E222B862A7079E606223349304690
:103D400004F002F90446A0B9B01DFFF707FE05A96B
:103D5000049004A8FFF730FE00287FF43BAF40F644
:103D6000B832059B93423FF634AF0F222A706B8620
:103D70005DE605222649304604F0E6F820BB701DBA
:103D8000FFF7ECFD04A9039003A8FFF715FE002838
:103D90007FF41FAF40F6B834049BA3423FF619AF3F
:103DA0000398FFF7DBFD05A9039003A8FFF704FEC6
:103DB00000287FF40EAF059BA3423FF60AAF102206
:103DC0002A70049A2A86D2E706221249304604F065
:103DD000BBF8044690B9B01DFFF7C0FD05A90490DB
:103DE00004A8FFF7E9FD00287FF4F4AE059B002B43
:103DF000FFF6EFAE1122AB862A7018E616231EE6F8
:103E00000C46E7E684B0000889B000088FB00008CF
:103E100096B000089CB000082DE9F0478046BDF838
:103E20002400089F80B34FF0000900F1FF3E1C887A
:103E3000944229D025464FF0000C18F805000135B2
:103E400095FBF1F601FB16560D28B5B232D00A28C3
:103E50000BD10020AC4207EB000C17D11C808CF872
:103E600000900028E3D0BDE8F0870CF1010CAA42D5
:103E70001FFA8CFCE1D14A1E944505DB013494FB0A
:103E8000F1F201FB124119800020ECE704F1010A74
:103E900018F804609AFBF1F401FB14A40D2EA4B2EF
:103EA000D8D00A2ED6D07045BEBF013080B28CF873
:103EB0000060CFE7AA42CCD018F806000A28C8D183
:103EC000013696FBF1F501FB1566B5B2C1E7401A64
:103ED000B0F5803F02DDA0F50030704710F5803F5F
:103EE000B8BF00F500307047F8B5877811F0FB0FC8
:103EF00007F10107FFB2044694468770017116D19D
:103F00001646C37800F10C050133C3700FCE0FC500
:103F100096E8030085E8030094F8303023BB0122C3
:103F200084F83020DCF80420C4E90A3362620F2FE1
:103F300019D9D4E90A300025C01A2570FCF7D8FE3B
:103F40001049FCF729FF4FF05C51FCF725FFE3789F
:103F5000A0600B2B06D94FF07C51FDF7C5F8451B2F
:103F600018BF01256570F8BDDCF80400616AFFF731
:103F7000AEFFA36A8342E36AC8BFA0628342B8BFB0
:103F8000E062D4E70000B4430023064A1360064A07
:103F900013600023054A1370054A1360054A138015
:103FA000704700BFB4040020FC040020B8040020C7
:103FB00008050020BA04002008B5034801F0BAFD46
:103FC0000022024B1A6008BD500000201C04002093
:103FD000384B2DE9F04107460D46186836499046A2
:103FE000FCF7DAFE00F10044064639462046FDF7AC
:103FF0008FF830B931463846FDF78AF800284ED19F
:104000003C462E4B00211F682D4E3846FDF780F8A8
:1040100000284CD0B8F1000F1FD000212846FDF732
:1040200059F808B105F1004529463846FCF7B4FEB9
:104030000146FCF7A9FD06F0EDFE1F49FCF7ACFEBA
:1040400000F10048054621464046FDF761F840BBB7
:1040500021462846FDF73EF828BB17493846FCF7AD
:104060009BFE1549FCF798FE376805463946204601
:10407000FCF788FD05F1004421468046FDF72AF84B
:1040800028B929464046FDF743F870B94446214611
:104090003846FCF779FD30603068BDE8F081344681
:1040A000AFE74446D9E72C46D7E72C46EFE7346024
:1040B000F2E700BF740000206F12833A080000206E
:1040C0001C040020F8B500210446FCF7F9FF002786
:1040D000164D18B102F0E6FA2F60F8BD39462046B9
:1040E000FCF7F8FFF8B104F10040114B1968FCF738
:1040F00007FF1049FCF750FE4FF07C51FCF744FDE0
:10410000FDF74CF806460028E4D0002120464FF089
:104110000107FCF7FDFF00B9074679B2304602F00F
:1041200039FB2C60D9E72046DFE700BF9803002069
:104130000C00002000007A4408B502F0C7F820B156
:10414000044A13680133136008BDBDE8084002F05B
:1041500023B900BF800300200FB400B5A3B024AB87
:1041600053F8042B802102A8019304F02DFE011EB8
:1041700003DD89B202A8FFF7DFFF23B05DF804EB8F
:1041800004B070472DE97F430446C578867880687F
:10419000FCF754F963788046894673B16069FCF78F
:1041A0004DF9CDE90089CDE902013246294608489A
:1041B000FFF7D2FF04B0BDE870832379CDE9008911
:1041C0000293324629460348FFF7C6FFF2E700BFD5
:1041D000A3B00008C9B00008314A2DE9F0411168C8
:1041E00006464B1C2F4B4ED100211060C3E9000145
:1041F000FCF74EF900222C4BFCF778F92B4B0022F0
:10420000FCF774F906460F46294BC3E90067294BB2
:104210005B78002B31D0FCF761FC01460020FCF7F5
:10422000B1FC0446244DDFF8A08029462046FCF767
:104230006FFFB0B9214DDFF8908029462046FCF78A
:1042400053FFA0B92046FCF7F9F832463B46FBF78E
:1042500097FF01221A4BC3E900011A4B1A70BDE8FF
:10426000F08120464146FCF78DFC0446DDE7204600
:104270004146FCF789FC0446DFE7114AC2E90067C2
:10428000104A1370EBE7FFF722FED3E90045271829
:1042900045EBE078414638461660C3E90001DEE7A9
:1042A0004800002088030020008076400000E03EA7
:1042B000A00300201400002000003443000034C399
:1042C00010040020950300200000B443064AD36880
:1042D00043F08073D3600022044B5A601A6842F0A6
:1042E00001021A60704700BFF0ED00E0001000E02E
:1042F0002DE9F04FD9B0FCF7D1FF2022002131A8E1
:1043000003F08EF9012710230225CDE934734FF411
:10431000201330A8309537953993FDF791FB0F2383
:104320000026CDE922354FF48063A64C394622A8F9
:104330004FF40058249626962593FDF745FDA36972
:1043400030A943F00403A361A3699F4803F0040369
:104350001C931C9BA369DFF8C49243F00803A3617C
:10436000A36903F008031D931D9BA36943F0100389
:10437000A361A36903F010031E931E9BA3693B4333
:10438000A361A369CDE930873B401F931F9B329601
:104390003395FDF7BDF941464FF400783A468A4817
:1043A000FDF710FB30A98948CDE930873395FDF73B
:1043B000AFF9324641468548FDF704FB4FF4805380
:1043C000DFF85C8230A98148CDE930363295264647
:1043D000FDF79EF90525FFF779FF474698F800306D
:1043E000072B00F28C80DFE813F019009C00B0006E
:1043F000C800E3001F0182010800754B754C5A7814
:10440000002A00F0818118699D7EFFF7E5FE237880
:1044100013B1012002F02AF9012380E001F05EFCD3
:10442000044600286DD1D6F824A08DF8C0001AF0FB
:10443000006F06D0684B694A302130A803F048FD70
:1044400003241AF0806F0CD0634A654B30A8002C0F
:1044500008BF1346C4F130012044624A03F038FD1E
:1044600004441AF0805F0CD05B4A5D4B30A8002CEE
:1044700008BF1346C4F1300120445B4A03F028FD15
:1044800004441AF0005F0CD0534A554B30A8002C5E
:1044900008BF1346C4F130012044544A03F018FD0C
:1044A00004441AF0804F0CD04B4A4D4B30A8002CDE
:1044B00008BF1346C4F1300120444D4A03F008FD03
:1044C0000444BAF1000F0BDA434A454B30A8002CE4
:1044D00008BF1346C4F13001464A204403F0F8FCFB
:1044E0009DF8C03013B92D23ADF8C0300124424BE4
:1044F000424A1C6030A94248FFF72EFE3C70002360
:104500000DE0404A13780133DBB2022B1370F6D969
:1045100001223D4B2F491A7000233A700B701693FD
:10452000A8E0DFF800C130ACBCE80F000FC49CE885
:10453000030084E8030030A8FFF79EF8334B5A6865
:10454000334B1A6002233B70D9E7DFF8C0A0304C30
:10455000DAF8043022689B1A4B45D0D91C4B342220
:104560001846002103F05CF8012202700522DAF8F7
:104570000430027123600323E5E72449244A4B6891
:1045800010681B1A23488342B9D94B6830A81360BE
:10459000FFF744F90E4C014630AA2046FFF7A4FC71
:1045A0002378002BABD12046FFF7ECFD0423CAE7AC
:1045B00001F0BAFF014610B11748FFF7CDFD052302
:1045C000C1E700BF0010024000100140000C014094
:1045D000140000201000002003B3000805B10008FB
:1045E000EFB000080BB1000811B1000817B10008C6
:1045F0001EB1000825B10008E00442422CB10008B9
:1046000032B100080D05002019040020001000E060
:104610007C040020FF76010046B10008FF9E2400C4
:104620007A040020F0AF00084FF0804E41F2BF2323
:10463000844C4FF0000AC4E900E309232046C4E992
:1046400002A3C4F810A0C4F818A0FEF7E3F852467D
:1046500006211C20FCF758FE1C20FCF789FE6FF099
:104660000102236820461A61FDF7D2FF0623CDF828
:1046700058A03B7001F090FE169B002B3FF4AEAEAD
:10468000714C01F089FE23782BB9704B93F90030FF
:104690000BB902F01FF8402130A801F007FF0028F5
:1046A00000F05D8122A930A8FFF79AF9002800F0F8
:1046B00056819DF88830013B152B00F25081DFE8D0
:1046C00013F0260050005C008C0095009E00CC0288
:1046D000F402A700AD00B3009F0270000D031B039E
:1046E0002903420363037B0393039903B403042365
:1046F0005748DFF8B8C1C0E900C34FF49C7383602A
:10470000FDF76EF907231EE71D7922707FE6012071
:10471000504B514A1870002313704C4A137001F02B
:10472000A5FFFFF749FC4D4B1B78B3B94C4BD3E9C0
:104730000001FBF7ADFE00224A4BFBF7D7FE00223B
:10474000494BFBF7D3FE0022484BC3E90001484B1D
:1047500048481A70FFF700FD01E1474BD3E900011B
:10476000F1E700263B4B1E70384B1E7001F09AFF9C
:10477000304601F07BFF4148ECE70027334B289897
:104780001F70FBF75BFE394E394BC6E900013C4810
:104790001F7001F0CFF9D6E900233A48FFF7DCFC9F
:1047A000DDE09DF8B730294E314A3370002334489C
:1047B0001370237001F0BEF9264B1A781AB9012044
:1047C000187001F053FF96F900302F48002BD4BF2A
:1047D0002D212B21FFF7C0FCC1E0294B2398186045
:1047E000FBF72CFE02460B462848D7E7244B2498BB
:1047F0005860FBF723FE02460B462548CEE7204BC8
:1048000025989860FBF71AFE02460B462148C5E73B
:10481000BDF8A410204B21481980DBE79DF8A610B5
:104820001F4B20481970D5E72C9F00213846BDF852
:10483000B4A0FCF759FC10B9BAF1000F38D11A48EE
:1048400088E700BF30040020F90300207C0300202B
:104850002404002010000020040400209C030020F9
:1048600088030020008076400000E03E1004002015
:10487000950300205AB10008A003002062B100088F
:10488000500000206BB1000877B1000881B100082A
:104890008EB100089BB100084C000020A8B10008B0
:1048A00018040020B3B10008C1B100080030004076
:1048B0009DF9B6602A9BDDF8ACB03EB91846594662
:1048C0001793FCF71BFC179B0028B8D10022A249C4
:1048D00018460A700121217018921793FBF7AEFD5C
:1048E000804689469D49179BC1E900899C49002E55
:1048F000C1E900899B49189A0B6014BF3146012118
:10490000994B9A48C3F800B0994B17921F60994B86
:10491000A3F800A0984B1A80984B1970984B1E7002
:10492000984B1A7001F006F9974B179A4FF40071E3
:1049300096481A70FDF746F8002E00F0FA803846C7
:10494000CCBF2B262D26CDF810A0FBF777FD0096C7
:10495000CDE9020142464B468D48FFF7FDFB8D4FE6
:104960003B78002B00F0D08772B6DFF884C222AE0D
:10497000BCE80F000FC69CE80300874B874A1B78F2
:1049800086E803001793864B86491B6891F800A0C0
:10499000136000230B7084495FFA8AFA0E780B705B
:1049A000F6B23B7062B6DFF84CB2BAF1000F00F01D
:1049B000AE8717987D49002840F039829DF85C3019
:1049C0000B707B4B15681968DFF82C824B1C40F08C
:1049D0003582784BC8F80050002223981A70FFF7F0
:1049E000FBFBDDF858A0744D2B784BB122AA179928
:1049F0002846FFF779FA2B7813B92846FFF7C2FB50
:104A00008EB16D4D1822002130A802F009FE2B78DE
:104A10004BB130AA05212846FFF766FA2B7813B967
:104A20002846FFF7AFFBBAF1000F00F074870023B0
:104A30009BF800206149012A0B6003D18BF80030FC
:104A4000FFF7BAFA4FF480515048FCF7B5FF012840
:104A50000CBF012500255A4A07D113782BB95949B3
:104A60000B6801330B60484B1870574B15701B785F
:104A7000DFF88881002B40F0AD8201F013FE0023A7
:104A8000C8F80030514E337843B13046FBF76AFB2B
:104A900081B2304601F01AFC00B930704A4B1B78E5
:104AA00023B19BF80030002B00F09484FFF76CFAE0
:104AB0002378022B15D12F4B1B8843B12E490A882E
:104AC000013292B293428CBF002301230A80404AF4
:104AD0001278012A00F04C85C0F0D185022A00F03E
:104AE000C9853C4C23888BB101F0B6FC70B93A4BB8
:104AF00021881F7817B1142938BF1421374A138829
:104B000001339BB28B4280F066861380344B354A6A
:104B10001B78002B14BF64214FF4FA711368013322
:104B20008B4280F0E88613602F48FCF782FF179DC8
:104B3000A6E53846CDF810A0FBF780FCCDE90201D0
:104B40005846FBF77BFC4246CDE900014B4627481F
:104B5000FFF702FB03E700BF7C03002010040020E6
:104B6000E8030020FC030020F40300205000002094
:104B700000040020F2030020F00300207000002059
:104B8000F8030020950300200D040020000C0140D4
:104B9000CCB100080C05002078000020E0030020C4
:104BA000B004002095040020940400209403002009
:104BB0004800002088040020AC030020900300205F
:104BC0000C0400200804002010000020BC04002079
:104BD000050400204C00002018040020740300206D
:104BE000190400207803002024040020E6B1000806
:104BF000980400209C0300208004002098030020DB
:104C00000023A14A23701370A04A137001F04AFDDB
:104C10009F4B1B78EBB99F4BD3E90001FBF738FCA6
:104C200000229D4BFBF762FC00229C4BFBF75EFCD5
:104C30009B4BC3E90001FFF7BFF90022994B9A484B
:104C40001A709A4B4FF400711A70FCF7BBFE98482B
:104C500080E5984BD3E90001EAE7269E4FF07E51AC
:104C60003046FCF737FA20B993493046FCF750FA42
:104C700048B10022914B9248CDE900230022914B8C
:104C8000FFF76AFA6BE6904B90491E603046FCF7DE
:104C900083F88F4B986100F1004058613046FBF774
:104CA000CDFB02460B468B4878E5279E0021304617
:104CB000FCF710FA20B988493046FCF729FA20B1F0
:104CC0006FA3D3E90023854868E5854B30461E6015
:104CD000FBF7B4FB02460B4682485FE520A801F0D3
:104CE00045FEBDF88210BDF8B80001F0FDFD00BB27
:104CF000BDF8B8107C486DE520A801F037FEBDF87E
:104D0000BA10BDF8800001F0EFFD90B9BDF8BA10FF
:104D100076485FE5BDF8BA10BDF8B80001F0E4FDD3
:104D200038B9BDF8BA20BDF8B8107148FFF714FAC9
:104D300015E6471C01D16F480CE5023001D16E48E1
:104D400008E56E4806E501F0B5FC08B16C4801E5E0
:104D5000BDF8BC0001F0ECFD80B9BDF8BC60304688
:104D6000FBF7C2FF6749FCF717F801466648FCF7F6
:104D7000C7F8664B3146186065482BE5461CDAD00B
:104D80000230DED16348E5E420A801F0EFFD9DF894
:104D900087109DF886600191BDF884105E480091EF
:104DA0005E49BDF88230002E08BF0146BDF8802064
:104DB0005B48FFF7D1F9D2E5334B93F90030002B74
:104DC000C4D12378002BC1D101F074FC0146002826
:104DD000BCD1544B3422184602F022FC012202704E
:104DE000052202715048B5E49DF8BE104F4B504863
:104DF0001970EFE44D4B4FF480512B481E78FCF7AF
:104E0000DBFD4FF4007107462748FCF7D5FD494B01
:104E1000421E1B68791E0093534253414A424A4145
:104E200045483146FFF798F999E5444892E40B70FC
:104E3000179904293FF4C5AD9A46D4E5239F384617
:104E4000FFF745F84BF68033D8F800200028A5EB93
:104E50000202B2FBF3F2B8BF4042C1176AB1142A92
:104E600028BF142240F24443A2FB032382428B4119
:104E7000334B67DBC8F80050AEE50122F2E700BF14
:104E800000000000006AF8407C030020F8030020C6
:104E90009C03002088030020008076400000E03E54
:104EA0001004002095030020000C01400D04002098
:104EB00002B20008A00300200000964400C0924007
:104EC0000CB200080000F03F740000206F12833A1B
:104ED0005000002025B200080050C34731B200083E
:104EE0000800002049B2000855B2000893B200083B
:104EF000A1B2000862B2000872B2000880B20008D5
:104F0000B1B20008000048430000B4430C00002088
:104F1000CDB20008DBB20008F1B00008FAB000081A
:104F200004B30008AC03002034B3000805040020DB
:104F30003EB30008080400204BB3000868B3000823
:104F40008804002093F80080B8F1000F32D0904B15
:104F500038461968FEF7BBFF8E4B00281A684BF6DF
:104F60008033A5EB0202B2FBF3F2B8BF4042C11797
:104F7000F2B1142A28BF142240F24443A2FB0323B7
:104F800082428B41ACBF08F10108DDF85880824BAA
:104F9000A8BF5FFA88F883F800807D4B1F607D4BC7
:104FA0001D607D4B1A78022A07D97C4A156013E5EB
:104FB0000122E1E701221A70EFE7794A4FF0000A77
:104FC0001368013313600122764B1A700BE54FF022
:104FD000000A37E50023C8F80030734B93F90050FE
:104FE000002D47D0714B72491868FBF7D5FE064675
:104FF0002846FBF77DFE01463046FBF7CDFE00223A
:105000000021FEF7E5FF0546FFF75CF82846FBF7B1
:1050100015FA684DCDE91801D5E90023FBF7B0F882
:1050200057A3D3E9002306460F46C5E90067FBF7FF
:10503000EDFCDFF8948180B953A3D3E90023304617
:105040003946FBF7C5FC40B9D8E90001DDE9182372
:10505000FBF796F8C8E9000114E500220023C8E92F
:105060000023C5E90023544A544B12681A600022F9
:105070005A6007E59BF80030002B40F01781BAF129
:10508000000F00F00A814D4FDFF85C91D7E9000175
:10509000FBF7FEF900224A4BFBF728FA0022494BA6
:1050A000FBF724FA0B4648490246D1E90001FBF719
:1050B00065F8FBF713FD45490646FCF729F820B9CA
:1050C00043493046FCF706F800B30125384A31461B
:1050D000404889F8005000F034FD2A463146FEF77A
:1050E00077FF0546FEF7EEFF2378012B7FF4CAAC6D
:1050F00000212846FBF7E4FF024600287FF4C2ACFB
:105100004FF400713448FCF75DFCBBE499F80050A3
:10511000002D6FD031493046FBF7FAFF28B93049EE
:105120003046FBF7D7FF002860D02E4B3046196879
:10513000FBF7E6FEFCF70CF8054640B900213046C7
:10514000FBF7E6FF002814BF01254FF0FF3522785A
:10515000012A05D100224FF400711F48FCF732FCF0
:10516000284601F067FB2846FBF7C2FD1D4B55465C
:105170001968FBF711FEC8F8000038E0AFF30080B3
:1051800000000000D012634100000000D01263C193
:10519000840400208C040020880400208004002067
:1051A000A8030020940300207C030020740000204A
:1051B0006F12833AA00300204800002088030020DB
:1051C000008076400000E03E10040020CDCC4C3D35
:1051D000CDCC4CBD50000020000C01400AD7A33CB0
:1051E0000AD7A3BC0C0000202004002005460023A1
:1051F00089F80030694B1A78002A32D000221A70E0
:1052000000229146664B67491B681A4698464B46F2
:10521000C7E90023002200234046C1E90023494694
:10522000FBF77CFD6049FBF7B7FD4FF05C51FBF7E6
:10523000B3FD5E490646FBF76BFF28B1B8F50038B1
:1052400049F1FF39C7E9008959493046FBF742FF68
:1052500038B1D7E9002312F5003043F10001C7E966
:1052600000012278012A11D14FF400715148FCF756
:10527000A9FB4C4B504AD3E90001504BC3E9000154
:1052800002232370002313804D4A13700DB901F0DF
:1052900009FAFEF791FEFFF7F5BB4A4B1B68132B8B
:1052A0007FF6F0AB01F0FEF9FFF7ECBB012B7FF4CA
:1052B000E9AB3C4E444DD6E90001D5E90023FAF7AD
:1052C0005DFFFBF70BFC41490746FBF721FF20B9C7
:1052D0003F493846FBF7FEFE10B3012239463846F7
:1052E000FEF776FE0646FEF7EDFE2378012B0AD187
:1052F00000213046FBF7E4FE024620B94FF400716E
:105300002C48FCF75FFB3046FBF798F802460B464B
:10531000D5E90001FAF734FFC5E90001FFF7B2BB98
:105320001E4B1A7822B318701D4B1868FBF7DCFC73
:105330001D49FBF731FD4FF05C51FBF72DFD1B497B
:105340000746FBF7E5FE20B138461749FBF71AFC84
:10535000074617493846FBF7BDFE20B138461249CB
:10536000FBF712FC07463846FBF768F8C5E9000171
:105370002278012A96D14FF400710E48FCF722FBE7
:10538000D6E900010D4B0C4AC3E90001022323704A
:10539000002313800A4A137084E700BF950300209E
:1053A00048000020100400200000B44300003443F3
:1053B000000034C3000C0140F0030020E80300208B
:1053C0000D04002090030020A0030020CDCC4C3D14
:1053D000CDCC4CBDBAF1000F0CD0AF48AF4B057827
:1053E000D3E90023AE49002D40F098800125C1E9A2
:1053F00000230570AB4B00211D682846FBF76AFEB1
:1054000008B105F1004500212846FBF781FEA64FB3
:10541000002800F0A480DFF898822946D8F8000020
:10542000FBF7B2FB0023C8F800003B809F4BA04F66
:105430001D68D7F8008001351D609E494046FBF786
:105440005DFE38B19C4B9D491868FBF743FE08B1DF
:10545000C72D17D84FF07E514046FBF73BFE002882
:105460007FF426AB4FF07A514046FBF795FC924B08
:105470001968FBF739FE00287FF418ABB5F57A7F81
:10548000FFF416AB002501228D4B25701D708D4B4E
:10549000DFF86C821A708C4B1D708C4B1D708C4B1E
:1054A0001D7001F0FFF8284601F0E0F8FEF784FDDA
:1054B0007A4BD3E90001FAF7EBFF0022854BFBF7AB
:1054C00015F8854B0022FBF711F82A46C8E90001C0
:1054D0004FF400718148FCF775FAD8E90023CDE953
:1054E0000423754B1868FAF7A9FFCDE90201386863
:1054F000FAF7A4FF7A4ACDE900014021794802F089
:10550000E7FC7848FAF72EFE81B2764800F0DEFE1E
:1055100000287FF4CBAA3070FFF7C8BAD1E9007831
:10552000D21B63EB080319461046FBF7F7FB6E49E5
:10553000FBF732FC4FF05C51FBF72EFC00210546D7
:10554000FBF7C8FD08B105F100455B4F29463868F7
:10555000FBF7C0FD00283FF44DAF3D604AE73B88B4
:1055600001339BB2632B3B807FF660AFFFF79EBA9F
:105570005E4B1B78002B3FF4B4AA00225B4B1A70E1
:10558000524B93F900005A4B1D685A4BD3E9002344
:10559000CDE91823002800F0BB80FAF73DFF06464E
:1055A00028460F46FAF74AFF02460B463046394670
:1055B000FAF79CFFDDE91823FAF7E2FD32A3D3E9FD
:1055C000002306460F46FBF721FA40B930A3D3E982
:1055D000002330463946FBF7FBF9002835D0DDE9DA
:1055E000182330463946FAF7C9FDDDE91823424D44
:1055F00006460F46D5E90001FAF7C0FD0022C5E9CD
:105600000001DDE918014FF08243FAF76FFF002235
:10561000304BFBF795F80022CDE91A01DDE91801BE
:105620000023FBF7E9F91D4D0022D5E9008940B3BD
:10563000324BDDE91A01FAF7A3FDFBF7CFFDB8EB1A
:10564000000269EB0103C5E900232D4B0022C3E9E9
:105650000067284B4FF40071C3E9006701232370F2
:10566000284B1E481A80FCF7ADF9274800F062FA73
:10567000FFF737BA1D4A1278002A18BF0123DBB2A0
:1056800078E7224BD5E700BF00000000D01263414D
:1056900000000000D01263C1B8040020880300207D
:1056A0000005002098030020BA040020080500200F
:1056B000B404002000007041FC0400200000A04061
:1056C00010000020040400207C030020F8030020C8
:1056D00095030020008076400000E03E000C014071
:1056E00076B30008BC0400200000B4430D04002081
:1056F00000040020E8030020A00300200000E03F99
:1057000010040020F0030020500000200000E0BF43
:10571000924B93F900804046FBF7EAFA2946FBF7E3
:105720003BFBFAF78BFEDDE91823FAF729FDB8F108
:10573000000FCDE91A0106460F4625DD884BD3F848
:1057400000B05846FAF77AFE8046894602460B4674
:10575000DDE91A01FBF75AF900283FF476AFDDE9DD
:10576000182340464946FBF73DF920B158462946E3
:10577000FBF708FA83465846FAF760FEFF22064612
:105780000F46764B1A7060E73FF45FAF754BD3F866
:1057900000B05846FAF752FE8046894602460B464C
:1057A000DDE91A01FBF714F900283FF44EAFDDE9FB
:1057B000182340464946FBF71FF920B158462946B1
:1057C000FBF7E2F983465846FAF738FE634B064684
:1057D0000F460122D6E700231380634B1E78002E6C
:1057E00072D1624BD3E90001FAF752FE0022604BFE
:1057F000FAF77CFE00225F4BFAF778FE04460D466E
:10580000BAF1000F64D15C4B1B78002B179B14BFBF
:105810004FF006089846002F63D0584B2246D3E934
:1058200000AB2B4650465946FAF7A8FC544BCDE93D
:1058300018011868FAF702FE02460B465148524911
:10584000CDE91A23002E14BF06460E464F49504F8D
:10585000096815914F49096814914F490868FAF78A
:10586000EDFDCDE912014D490868FAF7E7FDCDE9F4
:105870001001B868FAF7E2FDCDE90E017868FAF791
:10588000DDFDCDE90C013868FAF7D8FDDDE91A2312
:10589000CDE90A01CDE90623DDE91823CDE9086841
:1058A000CDE90423CDE902ABCDE900453C4AA02176
:1058B00030A802F00DFB9F28A8BF9F2081B230A81E
:1058C000FEF73AFCFFF722B9364BD3E9004597E7DC
:1058D000354B1B78002B0CBF4FF000084FF007082A
:1058E00099E7CDF80880CDE90045304AA02130A8DD
:1058F00002F0EEFADFE700234FF400512C4813606A
:10590000FCF765F8FFF710B91795FFF710B9179571
:10591000002E7FF476A8274A9BF800A01368013375
:105920001360BAF1000F7FF452ABB3F5FA7FFFF4C6
:1059300089A801238BF800300C4BD3E90001FAF75A
:10594000A7FD00220A4BFAF7D1FD0A4B0022FAF715
:10595000CDFD144BC3E90001FFF774B870000020BF
:10596000F4030020FC0300209C0300208803002097
:10597000008076400000E03E9403002010040020E8
:105980009803002002B10008FFB000088003002047
:1059900050000020A8030020080000207400002010
:1059A0009EB30008A003002004040020FFB30008F9
:1059B00000100140900300200268084B82B09A4218
:1059C0000AD103F50233DA6942F00402DA61DB69D5
:1059D00003F004030193019B02B0704700080040EC
:1059E000036882B0B3F1804F0CD103F50433DA6958
:1059F00042F00102DA61DB6903F001030093009BCE
:105A000002B07047064A9342FAD1064BDA6942F077
:105A10000402DA61DB6903F004030193019BEFE701
:105A200000080040001002400268064903468A420E
:105A300003D0A1F570418A4202D1184600F012BA93
:105A400001F0C2B8003801400268064903468A42A4
:105A500003D0A1F570418A4202D1184600F002BB82
:105A600001F0E8B800380140FBF72ABC0148FCF718
:105A7000FDBD00BF30040020036810B5B3F1804FB6
:105A80003AD1214C23785BB1FDF70EFF40B91F4A94
:105A900013780133DBB2042B137001D9FDF720FF1B
:105AA000237893B1FDF700FF68B11948FDF702FFB5
:105AB000184B1870184B1A68184B1A600122184BB3
:105AC0001A7000232370237893B9164B5A68124B2F
:105AD0001A60FDF7CBFE00280CBF012300234FF016
