:020000040800F2
:10000000005000209D7F0008E57F0008E57F000884
:10001000E57F0008E57F0008E57F0008000000009C
:10002000000000000000000000000000E57F000864
:10003000E57F000800000000E57F0008E1360008C9
:10004000E57F0008E57F0008E57F0008E57F000800
:10005000E57F0008E57F0008E57F0008E57F0008F0
:10006000E57F0008E57F0008E57F0008E57F0008E0
:10007000F941000811420008D1410008DD410008A3
:10008000E57F0008E57F0008E57F0008E57F0008C0
:10009000E57F0008E57F0008E57F0008E57F0008B0
:1000A000E57F0008E57F0008E57F0008E57F0008A0
:1000B000E57F0008E57F0008E57F0008E57F000890
:1000C000E57F0008E57F0008E57F0008E57F000880
:1000D000E57F000841410008E57F000879410008FC
:1000E000E57F0008E57F0008E57F000800000000CC
:1000F0000000000000000000000000000000000000
:0C01000000000000000000005FF808F1A3
:1001100010B5054C237833B9044B13B10448AFF341
:1001200000800123237010BDFC01002000000000AE
:10013000F47F000808B5034B1BB103490348AFF334
:10014000008008BD0000000000020020F47F0008CD
:1001500010F8012B11F8013B012A28BF9A42F7D071
:10016000D01A7047034613F8012B002AFBD1181A46
:100170000138704781F0004102E000BF83F0004386
:1001800030B54FEA41044FEA430594EA050F08BF32
:1001900090EA020F1FBF54EA000C55EA020C7FEAF6
:1001A000645C7FEA655C00F0E2804FEA5454D4EB73
:1001B0005555B8BF6D420CDD2C4480EA020281EA3D
:1001C000030382EA000083EA010180EA020281EA75
:1001D0000303362D88BF30BD11F0004F4FEA0131C7
:1001E0004FF4801C4CEA113102D0404261EB4101D6
:1001F00013F0004F4FEA03334CEA133302D052425C
:1002000063EB430394EA050F00F0A780A4F1010417
:10021000D5F1200E0DDB02FA0EFC22FA05F2801851
:1002200041F1000103FA0EF2801843FA05F3594137
:100230000EE0A5F120050EF1200E012A03FA0EFCB6
:1002400028BF4CF0020C43FA05F3C01851EBE371E0
:1002500001F0004507D54FF0000EDCF1000C7EEBFD
:1002600000006EEB0101B1F5801F1BD3B1F5001F3B
:100270000CD349085FEA30004FEA3C0C04F101045A
:100280004FEA445212F5800F80F09A80BCF1004F83
:1002900008BF5FEA500C50F1000041EB045141EA05
:1002A000050130BD5FEA4C0C404141EB010111F406
:1002B000801FA4F10104E9D191F0000F04BF0146B1
:1002C0000020B1FA81F308BF2033A3F10B03B3F18F
:1002D00020020CDA0C3208DD02F1140CC2F10C021F
:1002E00001FA0CF021FA02F10CE002F11402D8BF7D
:1002F000C2F1200C01FA02F120FA0CFCDCBF41EA49
:100300000C019040E41AA2BF01EB0451294330BD17
:100310006FEA04041F3C1CDA0C340EDC04F11404F4
:10032000C4F1200220FA04F001FA02F340EA0300CB
:1003300021FA04F345EA030130BDC4F10C04C4F111
:10034000200220FA02F001FA04F340EA03002946F1
:1003500030BD21FA04F0294630BD94F0000F83F43B
:10036000801306BF81F480110134013D4EE77FEA1E
:10037000645C18BF7FEA655C29D094EA050F08BF6A
:1003800090EA020F05D054EA000C04BF194610464B
:1003900030BD91EA030F1EBF0021002030BD5FEA8F
:1003A000545C05D14000494128BF41F0004130BDB7
:1003B00014F580043CBF01F5801130BD01F000450B
:1003C00045F0FE4141F470014FF0000030BD7FEA7E
:1003D000645C1ABF194610467FEA655C1CBF0B4679
:1003E000024650EA013406BF52EA033591EA030F90
:1003F00041F4002130BD00BF90F0000F04BF002188
:10040000704730B54FF4806404F132044FF00005BA
:100410004FF0000150E700BF90F0000F04BF002133
:10042000704730B54FF4806404F1320410F0004599
:1004300048BF40424FF000013EE700BF42004FEA94
:10044000E2014FEA31014FEA02701FBF12F07F4311
:1004500093F07F4F81F06051704732F07F4208BFC8
:10046000704793F07F4F04BF41F40021704730B5CF
:100470004FF4607401F0004521F000411CE700BF1B
:1004800050EA010208BF704730B54FF000050AE09E
:1004900050EA010208BF704730B511F0004502D59F
:1004A000404261EB41014FF4806404F132045FEAA1
:1004B000915C3FF4D8AE4FF003025FEADC0C18BF4A
:1004C00003325FEADC0C18BF033202EBDC02C2F13C
:1004D000200300FA03FC20FA02F001FA03FE40EACE
:1004E0000E0021FA02F11444BDE600BF70B54FF0D2
:1004F000FF0C4CF4E06C1CEA11541DBF1CEA1355B0
:1005000094EA0C0F95EA0C0F00F0DEF82C4481EA17
:10051000030621EA4C5123EA4C5350EA013518BF37
:1005200052EA033541F4801143F4801338D0A0FB24
:1005300002CE4FF00005E1FB02E506F00042E0FBD1
:1005400003E54FF00006E1FB03569CF0000F18BFD7
:100550004EF0010EA4F1FF04B6F5007F64F540747F
:1005600004D25FEA4E0E6D4146EB060642EAC62112
:1005700041EA55514FEAC52040EA5E504FEACE2E7F
:10058000B4F1FD0C88BFBCF5E06F1ED8BEF1004F82
:1005900008BF5FEA500E50F1000041EB045170BDFE
:1005A00006F0004646EA010140EA020081EA030142
:1005B000B4EB5C04C2BFD4EB0C0541EA045170BD3E
:1005C00041F480114FF0000E013C00F3AB8014F1B8
:1005D000360FDEBF002001F0004170BDC4F1000401
:1005E000203C35DA0C341BDC04F11404C4F1200582
:1005F00000FA05F320FA04F001FA05F240EA0200DD
:1006000001F0004221F0004110EBD37021FA04F612
:1006100042EB06015EEA430E08BF20EAD37070BDCC
:10062000C4F10C04C4F1200500FA04F320FA05F02B
:1006300001FA04F240EA020001F0004110EBD3702D
:1006400041F100015EEA430E08BF20EAD37070BD9D
:10065000C4F1200500FA05F24EEA020E20FA04F376
:1006600001FA05F243EA020321FA04F001F0004125
:1006700021FA04F220EA020000EBD3705EEA430E96
:1006800008BF20EAD37070BD94F0000F0FD101F0C5
:100690000046400041EB010111F4801F08BF013CFE
:1006A000F7D041EA060195F0000F18BF704703F03C
:1006B0000046520043EB030313F4801F08BF013DC3
:1006C000F7D043EA0603704794EA0C0F0CEA13557F
:1006D00018BF95EA0C0F0CD050EA410618BF52EA39
:1006E0004306D1D181EA030101F000414FF000003F
:1006F00070BD50EA410606BF1046194652EA43064D
:1007000019D094EA0C0F02D150EA013613D195EAC0
:100710000C0F05D152EA03361CBF104619460AD108
:1007200081EA030101F0004141F0FE4141F4700112
:100730004FF0000070BD41F0FE4141F4780170BD02
:1007400070B54FF0FF0C4CF4E06C1CEA11541DBF67
:100750001CEA135594EA0C0F95EA0C0F00F0A7F869
:10076000A4EB050481EA030E52EA03354FEA013196
:1007700000F088804FEA03334FF0805545EA1313A9
:1007800043EA12634FEA022245EA111545EA106571
:100790004FEA00260EF000419D4208BF964244F108
:1007A000FD0404F5407402D25B084FEA3202B61A27
:1007B00065EB03055B084FEA32024FF480104FF4FB
:1007C000002CB6EB020E75EB030E22BFB61A75466F
:1007D00040EA0C005B084FEA3202B6EB020E75EB02
:1007E000030E22BFB61A754640EA5C005B084FEA6A
:1007F0003202B6EB020E75EB030E22BFB61A754637
:1008000040EA9C005B084FEA3202B6EB020E75EB41
:10081000030E22BFB61A754640EADC0055EA060E02
:1008200018D04FEA051545EA16754FEA06164FEA45
:10083000C30343EA52734FEAC2025FEA1C1CC0D1F1
:1008400011F4801F0BD141EA00014FF000004FF07E
:10085000004CB6E711F4801F04BF01430020B4F13F
:10086000FD0C88BFBCF5E06F3FF6AFAEB5EB030CF7
:1008700004BFB6EB020C5FEA500C50F1000041EBF4
:10088000045170BD0EF0004E4EEA113114EB5C04C1
:10089000C2BFD4EB0C0541EA045170BD41F4801194
:1008A0004FF0000E013C90E645EA060E8DE60CEA9C
:1008B000135594EA0C0F08BF95EA0C0F3FF43BAFB9
:1008C00094EA0C0F0AD150EA01347FF434AF95EA70
:1008D0000C0F7FF425AF104619462CE795EA0C0F54
:1008E00006D152EA03353FF4FDAE1046194622E721
:1008F00050EA410618BF52EA43067FF4C5AE50EAFB
:1009000041047FF40DAF52EA43057FF4EBAE12E7EA
:100910004FF0FF3C06E000BF4FF0010C02E000BFCB
:100920004FF0010C4DF804CD4FEA410C7FEA6C5CAE
:100930004FEA430C18BF7FEA6C5C1BD001B050EA51
:10094000410C0CBF52EA430C91EA030F02BF90EA3C
:10095000020F0020704710F1000F91EA030F58BFFB
:10096000994208BF90422CBFD8176FEAE37040F05D
:10097000010070474FEA410C7FEA6C5C02D150EAFB
:10098000013C07D14FEA430C7FEA6C5CD6D152EAB6
:10099000033CD3D05DF8040B704700BF844610467B
:1009A00062468C461946634600E000BF01B5FFF77A
:1009B000B7FF002848BF10F1000F01BD4DF808ED4A
:1009C000FFF7F4FF0CBF012000205DF808FB00BF1B
:1009D0004DF808EDFFF7EAFF34BF012000205DF875
:1009E00008FB00BF4DF808EDFFF7E0FF94BF0120C2
:1009F00000205DF808FB00BF4DF808EDFFF7CEFFC3
:100A000094BF012000205DF808FB00BF4DF808ED01
:100A1000FFF7C4FF34BF012000205DF808FB00BFD2
:100A20004FEA410C7FEA6C5C02D150EA013C0AD1EA
:100A30004FEA430C7FEA6C5C02D152EA033C02D1DC
:100A40004FF0000070474FF0010070474FEA41023D
:100A500012F5001215D211D56FF47873B3EB625210
:100A600012D94FEAC12343F0004343EA505311F037
:100A7000004F23FA02F018BF404270474FF00000C9
:100A8000704750EA013005D111F0004008BF6FF007
:100A9000004070474FF00000704700BF4A0011D27D
:100AA00012F5001211D20DD56FF47873B3EB6252C8
:100AB0000ED44FEAC12343F0004343EA505323FAD4
:100AC00002F070474FF00000704750EA013002D149
:100AD0004FF0FF3070474FF0000070474FEA41027F
:100AE000B2F1E04324BFB3F5001CDCF1FE5C0DD98C
:100AF00001F0004C4FEAC0024CEA5070B2F1004FD6
:100B000040EB830008BF20F00100704711F0804FD8
:100B100021D113F13872BCBF01F00040704741F49D
:100B200080114FEA5252C2F11802C2F1200C10FAA1
:100B30000CF320FA02F018BF40F001004FEAC12385
:100B40004FEAD32303FA0CFC40EA0C0023FA02F329
:100B50004FEA4303CCE77FEA625307D150EA0133FF
:100B60001EBF4FF0FE4040F44000704701F00040CF
:100B700040F0FE4040F40000704700BF80F00040AD
:100B800002E000BF81F0004142001FBF5FEA410365
:100B900092EA030F7FEA226C7FEA236C6AD04FEA65
:100BA0001262D2EB1363C1BFD218414048404140AA
:100BB000B8BF5B42192B88BF704710F0004F40F45C
:100BC000000020F07F4018BF404211F0004F41F478
:100BD000000121F07F4118BF494292EA030F3FD044
:100BE000A2F1010241FA03FC10EB0C00C3F1200357
:100BF00001FA03F100F0004302D5494260EB4000E6
:100C0000B0F5000F13D3B0F1807F06D340084FEA50
:100C1000310102F10102FE2A51D2B1F1004F40EB45
:100C2000C25008BF20F0010040EA030070474900AD
:100C300040EB000010F4000FA2F10102EDD1B0FA78
:100C400080FCACF1080CB2EB0C0200FA0CF0AABF6D
:100C500000EBC25052421843BCBFD040184370470B
:100C600092F0000F81F4000106BF80F40000013211
:100C7000013BB5E74FEA41037FEA226C18BF7FEAE8
:100C8000236C21D092EA030F04D092F0000F08BF2A
:100C90000846704790EA010F1CBF0020704712F011
:100CA0007F4F04D1400028BF40F00040704712F150
:100CB00000723CBF00F50000704700F0004343F0B5
:100CC000FE4040F4000070477FEA226216BF0846EB
:100CD0007FEA23630146420206BF5FEA412390EAAE
:100CE000010F40F4800070474FF0000304E000BFA4
:100CF00010F0004348BF40425FEA000C08BF704755
:100D000043F0964301464FF000001CE050EA010218
:100D100008BF70474FF000030AE000BF50EA01022D
:100D200008BF704711F0004302D5404261EB41011A
:100D30005FEA010C02BF84460146002043F0B6433F
:100D400008BFA3F18053A3F50003BCFA8CF2083A64
:100D5000A3EBC25310DB01FA02FC634400FA02FC6D
:100D6000C2F12002BCF1004F20FA02F243EB020074
:100D700008BF20F00100704702F1200201FA02FCD6
:100D8000C2F1200250EA4C0021FA02F243EB0200C9
:100D900008BF20EADC7070474FF0FF0C1CEAD0520D
:100DA0001EBF1CEAD15392EA0C0F93EA0C0F6FD0CE
:100DB0001A4480EA010C400218BF5FEA41211ED0AC
:100DC0004FF0006343EA501043EA5111A0FB013198
:100DD0000CF00040B1F5000F3EBF490041EAD3716D
:100DE0005B0040EA010062F17F02FD2A1DD8B3F1E9
:100DF000004F40EBC25008BF20F00100704790F058
:100E0000000F0CF0004C08BF49024CEA502040EAA9
:100E100051207F3AC2BFD2F1FF0340EAC25070476F
:100E200040F400004FF00003013A5DDC12F1190FAD
:100E3000DCBF00F000407047C2F10002410021FA1F
:100E400002F1C2F1200200FA02FC5FEA310040F137
:100E5000000053EA4C0308BF20EADC70704792F0B0
:100E6000000F00F0004C02BF400010F4000F013AE8
:100E7000F9D040EA0C0093F0000F01F0004C02BFE3
:100E8000490011F4000F013BF9D041EA0C018FE752
:100E90000CEAD15392EA0C0F18BF93EA0C0F0AD058
:100EA00030F0004C18BF31F0004CD8D180EA01007E
:100EB00000F00040704790F0000F17BF90F0004F17
:100EC000084691F0000F91F0004F14D092EA0C0FF9
:100ED00001D142020FD193EA0C0F03D14B0218BF8C
:100EE000084608D180EA010000F0004040F0FE40D2
:100EF00040F40000704740F0FE4040F4400070476E
:100F00004FF0FF0C1CEAD0521EBF1CEAD15392EAEC
:100F10000C0F93EA0C0F69D0A2EB030280EA010CDC
:100F200049024FEA402037D04FF0805343EA111175
:100F300043EA10130CF000408B4238BF5B0042F1D3
:100F40007D024FF4000C8B4224BF5B1A40EA0C0078
:100F5000B3EB510F24BFA3EB510340EA5C00B3EBAA
:100F6000910F24BFA3EB910340EA9C00B3EBD10F98
:100F700024BFA3EBD10340EADC001B0118BF5FEAEA
:100F80001C1CE0D1FD2A3FF650AF8B4240EBC25013
:100F900008BF20F0010070470CF0004C4CEA5020D4
:100FA0007F32C2BFD2F1FF0340EAC250704740F423
:100FB00000004FF00003013A37E792F0000F00F015
:100FC000004C02BF400010F4000F013AF9D040EA93
:100FD0000C0093F0000F01F0004C02BF490011F427
:100FE000000F013BF9D041EA0C0195E70CEAD1531F
:100FF00092EA0C0F08D142027FF47DAF93EA0C0F06
:101000007FF470AF084676E793EA0C0F04D14B02E9
:101010003FF44CAF08466EE730F0004C18BF31F09B
:10102000004CCAD130F000427FF45CAF31F0004395
:101030007FF43CAF5FE700BF4FF0FF3C06E000BF2E
:101040004FF0010C02E000BF4FF0010C4DF804CD51
:101050004FEA40024FEA41037FEA226C18BF7FEA61
:10106000236C11D001B052EA530C18BF90EA010F63
:1010700058BFB2EB030088BFC81738BF6FEAE170F2
:1010800018BF40F0010070477FEA226C02D15FEA8E
:10109000402C05D17FEA236CE4D15FEA412CE1D0FA
:1010A0005DF8040B704700BF844608466146FFE7C1
:1010B0000FB5FFF7C9FF002848BF10F1000F0FBDA3
:1010C0004DF808EDFFF7F4FF0CBF012000205DF89C
:1010D00008FB00BF4DF808EDFFF7EAFF34BF012021
:1010E00000205DF808FB00BF4DF808EDFFF7E0FFBA
:1010F00094BF012000205DF808FB00BF4DF808ED0B
:10110000FFF7D2FF94BF012000205DF808FB00BF6D
:101110004DF808EDFFF7C8FF34BF012000205DF84F
:1011200008FB00BF4FEA40024FEA41037FEA226C0E
:1011300002D15FEA402C08D17FEA236C02D15FEA3A
:10114000412C02D14FF0000070474FF00100704772
:101150004FEA4002B2F1FE4F0FD34FF09E03B3EBC4
:1011600012620DD94FEA002343F0004310F0004F04
:1011700023FA02F018BF404270474FF0000070475A
:1011800012F1610F01D1420205D110F0004008BFF9
:101190006FF0004070474FF000007047704700004C
:1011A00038B50E4B054618784FF47A73B3FBF0F35D
:1011B0000B4A1068B0FBF3F000F0A2F8044658B9EF
:1011C0000F2D09D8024629464FF0FF3000F042F8B3
:1011D0002046044B1D6038BD0120FCE700000020C4
:1011E000F801002004000020074A08B51368032016
:1011F00043F01003136000F01BF80F20FFF7D0FF3F
:10120000FFF7CCFF002008BD00200240034A044B3A
:1012100011681B780B441360704700BFB8090020A9
:1012200000000020014B1868704700BFB80900207B
:10123000074A0002D36800F4E06023F4E0631B0473
:101240001B0C43F0BF6343F400330343D360704788
:1012500000ED00E0174B70B5DC684FF0FF36C4F3CB
:101260000224C4F10705042D04F1040328BF04255A
:10127000062B98BF002406FA05F388BF033C21EA39
:101280000303A34006FA04F422EA0404002843EA14
:101290000403A8BF00F160404FEA0313B8BF064A39
:1012A000DBB2ABBF00F5614000F00F0080F8003307
:1012B000135470BD00ED00E014ED00E0002808DBE1
:1012C0000123420900F01F0003FA00F0014B43F82C
:1012D0002200704700E100E000280DDB01224309F5
:1012E00000F01F0002FA00F0044A203342F8230005
:1012F000BFF34F8FBFF36F8F704700BF00E100E077
:101300000138B0F1807F0AD2F021064B064A5860BE
:1013100082F823100020072298601A60704701208D
:10132000704700BF10E000E000ED00E010B548B3EA
:1013300014220168144B0B44B3FBF2F39B000364CB
:10134000124BC363022380F82130D0E901342343D8
:10135000C4680A682343046922F47F522343446922
:1013600022F03002234384692343C4692343134397
:101370000B6001220023836380F8203080F8212055
:10138000184610BD0120FCE7F8FFFDBF0000024039
:1013900010B508B30168114A0B680A4423F0010331
:1013A0000B6000230B604B608B60CB601421B2FBA1
:1013B000F1F2012192000A4C026401FA02F2C463C4
:1013C00062608363C0E90A33C0E90C3380F82130DE
:1013D00080F82030184610BD0120FCE7F8FFFDBF63
:1013E00000000240F0B590F82040012C36D00124D6
:1013F00090F8215080F82040EDB2A5424FF0000651
:101400004FF0020428D180F82140046886632668E2
:1014100026F001062660D0E90F67BD407560636065
:1014200043680568102BC36A0BBFA260A160E1602E
:10143000E2604BB1236843F00E03002023602B6869
:1014400043F001032B60F0BD236823F00403236005
:10145000236843F00A03F0E780F820600220F2E7F7
:1014600090F82130022B06D004238363002380F8F8
:101470002030012070470368C16B1A6822F00E0209
:101480001A601A6822F001021A600122036C02FA43
:1014900003F34B60002380F8212080F820301846A9
:1014A0007047000090F8213010B5022B03D00423C0
:1014B0008363012010BD03681A6822F00E021A60CF
:1014C0001A6822F001021A60184A93421FD014329F
:1014D00093421ED0143293421DD0143293421DD039
:1014E000143293421DD0143293420CBF4FF4801338
:1014F0004FF080730E4A00245360012380F821309E
:10150000436B80F820407BB198472046D2E7012307
:10151000F0E71023EEE74FF48073EBE74FF48053CE
:10152000E8E74FF48033E5E71846C3E708000240D8
:101530000000024070B40425C66B026C3468036876
:1015400095402542196832D04D0730D51A68960665
:101550005EBF1A6822F004021A603E4A934219D014
:101560001432934218D01432934217D0143293425B
:1015700017D01432934217D0143293420CBF4FF459
:1015800080034FF08063344A5360C36A002B5ED0FF
:1015900070BC18470423F6E74023F4E74FF4806358
:1015A000F1E74FF48043EEE74FF48023EBE70225A9
:1015B0009540254235D08D0733D51A68940606D458
:1015C0001A6822F00A021A60012280F82120214ABA
:1015D000934219D01432934218D01432934217D048
:1015E0001432934217D01432934217D014329342DC
:1015F0000CBF4FF400134FF00073174A53600023E1
:1016000080F82030836AC1E70223F6E72023F4E75D
:101610004FF40073F1E74FF40053EEE74FF400335B
:10162000EBE708259540254211D009070FD5196829
:1016300021F00E011960012303FA02F27260836344
:1016400080F82130002380F82030036B9EE770BCC7
:10165000704700BF08000240000002402DE9F74F2C
:1016600000242646654BDFF8A4C1DFF8A4E10A6830
:1016700032FA06F502D103B0BDE8F08F4FF0010851
:1016800008FA06F802EA080290457ED14D68122D4C
:1016900000F0A98000F28280022D00F0A18076D8AF
:1016A000002D00F08880012D00F098804FF00F0988
:1016B000FF2A93BF824606F18045083DD0F800B06E
:1016C00092BFB500D0F804B0AD0009FA05F82BEAD6
:1016D000080804FA05F588BF00F1040A48EA050580
:1016E000CAF80050D1F804A01AF0805F4DD0444FE2
:1016F00026F00308BD6908F1804845F00105BD6189
:10170000BD6908F5803805F00105019506F0030B69
:10171000019D4FEA8B0BD8F8085009FA0BF925EA1E
:101720000909384DA84263D005F58065A84261D00B
:1017300005F58065A8425FD005F58065A8420CBF1D
:101740000325042505FA0BF545EA0905C8F80850F4
:101750009D681AF4801F14BF154395439D60DD6892
:101760001AF4001F14BF15439543DD605D681AF439
:10177000003F14BF154395435D601D681AF4803F18
:1017800014BF2A4325EA02021A6001366FE7032DCF
:1017900022D0112D8AD1CC68043487E71A4FBD427C
:1017A00009D012D8DFF86C904D4504D009F5803986
:1017B0004D457FF47BAF8C68C4B1012C0CBFC0F8E1
:1017C0001080C0F81480082470E76545F3D0754593
:1017D000F1D0DFF84490EBE7002467E7CC6865E7D9
:1017E000CC68083462E7CC680C345FE704245DE71A
:1017F0000025A7E70125A5E70225A3E7000401408E
:1018000000100240000801400000211000003110CB
:101810000000321000001110000022102DE9F74FD7
:101820004FF0040B00234FF0010A4FF00F0800EBBC
:101830000B020192314A31FA03F402D103B0BDE840
:10184000F08F0AFA03F70F404FD023F0030404F19E
:10185000804404F5803403F0030C294DA6684FEA58
:101860008C0C08FA0CF9A84209EA060E3FD005F5DF
:101870008065A8423DD005F58065A8423BD005F5BE
:101880008065A84214BF0425032505FA0CF57545AB
:101890006FEA07060FD11568354015605568354069
:1018A0005560D5683540D560956835409560A56828
:1018B00025EA0905A560FF2F93BF074603F1804481
:1018C000083CD0F800C08ABFD0F804C09C00A40037
:1018D00008FA04F588BF019F0BFA04F42CEA050509
:1018E00025433D60C4682640C6600133A3E7002558
:1018F000CBE70125C9E70225C7E700BF0004014087
:10190000000801408368194214BF0120002070477D
:101910000AB1016170470904FBE7C36801EA0302E9
:1019200021EA030141EA02410161704770B50446B2
:1019300018B34CF6CC42036841F23C361A6045F2CB
:1019400055521A6042685A6082689A60FFF76AFCD2
:1019500005462368D86810F0030003D14AF6AA228E
:101960001A6070BDFFF75EFC401BB042F1D92368DE
:10197000DB689B07EDD00320F3E70120F1E74AF68F
:10198000AA22036800201A60704700002DE9F34185
:10199000054608B901203CE00368DB0710D42B683A
:1019A0009F075DD42B68190700F194802B685A07B4
:1019B00000F1BE80E869002840F02C81002028E07A
:1019C0008F4C636803F00C03042B07D0636803F0AB
:1019D0000C03082B09D16368DE0306D523689C033A
:1019E000DDD56B68002BDAD1D4E76B68B3F5803FA7
:1019F00012D1236843F480332360FFF713FC0646BB
:101A000023689803CBD4FFF70DFC801B6428F7D91B
:101A1000032002B0BDE8F0819BB9236823F4803332
:101A20002360236823F480232360FFF7FBFB064633
:101A300023689903B3D5FFF7F5FB801B6428F7D91A
:101A4000E6E7B3F5A02F236803D143F48023236096
:101A5000CFE723F480332360236823F48023CBE78C
:101A6000674C636813F00C0F07D0636803F00C0336
:101A7000082B10D16368DA030DD423689B0702D5C5
:101A80002B69012B86D123686A6923F0F80343EAA6
:101A9000C203236086E72A695A4B6AB101221A60A1
:101AA000FFF7C0FB064623689F07ECD4FFF7BAFB9D
:101AB000801B0228F7D9ABE71A60FFF7B3FB064695
:101AC000236898077FF56EAFFFF7ACFB801B0228F9
:101AD000F6D99DE7AA694A4C4B4BDAB101221A604C
:101AE000FFF7A0FB0646636A9B070DD54FF4FA5239
:101AF000464B1B68B3FBF2F3019300BF019B5A1ED8
:101B00000192002BF9D151E7FFF78CFB801B0228D3
:101B1000E9D97DE71A60FFF785FB0646636A9F07F0
:101B20007FF544AFFFF77EFB801B0228F6D96FE7F5
:101B3000334CE369D80024D40127E36943F0805390
:101B4000E361E36903F080530093009B304E3368F8
:101B5000D90518D5EB68012B26D1236A43F0010380
:101B60002362FFF75FFB41F288368046236A9B07BA
:101B70003FD5002F3FF41EAFE36923F08053E361AC
:101B800018E70027E2E7336843F480733360FFF718
:101B900049FB80463368DA05DCD4FFF743FBA0EB52
:101BA00008006428F6D933E7ABB9236A41F28838D4
:101BB00023F001032362236A23F004032362FFF767
:101BC00031FB0646236A9807D3D5FFF72BFB801B12
:101BD0004045F7D91CE7052B236A03D143F00403E2
:101BE0002362BAE723F001032362236A23F004038C
:101BF000B6E7FFF717FBA0EB0800B042B6D907E73E
:101C0000001002400000424280044242F8010020DD
:101C1000007000402A4B5A681C4602F00C02082A49
:101C20003DD00023274E022833602BD1FFF7FAFA6C
:101C30000746236899011FD42B6AB3F5803F05D16D
:101C40006268A96822F400320A436260696A6268C5
:101C50000B4322F474121343636001233360FFF7D4
:101C6000E1FA054623689A013FF5A8AEFFF7DAFAD4
:101C7000401B0228F6D9CBE6FFF7D4FAC01B022896
:101C8000D7D9C5E6FFF7CEFA054623689B017FF555
:101C900095AEFFF7C7FA401B0228F6D9B8E601282F
:101CA0003FF4B7AE58682B6A00F480329A427FF452
:101CB00071AE6B6A00F47010C01A18BF0120A8E65C
:101CC00000100240600042420D494B6803F00C02D4
:101CD000082A12D10B48C3F38342DB03825C09D587
:101CE00009484B685043094AC3F34043D35CB0FBF7
:101CF000F3F070470648504370470348704700BFF1
:101D0000001002401080000800127A0020800008B5
:101D100000093D002DE9F0410D46044610B90120AF
:101D2000BDE8F081444A136803F007038B4228D3CF
:101D300021688E0730D4CA0743D43F4A136803F0A2
:101D40000703AB4265D822683C4D12F0040F6CD1FA
:101D5000130706D56B68226923F4605343EAC20374
:101D60006B60FFF7B1FF6B68354AC3F30313D35CB5
:101D7000D840344B1860344B1868FFF711FA002034
:101D8000CEE7136823F007030B431360136803F0D7
:101D900007038B42C3D1CBE7284B11F0040F1EBFC2
:101DA0005A6842F4E0625A60080742BF5A6842F437
:101DB00060525A605A68A06822F0F00202435A60EA
:101DC000B9E762681D4E012A33681AD113F4003F47
:101DD000A5D0736841F2883823F00303134373607E
:101DE000FFF720FA07467368626803F00C03B3EB51
:101DF000820FA2D0FFF716FAC01B4045F3D903208B
:101E00008EE7022A02D113F0007FE1E713F0020F00
:101E1000DEE7136823F007032B431360136803F016
:101E20000703AB427FF47BAF8DE76B68E16823F477
:101E3000E0630B436B608BE7002002400010024020
:101E400048860008F801002004000020044B054AE1
:101E50005B68C3F30223D35C034A1068D840704721
:101E60000010024058860008F8010020044B054A83
:101E70005B68C3F3C223D35C034A1068D840704741
:101E80000010024058860008F801002090F83D300C
:101E9000012B1CD102230F4A80F83D300368934286
:101EA0000AD0B3F1804F07D0A2F59432934203D009
:101EB00002F58062934204D19A6802F00702062A72
:101EC00003D01A6842F001021A6000207047012016
:101ED000704700BF002C01401C4A036890420AD0A2
:101EE000B0F1804F07D0A2F59432904203D002F5B2
:101EF0008062904215D14A6823F070031343134A5D
:101F000090420AD0B0F1804F07D0A2F594329042AF
:101F100003D002F58062904203D1CA6823F4407373
:101F200013434A6923F0800313438A68C2620A6834
:101F30008262064A904204BF0A690263026842F064
:101F4000040202600122426103607047002C0140DC
:101F500010B5044630B390F83D3003F0FF021BB9D2
:101F600080F83C2001F0A6FB0223206884F83D3075
:101F7000211DFFF7B1FF0123002084F8463084F8CB
:101F80003E3084F83F3084F8403084F8413084F8A3
:101F9000423084F8433084F8443084F8453084F883
:101FA0003D3010BD0120FCE7026802F10C0353E84C
:101FB000003F23F490730C3242E80031026800299C
:101FC000F2D102F1140353E8003F23F0010302F1C0
:101FD000140C4CE800310029F3D1036B012B0BD119
:101FE00002F10C0353E8003F23F0100302F10C0C44
:101FF0004CE800310029F3D1202380F8423000233F
:102000000363704710B504460368C1681A6922F477
:1020100040520A431A6182680069D96802436069C4
:1020200021F4B05121F00C0102430A43DA605A69ED
:10203000A16922F440720A435A610E4A934215D1B3
:10204000FFF714FF19235843636864229B00B0FB19
:10205000F3F0B0FBF2F102FB11031B013233B3FBCF
:10206000F2F3246803EB0113A36010BDFFF7EEFE4B
:10207000E8E700BF0038014010B5044648B390F8C7
:10208000413003F0FF021BB980F8402001F024FB2F
:102090002423226884F84130D368204623F4005377
:1020A000D360FFF7AFFF236800201A6922F4904243
:1020B0001A615A6922F02A025A61DA6842F400521F
:1020C000DA602023606484F8413084F84230606331
:1020D00010BD0120FCE710B50446A0B1242302681E
:1020E00080F84130D36823F40053D36001F0F6FA4E
:1020F0000020606484F8400084F8410084F84200C5
:102100002063606310BD0120FCE790F84130202B74
:1021100010D189B182B1C28482840023212201625C
:102120000168436480F84120CA68184642F0800282
:10213000CA607047022070470120704770B504469E
:1021400094F841501346EDB2202D2ED1C9B1C2B141
:10215000E284A28421200022154E626484F84100AA
:10216000A06B21628662134EC662134EC0E90C62F8
:1021700022680432FFF736F928B11023636484F82B
:102180004150012010E06FF0400223681A6022687D
:1021900002F1140353E8003F43F0800302F11404FA
:1021A00044E800310029F3D170BD0220FCE700BFF4
:1021B000BD2100080B22000817220008026808B59C
:1021C0001268436A12F020021AD1DA84196801F108
:1021D000140252E8002F22F08002143141E800205E
:1021E0001A680028F2D102F10C0353E8003F43F0D3
:1021F000400302F10C0040E800310029F3D108BD92
:10220000184602F017F8FAE7704708B5406AFFF77A
:10221000FBFF08BD704710B5446A23685A6994F8FB
:102220004110212912D1120610D50022E28403F1B7
:102230000C0252E8002F22F0C00203F10C0040E82B
:1022400000210029F3D1202284F841205B6994F811
:102250004220222A06D15B0604D500232046E385CE
:10226000FFF7A2FE636C204643F01003636402F0A4
:102270002BF810BD08B50023406AC38502F024F88E
:1022800008BD704790F8423013B5222B53D18168B6
:10229000836AB1F5805F02683ED1016900293ED1B1
:1022A0005268C2F3080223F8022BC48D8362013CFA
:1022B000A4B2C485002C2DD10368DA6822F0200274
:1022C000DA60DA6822F48072DA605A6922F0010278
:1022D0005A61202380F842304463036B012B03686A
:1022E00026D1046303F10C0252E8002F22F0100201
:1022F00003F10C0444E800210029F3D11A68D20646
:1023000005D501911A6801925B680193019B818D4B
:10231000FFF7B7FF00200FE031B9016921B952681A
:102320001A70836A0133C0E7526802F07F02F7E750
:1023300001F0A2FFEEE7022002B010BD036837B53E
:102340001A68044612F00F0FD9685D6908D1950626
:1023500066D58D0664D503B0BDE83040FFF792BF67
:1023600015F0010502D111F4907F59D0D00705D5A1
:10237000CB0542BF636C43F001036364500704D58F
:102380001DB1636C43F002036364930704D51DB170
:10239000636C43F004036364100706D58B0600D416
:1023A0001DB1636C43F008036364636C002B31D090
:1023B000900604D5890602D52046FFF763FF2368FF
:1023C00020465D69626C120702D415F0400523D0E7
:1023D000FFF7EAFD226853695B0618D502F1140382
:1023E00053E8003F23F0400302F1140040E80031BD
:1023F0000029F3D1E06B50B1764B4363FFF752F8FD
:1024000040B1E06B436B03B0BDE830401847204655
:1024100001F05AFF03B030BD01F056FF6564F9E7E3
:10242000206B012840F09980D50640F19680C806BF
:1024300040F19380002201921A6801925A68019239
:10244000019A5969A28D4D0654D5E06B016849681F
:1024500089B2002946D0914244D28269E185202A7E
:1024600036D003F10C0252E8002F22F4807203F1FF
:102470000C0040E800210029F3D103F1140252E8D6
:10248000002F22F0010203F1140040E8002100298E
:10249000F3D103F1140252E8002F22F0400203F1BD
:1024A000140040E800210029F3D1202284F84220C2
:1024B000216303F10C0252E8002F22F0100203F115
:1024C0000C0040E800210029F3D1E06BFEF7C8FFC3
:1024D00002236363E38DA18DC91A89B22046FFF7F9
:1024E000D0FE97E7914295D18369202B92D10223A8
:1024F0006363F3E7E18DE08D89B280B2002889D073
:10250000511A89B2002985D003F10C0252E8002F3C
:1025100022F4907203F10C0545E800200028F3D165
:1025200003F1140252E8002F22F0010203F1140516
:1025300045E800200028F3D1202284F842202063BF
:1025400003F10C0252E8002F22F0100203F10C05F7
:1025500045E800200028F3D1C9E7100628D50D066C
:1025600026D594F84120212A7FF454AFA168226A2D
:10257000B1F5805F17D12169A9B932F8021BC1F307
:10258000080159602262E28C013A92B2E284002A88
:102590007FF440AFDA6822F08002DA60DA6842F055
:1025A0004002DA6036E7511C216212785A60EAE78D
:1025B00050067FF52FAF4A067FF52CAFDA6820462C
:1025C00022F04002DA60202384F8413001F032FE2C
:1025D00020E700BF7522000808B50123406A436365
:1025E000036B012B04D1818D4908FFF74AFE08BD1A
:1025F000FFF710FEFBE708B503461B68406A1B683F
:1026000013F0200337D1C385026802F10C0353E8AD
:10261000003F23F480730C3242E800310368002944
:10262000F2D103F1140252E8002F22F0010203F16B
:10263000140C4CE800210029F3D103F1140252E8F4
:10264000002F22F0400203F1140C4CE80021002975
:10265000F3D1202280F84220026B012A0BD103F132
:102660000C0252E8002F22F0100203F10C0C4CE88F
:1026700000210029F3D100234363036B012B03D115
:10268000818DFFF7FEFD08BD01F0F6FDFBE700239D
:10269000C285436422238285026980F842308162C8
:1026A00003681AB1DA6842F48072DA605A6900206D
:1026B00042F001025A61DA6842F02002DA607047A3
:1026C00070B490F84260202E06D141B13AB1002496
:1026D000046370BCFFF7DBBF022070BC70470120B1
:1026E000FBE7000037B5044681621346A28500224D
:1026F00042642220224D84F84200E06B8562214D25
:10270000C562214DC0E90C5225680A46291DFEF715
:1027100069FE38B1102363642023012084F842301D
:1027200003B030BD236801901A6801925A68019283
:10273000019A22695AB103F10C0252E8002F42F4C7
:10274000807203F10C0444E800210029F3D103F165
:10275000140252E8002F42F0010203F1140444E88D
:1027600000210029F3D103F1140252E8002F42F0B6
:10277000400203F1140444E800210029F3D1CFE71B
:10278000F7250008D92500081722000870B490F832
:102790004260202E06D141B13AB10024046370BCDE
:1027A000FFF7A0BF022070BC70470120FBE70000CC
:1027B000384B2DE9F04107460D46186836499046DA
:1027C000FEF79EFB00F10044064639462046FEF720
:1027D0009FFC30B931463846FEF79AFC00284ED1AE
:1027E0003C462E4B00211F682D4E3846FEF790FCCC
:1027F00000284CD0B8F1000F1FD000212846FEF76A
:1028000069FC08B105F1004529463846FEF7C4FACF
:102810000146FEF7B9F905F00DFB2249FEF7BCFAB7
:1028200000F10048054621464046FEF771FC40BBDA
:1028300021462846FEF74EFC28BB1A493846FEF7CB
:10284000ABFA1849FEF7A8FA37680546394620461C
:10285000FEF798F905F1004421468046FEF73AFC60
:1028600028B929464046FEF753FC70B94446214634
:102870003846FEF789F930603068BDE8F0813446AB
:10288000AFE74446D9E72C46D7E72C46EFE734605C
:10289000F2E700BF2000002000007A44080000207A
:1028A000680200206F12833A38B5104B93F900305C
:1028B000D3B90F4B1B78BBB90E4B187898B10E4BA0
:1028C00019680E4B1868FEF75DF90D490546FEF7CD
:1028D0001FFC48B90B4928464FF00104FEF7FAFBEC
:1028E00000B90446E0B238BD0120FCE72102002017
:1028F000490200200C0000201C0000206002002083
:10290000CDCC4C3DCDCC4CBD08B501F015FD20B172
:10291000044A13680133136008BDBDE8084001F0A4
:1029200071BD00BF240200200FB400B5A3B024ABDA
:1029300053F8042B802102A8019303F055FA011EDD
:1029400003DD89B202A8FFF7DFFF23B05DF804EBD7
:1029500004B07047074B07B51868FDF76FFD1022EC
:10296000CDE9000111460448FFF7DEFF03B05DF832
:1029700004FB00BF1C0000202280000800000000B3
:102980002DE98048D5B0FEF72FFC202200212DA88C
:1029900001F05EFE012510230226CDE930534FF4ED
:1029A00020132CA835932C963396FEF7EFFF0F23B8
:1029B0000027CDE91E364FF48063A34C29461EA89C
:1029C0004FF40058209722972193FFF7A3F9A369AA
:1029D0002CA943F00403A361A3699C4803F00403FA
:1029E0001A931A9BA36943F00803A361A36903F038
:1029F00008031B931B9BA36943F01003A361A36906
:102A000003F010031C931C9BA3692B43A361A369D0
:102A10002E972B401D931D9BCDE92C852F96FEF7FD
:102A20001DFE41464FF400782A468848FEF770FFA5
:102A30002CA98748CDE92C852F96FEF70FFE3A4644
:102A400041468348FEF764FF4FF48053CDE92C37AD
:102A500040272CA97E482E96FEF700FE2CA97C4824
:102A6000CDE92C752F96FEF7F9FD2A4639467848B0
:102A7000FEF74EFF01F038F90028FBD1656A8DF8AA
:102A8000B00015F0006406D0724B734A30212CA8B8
:102A900002F036FA032468010CD56E4A6F4B2CA85D
:102AA000002C08BF1346C4F1300120446C4A02F0E8
:102AB00027FA0444E9000CD5664A684B2CA8002C80
:102AC00008BF1346C4F130012044664A02F018FAE8
:102AD0000444AA000CD55F4A604B2CA8002C08BF08
:102AE0001346C4F1300120445F4A02F009FA04445D
:102AF0006B000CD5574A594B2CA8002C08BF134625
:102B0000C4F130012044594A02F0FAF90444002D7E
:102B10000BDA504A514B2CA8002C08BF1346C4F1C5
:102B20003001534A204402F0EBF99DF8B03013B95C
:102B30002D23ADF8B03001224E4B4F4C1A602CA91A
:102B40004E4A4F48FFF7F0FEFFF704FFD4F800802D
:102B500000204146FEF716F805464A4E4A4F3146D8
:102B60002846FEF7D5FA002861D1484FDFF81891C2
:102B700039462846FEF7B8FA064600285DD12946B0
:102B80004046FEF701F84FF0804C41F2BF23404D24
:102B9000404FC5E900C3092338602846C5E903361C
:102BA000AE60AE61FFF7D4F92846FFF76FF9042352
:102BB0003948DFF8E8E0BA46C0E900E34FF49C7317
:102BC0008360FEF7B3FE1795002501F01BFC402142
:102BD0002CA801F0A1FC002800F035811EA92CA82A
:102BE00000F0C2FD002800F02E819DF87830013BF6
:102BF000192B00F22881DFE813F0530066006D0006
:102C000095009E00A70015023402B000B600BF0078
:102C1000C500FE017D004D02530259026502780293
:102C200086029C02A2029002BD02C102C502284691
:102C30003946FDF7A7FF054691E728464946FDF7C7
:102C4000A3FF054694E700BF0010024000100140BA
:102C5000000C01400B8200085180000849800008E8
:102C6000578000085D800008638000086A800008C3
:102C700071800008E00442421C00002078800008B7
:102C800082800008000034430000B443000034C3D5
:102C90007C02002060020020700200200030004012
:102CA0000123A04AA0481370A04A13700023A04A31
:102CB00013702268CAF800209E4A15609E4A13705D
:102CC000FFF732FEBFE00023964A9C481370984AF3
:102CD0001370F5E70023964A24981370964ACAF8B1
:102CE00000001370FDF7AAFB0B4602469448FFF75D
:102CF0001BFEA8E000218E4A9DF9A7308948137079
:102D0000904A11700178894A09B1117811B90121ED
:102D100001701170002BD4BF2D212B218A48FFF7A1
:102D200003FE90E0894B1F981860FDF787FB024671
:102D30000B468748DBE7874B20981860FDF77EFB42
:102D400002460B468448D2E7844B21981860FDF771
:102D500075FB02460B468248C9E7BDF89410814BCB
:102D600081481980DBE70022804B9DF8961080484F
:102D70001970804B1A70D2E79DF897107E4B7F48F0
:102D80001970CCE7289E29463046FEF7ADF910B9F8
:102D9000BDF8A4700FB97A4892E79DF9A690DDF8C6
:102DA0009880DDF89CB0B9F1000F05D15946404636
:102DB000FEF7A4F90028EED1002201205C499145DC
:102DC0000A706049CAF80080087018BF48466D490B
:102DD000C1F800806C49C1F800806C49C1F800B0AE
:102DE0006B490E606B490F806B490A806B49087014
:102DF0006B496C4881F800904F490A706A490A7023
:102E00004FF40071FEF784FD4046B9F1000F00F069
:102E1000DD80FDF713FB02460B46B9F1000F30468B
:102E2000CDE91823D4BF4FF02D0B4FF02B0B049797
:102E3000FDF704FBDDE91823CDE90201CDF800B070
:102E40005A48FFF771FD179B1B681A69D2077FF577
:102E5000BCAE6FF001024FF480511A615148FEF789
:102E600051FD01280CBF01260026514A07D11378D5
:102E70002BB950490B6801330B604B4B1870294B31
:102E800016701B784C4E002B40F07E812A4A35602C
:102E900013702C4B1B78022B18D1244B1B78ABB131
:102EA0003C4B1B8843B13C490A88013292B29342A1
:102EB0008CBF002301230A80404A1278012A00F0C7
:102EC000A782C0F0EA82022A00F0E28201F0FAFA58
:102ED000E0B9264B274E1B783078012B384A00F09A
:102EE0002883204B1988002900F02383224B1B786C
:102EF00013B1142938BF1421138801339BB28B42BC
:102F000080F00A831380002840F008832D4A13685C
:102F10000133B3F5FA7F80F0188313602A48FEF777
:102F20002EFD52E60C000020968000080D000020C7
:102F30002102002068020020200200209E8000085C
:102F4000A780000849020020B3800008100000207C
:102F5000BD80000834020020CA8000083002002032
:102F6000D780000816000020E480000866020020D8
:102F7000EF8000086502002064020020FA8000084B
:102F8000088100083C0200204C020020440200207E
:102F90005002002042020020400200201A000020BF
:102FA00048020020000C01405D020020138100084F
:102FB0005C02002058020020380200205402002049
:102FC000180200201C02002070020020FDF736FAD3
:102FD0008046304689460497FDF730FACDE9020174
:102FE0005846FDF72BFA4246CDE900014B468C4886
:102FF000FFF79AFC27E700228A4B8B481A708B4B0D
:103000004FF400711A708A4B1A702368CAF80030A6
:10301000884B1D60884B1A70884B1A70FEF778FC3D
:1030200087484DE6229E4FF07E513046FEF752F81B
:1030300020B984493046FEF76BF848B10022824B34
:103040008248CDE900230022814BFFF76DFCFAE6B0
:10305000804B30461E60FDF7F1F902460B467E4874
:1030600045E6239E29463046FEF734F820B97B49D1
:103070003046FEF74DF820B167A3D3E90023784826
:1030800035E6784B30461E60FDF7D8F902460B4610
:1030900075482CE6BDF8A810744B754819803EE6BB
:1030A000BDF8AA10734B7448198038E6BDF8A81013
:1030B0006E4BBDF8AA2019806E4B70481A80FFF73E
:1030C00033FCC0E6FFF7F0FB08B16D48F8E5BDF84A
:1030D000AC104B1E9AB2FF2A01D80B4201D06948AE
:1030E000EEE5694B6948198019E60121614B5F4A99
:1030F0001B881288019164496548098800916549D7
:10310000FFF712FC9FE6FFF7CFFB0028DDD16248F6
:10311000FFF70AFCFFF71EFC95E69DF8AF105F4B2A
:10312000197011B101225E4B1A70424B5D481D604F
:10313000F5E59DF8AE105C4B5C481970EFE55A4B15
:103140004FF4805138481E78FEF7DCFB4FF40071D5
:1031500007463548FEF7D6FB554B411E1B68781EC7
:1031600000934B424B414242424131465148FFF7A6
:10317000DBFB68E6494B50481978D0E54F4B504887
:103180001978CCE54F489BE5444B35601B78002B04
:103190003FF47FAE234BDAF8007093F90030D4F897
:1031A0000090DFF89480002B00F094804FF0000B2B
:1031B000284A4549106888F800B01893FDF7A0FE2A
:1031C000189B80461846FDF793FD01464046FDF7E3
:1031D000E3FD5A462946FFF7EBFA49468046FDF7DC
:1031E000D3FC3946814620604046FDF7CDFCC6F849
:1031F0000080CAF8000035494846FDF789FF30B91C
:1032000033494846FDF766FF00283FF442AECAF84E
:10321000005025603DE600BF00000000006AF84055
:103220002D81000821020020000C014048020020EE
:103230004902002068020020200200205D020020D8
:10324000498100080000964400C092405381000864
:103250000000F03F200000206C8100080050C347B0
:1032600078810008080000209081000818000020E4
:103270009C8100080E000020A9810008B781000889
:10328000C7810008E3810008140000200C820008B8
:10329000238200081A820008538200080D000020D3
:1032A0006C0200205D820008540200206A8200083F
:1032B0005802002077820008608200086602002021
:1032C000F28000089482000800007A448096184B2F
:1032D000809618CB49463846FDF754FC9F4907466F
:1032E000FDF716FFDFF8C092DFF8D4B220B99C4991
:1032F0003846FDF7EFFEF8B1002301223946384683
:1033000088F800308BF80020FFF752FA99F8003067
:103310000746012B09D12946FDF7D2FE024620B906
:103320004FF400718F48FEF7F3FA20683946FDF735
:103330002BFC37602060ACE59BF80030002B36D0CA
:1033400089493846FDF7E4FE20B988493846FDF73B
:10335000C1FE48B386493846FDF7D2FDFDF7F8FEB9
:10336000034640B929463846FDF7D2FE002814BF6F
:1033700001234FF0FF3399F80020012A07D10022E2
:103380004FF4007177481893FEF7C2FA189B18465D
:10339000FDF7AEFC7649FDF7FFFC074601462068C5
:1033A000FDF7F2FB3760206000238BF8003099F8BE
:1033B0000020012A10D14FF400716A48FEF7A8FAE4
:1033C000DAF800206B4B1A60022389F800300023E2
:1033D000694A1380694A137098F80030ABB9012329
:1033E00088F80030664B1B787BB1664A13781BB1B6
:1033F00065490B6801330B602168644B1960644BAD
:10340000DAF80010196001231370624B1D6040E56B
:103410005A4B1B78002B3FF459AD0022574B1A70C2
:103420005D4B93F900005D4BD3F80080514B1F6852
:10343000002834D0FDF75CFC4146FDF7ADFC394671
:10344000FDF7A2FB56490646FDF762FE20B9554935
:103450003046FDF73FFE48B139463046FDF792FB56
:10346000394606462068FDF78DFB2060414B4E4AE9
:103470001E600123137000223F4B4FF400711A802D
:103480004A4B3848CAF800601A70FEF741FA1DE549
:103490003A4A1278002A18BF0123DBB2BAE7DFF8F4
:1034A000249199F900B05846FDF722FC4146FDF7FA
:1034B00073FC3946FDF768FBBBF1000F064616DDCD
:1034C0003B4BD3F800B05946FDF722FE0028CDD083
:1034D00039465846FDF708FE20B158464146FDF7EB
:1034E00051FB8346FF2289F800205E46BEE7BDD02F
:1034F000304BD3F800B05946FDF7ECFD0028B5D0AD
:1035000039465846FDF7FAFD20B158464146FDF7C9
:103510003BFB83460122E6E7002313800023337040
:10352000002853D1D4F800B0DAF80090DFF8988082
:1035300054E00023E6E4CDE90238CDE900671E4AF5
:10354000A0212CA801F0DCFC92E000234FF40051F4
:103550001A481360FEF7E1F9E0E400BFCDCC4C3D22
:10356000CDCC4CBD000C01400AD7A33C0AD7A3BC6C
:103570006666E63B3C020020400200205D0200201F
:10358000660200206502002024020020280200209C
:103590002C02002068020020480200205002002077
:1035A0008096184B809618CB4902002020020020FC
:1035B000440200204C020020068300080010014055
:1035C0006C0200201A0000200B8200082C4BDFF850
:1035D000E080D3F800B02B4BD3F800905846FCF7AE
:1035E0002DFF294B06461B780F46002BA3D0274BF7
:1035F000CDF854801B681493254B1868FCF71EFF08
:10360000CDE91201234B1868FCF718FFCDE9100132
:10361000214B1868FCF712FFCDE90E011F4B18680B
:10362000FCF70CFFCDE90C011D4B1868FCF706FFF9
:10363000002309931B4BCDE90A0108931A4B186824
:10364000FCF7FCFECDE9060159464846FDF79AFA1B
:10365000FCF7F4FECDE904014846FCF7EFFECDE9A6
:103660000067CDE90201114AA0212CA801F048FC15
:103670009F28A8BF9F2081B22CA8FFF745F945E4F9
:10368000280200202C0200206402002024020020D6
:10369000080000202000002030020020340200201A
:1036A000100000200383000838020020A2820008D6
:1036B0004B800008036882B0B3F1804F0AD103F554
:1036C0000433DA6942F00102DA61DB6903F00103D5
:1036D0000193019B02B0704700F0CABB00F0D4BC5C
:1036E000FDF794BD0346184613F8012B202AFAD0A3
:1036F000092AF8D0704700002DE9F34104468846B6
:10370000006801A902F064FA019E23680546B342ED
:1037100011D020F0004709493846FDF703FD50B9A4
:1037200006493846FDF7F4FC28B92660C8F8005071
:1037300002B0BDE8F0814FF0FF30F9E7FFFF7F7F77
:1037400037B504460D460A2201A9006802F00AFBBB
:103750002268019B9A4217BF23604FF0FF30286018
:10376000002003B030BD000070B50D4686B006469F
:10377000002800F00581002900F002810378002272
:10378000002B00F037824FF080730A70C1E90122EC
:10379000C1E90322C1E90522C1E90722C1E90922E1
:1037A000C1E90B224B63A649FCF7D2FC18B90120F2
:1037B000287006B070BDA3493046FCF7C9FC10B9AB
:1037C00002232B701BE0A0493046FCF7C1FC08B96E
:1037D0000D23F6E79D493046FCF7BAFC28B90E23C5
:1037E00001202B7085F82F00E3E799493046FCF75C
:1037F000AFFC30B90E232B70FF2385F82F3001204A
:10380000D7E702229349304601F0AEFB68B9023691
:1038100005A904A80496FFF76FFF002840F0B080C8
:1038200003232B70059BAB61E9E703228A493046ED
:1038300001F09AFB58B9033606A840F8046D291D1B
:10384000FFF75AFF002840F09B800423B9E70322CA
:103850008249304601F088FB60B9033606A840F87B
:10386000046D05F10801FFF747FF002840F088804C
:103870000523A6E703227A49304601F075FB58B9C3
:10388000033606A840F8046D05F10C01FFF734FF7C
:10389000002875D1062394E702227249304601F0D0
:1038A00063FB58B9023606A840F8046D05F1100113
:1038B000FFF722FF002863D1072382E702226A492B
:1038C000304601F051FB58B9023606A840F8046DA5
:1038D00005F11401FFF710FF002851D1082370E70C
:1038E00003226249304601F03FFB80B9033605A947
:1038F00004A80496FFF724FF002841D1059BB3F5E7
:10390000803FBFF456AF0922AB832A7077E70322CA
:103910005749304601F028FB70B9033605A904A8C1
:103920000496FFF70DFF58BB059B022B3FF641AFF6
:103930000A22AB772A7062E706224E49304601F030
:1039400013FB044670B9063605A904A80496FFF7D0
:10395000F7FEA8B9059B012B3FF62BAF0B22EB77A7
:103960002A704CE705224449304601F0FDFA002850
:103970004FD1053602A901A80196FFF7BDFE08B197
:10398000002016E7019B5A1C01921A782C2AF7D1C5
:10399000002205925A782B2A01D02D2A2BD1997812
:1039A0002C2928D12B2A0CBF01244FF0FF340333DC
:1039B000019303A901A8FFF79FFE0028E0D1019B16
:1039C0005A1C01921B782C2BDAD104A901A8FFF70D
:1039D000B7FE0028D4D1049BB3F5803FD0D20C228F
:1039E0002A70029AAB852A62059A85F82E406A628F
:1039F000039AAA6203E705A901A8FFF77DFE002844
:103A0000BED1019B5A1C01921B782C2BB8D10446C5
:103A1000CFE705221949304601F0A6FA80BB0536EA
:103A200005A904A80496FFF78BFE0028A8D1059BE2
:103A3000022BA5D8152285F836302A70DFE600BFA4
:103A4000188300081B8300081F83000824830008D4
:103A5000288300082C8300082F8300083383000884
:103A6000378300083B8300083E8300084183000839
:103A700045830008498300085083000856830008E6
:103A800005225D49304601F06FFA88B9053605A96F
:103A900004A80496FFF754FE00287FF471AF059B3D
:103AA000012B3FF686AE172285F837302A70A6E63E
:103AB00052493046FCF74CFB08B9162381E65049C1
:103AC0003046FCF745FB08B919237AE64D493046E4
:103AD000FCF73EFB08B9182373E64B493046FCF768
:103AE00037FB08B913236CE648493046FCF730FB36
:103AF00008B9142365E605224549304601F034FA39
:103B0000A0B9701DFFF7EEFD05A9049004A8FFF70A
:103B100017FE00287FF434AF40F6B832059B93427D
:103B20003FF647AE0F222B862A7068E606223949F7
:103B3000304601F019FAA0B9B01DFFF7D3FD05A971
:103B4000049004A8FFF7FCFD00287FF419AF40F6AD
:103B5000B832059B93423FF62CAE10222A706B863A
:103B60004DE605222C49304601F0FEF930BB701DB0
:103B7000FFF7B8FD04A9039003A8FFF7E1FD0028B3
:103B80007FF4FEAE40F6B833049A9A423FF6F8AEA0
:103B90000398FFF7A7FD05A9039003A8FFF7D0FD41
:103BA00000287FF4EDAE40F6B832059B93423FF615
:103BB000E7AE11222A70049A2A86D0E70622174916
:103BC000304601F0D1F998B9B01DFFF78BFD05A97A
:103BD000049004A8FFF7B4FD00287FF4D1AE059B44
:103BE000B3F5803FBFF4CCAE1222AB862A7006E656
:103BF0001A23E6E51846DCE55C83000862830008CA
:103C0000678300086A8300086F83000874830008D4
:103C1000798300087F830008868300088C8300086E
:103C2000074A084913880988013303F07F03994242
:103C300010B504D01188044C89B26054138010BDB3
:103C4000C402002046030020C6020020C36C70B5E9
:103C50005D68B0F82441C5F14005ADB2A4B2A542FB
:103C600006460BD03319013493F8E40004F03F0406
:103C7000FFF7D6FFA542F5D1A6F8245170BD10B5C7
:103C8000044694F8E230043073B100234022A4F8D3
:103C9000243104F1E401FEF779FD20B96268D368AC
:103CA00043F01003D36010BD04F1E3010122BDE82D
:103CB0001040FEF705BD436810B5044613B104304B
:103CC000FEF709FA0023A4F82431A4F8E230A4F89E
:103CD0002633A4F82833A4F82A3384F82C3384F844
:103CE0002D3384F82E3310BD00234FF400702DE9DE
:103CF000F0474FF4806A01274FF4E1394FF00C0888
:103D0000524A534C1380534A53491380534E544ADA
:103D1000A4F8D800201DA4F8243184F8E330A4F8D6
:103D20002633A4F81234A4F828332260A4F82A33E6
:103D3000C4F8D41084F82C33C4F8DC1084F82D3384
:103D4000A4F8E0A084F82E33A4F85434A4F856362E
:103D5000A4F85836A4F85A3684F85C3684F85D36F0
:103D600084F85E363370A4F82431A4F82633A4F81E
:103D70002833A4F82A3384F82C3384F82D3384F8BC
:103D80002E3384F8E2706260C4E90293C4E904331C
:103D9000C4E906832362FEF76FF900283ED194F848
:103DA0002E3303F0FF05CBBB204684F82D73FFF7BD
:103DB00066FF2C4A2C4BC4F80424C4F80C244FF49E
:103DC000843204F54D70A4F85454C4F83033A4F888
:103DD0005656A4F808A4A4F85856C4F81024A4F819
:103DE0005A56C4F8343384F85C56C4F8389384F8CF
:103DF0005D56C4F83C5384F85E56C4F84053C4F88A
:103E00004453C4F84883C4F84C53C4F85053FEF7E5
:103E100033F968B11548FFF74EFF13E00C48FFF780
:103E20004AFF1248FFF747FF4FF0FF30BDE8F08729
:103E300094F85E36002BEDD104F54C7084F85D7675
:103E4000FFF71DFF012300203370EFE7C4020020BD
:103E5000480300204603002000080140A809002074
:103E600000380140000C0140004800407806002066
:103E70002DE9F04F7F4D03682A688DB093427ED0C4
:103E8000D5F83023934240F097804FF001084FF46B
:103E90004C7606FB08F61022002108A800F0D8FB9B
:103EA000AB597549AA198B426CD1744B9A6942F48B
:103EB00080429A619A6902F480420392039A9A6955
:103EC00042F004029A619B6903F004030493049B8B
:103ED0004FF44C7707FB08F7EC19B4F8D83008A971
:103EE0000893022309930323D4F8D4000B93FDF71E
:103EF000B5FBB4F8E03000200893012308A9CDE910
:103F00000903D4F8DC00FDF7A9FB94F8E230002B9C
:103F100000F08A80594B4FF44C795A694FF0800A6F
:103F200042F001025A615B69EA5903F00103079309
:103F3000079B514B09FB08F99A420ABF03F5484316
:103F40004F4B5833E364143BC4F89030002305EB27
:103F50000904C4E91433C4E916A3236620224FF4EC
:103F6000805306F14C0BAB44C4E919235846FDF7C6
:103F7000DDF9074618B3012384F82E331CE04FF017
:103F8000000884E73F498B4213D13C4BDA6942F485
:103F90008022DA61DA6902F480220592059A9A6930
:103FA00042F008029A619B6903F008030693069B9E
:103FB0008EE7012382F82E330DB0BDE8F08F10227A
:103FC000331D90362B442E44C4E927A02367C4E94F
:103FD0002520C4E92900C4F8AC00C4F840B030463C
:103FE0000193FDF7A3F9019B824620B15846FDF7E6
:103FF000CFF92764BFE755F80920C4F8B4301E4B49
:10400000E6639A424FF00601024620D10E20FDF7EA
:1040100021F90E20FDF752F90F2052460621FDF737
:1040200019F90F20FDF74AF94FF44C7303FB08F818
:10403000114B55F8082006219A424FF0000213D187
:104040002520FDF707F92520FDF738F9B4E70C2006
:10405000FDF700F90C20FDF731F90D20524606213D
:10406000FDF7F8F80D20DDE72720FDF7F3F827200E
:10407000EAE700BF4803002000380140001002407A
:10408000300002400048004070B52A4C03682268A6
:10409000934205D0D4F83023934249D1012600E061
:1040A00000264FF44C757543631993F8E2304BB119
:1040B00005F14C002044FDF76BF905F19000204418
:1040C000FDF766F94FF44C7575436619B6F8D810CC
:1040D000D6F8D400FDF7A2FBB6F8E010D6F8DC0065
:1040E000FDF79CFB6359144A934210D102F55842E4
:1040F0009369252023F480439361FDF7EDF80E20AA
:10410000FDF7EAF80F20BDE87040FDF7E5B80B4A6F
:1041100093420DD102F5E432D369272023F48023A2
:10412000D361FDF7D9F80C20FDF7D6F80D20EAE7AA
:1041300070BD00BF48030020003801400048004027
:1041400007B50B4890F8E23063B143681A68D206AD
:1041500008D5002201921A6801925B680193019BC5
:10416000FFF774FD034803B05DF804EBFEF7E6B813
:10417000480300204C03002007B5134890F85D3633
:104180004BB9D0F834331A6800925B680093009BF7
:1041900003B05DF804FB90F812347BB1D0F83433EF
:1041A0001A68D2060AD5002201921A6800F54C70EE
:1041B00001925B680193019BFFF748FD034803B040
:1041C0005DF804EBFEF7BAB8480300207C06002037
:1041D0000148FDF7AFB900BFD803002010B5054C6A
:1041E00004F14C00FDF7A6F92046BDE81040FFF7AA
:1041F0002DBD00BF48030020044890F85D361BB178
:1042000000F57070FDF796B9704700BF48030020B5
:1042100010B5074C94F85D364BB104F55F70FDF7AF
:1042200089F904F54C70BDE81040FFF70FBD10BDD3
:10423000480300200F4A9042A2F1040217D002F571
:104240004D73984212D101234FF44C7101FB0323AB
:10425000B3F82813B3F82A230A44C2F30802A3F8D8
:1042600028230022A3F82A2383F82C237047002355
:10427000EAE700BF4C03002070B5124D0646A84285
:10428000A5F104051AD005F54D73984218D1012106
:104290004FF44C744C432B1993F82D2382B193F8AF
:1042A000E2206AB993F8E300E334FFF7B9FC291977
:1042B0003046BDE870400122FEF702BA0021E7E770
:1042C00070BD00BF4C03002073B51A4D0646A842CE
:1042D000A5F1040505D005F54D73984227D10124B9
:1042E00000E000244FF44C7000FB045090F82D3394
:1042F000EBB10023019333681A6801925B68019364
:10430000019B96F84230202B01D1FFF7B8FC96F8BC
:104310004130202B0BD14FF44C7303FB045494F821
:104320002C3323B10023A4F82A3384F82C3302B0B1
:1043300070BD00BF4C03002030B5304B1B789BB1E3
:104340002F4A92F82D33A3B1B2F82633B2F828439E
:104350009BB2A4B2A34209D31B1B9BB2C3F5FF734C
:1043600001339BB2994204D9012037E003F5007371
:10437000F2E792F85D368BB1B2F85636B2F858468D
:104380009BB2A4B2A34238BF03F500731B1B9BB2C0
:10439000C3F5FF7301339BB29942E5D892F82D33F0
:1043A0009BB10446231A9BB299420ED9B2F8263328
:1043B00014F8015B134483F82651B2F82633013315
:1043C000C3F30803A2F82633ECE792F85D3623B175
:1043D0000446231A9BB2994201D8002030BDB2F89E
:1043E000563614F8015B134483F85654B2F8563627
:1043F0000133C3F30803A2F85636EAE7A809002000
:1044000048030020F8B52D4B1B78002B50D02C4FC3
:1044100000243D463E1D4FF44C7303FB047393F898
:104420002D23002A43D093F82C23002A3FD1B3F840
:104430002623B3F8283392B29BB29A4238BF02F5D2
:104440000072D21A92B292B34FF44C7303FB04532E
:10445000B3F8281301201144B1F5007F4FF44C71DB
:1044600001FB04F1C8BFB3F8282305EB0103C4BF67
:10447000C2F5007292B283F82C03A3F82A2393F8B2
:10448000E2C0B3F82833701801F593711944294438
:10449000BCF1000F0FD0FDF751FE40B14FF44C734B
:1044A000002203FB0453A3F82A2383F82C2304B12E
:1044B000F8BD0124AFE7FDF728FEEEE7A8090020CC
:1044C0004803002010B5124B1B7803F0FF00D3B156
:1044D00000214FF44C740F4804FB010292F82D3375
:1044E0007BB192F82C338BB9B2F82633B2F828237B
:1044F0009BB292B2934238BF03F500739B1A9BB2F2
:1045000023B909B1002010BD0121E5E70120FAE738
:10451000A80900204803002007B5094B1A7802F0CB
:10452000FF035AB1074B1A88CDE90001064B8021E1
:10453000064800F00DF803B05DF804FB1846FAE7F2
:10454000A8090020C402002046030020C602002063
:104550002DE9F0478046BDF82400089F80B34FF056
:10456000000900F1FF3E1C88944229D025464FF0F7
:10457000000C18F80500013595FBF1F601FB165605
:104580000D28B5B232D00A280BD10020AC4207EB7F
:10459000000C17D11C808CF800900028E3D0BDE8F7
:1045A000F0870CF1010CAA421FFA8CFCE1D14A1EE3
:1045B000944505DB013494FBF1F201FB12411980B3
:1045C0000020ECE704F1010A18F804609AFBF1F40A
:1045D00001FB14A40D2EA4B2D8D00A2ED6D070455B
:1045E000BEBF013080B28CF80060CFE7AA42CCD0C9
:1045F00018F806000A28C8D1013696FBF1F501FB30
:104600001566B5B2C1E7000070B500250C4E0D4C23
:10461000A41BA410A54209D103F0ECFC00250A4E0E
:104620000A4CA41BA410A54205D170BD56F8253034
:1046300098470135EEE756F8253098470135F2E7FF
:1046400060860008608600086086000864860008AE
:1046500003460244934200D1704703F8011BF9E777
:10466000002B2DE9F0471E46BBBF03F100431E4659
:1046700000232D2388B0149FDDE9121A27F02007AC
:10468000462F1446109D0B7004D0452F00D10135E4
:10469000022300E0032307AA049206AACDE902A29E
:1046A000CDE900352246334601F03AFC472F8046DB
:1046B00002D1119BDB0726D5462F08EB050911D146
:1046C00098F80030302B0AD10022002320463146D2
:1046D000FCF774F918B9C5F10105CAF80050DAF809
:1046E000003099440022002320463146FCF766F949
:1046F00038B93022079B4B4505D2591C07911A70D7
:10470000F8E7CDF81C904046079B159AA3EB0803E9
:10471000136008B0BDE8F087F7B50029B4BF2D23BA
:104720002B230446B8BF4942092904F8022B4370E1
:1047300021DD0DF107031F460A2691FBF6F506FB66
:104740001511092D01F1300103F8011C03F1FF32AD
:10475000294609DC3031023B02F8011CBB422246EB
:1047600004D3101A03B0F0BD1346E6E713F8012B8B
:1047700004F8012BF2E7302319448370021DC17045
:10478000EFE700002DE9F04F91B00C461A9F9346D9
:104790001E46054602F0A6FC036818460993FBF77F
:1047A000E1FC00230E933B680A90073323F00703D4
:1047B00003F1080294F81880D4F800A03A60D3E915
:1047C0000023C4E91223D4E9127929F000430B93A2
:1047D0004FF0FF32A64B38460B99FCF721F968BB26
:1047E0004FF0FF32A24B38460B99FCF7FBF828BB81
:1047F0000022002338464946FCF7EAF810B12D2381
:1048000084F843309B4F9C4BB8F1470F98BF1F462D
:1048100003234FF0000923612AF00403236000966C
:104820005B460FAA2146284600F0E2F9013040F02D
:1048300090804FF0FF3011B0BDE8F08F3A464B4604
:1048400038464946FCF7ECF810B18C4F8C4BDBE74F
:1048500063684AF48062591C0DA80EA940D1062352
:1048600063604FF0000C0DF13303CDE90123636861
:104870002260CDE9030800933A464B46CDE9051C7A
:104880002846FFF7EDFE08F0DF03472B074609D166
:104890000D9BD81C02DB6268934247DDA8F1020839
:1048A0005FFA88F8B8F1650F0D9924D801394246AE
:1048B00004F150000D91FFF72FFF0E9A8146131857
:1048C000012A236102DC2268D10701D5013323616B
:1048D0009DF83330002BA2D02D2384F843309EE77F
:1048E000B8F1670F00F06E81B8F1470FB9D1002B16
:1048F000B7D10123B4E7B8F1660F19D10029636875
:104900000CDD216113B92268D20702D501330B44B3
:1049100023610D9B4FF00009A365D9E713B9226805
:10492000D00701D50233F3E70123F1E74FF0670821
:10493000DDE90D32934205DB22682361D107E8D51A
:104940000133E5E7002BCCBF0123C3F1020313447D
:10495000DEE723685A0507D423693A4659462846B4
:10496000B047013029D164E7B8F1650F40F2D78034
:10497000D4E9120100220023FCF720F888B30123B8
:10498000404A59462846B04701303FF452AFDDE96E
:104990000D239A4202DB2368D8070ED5DDE90923EF
:1049A00059462846B04701303FF443AF002704F191
:1049B0001A080E9B013BBB4209DC23689F0700F1EC
:1049C000FD80E0680F9B9842B8BF184633E701238B
:1049D000424659462846B04701303FF42AAF0137D6
:1049E000E7E70D9B002B2BDC0123264A594628467E
:1049F000B04701303FF41DAF0D9B23B90E9B13B997
:104A00002368D907D9D5DDE9092359462846B04797
:104A100001303FF40EAF4FF0000804F11A090D9B6E
:104A20005B42434501DC0E9B97E701234A4659460A
:104A30002846B04701303FF4FCAE08F10108EEE72C
:104A40000E9AA36D9A42A8BF1A46002A904607DD27
:104A5000134659463A462846B04701303FF4E9AE7E
:104A600004F11A034FF0000A28EAE8780B9315E0E6
:104A7000FFFFEF7F97830008938300089F83000860
:104A80009B830008A383000801230B9A59462846FC
:104A9000B04701303FF4CDAE0AF1010AD4F8589086
:104AA000A9EB08035345EFDCDDE90D239A424F449F
:104AB00014DB2368DA0711D40E9B0D99A3EB0902CE
:104AC000A3EB01099145A8BF9146B9F1000F0DDC98
:104AD000002729EAE97904F11A0818E0DDE9092339
:104AE00059462846B0470130E6D1A2E64B463A4641
:104AF00059462846B0470130EAD19AE6012342469A
:104B000059462846B04701303FF493AE0137DDE9FE
:104B10000D239B1AA3EB0903BB42EFDC4DE70E9A72
:104B2000012A01DCDB0738D501233A4659462846DD
:104B3000B04701303FF47DAEDDE9092359462846F0
:104B4000B047013007F101073FF473AED4E9120119
:104B50000E9B002203F1FF380023FBF72FFFC0B9A3
:104B600043463A4659462846B04701300DD160E6E3
:104B70000123424659462846B04701303FF459AE1A
:104B800001370E9B013BBB42F2DC4B4604F1500265
:104B9000E4E6002704F11A08F3E70123E1E7012323
:104BA000424659462846B04701303FF442AE0137ED
:104BB000E3680F9A9B1ABB42F1DC02E7002704F17D
:104BC0001908F5E7002B3FF494AE4FF0000CCDE947
:104BD000051C0DF133012260CDE90308CDE9012167
:104BE00000933A464B462846FFF73AFD07464FE604
:104BF0002DE9F04791461F468A680B6906469342A5
:104C0000B8BF1346C9F8003091F843200C46DDF8D0
:104C1000208012B10133C9F800302368990642BFE1
:104C2000D9F800300233C9F80030256815F00605C0
:104C300007D104F1190AE368D9F800209B1AAB42A6
:104C400029DC94F843302268003318BF0123920610
:104C50002ED404F1430239463046C047013021D0FA
:104C60002368E56803F00603042B18BF0025D9F874
:104C700000204FF0000908BFAD1AA368226908BFE1
:104C800025EAE5759342C4BF9B1AED181A344D45C9
:104C90001AD1002008E00123524639463046C04769
:104CA000013003D14FF0FF30BDE8F0870135C2E796
:104CB0003020E11881F843005A1C94F84510224432
:104CC000023382F84310C4E70123224639463046B6
:104CD000C0470130E6D009F10109D8E72DE9F043DA
:104CE00001F1430C0C46097E85B06E291746064635
:104CF00098460C9A00F0B38022D8632936D00AD89F
:104D0000002900F0B980582900F0838004F14205A1
:104D100084F8421032E0642901D06929F6D1206874
:104D20001368050603F104012AD51B681160002BE6
:104D300003DA2D225B4284F843206F480A2239E0CF
:104D4000732900F09D8008D86F2920D07029DDD10B
:104D5000236843F02003236003E0752917D07829E6
:104D6000D4D17823654884F8453055E0136804F1C0
:104D70004205191D1B68116084F8423001238CE044
:104D80001B6810F0400F116018BF1BB2CFE713680B
:104D90002568181D1060280601D51B6802E068060A
:104DA000FBD51B886F2914BF0A2208225248002114
:104DB00084F843106568002DA560C0F295802168D5
:104DC00021F004012160002B3DD1002D40F08E80A8
:104DD0006546082A0BD12368DB0708D5236962687A
:104DE0009A42DEBF302305F8013C05F1FF35ACEBFC
:104DF00005032361CDF800803B4603AA21463046D7
:104E0000FFF7F6FE01304DD14FF0FF3005B0BDE8A1
:104E1000F083394884F84510136821681D1D1B680C
:104E200015600A060BD5CA0744BF41F02001216076
:104E30001BB9226822F0200222601022B7E74D063B
:104E400048BF9BB2EFE76546B3FBF2F102FB1133BB
:104E5000C35C05F8013D0B460029F5D1B9E713689D
:104E60002568181D6169106028061B6801D5196046
:104E700002E06A06FBD51980002365462361B9E785
:104E80001368191D11601D6862680021284602F030
:104E900051F908B1401B606063682361002384F806
:104EA0004330A7E723692A4639463046C0470130D8
:104EB000AAD023689B0713D4E068039B9842B8BF2D
:104EC0001846A3E701234A4639463046C047013019
:104ED0009AD00135E368039A9B1AAB42F2DCEBE708
:104EE000002504F11909F5E7002BACD1037804F192
:104EF000420584F842306CE7A5830008B6830008B9
:104F00000CB430B5174B0C1E9DB01D6808DA8B230E
:104F10004FF0FF302B601DB0BDE8304002B070474D
:104F20004FF40273ADF814300CBF234604F1FF3385
:104F3000049307934FF6FF7302900690ADF8163076
:104F4000209A21AB02A92846019302F013FE431CCC
:104F5000BCBF8B232B60002CDDD00022029B1A707B
:104F6000D9E700BF2400002010B56AB101398418C8
:104F700010F8013B11F8012F934203D1A04201D058
:104F8000002BF5D1981A10BD1046FCE72DE9F04131
:104F90000F46904602F0B2FB04460D46B8F1000FF2
:104FA00011D0C7F30A53C3F16B03002B0BDD0024B0
:104FB0001B0503F17F5505F5401522462B46FBF7EF
:104FC00095FA04460D4620462946BDE8F0810000CA
:104FD0002DE9F04F1F460023A1B0834638460E4608
:104FE00017921C9302F07BF880460068FBF7BAF832
:104FF0004FF0000904464FF0000A1B961B9B1A78DD
:105000000D2A32D8092A36D2002A3ED000230D9329
:105010001B9D2B78302B40F0AC806B78582B01D047
:10502000782B67D10D9B029701931CAB0093894AA3
:105030001DAB1BA9584601F077FD10F0070406468A
:1050400005D0062C2BD1002301351B950D93179B02
:10505000002B40F0A6850D9BE3B14A460AF10043C0
:105060001046194621B0BDE8F08F2B2A15D02D2A05
:1050700004D0202ACAD101331B93BFE701220D922D
:105080005A1C1B925B78002BC2D1179B1B96002BDE
:1050900040F085854A465346E2E70022EFE71C9A36
:1050A0003AB135211EA802F01CFC1C99584602F0AA
:1050B0008EF8013C042C06D8DFE804F00A0314172C
:1050C0000A00DDE91E9A3107C1D54AF0004ABEE761
:1050D0001D9ADDE91E9302F2334223F4801343EA62
:1050E000025AF0E7DFF870A1EDE76FF0004A4FF0E9
:1050F000FF39E8E71B9B5A1C1B925B78302BF9D0D9
:10510000002BA4D0012300250A2207931B9B0695A0
:10511000089304951B980778A7F13003D9B20929A1
:1051200029D92246D8F80010FFF71EFF002831D0F9
:1051300000203B460246049C0590652B01D0452B80
:1051400014D124B910B9079B002B9ED000241B9EBC
:10515000731C1B9373782B2B78D02D2B70D04FF0B2
:10516000000CA3F13007092F7CD91B964FF0000EDD
:105170009AE00023C7E7049901300829D7BF0699B0
:1051800002FB053502FB01330693049B1B900133A0
:105190000493BFE71B9B1A191B92049A1B5D002AFC
:1051A00037D00246049CA3F13001092913D901210B
:1051B0000591C2E71B9B01305A1C1B925B78302B78
:1051C000F8D0A3F13102082A00F2F0841B9A089269
:1051D000024600200446B3F1300E00F1010112D066
:1051E0000A440A27214600EB040C8C4513D12118F0
:1051F000082904F10104044419DC0A21069B01FB7F
:1052000003E3069300211B9B581C1B905B78084608
:10521000C9E70498D3E7082901F1010103DC069BE3
:105220007B430693E1E71029D8BF7D43DDE7102CCF
:10523000DCBF0A2101FB05E5E4E70123059381E7D3
:105240004FF0010CB31C1B93B3788AE74FF0000CAE
:10525000F8E700BFC88300080000F07F1B9B5F1CBD
:105260001B975B78302BF9D0A3F13107082F3FF65D
:105270007DAFA3F1300E1B9B09931B9B5F1C1B97FB
:105280005B78A3F13008B8F1090F37D909997F1A73
:10529000082F44F61F6737DCBE45A8BFBE46BCF1E9
:1052A000000F01D0CEF1000E002C51D100287FF468
:1052B000CEAE079A002A7FF4CAAE059A002A7FF480
:1052C000E4AE4E2B27D021DC492B7FF4DEAEA4497F
:1052D0001BA801F05DFE00283FF4D7AE1B9BA1493F
:1052E000013B1BA81B9301F053FE10B91B9B01331C
:1052F0001B93DFF884A24FF00009A8E60A2101FB06
:105300000E3EAEF1300EB8E7BE46C8E7692BDED0E0
:105310006E2B7FF4BAAE94491BA801F039FE002829
:105320003FF4B3AE1B9B1B78282B0ED11EAA8F49CE
:105330001BA801F041FE052807D11F9BDDF87890DE
:1053400043F0FF4A4AF4E00A81E6DFF834A2D2E7EC
:10535000AEEB02030793049B0698002B08BF23467D
:10536000102C0493A046A8BF4FF01008FBF744F898
:10537000092C81468A4613DC079B002B3FF467AE5D
:10538000079B7EDD162B65DC794A02EBC30E4A468D
:10539000DEE900015346FBF7A9F881468A4656E646
:1053A000734B03EBC80353E91223FBF79FF8064640
:1053B00028460F46FBF720F802460B463046394692
:1053C000FAF7DEFE0F2C81468A46D5DD079BA4EB5B
:1053D00008089844B8F1000F40F39A8018F00F03C2
:1053E0000AD063494A4601EBC301D1E900015346A3
:1053F000FBF77CF881468A4638F00F0877D0B8F57D
:105400009A7F4BDD4FF00008CDF81080CDF820805A
:10541000CDF8188022234FF00009DFF85CA1CBF80B
:105420000030089B002B3FF412AE1C99584601F047
:10543000CEFE0699584601F0CAFE0499584601F07E
:10544000C6FE0899584601F0C2FE4146584601F092
:10545000BEFEFCE5079AC4F125039342B6DB444D3A
:10546000C4F10F0405EBC4014A46D1E900015346DB
:10547000FBF73CF8079B1C1B05EBC405D5E9002393
:1054800089E713F1160FA1DB394A4846A2EBC302A4
:10549000D2E900235146FBF753F97EE70023484643
:1054A00051461D46334E4FEA2818B8F1010F21DC52
:1054B0000BB181468A462F4BAAF1547A03EBC505FE
:1054C0004A46D5E900015346FBF710F82A4B0A4635
:1054D0000B402A4981468B4294D8A1F580118B421A
:1054E00086BF4FF0FF39DFF89CA002F1547A002309
:1054F00005937BE018F0010F06D006EBC503D3E956
:105500000023FAF7F3FF012301354FEA6808CCE7DF
:10551000EDD0C8F1000818F00F020AD0144B48462D
:1055200003EBC2035146D3E90023FBF709F9814697
:105530008A465FEA2818DAD0B8F11F0F24DD4FF051
:105540000008CDF81080CDF82080CDF818802223F7
:105550004FF000094FF0000ACBF8003061E700BFC0
:10556000988300081B840008A0830008DC830008DF
:1055700058840008308400080000F07F0000A07C00
:105580000000F8FFFFFFEF7F18F0100318BF6A2339
:105590004846059351460023A14DB8F1000F00F392
:1055A00013810BB181468A46059BBBB1CAF30A53EE
:1055B000C3F16B03002B514610DD1F2B40F310810C
:1055C000342BD8BF4FF0FF324FF00009CFBF4FF060
:1055D0005C7A203B02FA03F303EA010A002200236B
:1055E00048465146FBF7EAF90028A8D1069B049AE1
:1055F000009308992346584601F03BFE0890002886
:105600003FF400AF079A079B002AC3F10003A8BF2D
:1056100000234FF000080E9322EAE2731693CDF8B0
:105620001080089B5846596801F09DFD069000289F
:105630003FF4F0AE089B0C301A6903F10C01023202
:10564000920001F085FD1EAB01931DAB00934A460D
:1056500053465846CDE90A9A02F0C6F81C90002835
:105660003FF4D8AE0121584601F08FFE0490034666
:1056700000283FF4CFAE1D9D1E9A002DABBF0E9BA0
:10568000169BEE185C1B059BA8BF169CA5EB03059B
:105690001544644B05F1FF35B8BF0E9E9D42C2F123
:1056A000360280F2AF805B1B1F2BA2EB03024FF090
:1056B000010700F39C80002507FA03F30F93B71846
:1056C000059BBE4214441C443346A8BF3B46A3423C
:1056D000A8BF2346002BC2BFFF1AE41AF61A0E9B7E
:1056E000BBB11A460499584601F0EEFE049000281A
:1056F0003FF490AE01461C9A584601F04FFE0990C7
:1057000000283FF487AE1C99584601F060FD099BC4
:105710001C93002F7ADC079B002B08DD169A069954
:10572000584601F0D1FE069000283FF473AE002CDD
:1057300008DD22460699584601F014FF069000281D
:105740003FF468AE002E08DD32460499584601F059
:1057500009FF049000283FF45DAE069A1C99584654
:1057600001F06EFF804600283FF454AE0024C36869
:105770000499C4600C9301F049FFA04254DA0C9BD9
:10578000F3B9B9F1000F1BD1CAF31303C3B92AF05F
:1057900000431B0D1B05B3F1D66F11D9D8F8143097
:1057A0001BB9D8F81030012B0ADD414601225846BA
:1057B00001F0D8FE0499804601F028FF002868DC3B
:1057C000059B002B72D130E618F0010F04D0D5E90B
:1057D0000023FAF78BFE01234FEA68080835DCE660
:1057E0004FF0FF3202FA03F303EA0909F6E6C5F1C6
:1057F0007F4505F57F0505F57B45E23507FA05F59B
:105800000F975CE7012300250F9358E73A461C9950
:10581000584601F0A7FE1C9000287FF47CAFF9E504
:10582000F083000802FCFFFFCDF824A040F089803F
:105830000C9ACAF3130342B3AF4A934256D1059B65
:105840004846EBB15346AD4A4FF0FF311A40B2F132
:10585000D46F18D8120DC2F16B0301FA03F398420A
:1058600044D1A74B099A9A4202D101303FF4D2ADFC
:10587000A24B099A4FF000091A4002F5801A9FE7DF
:105880004FF0FF33EBE70B46E9E77BBBB9F1000FC5
:105890002CD105995346994AF1B102EA0A01B1F1B6
:1058A000D66F19DCB1F15C7F7FF751AE0023954ACA
:1058B0004846CDE914325146DDE91423FAF716FEC5
:1058C00081468A4600297FF4B0AD00287FF4ADAD53
:1058D0002223CBF80030A8E51340A3F580136FEA2C
:1058E000135A4FF0FF396FEA0A5A69E79DB1099BD5
:1058F0001D423FF465AF0C9B059A4846514673B173
:10590000FFF744FB02460B46DDE90A01FAF738FCD3
:1059100081468A4654E70F9B13EA090FE9E7FFF730
:1059200035FB02460B46DDE90A01FAF727FC0022A7
:10593000002381468A46FBF741F800287FF407AE32
:105940003EE70499404601F09EFF00224FF080435D
:1059500006460F46FBF746F8002875D00C9B002B37
:1059600047D00026684F684D099B23F000431B0D6C
:105970001B050F930F9A654B9A4240F0CF80DDE9EB
:105980000A23CDE91423099B4846A3F1547A5146D2
:1059900001F0B4FE02460B4630463946FAF7A6FD42
:1059A0004A465346FAF7ECFB0B465449584A19400D
:1059B000914281465ED90B9B02F15472934203D10E
:1059C0000A9B01333FF426AD4FF0FF39DFF830A1D9
:1059D0001C99584601F0FBFB0699584601F0F7FB6D
:1059E0000499584601F0F3FB4146584601F0EFFB9D
:1059F00017E6B9F1000F19D1099BC3F31303E3B9FB
:105A00000022414B30463946FAF7E2FFC8B900227E
:105A1000404B30463946FAF769FD04460D4605F11C
:105A2000004318941993DDE918679DE7B9F1010F58
:105A300003D1099B002B3FF48AAD0026364F00248A
:105A400091E70C9C334DEAE7324B00223046394651
:105A5000FAF74CFD0C9B04460D4633B901F10043A7
:105A600010901193DDE910677EE702460B46CDE901
:105A70001023F7E703F1547A059B002BA8D12AF0F5
:105A800000431B0D0F9A1B059A425646A0D129468A
:105A90002046FAF7DBFFFAF7BFFC0B460246294621
:105AA0002046FAF76BFB0C9B04460D4633B9B9F15F
:105AB000000F03D1CAF31306002E6AD00AA3D3E95C
:105AC000002320462946FAF783FF00287FF4ADAC77
:105AD00007A3D3E9002320462946FAF797FF0028B9
