:020000040800F2
:100000000050002025AE00086DAE00086DAE00085F
:100010006DAE00086DAE00086DAE00080000000077
:100020000000000000000000000000006DAE0008AD
:100030006DAE0008000000006DAE00080D5900080C
:100040006DAE00086DAE00086DAE00086DAE000824
:100050006DAE00086DAE00086DAE00086DAE000814
:100060006DAE00086DAE00086DAE00086DAE000804
:1000700055360008613600084560000851600008E8
:100080006DAE00086DAE00086DAE00086DAE0008E4
:100090006DAE00086DAE00086DAE00086DAE0008D4
:1000A0006DAE00086DAE00086DAE00086DAE0008C4
:1000B000115900086DAE0008FD6500086DAE00081E
:1000C0006DAE00086DAE00086DAE00086DAE0008A4
:1000D0006DAE0008B55F00086DAE0008ED5F00086A
:1000E0006DAE00086DAE00086DAE000800000000A7
:1000F0000000000000000000000000000000000000
:0C01000000000000000000005FF808F1A3
:1001100010B5054C237833B9044B13B10448AFF341
:1001200000800123237010BD580200200000000051
:100130007CAE000808B5034B1BB103490348AFF37D
:10014000008008BD000000005C0200207CAE0008BA
:1001500010F8012B11F8013B012A28BF9A42F7D071
:10016000D01A7047034613F8012B002AFBD1181A46
:100170000138704781F0004102E000BF83F0004386
:1001800030B54FEA41044FEA430594EA050F08BF32
:1001900090EA020F1FBF54EA000C55EA020C7FEAF6
:1001A000645C7FEA655C00F0E2804FEA5454D4EB73
:1001B0005555B8BF6D420CDD2C4480EA020281EA3D
:1001C000030382EA000083EA010180EA020281EA75
:1001D0000303362D88BF30BD11F0004F4FEA0131C7
:1001E0004FF4801C4CEA113102D0404261EB4101D6
:1001F00013F0004F4FEA03334CEA133302D052425C
:1002000063EB430394EA050F00F0A780A4F1010417
:10021000D5F1200E0DDB02FA0EFC22FA05F2801851
:1002200041F1000103FA0EF2801843FA05F3594137
:100230000EE0A5F120050EF1200E012A03FA0EFCB6
:1002400028BF4CF0020C43FA05F3C01851EBE371E0
:1002500001F0004507D54FF0000EDCF1000C7EEBFD
:1002600000006EEB0101B1F5801F1BD3B1F5001F3B
:100270000CD349085FEA30004FEA3C0C04F101045A
:100280004FEA445212F5800F80F09A80BCF1004F83
:1002900008BF5FEA500C50F1000041EB045141EA05
:1002A000050130BD5FEA4C0C404141EB010111F406
:1002B000801FA4F10104E9D191F0000F04BF0146B1
:1002C0000020B1FA81F308BF2033A3F10B03B3F18F
:1002D00020020CDA0C3208DD02F1140CC2F10C021F
:1002E00001FA0CF021FA02F10CE002F11402D8BF7D
:1002F000C2F1200C01FA02F120FA0CFCDCBF41EA49
:100300000C019040E41AA2BF01EB0451294330BD17
:100310006FEA04041F3C1CDA0C340EDC04F11404F4
:10032000C4F1200220FA04F001FA02F340EA0300CB
:1003300021FA04F345EA030130BDC4F10C04C4F111
:10034000200220FA02F001FA04F340EA03002946F1
:1003500030BD21FA04F0294630BD94F0000F83F43B
:10036000801306BF81F480110134013D4EE77FEA1E
:10037000645C18BF7FEA655C29D094EA050F08BF6A
:1003800090EA020F05D054EA000C04BF194610464B
:1003900030BD91EA030F1EBF0021002030BD5FEA8F
:1003A000545C05D14000494128BF41F0004130BDB7
:1003B00014F580043CBF01F5801130BD01F000450B
:1003C00045F0FE4141F470014FF0000030BD7FEA7E
:1003D000645C1ABF194610467FEA655C1CBF0B4679
:1003E000024650EA013406BF52EA033591EA030F90
:1003F00041F4002130BD00BF90F0000F04BF002188
:10040000704730B54FF4806404F132044FF00005BA
:100410004FF0000150E700BF90F0000F04BF002133
:10042000704730B54FF4806404F1320410F0004599
:1004300048BF40424FF000013EE700BF42004FEA94
:10044000E2014FEA31014FEA02701FBF12F07F4311
:1004500093F07F4F81F06051704732F07F4208BFC8
:10046000704793F07F4F04BF41F40021704730B5CF
:100470004FF4607401F0004521F000411CE700BF1B
:1004800050EA010208BF704730B54FF000050AE09E
:1004900050EA010208BF704730B511F0004502D59F
:1004A000404261EB41014FF4806404F132045FEAA1
:1004B000915C3FF4D8AE4FF003025FEADC0C18BF4A
:1004C00003325FEADC0C18BF033202EBDC02C2F13C
:1004D000200300FA03FC20FA02F001FA03FE40EACE
:1004E0000E0021FA02F11444BDE600BF70B54FF0D2
:1004F000FF0C4CF4E06C1CEA11541DBF1CEA1355B0
:1005000094EA0C0F95EA0C0F00F0DEF82C4481EA17
:10051000030621EA4C5123EA4C5350EA013518BF37
:1005200052EA033541F4801143F4801338D0A0FB24
:1005300002CE4FF00005E1FB02E506F00042E0FBD1
:1005400003E54FF00006E1FB03569CF0000F18BFD7
:100550004EF0010EA4F1FF04B6F5007F64F540747F
:1005600004D25FEA4E0E6D4146EB060642EAC62112
:1005700041EA55514FEAC52040EA5E504FEACE2E7F
:10058000B4F1FD0C88BFBCF5E06F1ED8BEF1004F82
:1005900008BF5FEA500E50F1000041EB045170BDFE
:1005A00006F0004646EA010140EA020081EA030142
:1005B000B4EB5C04C2BFD4EB0C0541EA045170BD3E
:1005C00041F480114FF0000E013C00F3AB8014F1B8
:1005D000360FDEBF002001F0004170BDC4F1000401
:1005E000203C35DA0C341BDC04F11404C4F1200582
:1005F00000FA05F320FA04F001FA05F240EA0200DD
:1006000001F0004221F0004110EBD37021FA04F612
:1006100042EB06015EEA430E08BF20EAD37070BDCC
:10062000C4F10C04C4F1200500FA04F320FA05F02B
:1006300001FA04F240EA020001F0004110EBD3702D
:1006400041F100015EEA430E08BF20EAD37070BD9D
:10065000C4F1200500FA05F24EEA020E20FA04F376
:1006600001FA05F243EA020321FA04F001F0004125
:1006700021FA04F220EA020000EBD3705EEA430E96
:1006800008BF20EAD37070BD94F0000F0FD101F0C5
:100690000046400041EB010111F4801F08BF013CFE
:1006A000F7D041EA060195F0000F18BF704703F03C
:1006B0000046520043EB030313F4801F08BF013DC3
:1006C000F7D043EA0603704794EA0C0F0CEA13557F
:1006D00018BF95EA0C0F0CD050EA410618BF52EA39
:1006E0004306D1D181EA030101F000414FF000003F
:1006F00070BD50EA410606BF1046194652EA43064D
:1007000019D094EA0C0F02D150EA013613D195EAC0
:100710000C0F05D152EA03361CBF104619460AD108
:1007200081EA030101F0004141F0FE4141F4700112
:100730004FF0000070BD41F0FE4141F4780170BD02
:1007400070B54FF0FF0C4CF4E06C1CEA11541DBF67
:100750001CEA135594EA0C0F95EA0C0F00F0A7F869
:10076000A4EB050481EA030E52EA03354FEA013196
:1007700000F088804FEA03334FF0805545EA1313A9
:1007800043EA12634FEA022245EA111545EA106571
:100790004FEA00260EF000419D4208BF964244F108
:1007A000FD0404F5407402D25B084FEA3202B61A27
:1007B00065EB03055B084FEA32024FF480104FF4FB
:1007C000002CB6EB020E75EB030E22BFB61A75466F
:1007D00040EA0C005B084FEA3202B6EB020E75EB02
:1007E000030E22BFB61A754640EA5C005B084FEA6A
:1007F0003202B6EB020E75EB030E22BFB61A754637
:1008000040EA9C005B084FEA3202B6EB020E75EB41
:10081000030E22BFB61A754640EADC0055EA060E02
:1008200018D04FEA051545EA16754FEA06164FEA45
:10083000C30343EA52734FEAC2025FEA1C1CC0D1F1
:1008400011F4801F0BD141EA00014FF000004FF07E
:10085000004CB6E711F4801F04BF01430020B4F13F
:10086000FD0C88BFBCF5E06F3FF6AFAEB5EB030CF7
:1008700004BFB6EB020C5FEA500C50F1000041EBF4
:10088000045170BD0EF0004E4EEA113114EB5C04C1
:10089000C2BFD4EB0C0541EA045170BD41F4801194
:1008A0004FF0000E013C90E645EA060E8DE60CEA9C
:1008B000135594EA0C0F08BF95EA0C0F3FF43BAFB9
:1008C00094EA0C0F0AD150EA01347FF434AF95EA70
:1008D0000C0F7FF425AF104619462CE795EA0C0F54
:1008E00006D152EA03353FF4FDAE1046194622E721
:1008F00050EA410618BF52EA43067FF4C5AE50EAFB
:1009000041047FF40DAF52EA43057FF4EBAE12E7EA
:100910004FF0FF3C06E000BF4FF0010C02E000BFCB
:100920004FF0010C4DF804CD4FEA410C7FEA6C5CAE
:100930004FEA430C18BF7FEA6C5C1BD001B050EA51
:10094000410C0CBF52EA430C91EA030F02BF90EA3C
:10095000020F0020704710F1000F91EA030F58BFFB
:10096000994208BF90422CBFD8176FEAE37040F05D
:10097000010070474FEA410C7FEA6C5C02D150EAFB
:10098000013C07D14FEA430C7FEA6C5CD6D152EAB6
:10099000033CD3D05DF8040B704700BF844610467B
:1009A00062468C461946634600E000BF01B5FFF77A
:1009B000B7FF002848BF10F1000F01BD4DF808ED4A
:1009C000FFF7F4FF0CBF012000205DF808FB00BF1B
:1009D0004DF808EDFFF7EAFF34BF012000205DF875
:1009E00008FB00BF4DF808EDFFF7E0FF94BF0120C2
:1009F00000205DF808FB00BF4DF808EDFFF7CEFFC3
:100A000094BF012000205DF808FB00BF4DF808ED01
:100A1000FFF7C4FF34BF012000205DF808FB00BFD2
:100A20004FEA410C7FEA6C5C02D150EA013C0AD1EA
:100A30004FEA430C7FEA6C5C02D152EA033C02D1DC
:100A40004FF0000070474FF0010070474FEA41023D
:100A500012F5001215D211D56FF47873B3EB625210
:100A600012D94FEAC12343F0004343EA505311F037
:100A7000004F23FA02F018BF404270474FF00000C9
:100A8000704750EA013005D111F0004008BF6FF007
:100A9000004070474FF00000704700BF4A0011D27D
:100AA00012F5001211D20DD56FF47873B3EB6252C8
:100AB0000ED44FEAC12343F0004343EA505323FAD4
:100AC00002F070474FF00000704750EA013002D149
:100AD0004FF0FF3070474FF0000070474FEA41027F
:100AE000B2F1E04324BFB3F5001CDCF1FE5C0DD98C
:100AF00001F0004C4FEAC0024CEA5070B2F1004FD6
:100B000040EB830008BF20F00100704711F0804FD8
:100B100021D113F13872BCBF01F00040704741F49D
:100B200080114FEA5252C2F11802C2F1200C10FAA1
:100B30000CF320FA02F018BF40F001004FEAC12385
:100B40004FEAD32303FA0CFC40EA0C0023FA02F329
:100B50004FEA4303CCE77FEA625307D150EA0133FF
:100B60001EBF4FF0FE4040F44000704701F00040CF
:100B700040F0FE4040F40000704700BF80F00040AD
:100B800002E000BF81F0004142001FBF5FEA410365
:100B900092EA030F7FEA226C7FEA236C6AD04FEA65
:100BA0001262D2EB1363C1BFD218414048404140AA
:100BB000B8BF5B42192B88BF704710F0004F40F45C
:100BC000000020F07F4018BF404211F0004F41F478
:100BD000000121F07F4118BF494292EA030F3FD044
:100BE000A2F1010241FA03FC10EB0C00C3F1200357
:100BF00001FA03F100F0004302D5494260EB4000E6
:100C0000B0F5000F13D3B0F1807F06D340084FEA50
:100C1000310102F10102FE2A51D2B1F1004F40EB45
:100C2000C25008BF20F0010040EA030070474900AD
:100C300040EB000010F4000FA2F10102EDD1B0FA78
:100C400080FCACF1080CB2EB0C0200FA0CF0AABF6D
:100C500000EBC25052421843BCBFD040184370470B
:100C600092F0000F81F4000106BF80F40000013211
:100C7000013BB5E74FEA41037FEA226C18BF7FEAE8
:100C8000236C21D092EA030F04D092F0000F08BF2A
:100C90000846704790EA010F1CBF0020704712F011
:100CA0007F4F04D1400028BF40F00040704712F150
:100CB00000723CBF00F50000704700F0004343F0B5
:100CC000FE4040F4000070477FEA226216BF0846EB
:100CD0007FEA23630146420206BF5FEA412390EAAE
:100CE000010F40F4800070474FF0000304E000BFA4
:100CF00010F0004348BF40425FEA000C08BF704755
:100D000043F0964301464FF000001CE050EA010218
:100D100008BF70474FF000030AE000BF50EA01022D
:100D200008BF704711F0004302D5404261EB41011A
:100D30005FEA010C02BF84460146002043F0B6433F
:100D400008BFA3F18053A3F50003BCFA8CF2083A64
:100D5000A3EBC25310DB01FA02FC634400FA02FC6D
:100D6000C2F12002BCF1004F20FA02F243EB020074
:100D700008BF20F00100704702F1200201FA02FCD6
:100D8000C2F1200250EA4C0021FA02F243EB0200C9
:100D900008BF20EADC7070474FF0FF0C1CEAD0520D
:100DA0001EBF1CEAD15392EA0C0F93EA0C0F6FD0CE
:100DB0001A4480EA010C400218BF5FEA41211ED0AC
:100DC0004FF0006343EA501043EA5111A0FB013198
:100DD0000CF00040B1F5000F3EBF490041EAD3716D
:100DE0005B0040EA010062F17F02FD2A1DD8B3F1E9
:100DF000004F40EBC25008BF20F00100704790F058
:100E0000000F0CF0004C08BF49024CEA502040EAA9
:100E100051207F3AC2BFD2F1FF0340EAC25070476F
:100E200040F400004FF00003013A5DDC12F1190FAD
:100E3000DCBF00F000407047C2F10002410021FA1F
:100E400002F1C2F1200200FA02FC5FEA310040F137
:100E5000000053EA4C0308BF20EADC70704792F0B0
:100E6000000F00F0004C02BF400010F4000F013AE8
:100E7000F9D040EA0C0093F0000F01F0004C02BFE3
:100E8000490011F4000F013BF9D041EA0C018FE752
:100E90000CEAD15392EA0C0F18BF93EA0C0F0AD058
:100EA00030F0004C18BF31F0004CD8D180EA01007E
:100EB00000F00040704790F0000F17BF90F0004F17
:100EC000084691F0000F91F0004F14D092EA0C0FF9
:100ED00001D142020FD193EA0C0F03D14B0218BF8C
:100EE000084608D180EA010000F0004040F0FE40D2
:100EF00040F40000704740F0FE4040F4400070476E
:100F00004FF0FF0C1CEAD0521EBF1CEAD15392EAEC
:100F10000C0F93EA0C0F69D0A2EB030280EA010CDC
:100F200049024FEA402037D04FF0805343EA111175
:100F300043EA10130CF000408B4238BF5B0042F1D3
:100F40007D024FF4000C8B4224BF5B1A40EA0C0078
:100F5000B3EB510F24BFA3EB510340EA5C00B3EBAA
:100F6000910F24BFA3EB910340EA9C00B3EBD10F98
:100F700024BFA3EBD10340EADC001B0118BF5FEAEA
:100F80001C1CE0D1FD2A3FF650AF8B4240EBC25013
:100F900008BF20F0010070470CF0004C4CEA5020D4
:100FA0007F32C2BFD2F1FF0340EAC250704740F423
:100FB00000004FF00003013A37E792F0000F00F015
:100FC000004C02BF400010F4000F013AF9D040EA93
:100FD0000C0093F0000F01F0004C02BF490011F427
:100FE000000F013BF9D041EA0C0195E70CEAD1531F
:100FF00092EA0C0F08D142027FF47DAF93EA0C0F06
:101000007FF470AF084676E793EA0C0F04D14B02E9
:101010003FF44CAF08466EE730F0004C18BF31F09B
:10102000004CCAD130F000427FF45CAF31F0004395
:101030007FF43CAF5FE700BF4FF0FF3C06E000BF2E
:101040004FF0010C02E000BF4FF0010C4DF804CD51
:101050004FEA40024FEA41037FEA226C18BF7FEA61
:10106000236C11D001B052EA530C18BF90EA010F63
:1010700058BFB2EB030088BFC81738BF6FEAE170F2
:1010800018BF40F0010070477FEA226C02D15FEA8E
:10109000402C05D17FEA236CE4D15FEA412CE1D0FA
:1010A0005DF8040B704700BF844608466146FFE7C1
:1010B0000FB5FFF7C9FF002848BF10F1000F0FBDA3
:1010C0004DF808EDFFF7F4FF0CBF012000205DF89C
:1010D00008FB00BF4DF808EDFFF7EAFF34BF012021
:1010E00000205DF808FB00BF4DF808EDFFF7E0FFBA
:1010F00094BF012000205DF808FB00BF4DF808ED0B
:10110000FFF7D2FF94BF012000205DF808FB00BF6D
:101110004DF808EDFFF7C8FF34BF012000205DF84F
:1011200008FB00BF4FEA40024FEA41037FEA226C0E
:1011300002D15FEA402C08D17FEA236C02D15FEA3A
:10114000412C02D14FF0000070474FF00100704772
:101150004FEA4002B2F1FE4F0FD34FF09E03B3EBC4
:1011600012620DD94FEA002343F0004310F0004F04
:1011700023FA02F018BF404270474FF0000070475A
:1011800012F1610F01D1420205D110F0004008BFF9
:101190006FF0004070474FF00000704742000ED2E1
:1011A000B2F1FE4F0BD34FF09E03B3EB126209D4A2
:1011B0004FEA002343F0004323FA02F070474FF058
:1011C0000000704712F1610F01D1420202D14FF0CD
:1011D000FF3070474FF00000704700BFF8B50022A5
:1011E000002307460E46FFF7F3FB28B93846314681
:1011F000BDE8F84000F00AB8384606F1004100F0BA
:1012000005F8404261EB4101F8BD00BFD0B50022B6
:101210000D4B06460F46FFF769F9FFF73FFC044602
:10122000FFF7EAF80022094BFFF760F902460B4688
:1012300030463946FEF7A2FFFFF730FC0022234676
:1012400010431946D0BD00BF0000F03D0000F04142
:101250007047000038B50E4B054618784FF47A7386
:10126000B3FBF0F30B4A1068B0FBF3F000F0A2F808
:10127000044658B90F2D09D8024629464FF0FF30D1
:1012800000F042F82046044B1D6038BD0120FCE709
:10129000000000205002002004000020074A08B58A
:1012A0001368032043F01003136000F01BF80F20B5
:1012B000FFF7D0FFFFF7CCFF002008BD0020024061
:1012C000034A044B11681B780B441360704700BF3E
:1012D000EC0D002000000020014B1868704700BF93
:1012E000EC0D0020074A0002D36800F4E06023F40C
:1012F000E0631B041B0C43F0BF6343F40033034360
:10130000D360704700ED00E0174B70B5DC684FF01C
:10131000FF36C4F30224C4F10705042D04F10403CD
:1013200028BF0425062B98BF002406FA05F388BFC2
:10133000033C21EA0303A34006FA04F422EA04046E
:10134000002843EA0403A8BF00F160404FEA0313FA
:10135000B8BF064ADBB2ABBF00F5614000F00F003A
:1013600080F80033135470BD00ED00E014ED00E090
:10137000002808DB0123420900F01F0003FA00F0F7
:10138000014B43F82200704700E100E000280DDB2C
:101390000122430900F01F0002FA00F0044A203342
:1013A00042F82300BFF34F8FBFF36F8F704700BF2A
:1013B00000E100E00138B0F1807F0AD2F021064B55
:1013C000064A586082F823100020072298601A60AD
:1013D00070470120704700BF10E000E000ED00E022
:1013E00010B548B314220168144B0B44B3FBF2F35D
:1013F0009B000364124BC363022380F82130D0E9C1
:1014000001342343C4680A682343046922F47F52E9
:101410002343446922F03002234384692343C4698F
:10142000234313430B6001220023836380F82030A1
:1014300080F82120184610BD0120FCE7F8FFFDBF11
:101440000000024010B508B30168114A0B680A4455
:1014500023F001030B6000230B604B608B60CB60BB
:101460001421B2FBF1F2012192000A4C026401FA4C
:1014700002F2C46362608363C0E90A33C0E90C33DB
:1014800080F8213080F82030184610BD0120FCE79C
:10149000F8FFFDBF00000240F0B590F82040012C9D
:1014A00036D0012490F8215080F82040EDB2A542BA
:1014B0004FF000064FF0020428D180F82140046864
:1014C0008663266826F001062660D0E90F67BD40D6
:1014D0007560636043680568102BC36A0BBFA26028
:1014E000A160E160E2604BB1236843F00E0300208D
:1014F00023602B6843F001032B60F0BD236823F0C9
:1015000004032360236843F00A03F0E780F82060B7
:101510000220F2E790F82130022B06D004238363E7
:10152000002380F82030012070470368C16B1A68DF
:1015300022F00E021A601A6822F001021A600122DB
:10154000036C02FA03F34B60002380F8212080F83B
:10155000203018467047000090F8213010B5022B5B
:1015600003D004238363012010BD03681A6822F0AE
:101570000E021A601A6822F001021A60184A934299
:101580001FD0143293421ED0143293421DD0143215
:1015900093421DD0143293421DD0143293420CBF9B
:1015A0004FF480134FF080730E4A002453600123E0
:1015B00080F82130436B80F820407BB1984720466B
:1015C000D2E70123F0E71023EEE74FF48073EBE757
:1015D0004FF48053E8E74FF48033E5E71846C3E75C
:1015E000080002400000024070B40425C66B026C83
:1015F0003468036895402542196832D04D0730D5CC
:101600001A6896065EBF1A6822F004021A603E4A03
:10161000934219D01432934218D01432934217D007
:101620001432934217D01432934217D0143293429B
:101630000CBF4FF480034FF08063344A5360C36A99
:10164000002B5ED070BC18470423F6E74023F4E774
:101650004FF48063F1E74FF48043EEE74FF48023CB
:10166000EBE702259540254235D08D0733D51A6822
:10167000940606D41A6822F00A021A60012280F841
:101680002120214A934219D01432934218D01432A7
:10169000934217D01432934217D01432934217D08A
:1016A000143293420CBF4FF400134FF00073174AEB
:1016B0005360002380F82030836AC1E70223F6E7F5
:1016C0002023F4E74FF40073F1E74FF40053EEE703
:1016D0004FF40033EBE708259540254211D0090768
:1016E0000FD5196821F00E011960012303FA02F2E7
:1016F0007260836380F82130002380F82030036B10
:101700009EE770BC704700BF080002400000024026
:101710002DE9F74F00242646654BDFF8A4C1DFF81A
:10172000A4E10A6832FA06F502D103B0BDE8F08FF1
:101730004FF0010808FA06F802EA080290457ED147
:101740004D68122D00F0A98000F28280022D00F079
:10175000A18076D8002D00F08880012D00F09880BF
:101760004FF00F09FF2A93BF824606F18045083DDE
:10177000D0F800B092BFB500D0F804B0AD0009FABF
:1017800005F82BEA080804FA05F588BF00F1040AF9
:1017900048EA0505CAF80050D1F804A01AF0805FA5
:1017A0004DD0444F26F00308BD6908F1804845F04C
:1017B0000105BD61BD6908F5803805F00105019599
:1017C00006F0030B019D4FEA8B0BD8F8085009FA7D
:1017D0000BF925EA0909384DA84263D005F5806563
:1017E000A84261D005F58065A8425FD005F5806507
:1017F000A8420CBF0325042505FA0BF545EA0905A7
:10180000C8F808509D681AF4801F14BF154395430B
:101810009D60DD681AF4001F14BF15439543DD6019
:101820005D681AF4003F14BF154395435D601D6861
:101830001AF4803F14BF2A4325EA02021A600136D7
:101840006FE7032D22D0112D8AD1CC68043487E7AD
:101850001A4FBD4209D012D8DFF86C904D4504D024
:1018600009F580394D457FF47BAF8C68C4B1012CFC
:101870000CBFC0F81080C0F81480082470E76545DC
:10188000F3D07545F1D0DFF84490EBE7002467E72B
:10189000CC6865E7CC68083462E7CC680C345FE755
:1018A00004245DE70025A7E70125A5E70225A3E7B6
:1018B0000004014000100240000801400000211017
:1018C0000000311000003210000011100000221042
:1018D0002DE9F74F4FF0040B00234FF0010A4FF0B2
:1018E0000F0800EB0B020192314A31FA03F402D1E6
:1018F00003B0BDE8F08F0AFA03F70F404FD023F092
:10190000030404F1804404F5803403F0030C294DF2
:10191000A6684FEA8C0C08FA0CF9A84209EA060EF0
:101920003FD005F58065A8423DD005F58065A84209
:101930003BD005F58065A84214BF0425032505FAB0
:101940000CF575456FEA07060FD11568354015602F
:10195000556835405560D5683540D5609568354047
:101960009560A56825EA0905A560FF2F93BF074686
:1019700003F18044083CD0F800C08ABFD0F804C00E
:101980009C00A40008FA04F588BF019F0BFA04F438
:101990002CEA050525433D60C4682640C660013336
:1019A000A3E70025CBE70125C9E70225C7E700BF6C
:1019B00000040140000801400AB1016170470904B8
:1019C000FBE7C36801EA030221EA030141EA02419D
:1019D0000161704770B5044618B34CF6CC420368F9
:1019E00041F23C361A6045F255521A6042685A601C
:1019F00082689A60FFF770FC05462368D86810F08B
:101A0000030003D14AF6AA221A6070BDFFF764FCF6
:101A1000401BB042F1D92368DB689B07EDD003205F
:101A2000F3E70120F1E74AF6AA22036800201A60D2
:101A3000704700002DE9F341054608B901203CE05C
:101A40000368DB0710D42B689F075DD42B68190748
:101A500000F194802B685A0700F1BE80E8690028E5
:101A600040F02C81002028E08F4C636803F00C03C9
:101A7000042B07D0636803F00C03082B09D16368BB
:101A8000DE0306D523689C03DDD56B68002BDAD115
:101A9000D4E76B68B3F5803F12D1236843F48033F9
:101AA0002360FFF719FC064623689803CBD4FFF7A1
:101AB00013FC801B6428F7D9032002B0BDE8F08135
:101AC0009BB9236823F480332360236823F48023A5
:101AD0002360FFF701FC064623689903B3D5FFF79F
:101AE000FBFB801B6428F7D9E6E7B3F5A02F23683A
:101AF00003D143F480232360CFE723F480332360B2
:101B0000236823F48023CBE7674C636813F00C0F42
:101B100007D0636803F00C03082B10D16368DA0365
:101B20000DD423689B0702D52B69012B86D123682E
:101B30006A6923F0F80343EAC203236086E72A694F
:101B40005A4B6AB101221A60FFF7C6FB06462368AA
:101B50009F07ECD4FFF7C0FB801B0228F7D9ABE747
:101B60001A60FFF7B9FB0646236898077FF56EAF4A
:101B7000FFF7B2FB801B0228F6D99DE7AA694A4C01
:101B80004B4BDAB101221A60FFF7A6FB0646636AE7
:101B90009B070DD54FF4FA52464B1B68B3FBF2F38B
:101BA000019300BF019B5A1E0192002BF9D151E70E
:101BB000FFF792FB801B0228E9D97DE71A60FFF747
:101BC0008BFB0646636A9F077FF544AFFFF784FBF4
:101BD000801B0228F6D96FE7334CE369D80024D480
:101BE0000127E36943F08053E361E36903F0805325
:101BF0000093009B304E3368D90518D5EB68012B54
:101C000026D1236A43F001032362FFF765FB41F20B
:101C100088368046236A9B073FD5002F3FF41EAFCE
:101C2000E36923F08053E36118E70027E2E73368B4
:101C300043F480733360FFF74FFB80463368DA0567
:101C4000DCD4FFF749FBA0EB08006428F6D933E7A2
:101C5000ABB9236A41F2883823F001032362236A77
:101C600023F004032362FFF737FB0646236A980735
:101C7000D3D5FFF731FB801B4045F7D91CE7052B77
:101C8000236A03D143F004032362BAE723F001037C
:101C90002362236A23F00403B6E7FFF71DFBA0EBE2
:101CA0000800B042B6D907E70010024000004242E7
:101CB0008004424250020020007000402A4B5A68C3
:101CC0001C4602F00C02082A3DD00023274E0228B1
:101CD00033602BD1FFF700FB0746236899011FD41F
:101CE0002B6AB3F5803F05D16268A96822F40032FF
:101CF0000A436260696A62680B4322F474121343F8
:101D0000636001233360FFF7E7FA054623689A0111
:101D10003FF5A8AEFFF7E0FA401B0228F6D9CBE664
:101D2000FFF7DAFAC01B0228D7D9C5E6FFF7D4FAC5
:101D3000054623689B017FF595AEFFF7CDFA401B62
:101D40000228F6D9B8E601283FF4B7AE58682B6AE6
:101D500000F480329A427FF471AE6B6A00F4701026
:101D6000C01A18BF0120A8E60010024060004242DD
:101D70000D494B6803F00C02082A12D10B48C3F33B
:101D80008342DB03825C09D509484B685043094A0A
:101D9000C3F34043D35CB0FBF3F0704706485043B5
:101DA00070470348704700BF00100240D0AE0008E3
:101DB00000127A00E0AE000800093D002DE9F04174
:101DC0000D46044610B90120BDE8F081444A13686D
:101DD00003F007038B4228D321688E0730D4CA074B
:101DE00043D43F4A136803F00703AB4265D8226827
:101DF0003C4D12F0040F6CD1130706D56B682269B5
:101E000023F4605343EAC2036B60FFF7B1FF6B68D2
:101E1000354AC3F30313D35CD840344B1860344BBA
:101E20001868FFF717FA0020CEE7136823F00703BE
:101E30000B431360136803F007038B42C3D1CBE756
:101E4000284B11F0040F1EBF5A6842F4E0625A603A
:101E5000080742BF5A6842F460525A605A68A06844
:101E600022F0F00202435A60B9E762681D4E012A6F
:101E700033681AD113F4003FA5D0736841F2883853
:101E800023F0030313437360FFF726FA07467368D2
:101E9000626803F00C03B3EB820FA2D0FFF71CFAC9
:101EA000C01B4045F3D903208EE7022A02D113F06C
:101EB000007FE1E713F0020FDEE7136823F007036A
:101EC0002B431360136803F00703AB427FF47BAF2F
:101ED0008DE76B68E16823F4E0630B436B608BE78D
:101EE000002002400010024010B7000850020020FD
:101EF00004000020044B054A5B68C3F30223D35C53
:101F0000034A1068D84070470010024020B700080C
:101F100050020020044B054A5B68C3F3C223D35C24
:101F2000034A1068D84070470010024020B70008EC
:101F3000500200202DE9F7431E4688461746054605
:101F4000FFF7CAF90A9C3444241AFFF7C5F9814601
:101F5000244B1B68C3F3CB3363432A680193936814
:101F600038EA03030CBF01230023BB4201D1002048
:101F70002EE0731CF3D0FFF7AFF9A0EB0900A042ED
:101F800029D32B685A6822F0E0025A606A68B2F5D9
:101F9000827F0AD1AA68B2F5004F02D0B2F5806FF5
:101FA00003D11A6822F040021A60AA6AB2F5005FF3
:101FB00007D11A6822F400521A601A6842F40052DB
:101FC0001A60012385F851300023032085F8503032
:101FD00003B0BDE8F083019B002B019B08BF0024E8
:101FE000013BBAE75002002073B50B4600920D4644
:101FF0001646022101220446FFF79CFF024628B143
:10200000636D032043F02003636507E000962B46D1
:1020100080212046FFF78EFF0028F1D102B070BD6D
:1020200037B50B4641680446B1F5827F18D1806808
:10203000B0F5004F02D0B0F5806F11D12168B0F536
:10204000806F0D6825F040050D6009D100920121D7
:1020500000222046FFF76EFF30B9002003B030BDEC
:10206000009280210022F4E7636D032043F02003F7
:102070006365F3E710B50446002851D0436A002B8E
:102080004AD14268B2F5827F00D0C3610023A362C7
:1020900094F8513003F0FF0223B984F85020204611
:1020A00001F046FB0223226884F851301368A068CF
:1020B00023F040031360636800F4044003F4827368
:1020C0000343E068A16900F400600343206900F065
:1020D00002000343606900F00100034301F4007053
:1020E0000343E069090C00F038000343206A01F063
:1020F000040100F080000343A06A00F40050034391
:1021000013605160D369002023F40063D36101237D
:10211000606584F8513010BD0023C0E90433B5E791
:102120000120F8E72DE9F74304460D461E46914687
:102130000A9FFFF7D1F894F851308046DBB2012BAB
:1021400061680AD0B1F5827F40F0E280A068002883
:1021500040F0DE80042B40F0DB80002D4AD0B9F146
:10216000000F47D0002E45D094F85030012B00F0DE
:10217000CF80012384F8503094F85130C4F838905F
:10218000042B1CBF052384F8513000236365C4E988
:1021900010332368E687E6861A68A687500658BF7C
:1021A0001A68256358BF42F04002A68658BF1A60DD
:1021B000E268B2F5006F53D109B1012E07D135F8AD
:1021C000022BDA60E38E2563013B9BB2E386012597
:1021D000E38E9BB283B9E38F9BB26BB9424639461B
:1021E0002046FFF701FF00287ED0202363650023EF
:1021F00084F85030012030E02268936899070DD5AB
:10220000E38E9BB253B14DB10025236B33F8021B13
:10221000D1602363E38E013B9BB2E3869368DB07C7
:102220000CD5E38F9BB24BB10125D268A36B23F889
:10223000022BA363E38F013B9BB2E387FFF74CF8CC
:10224000A0EB0800B842C3D37E1CC1D0012384F8A0
:1022500051300023032084F8503003B0BDE8F083F0
:1022600009B1012E08D12A781A73236B0133236335
:10227000E38E013B9BB2E38601252CE02268936844
:1022800098070ED5E38E9BB25BB155B10025236B49
:102290001B781373236B01332363E38E013B9BB2E3
:1022A000E38622689368D9070DD5E38F9BB253B1BB
:1022B0000125D268A36B1A70A36B0133A363E38F6C
:1022C000013B9BB2E387FFF707F8A0EB0800B84299
:1022D00001D37B1CBAD1E38E9BB2002BCED1E38F0E
:1022E0009BB2002BCAD179E7A36833B90193236865
:1022F000DA6801929B680193019B012384F85130B5
:102300000023606D84F85030C01A18BF0120A4E784
:102310000220A2E770B5044690F85100C0B201282F
:1023200008D06568B5F5827F6DD1A568002D6AD1AA
:10233000042868D1002939D0002A37D0002B35D0A5
:1023400094F8500001285ED0012084F8500094F8E1
:102350005100002604281CBF052084F851000020ED
:102360006065E386E387A386A38794F85130C4E9C8
:102370001000042BE06C0CBF244B254B2163A2639F
:102380000BBFC362C362234B234B21688362234B81
:10239000466303630C31E38FFFF77EF8054638B1DF
:1023A000636D84F8506043F010036365012029E0F9
:1023B0002268A06C5368216B43F001035360E38EE5
:1023C000C0E90A55C0E90C550C32FFF765F830B189
:1023D000636D84F8505043F010036365E6E72368AB
:1023E0001A6852065EBF1A6842F040021A60002264
:1023F00084F850205A6842F020025A605A6842F02D
:1024000002025A6070BD0220FCE700BF25240008CC
:10241000312400085D240008C32400083B24000880
:102420007047704708B5406AFFF7FBFF08BD70476B
:1024300008B5406AFFF7FBFF08BD406A08B50268AF
:10244000536823F003035360436D43F01003436567
:10245000012380F8513001F0EDF808BD38B505468C
:10246000446AFEF739FF2B6802461B689B0624D49A
:102470002368596821F020015960A168C9B96168D1
:10248000B1F5827F15D1596821F0030159602046CA
:102490006421FFF7C5FD08B1202363650023E387AE
:1024A000012384F85130636D3BB1204601F0C2F83E
:1024B00038BD596821F00101E8E72046FFF7B0FF79
:1024C000F6E738B50546446AFEF706FF2B68024674
:1024D0001B689B061ED4216820464B6823F020030E
:1024E0004B606421FFF780FD18B1636D43F020035A
:1024F00063652268536823F0030353600023E38677
:10250000E387012384F85130636D1BB1204601F04D
:1025100091F838BD204601F081F8FAE7036A026AB3
:1025200070B522F001020262446882690D6822F0EF
:1025300073022A438D6823F002032B430A4DA842FD
:102540000BD1CD6823F008032B4324F44074D1E968
:102550000556354323F004032C43446082614A68E6
:102560004263036270BD00BF002C0140036A026A2F
:1025700070B522F4807202624468C2690D6822F06C
:1025800073022A438D6823F4007343EA05230B4D3D
:10259000A8420DD1CD6823F4006343EA052324F457
:1025A0004054D1E90556354323F4806344EA0514C9
:1025B0004460C2614A68C263036270BD002C01407E
:1025C000036A026A30B522F4805202624468C2692A
:1025D0000D6822F4E64242EA05228D6823F4005396
:1025E00043EA0533064DA84202BF4D6924F48044F6
:1025F00044EA85144460C2614A680264036230BDE3
:10260000002C014090F83D30012B20D1022380F8AE
:102610003D300368DA6842F00102DA600D4A934205
:102620000AD0B3F1804F07D0A2F59432934203D081
:1026300002F58062934204D19A6802F00702062AEA
:1026400003D01A6842F001021A600020704701208E
:10265000704700BF002C01407047704770477047BB
:10266000036870B5DD681E690446B1070DD5AA0779
:102670000BD56FF002021A6101229B6902779B075A
:1026800069D0FFF7EAFF00232377710710D56A07A7
:102690000ED56FF00402236820461A6102229B695E
:1026A000227713F4407F5CD0FFF7D7FF0023237716
:1026B00033070FD528070DD56FF008022368204691
:1026C0001A610422DB692277990750D0FFF7C5FF12
:1026D00000232377F20610D5EB060ED56FF010021B
:1026E000236820461A610822DB69227713F4407FB1
:1026F00043D0FFF7B2FF00232377F00708D5E9079F
:1027000006D56FF00102236820461A6103F006F92E
:10271000320608D52B0606D56FF0800223682046C6
:102720001A6100F0F2F9700608D5690606D56FF057
:102730004002236820461A61FFF791FFB20622D5B6
:10274000AB0620D56FF0200223682046BDE870401C
:102750001A6100F0D9B9FFF77FFF2046FFF77EFF2F
:1027600091E7FFF779FF2046FFF778FF9EE7FFF735
:1027700073FF2046FFF772FFAAE7FFF76DFF2046C1
:10278000FFF76CFFB7E770BD1E4A036890420AD09E
:10279000B0F1804F07D0A2F59432904203D002F5F9
:1027A0008062904215D14A6823F070031343154AA2
:1027B00090420AD0B0F1804F07D0A2F594329042F7
:1027C00003D002F58062904203D1CA6823F44073BB
:1027D00013434A6923F08003134303608B68C36289
:1027E0000B688362074B984204BF0B6903630123A4
:1027F00043610369DB0742BF036923F001030361FF
:10280000704700BF002C014010B5044630B390F86B
:102810003D3003F0FF021BB980F83C2003F032F892
:102820000223206884F83D30211DFFF7ADFF01230E
:10283000002084F8463084F83E3084F83F3084F835
:10284000403084F8413084F8423084F8433084F8D2
:10285000443084F8453084F83D3010BD0120FCE759
:1028600010B5044630B390F83D3003F0FF021BB9B9
:1028700080F83C2002F0F2FF0223206884F83D300B
:10288000211DFFF781FF0123002084F8463084F8E2
:102890003E3084F83F3084F8403084F8413084F88A
:1028A000423084F8433084F8443084F8453084F86A
:1028B0003D3010BD0120FCE7036A026A70B522F0CA
:1028C00010020262446882690D6822F4E64242EA1C
:1028D00005228D6823F0200343EA05130B4DA8421F
:1028E0000DD1CD6823F0800343EA051324F440643E
:1028F000D1E90556354323F0400344EA850444609A
:1029000082614A688263036270BD00BF002C01408F
:1029100038B590F83C300446012B57D0012380F89D
:102920003C300C2A50D8DFE802F0074F4F4F1C4FC5
:102930004F4F2D4F4F4F3E000068FFF7EFFD2368CC
:1029400009699A6942F008029A619A6922F00402C0
:102950009A619A690A439A610020002384F83C3006
:1029600038BD0068FFF7A8FF236809699A6942F437
:1029700000629A619A6922F480629A619A6942EAD5
:102980000122E8E70068FFF7F1FD23680969DA69C9
:1029900042F00802DA61DA6922F00402DA61DA69E7
:1029A0000A43DA61D8E70068FFF70AFE236809697D
:1029B000DA6942F40062DA61DA6922F48062DA618B
:1029C000DA6942EA0122ECE70120C6E70220C7E704
:1029D00010B50124036A01F01F018C4023EA0403AF
:1029E0000362036A8A401A43026210BD10B50446AE
:1029F00029B990F83E30012B1DD0012010BD0429CB
:102A000007D190F83F30012BF7D1022380F83F30F7
:102A100014E0082907D190F84030012BEDD10223B2
:102A200080F840300AE090F84130012BE5D10223D4
:102A300080F8413002E0022380F83E300122206815
:102A4000FFF7C6FF23680E4A93420AD15A6C42F43C
:102A500000425A649A6802F00702062A0BD100204D
:102A6000CCE7B3F1804FF5D0064A9342F2D002F59D
:102A700080629342EED01A6842F001021A60EEE7DB
:102A8000002C014000040040FFF7B0BF38B50446F9
:102A9000002200680D46FFF79BFF2368184A934207
:102AA0000DD141F21112196A114208D140F244428B
:102AB000196A114202BF5A6C22F400425A6441F270
:102AC0001112196A114208D140F24442196A1142A6
:102AD00002BF1A6822F001021A6001231DB984F8AE
:102AE0003E30002038BD042D02D184F83F30F8E795
:102AF000082D0CBF84F8403084F84130F1E700BF66
:102B0000002C0140FFF7C2BF70477047026802F116
:102B10000C0353E8003F23F490730C3242E8003179
:102B200002680029F2D102F1140353E8003F23F0B8
:102B3000010302F1140C4CE800310029F3D1036BBE
:102B4000012B0BD102F10C0353E8003F23F01003DB
:102B500002F10C0C4CE800310029F3D1202380F85D
:102B6000423000230363704710B504460368C16810
:102B70001A6922F440520A431A6182680069D968CE
:102B80000243606921F4B05121F00C0102430A4371
:102B9000DA605A69A16922F440720A435A610E4A06
:102BA000934215D1FFF7B6F919235843636864229D
:102BB0009B00B0FBF3F0B0FBF2F102FB11031B0131
:102BC0003233B3FBF2F3246803EB0113A36010BDAF
:102BD000FFF790F9E8E700BF00380140F7B5044679
:102BE0000D4617461E4621680B6835EA030301D1DE
:102BF000002021E0701CF7D0FEF76EFBC01B864260
:102C00001CD3DEB12068C3685A07ECD5802DEAD00A
:102C1000402DE8D003681B07E5D500250195036822
:102C20000193436820460193019BFFF76FFF082340
:102C30000120636484F8405003B0F0BD0320FBE73B
:102C400010B5044648B390F8413003F0FF021BB9B9
:102C500080F8402002F03AFE2423226884F84130B4
:102C6000D368204623F40053D360FFF77DFF236829
:102C700000201A6922F490421A615A6922F02A024D
:102C80005A61DA6842F40052DA602023606484F802
:102C9000413084F84230606310BD0120FCE710B57C
:102CA0000446A0B12423026880F84130D36823F49D
:102CB0000053D36002F01AFE0020606484F84000E4
:102CC00084F8410084F842002063606310BD012055
:102CD000FCE72DE9F843984690F841300446202B54
:102CE0000E46914641D1002941D0002A3FD02123F0
:102CF0000025456480F84130FEF7EEFAA3680746E8
:102D0000B3F5805FA4F82490A4F8269003D123693A
:102D10000BB935461E46E38C9BB25BB943463A4637
:102D200040212046FFF75AFF202384F8413058B94C
:102D3000BDE8F88343463A4680212046FFF74EFF20
:102D400020B1202384F841300320F1E722684EB9F6
:102D500035F8023BC3F308035360E38C013B9BB29D
:102D6000E384D8E716F8013BF6E70220E0E701200C
:102D7000DEE72DE9F843984690F842300446202BD0
:102D80000E46914647D1002947D0002A45D022233C
:102D90000025456480F842300563FEF79DFAA3687C
:102DA0000746B3F5805FA4F82C90A4F82E9003D1C9
:102DB00023690BB935461E46E08D80B218B9202331
:102DC00084F842300AE043463A4620212046FFF785
:102DD00005FF28B12023032084F84230BDE8F883A2
:102DE00023684EB95B68C3F3080325F8023BE38D03
:102DF000013B9BB2E385DFE7A268B2F5805F02D0BA
:102E00002AB922691AB95B6833700136EFE75B684B
:102E100003F07F03F8E70220E0E70120DEE790F807
:102E20004130202B10D189B182B1C2848284002329
:102E3000212201620168436480F84120CA68184673
:102E400042F08002CA60704702207047012070473C
:102E500038B50446134694F84120202A27D141B3BF
:102E60003BB300222120E384134D626484F84100C7
:102E7000A06BA38421628562104DC562104DC0E92C
:102E80000C5222680432FEF707FB6FF04002236801
:102E90001A60226802F1140353E8003F43F08003F4
:102EA00002F1140141E800300028F3D138BD0220BE
:102EB000FCE70120FAE700BFC52E0008132F000829
:102EC0001F2F0008026808B51268436A12F020023A
:102ED0001AD1DA84196801F1140252E8002F22F0A5
:102EE0008002143141E800201A680028F2D102F172
:102EF0000C0353E8003F43F0400302F10C0040E8AC
:102F000000310029F3D108BD184603F0AFF8FAE705
:102F1000704708B5406AFFF7FBFF08BD704710B562
:102F2000446A23685A6994F84110212912D1120683
:102F300010D50022E28403F10C0252E8002F22F0A7
:102F4000C00203F10C0040E800210029F3D1202247
:102F500084F841205B6994F84220222A06D15B065E
:102F600004D500232046E385FFF7D0FD636C20469F
:102F700043F01003636403F0C3F810BD08B50023E9
:102F8000406AC385C38403F0BBF808BD704790F85E
:102F9000423013B5222B53D18168836AB1F5805F2B
:102FA00002683ED1016900293ED15268C2F308028D
:102FB00023F8022BC48D8362013CA4B2C485002C8B
:102FC0002DD10368DA6822F02002DA60DA6822F490
:102FD0008072DA605A6922F001025A61202380F877
:102FE00042304463036B012B036826D1046303F171
:102FF0000C0252E8002F22F0100203F10C0444E806
:1030000000210029F3D11A68D20605D501911A686A
:1030100001925B680193019B818DFFF7B7FF002050
:103020000FE031B9016921B952681A70836A01331E
:10303000C0E7526802F07F02F7E703F039F8EEE7E5
:10304000022002B010BD0000036837B51A680446BC
:1030500012F00F0FD9685D6908D1950666D58D0607
:1030600064D503B0BDE83040FFF791BF15F001050E
:1030700002D111F4907F59D0D00705D5CB0542BFBE
:10308000636C43F001036364500704D51DB1636CA6
:1030900043F002036364930704D51DB1636C43F0EE
:1030A00004036364100706D58B0600D41DB1636C5E
:1030B00043F008036364636C002B31D0900604D5A1
:1030C000890602D52046FFF762FF236820465D6926
:1030D000626C120702D415F0400523D0FFF716FDED
:1030E000226853695B0618D502F1140353E8003FC8
:1030F00023F0400302F1140040E800310029F3D12D
:10310000E06B50B1734B4363FEF726FA40B1E06BBE
:10311000436B03B0BDE830401847204602F0F0FF93
:1031200003B030BD02F0ECFF6564F9E7206B0128C5
:1031300040F09480D50640F19180C80640F18E8021
:10314000002201921A6801925A680192019A5A6902
:1031500055064DD5E16B0A68526892B2002ADFD05D
:10316000A08D9042DCD9E2858A69202A36D003F10D
:103170000C0252E8002F22F4807203F10C0040E8A8
:1031800000210029F3D103F1140252E8002F22F0AC
:10319000010203F1140040E800210029F3D103F1FA
:1031A000140252E8002F22F0400203F1140040E81C
:1031B00000210029F3D1202284F84220216303F169
:1031C0000C0252E8002F22F0100203F10C0040E83C
:1031D00000210029F3D1E06BFEF79CF90223636321
:1031E000E38DA18DC91A89B22046FFF7CFFE97E77C
:1031F000E18D8AB2E18D89B2002991D0A18D891A21
:1032000089B200298CD003F10C0252E8002F22F47D
:10321000907203F10C0545E800200028F3D103F17A
:10322000140252E8002F22F0010203F1140545E8D0
:1032300000200028F3D1202284F84220206303F1EB
:103240000C0252E8002F22F0100203F10C0545E8B1
:1032500000200028F3D102236363C5E7100628D5B8
:103260000D0626D594F84120212A7FF459AFA16894
:10327000226AB1F5805F17D12169A9B932F8021B22
:10328000C1F3080159602262E28C013A92B2E284F1
:10329000002A7FF445AFDA6822F08002DA60DA684B
:1032A00042F04002DA603BE7511C216212785A601A
:1032B000EAE750067FF534AF4A067FF531AFDA68AA
:1032C000204622F04002DA60202384F8413002F0E8
:1032D000CDFE25E77D2F000808B50123406A436332
:1032E000036B012B04D1818D4908FFF74FFE08BD08
:1032F000FFF714FEFBE708B503461B68406A1B682E
:1033000013F0200337D1C385026802F10C0353E8A0
:10331000003F23F480730C3242E800310368002937
:10332000F2D103F1140252E8002F22F0010203F15E
:10333000140C4CE800210029F3D103F1140252E8E7
:10334000002F22F0400203F1140C4CE80021002968
:10335000F3D1202280F84220026B012A0BD103F125
:103360000C0252E8002F22F0100203F10C0C4CE882
:1033700000210029F3D100234363036B012B03D108
:10338000818DFFF703FE08BD02F092FEFBE790F887
:103390004030012B11D02423026880F84130D368DB
:1033A00023F00C0343F00803D360202380F841305E
:1033B000002380F84030184670470220704790F88C
:1033C0004030012B11D02423026880F84130D368AB
:1033D00023F00C0343F00403D360202380F8413032
:1033E000002380F8403018467047022070470023C1
:1033F000C285436422238285026980F8423081625B
:1034000003681AB1DA6842F48072DA605A690020FF
:1034100042F001025A61DA6842F02002DA60704735
:1034200070B490F84260202E06D141B13AB1002428
:10343000046370BCFFF7DBBF022070BC7047012043
:10344000FBE7000073B5044681621346A2850025A0
:103450002222456480F84220C06B1D4A26688262A1
:103460001C4AC2621C4AC0E90C250A46311DFEF7FF
:1034700013F8236801951A6801925A680192019A1B
:1034800022695AB103F10C0252E8002F42F4807213
:1034900003F10C0040E800210029F3D103F11402EC
:1034A00052E8002F42F0010203F1140040E800212D
:1034B0000029F3D103F1140252E8002F42F0400238
:1034C00003F1140141E800200028F3D102B070BDDF
:1034D000F7320008D93200081F2F000870B490F8A6
:1034E0004260202E06D141B13AB10024046370BC81
:1034F000FFF7A8BF022070BC70470120FBE7000067
:103500002DE9F84F03680D46C1F80F308388A1F804
:1035100013300023D943DA10825C01F007010A411D
:10352000D10764D4D943DA10825C01F007010A4163
:10353000D20702D40133302BF4D103F12202302A16
:1035400058D800210A469F1CC3F1FF2303F57F03CF
:10355000FD337C18E4105E1A045D06F00706344162
:10356000013104F00104202944EA4202F1D1192377
:103570000026100AC2F38018C2F3C01902F03F07F8
:1035800048EA800242EA490222FA03F1740901F092
:10359000010176008C4206F03E0618BF86F0030655
:1035A00013F1FF33F0D21B4B286093F800A00124E5
:1035B000CAF11803D8406860FDF796FB834604FA09
:1035C0000AF0FDF791FB01465846FDF799FC1249B8
:1035D000FDF7E2FB86F03F06B742A86085F80C9045
:1035E00085F80D8009D02046AC73BDE8F88F013313
:1035F000302B8FD10220A873F7E7B9F1000F01D16A
:103600000320F8E7B8F1000F01D10420F3E7002010
:10361000F1E700BF840200200000B4430268034BBE
:103620009A4202BF0122024B1A70704700300140DB
:103630007C0200200268044B9A4204D10123034A11
:103640001370034A13707047003001407D02002060
:103650007C0200200148FDF7C7BF00BF9402002094
:103660000148FDF7C1BF00BFD80200202DE9FF4788
:1036700005460279274BDFF8B0901A70AB89002419
:10368000A9F8003000934FF0010A0223224E2A6964
:103690008068224FDFF894803260AA8A69460393DB
:1036A000C8F800003A800294CDF804A0FEF730F884
:1036B0005246B9F80010D8F80000FEF77DF93B88B3
:1036C000694630680093FEF723F82246306839884F
:1036D000FEF772F92B6812484FF4007203604FF442
:1036E0008273C0E901342823C0E903444461C0E97E
:1036F0000623C0E908448462FEF7BCFC38B94FF0E9
:10370000FF32084B1A609A8004B0BDE8F0870520AC
:10371000FAE700BF84020020800200207E02002021
:103720001C0300208B02002074020020780200207D
:10373000F0B50268304B87B09A4206465AD103F57D
:1037400060439A69002442F480529A619A6902A9FE
:1037500002F480520092009A5A69284842F001020D
:103760005A615B69202203F001030193019B02234C
:10377000CDE90223032304940593FDF7C9FF4023F9
:10378000CDE90234012302A91C481D4D0493FDF725
:10379000BFFF1C4B8027C5E900344FF40053284677
:1037A000EB61AC60C5E90374C5E90544FDF718FE9B
:1037B0001023F5646E62144D14492846C5E90013C0
:1037C000C5E90247C5E90444C5E90644FDF708FE1A
:1037D000224607210C20B5646E62FDF795FD0C2092
:1037E000FDF7C6FD0D2022460721FDF78DFD0D20BA
:1037F000FDF7BEFD07B0F0BD0030014000080140FC
:10380000940200201C000240D80200203000024038
:103810004FF0FF3310B586B00293ADF80C300023A3
:103820000493ADF8143032230446009304AA06230F
:1038300002A90A48FEF776FC50B10498BDF814308E
:10384000C4F80F000520A4F81330A07306B010BD13
:10385000214604A8FFF754FEF8E700BF1C03002030
:1038600038B50023084A094C094D237013602B70AA
:103870009380084906230848FEF74CFD10B101204B
:103880002870207038BD00BF850200207C02002017
:103890007D0200208B0200201C030020014B1878C1
:1038A000704700BF7C020020084B01461B7813B90B
:1038B0000748FFF725BE064B1A689B88C0F80F2003
:1038C000A0F8133005208873704700BF7D020020E8
:1038D0008502002037B51848184D01682A684B68E2
:1038E000174C23F003034B60136823F001031360AC
:1038F0002268136823F0010313604FF48872114BA0
:103900005A600123002285F8213084F82130019289
:1039100084F82020CC6885F820200194896880F8FC
:103920005020094A0191019980F851301370074ADB
:10393000137003B030BD00BF1C030020D80200206C
:1039400094020020000002407D0200207C02002042
:103950000346184613F8012B202AFAD0092AF8D07A
:10396000704700002DE9F34104468846006801A92C
:1039700005F072F8019E23680546B34211D020F08D
:10398000004709493846FDF7CDFB50B9064938468E
:10399000FDF7BEFB28B92660C8F8005002B0BDE8AC
:1039A000F0814FF0FF30F9E7FFFF7F7F37B5044626
:1039B0000D460A2201A9006805F018F92268019B4A
:1039C0009A4217BF23604FF0FF302860002003B0F9
:1039D00030BD0000F0B50D4687B00646002800F067
:1039E000EE80002900F0EB8003780022002B00F02D
:1039F000DA8100270A70CF608F604F600F614F61DE
:103A00008F618A838A77C1E90822C1E90A220A63A1
:103A10008A86A349FCF79CFB18B90120287007B0DF
:103A2000F0BDA0493046FCF793FB10B902232B7080
:103A30001BE09D493046FCF78BFB08B90C23F6E7E9
:103A40009A493046FCF784FB28B90D2301202B70DE
:103A500085F82F00E3E796493046FCF779FB30B94B
:103A60000D232B70FF2385F82F300120D7E702228A
:103A70009049304604F0BAF968B9023605A904A89D
:103A80000496FFF76FFF002840F0998003232B7006
:103A9000059BAB61E9E703228749304604F0A6F9AC
:103AA00058B9033606A840F8046D291DFFF75AFFE0
:103AB000002840F084800423B9E703227F49304680
:103AC00004F094F958B9033606A840F8046D05F1DE
:103AD0000801FFF747FF002871D10523A7E703225C
:103AE0007749304604F082F958B9033606A840F801
:103AF000046D05F10C01FFF735FF00285FD10623A7
:103B000095E702226F49304604F070F958B9023641
:103B100006A840F8046D05F11001FFF723FF002807
:103B20004DD1072383E702226749304604F05EF94E
:103B300058B9023606A840F8046D05F11401FFF7E4
:103B400011FF00283BD1082371E703225F4930466B
:103B500004F04CF978B9033605A904A80496FFF7D8
:103B600025FF60BB059BB3F5803FBFF458AF09222A
:103B7000AB832A7079E706225549304604F036F9BE
:103B8000044670B9063605A904A80496FFF70EFF8F
:103B9000A8B9059B012B3FF642AF0A22AB772A70EA
:103BA00063E705224B49304604F020F900284ED146
:103BB000053602A901A80196FFF7D4FE08B100203E
:103BC0002DE7019B5A1C01921A782C2AF7D10597F0
:103BD0005A782B2A01D02D2A2BD199782C2928D13B
:103BE0002B2A0CBF01244FF0FF340333019303A9A8
:103BF00001A8FFF7B7FE0028E1D1019B5A1C0192F2
:103C00001B782C2BDBD104A901A8FFF7CFFE0028DD
:103C1000D5D1049BB3F5803FD1D20B222A70029AF2
:103C2000AB852A62059A85F82E406A62039AAA62D9
:103C30001BE705A901A8FFF795FE0028BFD1019B4E
:103C40005A1C01921B782C2BB9D10446CFE722498C
:103C50003046FCF77DFA08B91223E8E61F493046E2
:103C6000FCF776FA08B91323E1E605221C49304631
:103C700004F0BCF8002835D1701DFFF769FE05A9D6
:103C8000049004A8FFF792FE002898D140F6B832BD
:103C9000059B93423FF6C3AE0E222B862A70E4E6C4
:103CA000E2AE0008E5AE0008E9AE0008EEAE00089E
:103CB000F2AE0008F6AE0008F9AE0008FDAE00084E
:103CC00001AF000805AF000808AF00080BAF0008FF
:103CD0000FAF000816AF00081CAF000821AF0008A6
:103CE00026AF000806223149304604F07FF8A0B91B
:103CF000B01DFFF72DFE05A9049004A8FFF756FE9E
:103D000000287FF45CAF40F6B832059B93423FF643
:103D100086AE0F222A706B86A7E60522244930461C
:103D200004F064F820BB701DFFF712FE04A9039095
:103D300003A8FFF73BFE00287FF441AF40F6B834FC
:103D4000049BA3423FF63BAF0398FFF701FE05A992
:103D5000039003A8FFF72AFE00287FF430AF059BED
:103D6000A3423FF62CAF10222A70049A2A86D2E78B
:103D700006221049304604F039F890B9B01DFFF71B
:103D8000E7FD05A9049004A8FFF710FE00287FF4C2
:103D900016AF059B002BFFF642AE1122AB862A70B0
:103DA00063E6142343E6184639E600BF2CAF00084B
:103DB00033AF000839AF00082DE9F0478046BDF861
:103DC0002400089F80B34FF0000900F1FF3E1C88DB
:103DD000944229D025464FF0000C18F80500013513
:103DE00095FBF1F601FB16560D28B5B232D00A2824
:103DF0000BD10020AC4207EB000C17D11C808CF8D3
:103E000000900028E3D0BDE8F0870CF1010CAA4235
:103E10001FFA8CFCE1D14A1E944505DB013494FB6A
:103E2000F1F201FB124119800020ECE704F1010AD4
:103E300018F804609AFBF1F401FB14A40D2EA4B24F
:103E4000D8D00A2ED6D07045BEBF013080B28CF8D3
:103E50000060CFE7AA42CCD018F806000A28C8D1E3
:103E6000013696FBF1F501FB1566B5B2C1E7401AC4
:103E7000B0F5803F02DDA0F50030704710F5803FBF
:103E8000B8BF00F500307047F8B5877811F0FB0F28
:103E900007F10107FFB2044694468770017116D1FD
:103EA0001646C37800F10C050133C3700FCE0FC561
:103EB00096E8030085E8030094F8303023BB012224
:103EC00084F83020DCF80420C4E90A3362620F2F42
:103ED00019D9D4E90A300025C01A2570FCF708FF6B
:103EE0001049FCF759FF4FF05C51FCF755FFE378A0
:103EF000A0600B2B06D94FF07C51FDF7F5F8451B60
:103F000018BF01256570F8BDDCF80400616AFFF791
:103F1000AEFFA36A8342E36AC8BFA0628342B8BF10
:103F2000E062D4E70000B4430023064A1360064A67
:103F300013600023054A1370054A1360054A138075
:103F4000704700BFAC040020F4040020B00400203F
:103F500000050020B204002008B5034801F03CFD34
:103F60000022024B1A6008BD4C00002014040020FF
:103F7000384B2DE9F04107460D4618683649904602
:103F8000FCF70AFF00F10044064639462046FDF7DB
:103F9000BFF830B931463846FDF7BAF800284ED19F
:103FA0003C462E4B00211F682D4E3846FDF7B0F8D9
:103FB00000284CD0B8F1000F1FD000212846FDF793
:103FC00089F808B105F1004529463846FCF7E4FEBA
:103FD0000146FCF7D9FD06F071FE1F49FCF7DCFE37
:103FE00000F10048054621464046FDF791F840BBE8
:103FF00021462846FDF76EF828BB17493846FCF7DE
:10400000CBFE1549FCF7C8FE376805463946204601
:10401000FCF7B8FD05F1004421468046FDF75AF84B
:1040200028B929464046FDF773F870B94446214641
:104030003846FCF7A9FD30603068BDE8F0813446B1
:10404000AFE74446D9E72C46D7E72C46EFE7346084
:10405000F2E700BF700000206F12833A7C0300205B
:1040600014040020F8B500210446FDF729F80027C4
:10407000164D18B102F068FA2F60F8BD3946204697
:10408000FDF728F8F8B104F10040114B1968FCF76E
:1040900037FF1049FCF780FE4FF07C51FCF774FDB0
:1040A000FDF77CF806460028E4D0002120464FF0BA
:1040B0000107FDF72DF800B9074679B2304602F046
:1040C000BBFA2C60D9E72046DFE700BF9803002049
:1040D0000800002000007A4408B502F049F820B139
:1040E000044A13680133136008BDBDE8084002F0BC
:1040F000A5B800BF840300200FB400B5A3B024AB63
:1041000053F8042B802102A8019304F0B1FD011E95
:1041100003DD89B202A8FFF7DFFF23B05DF804EBEF
:1041200004B070472DE97F430446C57886788068DF
:10413000FCF784F963788046894673B16069FCF7BF
:104140007DF9CDE90089CDE90201324629460848CA
:10415000FFF7D2FF04B0BDE870832379CDE9008971
:104160000293324629460348FFF7C6FFF2E700BF35
:1041700040AF000866AF0008314A2DE9F0411168F0
:1041800006464B1C2F4B4ED100211060C3E90001A5
:10419000FCF77EF900222C4BFCF7A8F92B4B0022F0
:1041A000FCF7A4F906460F46294BC3E90067294BE3
:1041B0005B78002B31D0FCF791FC01460020FCF726
:1041C000E1FC0446244DDFF8A08029462046FCF798
:1041D0009FFFB0B9214DDFF8908029462046FCF7BB
:1041E00083FFA0B92046FCF729F932463B46FBF78E
:1041F000C7FF01221A4BC3E900011A4B1A70BDE830
:10420000F08120464146FCF7BDFC0446DDE7204630
:104210004146FCF7B9FC0446DFE7114AC2E90067F2
:10422000104A1370EBE7FFF722FED3E90045271889
:1042300045EBE078414638461660C3E90001DEE709
:104240004400002088030020008076400000E03E0B
:10425000A00300201000002000003443000034C3FD
:1042600008040020950300200000B443064AD368E8
:1042700043F08073D3600022044B5A601A6842F006
:1042800001021A60704700BFF0ED00E0001000E08E
:104290002DE9F04FD9B0FDF701F82022002131A817
:1042A00003F010F9012710230225CDE934734FF4F0
:1042B000201330A8309537953993FDF7BBFB0F23BA
:1042C0000026CDE922354FF48063A64C394622A85A
:1042D0004FF40058249626962593FDF76FFDA369A9
:1042E00030A943F00403A361A3699F4803F00403CA
:1042F0001C931C9BA369DFF8C49243F00803A361DD
:10430000A36903F008031D931D9BA36943F01003E9
:10431000A361A36903F010031E931E9BA3693B4393
:10432000A361A369CDE930873B401F931F9B329661
:104330003395FDF7EDF941464FF400783A468A4847
:10434000FDF73AFB30A98948CDE930873395FDF771
:10435000DFF9324641468548FDF72EFB4FF4805386
:10436000DFF85C8230A98148CDE9303632952646A7
:10437000FDF7CEF90525FFF779FF474698F800309D
:10438000072B00F28C80DFE813F019009C00B000CE
:10439000C800E3001F0180010800754B754C5A7876
:1043A000002A00F07E8118699D7EFFF7E5FE2378E4
:1043B00013B1012002F0ACF8012380E001F0E0FB32
:1043C000044600286DD1D6F824A08DF8C0001AF05C
:1043D000006F06D0684B694A302130A803F0CAFC50
:1043E00003241AF0806F0CD0634A654B30A8002C70
:1043F00008BF1346C4F130012044624A03F0BAFCFE
:1044000004441AF0805F0CD05B4A5D4B30A8002C4E
:1044100008BF1346C4F1300120445B4A03F0AAFCF4
:1044200004441AF0005F0CD0534A554B30A8002CBE
:1044300008BF1346C4F130012044544A03F09AFCEB
:1044400004441AF0804F0CD04B4A4D4B30A8002C3E
:1044500008BF1346C4F1300120444D4A03F08AFCE2
:104460000444BAF1000F0BDA434A454B30A8002C44
:1044700008BF1346C4F13001464A204403F07AFCD9
:104480009DF8C03013B92D23ADF8C0300124424B44
:10449000424A1C6030A94248FFF72EFE3C700023C0
:1044A0000DE0404A13780133DBB2022B1370F6D9CA
:1044B00001223D4B2F491A7000233A700B7018935C
:1044C000A8E0DFF800C130ACBCE80F000FC49CE8E6
:1044D000030084E8030030A8FFF7C8F8334B5A689C
:1044E000334B1A6002233B70D9E7DFF8C0A0304C91
:1044F000DAF8043022689B1A4B45D0D91C4B342281
:104500001846002102F0DEFF012202700522DAF8CF
:104510000430027123600323E5E72449244A4B68F1
:1045200010681B1A23488342B9D94B6830A813601E
:10453000FFF76EF90E4C014630AA2046FFF7A4FCA7
:104540002378002BABD12046FFF7ECFD0423CAE70C
:1045500001F03CFF014610B11748FFF7CDFD0523E0
:10456000C1E700BF0010024000100140000C0140F4
:10457000100000200C000020A0B10008A2AF00082D
:104580008CAF0008A8AF0008AEAF0008B4AF0008B9
:10459000BBAF0008C2AF0008E0044242C9AF000848
:1045A000CFAF00080505002011040020001000E036
:1045B00074040020FF760100E3AF0008FF9E240092
:1045C0007204002098AE00084FF0804C41F2BF23E7
:1045D000814C4FF0000AC4E900C309232046C4E916
:1045E00002A3C4F810A0C4F818A0FEF70DF95246B3
:1045F00006211C20FCF788FE1C20FCF7B9FE6FF09A
:104600000102236820461A61FDF7FCFF0623CDF85E
:1046100060A03B7001F012FE189B002B3FF4AEAE81
:104620006E4C01F00BFE23782BB96D4B93F90030E3
:104630000BB901F0A1FF402130A801F089FE00284C
:1046400000F0538122A930A8FFF7C4F9002800F038
:104650004C819DF88830013B132B00F24681DFE846
:1046600013F023004B0057008700900099001A03B5
:104670004203A200A800AE00EF026B005B036903D7
:1046800077039003B103C903490404235548564CEA
:10469000C0E900434FF49C738360FDF79BF9072347
:1046A00021E71D79227082E6012000224F4B18700D
:1046B0004B4B1A7001F02CFFFFF74EFC4C4B1B7854
:1046C000B3B94C4BD3E90001FBF7E2FE00224A4BA1
:1046D000FBF70CFF0022494BFBF708FF0022484B79
:1046E000C3E90001474B48481A70FFF705FDFCE09D
:1046F000464BD3E90001F1E700263C4B1E70384BD6
:104700001E7001F021FF304601F002FF4048ECE747
:104710000027334B28981F70FBF790FE384E394B1B
:10472000C6E900013B481F7001F056F9D6E90023A5
:104730003948FFF7E1FCD8E09DF8B730284E314A00
:104740003370002333481370237001F045F9274B71
:104750001A781AB90120187001F0DAFE96F90030C3
:104760002E48002BD4BF2D212B21FFF7C5FCBCE028
:10477000284B23981860FBF761FE02460B46284839
:10478000D7E7244B24985860FBF758FE02460B46A7
:104790002448CEE71F4B25989860FBF74FFE024652
:1047A0000B462148C5E7BDF8A410204B20481980CE
:1047B000DBE79DF8A6101F4B1F481970D5E72C9F0B
:1047C00000213846FCF790FC20B9BDF8B4A0BAF13E
:1047D000000F35D1194888E728040020F90300208C
:1047E000800300201C040020003000400C0000204A
:1047F0009C03002088030020008076400000E03EFB
:104800000804002095030020F7AF0008A003002053
:10481000FFAF00084C00002008B0000814B00008EA
:104820001EB000082BB0000838B000084800002077
:1048300045B000081004002050B000085EB0000829
:104840009DF9B6602A9BDDF8ACB03EB918465946D2
:104850001693FCF753FC169B0028BBD10022A849F5
:1048600018460A700121217019921693FBF7E6FD94
:1048700080468946A349169BC1E90089A249002EBA
:10488000C1E90089A149199A0B6014BF3146012181
:104890009F4BA048C3F800B09F4B16921F609F4BE0
:1048A000A3F800A09E4B1A809E4B19709E4B1E7061
:1048B0009E4B1A7001F090F8169A4FF400719C48C4
:1048C000FDF77AF8002E00F0A9813846CCBF2B26E0
:1048D0002D26CDF810A0FBF7B1FD0096CDE9020121
:1048E00042464B469348FFF707FC934F3B78002B1B
:1048F0003FF496AE72B6DFF884C222AEBCE80F0079
:104900000FC69CE803008D4B8D4A1B7886E8030098
:1049100019938C4B8C491B6891F800A013600023FD
:104920000B708A495FFA8AFA0E780B70F6B23B7008
:1049300062B6DFF84CB2BAF1000F00F04187199867
:104940008349002840F0D9829DF864300B70814B78
:1049500015681968DFF82C824B1C40F0D5827E4B1D
:10496000C8F80050002223981A70FFF705FCDDF804
:1049700060A07A4D2B784BB122AA19992846FFF7EF
:1049800083FA2B7813B92846FFF7CCFB8EB1734D11
:104990001822002130A802F095FD2B784BB130AAE7
:1049A00005212846FFF770FA2B7813B92846FFF740
:1049B000B9FBBAF1000F00F0078700239BF8002035
:1049C0006749012A0B6003D18BF80030FFF7C4FA66
:1049D000644BDFF8B4811B78002B40F0FE8201F0BD
:1049E000B3FD0023C8F800305F4E337843B1304642
:1049F000FBF7B8FB81B2304601F0BAFB00B930706A
:104A0000584B1B7823B19BF80030002B00F0E28458
:104A1000FFF78AFA2378022B40F0D7803F4B1A88A1
:104A2000002A00F0D2803E490B8801339BB29A42A3
:104A30000B8000F2CA803C4B93F90000364B1D6896
:104A4000314BD3E90023CDE91623002800F09085EF
:104A5000FBF7E2FC064628460F46FBF7EFFC024652
:104A60000B4630463946FBF741FDDDE91623FBF7DF
:104A700087FB1FA3D3E9002306460F46FBF7C6FFBB
:104A800048B91DA3D3E9002330463946FBF7A0FF00
:104A9000002800F08780DDE9162330463946FBF711
:104AA0006DFBDDE91623314D06460F46D5E90001C1
:104AB000FBF764FB0022C5E90001DDE916014FF0B8
:104AC0008243FBF713FD0022294BFBF739FE00223E
:104AD000CDE91A01DDE916010023FBF78DFF254D15
:104AE0000022D5E90089002800F03F85224B4DE0E7
:104AF00000000000D012634100000000D01263C12A
:104B00008003002008040020E8030020FC030020AC
:104B1000F40300204C00002000040020F2030020D9
:104B2000F00300206C000020F80300209503002013
:104B3000000C014069B0000804050020740000204A
:104B4000E0030020A80400208D0400208C04002035
:104B5000940300204400002080040020AC030020C7
:104B6000900300200C000020B4040020A0030020CB
:104B700000807640880300200000E03F9004002081
:104B80009C0300207804002098030020DDE91A012E
:104B9000FBF7F6FAFCF722FBB8EB000269EB010326
:104BA000C5E90023A24B0022C3E90067A14BA2483C
:104BB000C3E9006701232370A04B4FF400711A80F2
:104BC000FCF7FAFE9E4800F007FF9E4D2B8893B13C
:104BD00001F094FB044670B99B4B29881E7816B1EE
:104BE000142938BF1421994A138801339BB28B4290
:104BF00080F054851380964B964A1B78002B14BF87
:104C000064214FF4FA71136801338B4280F0CF8531
:104C100013609148FCF707FF199D01E53846CDF870
:104C200010A0FBF70BFCCDE902015846FBF706FC90
:104C30004246CDE900014B468848FFF75DFA54E64D
:104C40000023874A23701370864A137001F07CFC9E
:104C5000854B1B78DBB9854BD3E90001FBF718FCCA
:104C60000022834BFBF742FC0022824BFBF73EFC09
:104C70006F4BC3E90001FFF76FF900227E4B6E48CE
:104C80004FF400711A70FCF797FE7C482DE57C4BC1
:104C9000D3E90001ECE7269E4FF07E513046FCF749
:104CA00019FA20B977493046FCF732FA48B10022A8
:104CB000754B7648CDE900230022754BFFF71CFAAF
:104CC00013E6744B74491E603046FCF765F85C4B84
:104CD000986100F1004058613046FBF7AFFB024697
:104CE0000B466E4825E5279E00213046FCF7F2F979
:104CF00020B96B493046FCF70BFA20B14AA3D3E93F
:104D00000023684815E5684B30461E60FBF796FBAC
:104D100002460B4665480CE520A801F079FDBDF878
:104D20008210BDF8B80001F031FD00BBBDF8B8102D
:104D30005F481AE520A801F06BFDBDF8BA10BDF878
:104D4000800001F023FD90B9BDF8BA1059480CE578
:104D5000BDF8BA10BDF8B80001F018FD38B9BDF8BB
:104D6000BA20BDF8B8105448FFF7C6F9BDE5411C9C
:104D700001D15248B9E4023001D15148B5E451485B
:104D8000B3E401F0E9FB08B14F48AEE4BDF8BC0064
:104D900001F020FD80B9BDF8BC603046FBF7A4FFF0
:104DA0004A49FBF7F9FF01464948FCF7A9F8494B86
:104DB000314618604848D8E4421CDAD00230DED1CF
:104DC000464892E420A801F023FD9DF887109DF845
:104DD00086600191BDF88410414800914149BDF8B9
:104DE0008230002E08BF0146BDF880203E48FFF704
:104DF00083F97AE51A4B93F90030002BC4D123785C
:104E0000002BC1D101F0A8FB01460028BCD1374BD3
:104E10003422184602F056FB01220270052202716C
:104E2000334862E4AFF3008000000000006AF840FD
:104E300008040020E8030020000C0140F0030020DB
:104E40004C000020480000201004002074030020C3
:104E500011040020780300201C04002083B0000807
:104E600080030020F80300209C030020880300201A
:104E7000008076400000E03E950300209FB00008CF
:104E8000A00300200000964400C09240A9B0000892
:104E90000000F03F700000206F12833AC2B000089B
:104EA0000050C347CEB000087C030020E6B00008E5
:104EB000F2B0000830B100083EB10008FFB00008B1
:104EC0000FB100081DB100084EB1000800004843B2
:104ED0000000B443080000206AB1000878B100085F
:104EE0008EAF000897AF0008A1B10008AC03002006
:104EF000D1B10008A848FFF7F8BB0B701999042935
:104F00003FF425AD9A4634E5239F3846FEF7AFFFC0
:104F10004BF68033D8F800200028A5EB0202B2FB44
:104F2000F3F2B8BF4042C1176AB1142A28BF142255
:104F300040F24443A2FB032382428B41974B04DBA4
:104F4000C8F800500EE50122F2E793F80080B8F1AE
:104F5000000F32D0924B38461968FEF788FF914B0C
:104F600000281A684BF68033A5EB0202B2FBF3F27D
:104F7000B8BF4042C117F2B1142A28BF142240F230
:104F80004443A2FB032382428B41ACBF08F10108DA
:104F9000DDF86080814BA8BF5FFA88F883F8008055
:104FA0007F4B1F607F4B1D607C4B1A78022A07D90C
:104FB0007D4A1560D6E40122E1E701221A70EFE78D
:104FC0007A4A4FF0000A1368013313600122784BCC
:104FD0001A70CEE44FF0000AFAE40023C8F800305B
:104FE000744B93F90050002D47D0734B73491868E8
:104FF000FBF7D2FE06462846FBF77AFE014630460E
:10500000FBF7CAFE00220021FEF7B2FF0546FFF7BC
:1050100029F82846FBF712FA694DCDE91601D5E9C2
:105020000023FBF7ADF858A3D3E9002306460F464B
:10503000C5E90067FBF7EAFCDFF8988180B954A363
:10504000D3E9002330463946FBF7C2FC40B9D8E922
:105050000001DDE91623FBF793F8C8E90001C3E47A
:1050600000220023C8E90023C5E90023554A564B16
:1050700012681A6000225A60B6E49BF80030002BD8
:1050800040F01881BAF1000F00F00B814E4FDFF8AD
:105090006491D7E90001FBF7FBF900224B4BFBF7CA
:1050A00025FA00224A4BFBF721FA0B4649490246F2
:1050B000D1E90001FBF762F8FBF710FD464906460F
:1050C000FCF726F820B945493046FCF703F800B351
:1050D00001253A4A3146424889F8005000F083FCE5
:1050E0002A463146FEF744FF0546FEF7BBFF23780C
:1050F000012B7FF479AC00212846FBF7E1FF024643
:1051000000287FF471AC4FF400713648FCF754FC72
:105110006AE499F80050002D72D033493046FBF70D
:10512000F7FF28B931493046FBF7D4FF002863D098
:105130002F4B30461968FBF7E3FEFCF709F80546EC
:1051400040B900213046FBF7E3FF002814BF0125DA
:105150004FF0FF352278012A05D100224FF400716B
:105160002048FCF729FC284601F0B6FA2846FBF750
:10517000BFFD1F4B55461968FBF70EFEC8F800002F
:105180003BE000BFAFF3008000000000D01263419D
:1051900000000000D01263C1DBB1000880040020D1
:1051A0007C0400208404002078040020A803002050
:1051B0009403002080030020700000206F12833AC7
:1051C000A0030020440000208803002000807640D7
:1051D0000000E03E08040020CDCC4C3DCDCC4CBDC1
:1051E0004C000020000C01400AD7A33C0AD7A3BC06
:1051F00008000020180400200546002389F800302C
:10520000674B1A78002A32D000221A700022914689
:10521000644B65491B681A4698464B46C7E900230C
:10522000002200234046C1E900234946FBF776FDF2
:105230005E49FBF7B1FD4FF05C51FBF7ADFD5C49FA
:105240000646FBF765FF28B1B8F5003849F1FF398C
:10525000C7E9008957493046FBF73CFF38B1D7E929
:10526000002312F5003043F10001C7E90001227864
:10527000012A0FD14FF400714F48FCF79DFB4A4BB8
:105280000022D3E900014D4BC3E900010223237042
:105290004B4B1A800DB901F057F9FEF75DFEFFF791
:1052A000A3BB484B1B68132B7FF69EAB01F04CF958
:1052B000FFF79ABB012B7FF497AB3B4E424DD6E9EB
:1052C0000001D5E90023FAF759FFFBF707FC3F4936
:1052D0000746FBF71DFF20B93D493846FBF7FAFEAC
:1052E00010B3012239463846FEF742FE0646FEF765
:1052F000B9FE2378012B0AD100213046FBF7E0FEEE
:10530000024620B94FF400712B48FCF755FB30469C
:10531000FBF794F802460B46D5E90001FAF730FF97
:10532000C5E90001FFF760BB1D4B1A7822B3187066
:105330001C4B1868FBF7D8FC1C49FBF72DFD4FF000
:105340005C51FBF729FD1A490746FBF7E1FE20B146
:1053500038461649FBF716FC074616493846FBF750
:10536000B9FE20B138461149FBF70EFC0746384616
:10537000FBF764F8C5E900012278012A96D14FF4C1
:1053800000710D48FCF718FBD6E900010B4B002219
:10539000C3E9000102232370094B1A8086E700BF8E
:1053A0009503002044000020080400200000B443BE
:1053B00000003443000034C3000C0140E803002027
:1053C000F003002090030020A0030020CDCC4C3D32
:1053D000CDCC4CBDBAF1000F0CD09748974B057857
:1053E000D3E900239649002D40F095800125C1E9BD
:1053F00000230570934B00211D682846FBF76AFEC9
:1054000008B105F1004500212846FBF781FE8E4FCB
:10541000002800F0A180DFF838822946D8F8000083
:10542000FBF7B2FB0023C8F800003B80874B884F96
:105430001D68D7F8008001351D6086494046FBF79E
:105440005DFE38B1844B85491868FBF743FE08B10F
:10545000C72D17D84FF07E514046FBF73BFE002882
:105460007FF4D8AA4FF07A514046FBF795FC7A4B6F
:105470001968FBF739FE00287FF4CAAAB5F57A7FD0
:10548000FFF4C8AA0025764B25701D70754BDFF818
:1054900008821D70744B1D70744B1D7001F054F820
:1054A000284601F035F8FEF757FD644BD3E90001BB
:1054B000FAF7EEFF00226E4BFBF718F86D4B002257
:1054C000FBF714F82A46C8E900014FF400716A4856
:1054D000FCF772FAD8E90023CDE904235E4B186883
:1054E000FAF7ACFFCDE902013868FAF7A7FF634A83
:1054F000CDE900014021624802F03CFC6048FAF727
:1055000031FE81B25E4800F033FE00287FF480AAAD
:105510003070FFF77DBAD1E90078D21B63EB080346
:1055200019461046FBF7FAFB5649FBF735FC4FF0DE
:105530005C51FBF731FC00210546FBF7CBFD08B1C0
:1055400005F10045444F29463868FBF7C3FD0028A4
:105550003FF450AF3D604DE73B8801339BB2632B76
:105560003B807FF663AFFFF753BA474BFFF70EBBA5
:10557000464B93F900804046FBF7BAFB2946FBF700
:105580000BFCFAF75BFFDDE91623FAF7F9FDB8F13A
:10559000000FCDE91A0106460F4626DD3C4BD3F835
:1055A00000B05846FAF74AFF8046894602460B4645
:1055B000DDE91A01FBF72AFA00283FF4F3AADDE936
:1055C000160142464B46FBF717FA20B158462946CA
:1055D000FBF7D8FA83465846FAF730FFFF22064613
:1055E0000F462A4B1A70FFF7DDBA3FF4DBAA294BAE
:1055F000D3F800B05846FAF721FF804689460246A4
:105600000B46DDE91A01FBF7E3F900283FF4CAAACB
:10561000DDE9160142464B46FBF7E4F920B1584656
:105620002946FBF7B1FA83465846FAF707FF174BAE
:1056300006460F460122D5E7B0040020880300206B
:10564000F804002098030020B20400200005002088
:10565000AC04002000007041F40400200000A040D1
:105660000C00002080030020F80300209503002098
:10567000008076400000E03E000C0140E9B10008E7
:10568000B40400200000B4430000E0BF6C00002020
:10569000F4030020FC0300200804002000231380F2
:1056A0005B4B1D78002D75D15A4BD3E90001FAF7F9
:1056B000EFFE0022584BFAF719FF0022574BFAF77A
:1056C00015FF80468946BAF1000F06D1544B1B786E
:1056D000002B199B14BF06241C46002E5ED0514B94
:1056E0004246D3E900674B4630463946FAF746FD55
:1056F0004D4BCDE916011868FAF7A0FE02460B469D
:105700004A484B49CDE91A23002D14BF05460D46E2
:105710004849DFF844A1096815914749096814917F
:1057200046490868FAF78AFECDE91201444908683B
:10573000FAF784FECDE91001DAF80800FAF77EFEE8
:10574000CDE90E01DAF80400FAF778FECDE90C0194
:10575000DAF80000FAF772FEDDE91A23CDE90A0152
:10576000CDE90623CDE90854DDE91634CDE9026719
:10577000CDE90434CDE90089324AA02130A802F0F5
:10578000F9FA9F28A8BF9F2081B230A8FEF7A4FC99
:10579000FFF731BA2C4BD3E9008994E70294CDE9A5
:1057A00000892A4AA02130A802F0E4FAE9E70023A0
:1057B0004FF4005126481360FCF703F9FFF729BAAC
:1057C0001995002E7FF4E3A8224A9BF800A01368E5
:1057D00001331360BAF1000F7FF4FCABB3F5FA7F2D
:1057E000FFF4F6A801238BF800300A4BD3E900013F
:1057F000FAF74EFE0022084BFAF778FE074B00221C
:10580000FAF774FE104BC3E90001FFF7E1B800BFDF
:105810009C03002088030020008076400000E03ECA
:105820009403002008040020980300209FAF000884
:105830009CAF000884030020A80300207C03002004
:105840007000002011B20008A003002072B200080E
:1058500000100140900300204C0000200268084B1B
:1058600082B09A420AD103F50233DA6942F00402A7
:10587000DA61DB6903F004030193019B02B0704716
:1058800000080040036882B0B3F1804F0CD103F5EB
:105890000433DA6942F00102DA61DB6903F00103E3
:1058A0000093009B02B07047064A9342FAD1064B20
:1058B000DA6942F00402DA61DB6903F00403019360
:1058C000019BEFE700080040001002400268064913
:1058D00003468A4203D0A1F570418A4202D118469C
:1058E00000F012BA01F0C2B800380140026806495F
:1058F00003468A4203D0A1F570418A4202D118467C
:1059000000F002BB01F0E8B800380140FBF7D8BC5A
:105910000148FCF7A5BE00BF28040020036810B5AD
:10592000B3F1804F3AD1214C23785BB1FDF7B6FF3C
:1059300040B91F4A13780133DBB2042B137001D92D
:10594000FDF7C8FF237893B1FDF7A8FF68B11948A8
:10595000FDF7AAFF184B1870184B1A68184B1A60FD
:105960000122184B1A7000232370237893B9164B29
:105970005A68124B1A60FDF773FF00280CBF012311
:1059800000234FF000022370094B1A701EBF012242
:105990000E4B1A7001220E4B1A7010BD0D4A934225
:1059A000FBD1BDE8104000F02FBE00BF7004002006
:1059B000710400209004002074000020880400205E
:1059C000A80400208D040020001000E08C040020BA
:1059D000040500200008004020B10023C3600361DB
:1059E0000023037770472DE9F0470D46174604461C
:1059F00000285FD000211046FBF776FB002859D124
:105A000029463846FBF7C8F9E1688146FBF7BCF840
:105A1000237F0646E060002B48D021692846FBF72B
:105A2000B1F83946FBF76CFA074601232561237765
:105A300021682846FBF7B0F9D4F8048005464146B2
:105A40003046FBF7A9F901462846FBF79DF8A16807
:105A500005463846FBF7A0F901462846FBF794F8BF
:105A60006769054601463846FBF752FB00BBD4F890
:105A700018A029465046FBF72DFB00B155460021E2
:105A80004046FBF71DFB70B929463846FBF718FB6B
:105A900020B92946A069FBF713FB20B149463046DF
:105AA000FBF770F8E0602846BDE8F0870027BCE708
:105AB0003D46E4E70025F6E7074A084913880988C8
:105AC000013303F07F03994210B504D01188044CD0
:105AD00089B26054138010BD06050020880500209F
